{
	"openzeppelin-contracts-master/gota.sol": {
		"NFTMarketplace": {
			"abi": [
				{
					"inputs": [
						{
							"internalType": "address",
							"name": "_platformFeeWallet",
							"type": "address"
						},
						{
							"internalType": "address",
							"name": "_royaltiesFeeWallet",
							"type": "address"
						}
					],
					"stateMutability": "nonpayable",
					"type": "constructor"
				},
				{
					"inputs": [
						{
							"internalType": "address",
							"name": "owner",
							"type": "address"
						}
					],
					"name": "OwnableInvalidOwner",
					"type": "error"
				},
				{
					"inputs": [
						{
							"internalType": "address",
							"name": "account",
							"type": "address"
						}
					],
					"name": "OwnableUnauthorizedAccount",
					"type": "error"
				},
				{
					"anonymous": false,
					"inputs": [
						{
							"indexed": false,
							"internalType": "uint256",
							"name": "listingId",
							"type": "uint256"
						}
					],
					"name": "ListingCancelled",
					"type": "event"
				},
				{
					"anonymous": false,
					"inputs": [
						{
							"indexed": false,
							"internalType": "uint256",
							"name": "listingId",
							"type": "uint256"
						},
						{
							"indexed": true,
							"internalType": "address",
							"name": "nftContract",
							"type": "address"
						},
						{
							"indexed": true,
							"internalType": "uint256",
							"name": "tokenId",
							"type": "uint256"
						},
						{
							"indexed": false,
							"internalType": "uint256",
							"name": "price",
							"type": "uint256"
						},
						{
							"indexed": false,
							"internalType": "bool",
							"name": "isAuction",
							"type": "bool"
						},
						{
							"indexed": false,
							"internalType": "uint256",
							"name": "expiresAt",
							"type": "uint256"
						}
					],
					"name": "ListingCreated",
					"type": "event"
				},
				{
					"anonymous": false,
					"inputs": [
						{
							"indexed": false,
							"internalType": "uint256",
							"name": "listingId",
							"type": "uint256"
						},
						{
							"indexed": true,
							"internalType": "address",
							"name": "buyer",
							"type": "address"
						},
						{
							"indexed": false,
							"internalType": "uint256",
							"name": "price",
							"type": "uint256"
						}
					],
					"name": "NFTSold",
					"type": "event"
				},
				{
					"anonymous": false,
					"inputs": [
						{
							"indexed": true,
							"internalType": "address",
							"name": "previousOwner",
							"type": "address"
						},
						{
							"indexed": true,
							"internalType": "address",
							"name": "newOwner",
							"type": "address"
						}
					],
					"name": "OwnershipTransferred",
					"type": "event"
				},
				{
					"anonymous": false,
					"inputs": [
						{
							"indexed": false,
							"internalType": "uint256",
							"name": "newPercentage",
							"type": "uint256"
						}
					],
					"name": "PlatformFeePercentageUpdated",
					"type": "event"
				},
				{
					"inputs": [
						{
							"internalType": "uint256",
							"name": "listingId",
							"type": "uint256"
						}
					],
					"name": "buyListing",
					"outputs": [],
					"stateMutability": "payable",
					"type": "function"
				},
				{
					"inputs": [
						{
							"internalType": "uint256",
							"name": "listingId",
							"type": "uint256"
						}
					],
					"name": "cancelListing",
					"outputs": [],
					"stateMutability": "nonpayable",
					"type": "function"
				},
				{
					"inputs": [
						{
							"internalType": "address",
							"name": "nftContract",
							"type": "address"
						},
						{
							"internalType": "uint256",
							"name": "tokenId",
							"type": "uint256"
						},
						{
							"internalType": "uint256",
							"name": "price",
							"type": "uint256"
						},
						{
							"internalType": "bool",
							"name": "isAuction",
							"type": "bool"
						},
						{
							"internalType": "uint256",
							"name": "duration",
							"type": "uint256"
						}
					],
					"name": "createListing",
					"outputs": [],
					"stateMutability": "nonpayable",
					"type": "function"
				},
				{
					"inputs": [],
					"name": "getActiveListings",
					"outputs": [
						{
							"internalType": "uint256[]",
							"name": "",
							"type": "uint256[]"
						}
					],
					"stateMutability": "view",
					"type": "function"
				},
				{
					"inputs": [
						{
							"internalType": "uint256",
							"name": "",
							"type": "uint256"
						}
					],
					"name": "listings",
					"outputs": [
						{
							"internalType": "address",
							"name": "nftContract",
							"type": "address"
						},
						{
							"internalType": "uint256",
							"name": "tokenId",
							"type": "uint256"
						},
						{
							"internalType": "uint256",
							"name": "price",
							"type": "uint256"
						},
						{
							"internalType": "bool",
							"name": "isAuction",
							"type": "bool"
						},
						{
							"internalType": "bool",
							"name": "isActive",
							"type": "bool"
						},
						{
							"internalType": "uint256",
							"name": "expiresAt",
							"type": "uint256"
						}
					],
					"stateMutability": "view",
					"type": "function"
				},
				{
					"inputs": [],
					"name": "nextListingId",
					"outputs": [
						{
							"internalType": "uint256",
							"name": "",
							"type": "uint256"
						}
					],
					"stateMutability": "view",
					"type": "function"
				},
				{
					"inputs": [],
					"name": "owner",
					"outputs": [
						{
							"internalType": "address",
							"name": "",
							"type": "address"
						}
					],
					"stateMutability": "view",
					"type": "function"
				},
				{
					"inputs": [],
					"name": "platformFeePercentage",
					"outputs": [
						{
							"internalType": "uint256",
							"name": "",
							"type": "uint256"
						}
					],
					"stateMutability": "view",
					"type": "function"
				},
				{
					"inputs": [],
					"name": "platformFeeWallet",
					"outputs": [
						{
							"internalType": "address",
							"name": "",
							"type": "address"
						}
					],
					"stateMutability": "view",
					"type": "function"
				},
				{
					"inputs": [],
					"name": "renounceOwnership",
					"outputs": [],
					"stateMutability": "nonpayable",
					"type": "function"
				},
				{
					"inputs": [],
					"name": "royaltiesFeePercentage",
					"outputs": [
						{
							"internalType": "uint256",
							"name": "",
							"type": "uint256"
						}
					],
					"stateMutability": "view",
					"type": "function"
				},
				{
					"inputs": [],
					"name": "royaltiesFeeWallet",
					"outputs": [
						{
							"internalType": "address",
							"name": "",
							"type": "address"
						}
					],
					"stateMutability": "view",
					"type": "function"
				},
				{
					"inputs": [
						{
							"internalType": "uint256",
							"name": "newPercentage",
							"type": "uint256"
						}
					],
					"name": "setPlatformFeePercentage",
					"outputs": [],
					"stateMutability": "nonpayable",
					"type": "function"
				},
				{
					"inputs": [
						{
							"internalType": "address",
							"name": "newOwner",
							"type": "address"
						}
					],
					"name": "transferOwnership",
					"outputs": [],
					"stateMutability": "nonpayable",
					"type": "function"
				}
			],
			"devdoc": {
				"errors": {
					"OwnableInvalidOwner(address)": [
						{
							"details": "The owner is not a valid owner account. (eg. `address(0)`)"
						}
					],
					"OwnableUnauthorizedAccount(address)": [
						{
							"details": "The caller account is not authorized to perform an operation."
						}
					]
				},
				"kind": "dev",
				"methods": {
					"owner()": {
						"details": "Returns the address of the current owner."
					},
					"renounceOwnership()": {
						"details": "Leaves the contract without owner. It will not be possible to call `onlyOwner` functions. Can only be called by the current owner. NOTE: Renouncing ownership will leave the contract without an owner, thereby disabling any functionality that is only available to the owner."
					},
					"transferOwnership(address)": {
						"details": "Transfers ownership of the contract to a new account (`newOwner`). Can only be called by the current owner."
					}
				},
				"version": 1
			},
			"evm": {
				"assembly": "    /* \"openzeppelin-contracts-master/gota.sol\":299:4684  contract NFTMarketplace is Ownable {... */\n  mstore(0x40, 0x80)\n    /* \"openzeppelin-contracts-master/gota.sol\":641:642  5 */\n  0x05\n    /* \"openzeppelin-contracts-master/gota.sol\":602:642  uint256 public platformFeePercentage = 5 */\n  0x03\n  sstore\n    /* \"openzeppelin-contracts-master/gota.sol\":688:689  5 */\n  0x05\n    /* \"openzeppelin-contracts-master/gota.sol\":648:689  uint256 public royaltiesFeePercentage = 5 */\n  0x04\n  sstore\n    /* \"openzeppelin-contracts-master/gota.sol\":1305:1499  constructor(address _platformFeeWallet, address _royaltiesFeeWallet) Ownable(msg.sender) {... */\n  callvalue\n  dup1\n  iszero\n  tag_1\n  jumpi\n  0x00\n  dup1\n  revert\ntag_1:\n  pop\n  mload(0x40)\n  sub(codesize, bytecodeSize)\n  dup1\n  bytecodeSize\n  dup4\n  codecopy\n  dup2\n  dup2\n  add\n  0x40\n  mstore\n  dup2\n  add\n  swap1\n  tag_2\n  swap2\n  swap1\n  tag_3\n  jump\t// in\ntag_2:\n    /* \"openzeppelin-contracts-master/gota.sol\":1382:1392  msg.sender */\n  caller\n    /* \"openzeppelin-contracts-master/contracts/access/Ownable.sol\":1297:1298  0 */\n  0x00\n    /* \"openzeppelin-contracts-master/contracts/access/Ownable.sol\":1273:1299  initialOwner == address(0) */\n  0xffffffffffffffffffffffffffffffffffffffff\n  and\n    /* \"openzeppelin-contracts-master/contracts/access/Ownable.sol\":1273:1285  initialOwner */\n  dup2\n    /* \"openzeppelin-contracts-master/contracts/access/Ownable.sol\":1273:1299  initialOwner == address(0) */\n  0xffffffffffffffffffffffffffffffffffffffff\n  and\n  sub\n    /* \"openzeppelin-contracts-master/contracts/access/Ownable.sol\":1269:1364  if (initialOwner == address(0)) {... */\n  tag_7\n  jumpi\n    /* \"openzeppelin-contracts-master/contracts/access/Ownable.sol\":1350:1351  0 */\n  0x00\n    /* \"openzeppelin-contracts-master/contracts/access/Ownable.sol\":1322:1353  OwnableInvalidOwner(address(0)) */\n  mload(0x40)\n  0x1e4fbdf700000000000000000000000000000000000000000000000000000000\n  dup2\n  mstore\n  0x04\n  add\n  tag_8\n  swap2\n  swap1\n  tag_9\n  jump\t// in\ntag_8:\n  mload(0x40)\n  dup1\n  swap2\n  sub\n  swap1\n  revert\n    /* \"openzeppelin-contracts-master/contracts/access/Ownable.sol\":1269:1364  if (initialOwner == address(0)) {... */\ntag_7:\n    /* \"openzeppelin-contracts-master/contracts/access/Ownable.sol\":1373:1405  _transferOwnership(initialOwner) */\n  tag_10\n    /* \"openzeppelin-contracts-master/contracts/access/Ownable.sol\":1392:1404  initialOwner */\n  dup2\n    /* \"openzeppelin-contracts-master/contracts/access/Ownable.sol\":1373:1391  _transferOwnership */\n  shl(0x20, tag_11)\n    /* \"openzeppelin-contracts-master/contracts/access/Ownable.sol\":1373:1405  _transferOwnership(initialOwner) */\n  0x20\n  shr\n  jump\t// in\ntag_10:\n    /* \"openzeppelin-contracts-master/contracts/access/Ownable.sol\":1225:1412  constructor(address initialOwner) {... */\n  pop\n    /* \"openzeppelin-contracts-master/gota.sol\":1424:1442  _platformFeeWallet */\n  dup2\n    /* \"openzeppelin-contracts-master/gota.sol\":1404:1421  platformFeeWallet */\n  0x05\n  0x00\n    /* \"openzeppelin-contracts-master/gota.sol\":1404:1442  platformFeeWallet = _platformFeeWallet */\n  0x0100\n  exp\n  dup2\n  sload\n  dup2\n  0xffffffffffffffffffffffffffffffffffffffff\n  mul\n  not\n  and\n  swap1\n  dup4\n  0xffffffffffffffffffffffffffffffffffffffff\n  and\n  mul\n  or\n  swap1\n  sstore\n  pop\n    /* \"openzeppelin-contracts-master/gota.sol\":1473:1492  _royaltiesFeeWallet */\n  dup1\n    /* \"openzeppelin-contracts-master/gota.sol\":1452:1470  royaltiesFeeWallet */\n  0x06\n  0x00\n    /* \"openzeppelin-contracts-master/gota.sol\":1452:1492  royaltiesFeeWallet = _royaltiesFeeWallet */\n  0x0100\n  exp\n  dup2\n  sload\n  dup2\n  0xffffffffffffffffffffffffffffffffffffffff\n  mul\n  not\n  and\n  swap1\n  dup4\n  0xffffffffffffffffffffffffffffffffffffffff\n  and\n  mul\n  or\n  swap1\n  sstore\n  pop\n    /* \"openzeppelin-contracts-master/gota.sol\":1305:1499  constructor(address _platformFeeWallet, address _royaltiesFeeWallet) Ownable(msg.sender) {... */\n  pop\n  pop\n    /* \"openzeppelin-contracts-master/gota.sol\":299:4684  contract NFTMarketplace is Ownable {... */\n  jump(tag_13)\n    /* \"openzeppelin-contracts-master/contracts/access/Ownable.sol\":2912:3099  function _transferOwnership(address newOwner) internal virtual {... */\ntag_11:\n    /* \"openzeppelin-contracts-master/contracts/access/Ownable.sol\":2985:3001  address oldOwner */\n  0x00\n    /* \"openzeppelin-contracts-master/contracts/access/Ownable.sol\":3004:3010  _owner */\n  dup1\n  0x00\n  swap1\n  sload\n  swap1\n  0x0100\n  exp\n  swap1\n  div\n  0xffffffffffffffffffffffffffffffffffffffff\n  and\n    /* \"openzeppelin-contracts-master/contracts/access/Ownable.sol\":2985:3010  address oldOwner = _owner */\n  swap1\n  pop\n    /* \"openzeppelin-contracts-master/contracts/access/Ownable.sol\":3029:3037  newOwner */\n  dup2\n    /* \"openzeppelin-contracts-master/contracts/access/Ownable.sol\":3020:3026  _owner */\n  0x00\n  dup1\n    /* \"openzeppelin-contracts-master/contracts/access/Ownable.sol\":3020:3037  _owner = newOwner */\n  0x0100\n  exp\n  dup2\n  sload\n  dup2\n  0xffffffffffffffffffffffffffffffffffffffff\n  mul\n  not\n  and\n  swap1\n  dup4\n  0xffffffffffffffffffffffffffffffffffffffff\n  and\n  mul\n  or\n  swap1\n  sstore\n  pop\n    /* \"openzeppelin-contracts-master/contracts/access/Ownable.sol\":3083:3091  newOwner */\n  dup2\n    /* \"openzeppelin-contracts-master/contracts/access/Ownable.sol\":3052:3092  OwnershipTransferred(oldOwner, newOwner) */\n  0xffffffffffffffffffffffffffffffffffffffff\n  and\n    /* \"openzeppelin-contracts-master/contracts/access/Ownable.sol\":3073:3081  oldOwner */\n  dup2\n    /* \"openzeppelin-contracts-master/contracts/access/Ownable.sol\":3052:3092  OwnershipTransferred(oldOwner, newOwner) */\n  0xffffffffffffffffffffffffffffffffffffffff\n  and\n  0x8be0079c531659141344cd1fd0a4f28419497f9722a3daafe3b4186f6b6457e0\n  mload(0x40)\n  mload(0x40)\n  dup1\n  swap2\n  sub\n  swap1\n  log3\n    /* \"openzeppelin-contracts-master/contracts/access/Ownable.sol\":2975:3099  {... */\n  pop\n    /* \"openzeppelin-contracts-master/contracts/access/Ownable.sol\":2912:3099  function _transferOwnership(address newOwner) internal virtual {... */\n  pop\n  jump\t// out\n    /* \"#utility.yul\":88:205   */\ntag_16:\n    /* \"#utility.yul\":197:198   */\n  0x00\n    /* \"#utility.yul\":194:195   */\n  dup1\n    /* \"#utility.yul\":187:199   */\n  revert\n    /* \"#utility.yul\":334:460   */\ntag_18:\n    /* \"#utility.yul\":371:378   */\n  0x00\n    /* \"#utility.yul\":411:453   */\n  0xffffffffffffffffffffffffffffffffffffffff\n    /* \"#utility.yul\":404:409   */\n  dup3\n    /* \"#utility.yul\":400:454   */\n  and\n    /* \"#utility.yul\":389:454   */\n  swap1\n  pop\n    /* \"#utility.yul\":334:460   */\n  swap2\n  swap1\n  pop\n  jump\t// out\n    /* \"#utility.yul\":466:562   */\ntag_19:\n    /* \"#utility.yul\":503:510   */\n  0x00\n    /* \"#utility.yul\":532:556   */\n  tag_29\n    /* \"#utility.yul\":550:555   */\n  dup3\n    /* \"#utility.yul\":532:556   */\n  tag_18\n  jump\t// in\ntag_29:\n    /* \"#utility.yul\":521:556   */\n  swap1\n  pop\n    /* \"#utility.yul\":466:562   */\n  swap2\n  swap1\n  pop\n  jump\t// out\n    /* \"#utility.yul\":568:690   */\ntag_20:\n    /* \"#utility.yul\":641:665   */\n  tag_31\n    /* \"#utility.yul\":659:664   */\n  dup2\n    /* \"#utility.yul\":641:665   */\n  tag_19\n  jump\t// in\ntag_31:\n    /* \"#utility.yul\":634:639   */\n  dup2\n    /* \"#utility.yul\":631:666   */\n  eq\n    /* \"#utility.yul\":621:684   */\n  tag_32\n  jumpi\n    /* \"#utility.yul\":680:681   */\n  0x00\n    /* \"#utility.yul\":677:678   */\n  dup1\n    /* \"#utility.yul\":670:682   */\n  revert\n    /* \"#utility.yul\":621:684   */\ntag_32:\n    /* \"#utility.yul\":568:690   */\n  pop\n  jump\t// out\n    /* \"#utility.yul\":696:839   */\ntag_21:\n    /* \"#utility.yul\":753:758   */\n  0x00\n    /* \"#utility.yul\":784:790   */\n  dup2\n    /* \"#utility.yul\":778:791   */\n  mload\n    /* \"#utility.yul\":769:791   */\n  swap1\n  pop\n    /* \"#utility.yul\":800:833   */\n  tag_34\n    /* \"#utility.yul\":827:832   */\n  dup2\n    /* \"#utility.yul\":800:833   */\n  tag_20\n  jump\t// in\ntag_34:\n    /* \"#utility.yul\":696:839   */\n  swap3\n  swap2\n  pop\n  pop\n  jump\t// out\n    /* \"#utility.yul\":845:1352   */\ntag_3:\n    /* \"#utility.yul\":924:930   */\n  0x00\n    /* \"#utility.yul\":932:938   */\n  dup1\n    /* \"#utility.yul\":981:983   */\n  0x40\n    /* \"#utility.yul\":969:978   */\n  dup4\n    /* \"#utility.yul\":960:967   */\n  dup6\n    /* \"#utility.yul\":956:979   */\n  sub\n    /* \"#utility.yul\":952:984   */\n  slt\n    /* \"#utility.yul\":949:1068   */\n  iszero\n  tag_36\n  jumpi\n    /* \"#utility.yul\":987:1066   */\n  tag_37\n  tag_16\n  jump\t// in\ntag_37:\n    /* \"#utility.yul\":949:1068   */\ntag_36:\n    /* \"#utility.yul\":1107:1108   */\n  0x00\n    /* \"#utility.yul\":1132:1196   */\n  tag_38\n    /* \"#utility.yul\":1188:1195   */\n  dup6\n    /* \"#utility.yul\":1179:1185   */\n  dup3\n    /* \"#utility.yul\":1168:1177   */\n  dup7\n    /* \"#utility.yul\":1164:1186   */\n  add\n    /* \"#utility.yul\":1132:1196   */\n  tag_21\n  jump\t// in\ntag_38:\n    /* \"#utility.yul\":1122:1196   */\n  swap3\n  pop\n    /* \"#utility.yul\":1078:1206   */\n  pop\n    /* \"#utility.yul\":1245:1247   */\n  0x20\n    /* \"#utility.yul\":1271:1335   */\n  tag_39\n    /* \"#utility.yul\":1327:1334   */\n  dup6\n    /* \"#utility.yul\":1318:1324   */\n  dup3\n    /* \"#utility.yul\":1307:1316   */\n  dup7\n    /* \"#utility.yul\":1303:1325   */\n  add\n    /* \"#utility.yul\":1271:1335   */\n  tag_21\n  jump\t// in\ntag_39:\n    /* \"#utility.yul\":1261:1335   */\n  swap2\n  pop\n    /* \"#utility.yul\":1216:1345   */\n  pop\n    /* \"#utility.yul\":845:1352   */\n  swap3\n  pop\n  swap3\n  swap1\n  pop\n  jump\t// out\n    /* \"#utility.yul\":1358:1476   */\ntag_22:\n    /* \"#utility.yul\":1445:1469   */\n  tag_41\n    /* \"#utility.yul\":1463:1468   */\n  dup2\n    /* \"#utility.yul\":1445:1469   */\n  tag_19\n  jump\t// in\ntag_41:\n    /* \"#utility.yul\":1440:1443   */\n  dup3\n    /* \"#utility.yul\":1433:1470   */\n  mstore\n    /* \"#utility.yul\":1358:1476   */\n  pop\n  pop\n  jump\t// out\n    /* \"#utility.yul\":1482:1704   */\ntag_9:\n    /* \"#utility.yul\":1575:1579   */\n  0x00\n    /* \"#utility.yul\":1613:1615   */\n  0x20\n    /* \"#utility.yul\":1602:1611   */\n  dup3\n    /* \"#utility.yul\":1598:1616   */\n  add\n    /* \"#utility.yul\":1590:1616   */\n  swap1\n  pop\n    /* \"#utility.yul\":1626:1697   */\n  tag_43\n    /* \"#utility.yul\":1694:1695   */\n  0x00\n    /* \"#utility.yul\":1683:1692   */\n  dup4\n    /* \"#utility.yul\":1679:1696   */\n  add\n    /* \"#utility.yul\":1670:1676   */\n  dup5\n    /* \"#utility.yul\":1626:1697   */\n  tag_22\n  jump\t// in\ntag_43:\n    /* \"#utility.yul\":1482:1704   */\n  swap3\n  swap2\n  pop\n  pop\n  jump\t// out\n    /* \"openzeppelin-contracts-master/gota.sol\":299:4684  contract NFTMarketplace is Ownable {... */\ntag_13:\n  dataSize(sub_0)\n  dup1\n  dataOffset(sub_0)\n  0x00\n  codecopy\n  0x00\n  return\nstop\n\nsub_0: assembly {\n        /* \"openzeppelin-contracts-master/gota.sol\":299:4684  contract NFTMarketplace is Ownable {... */\n      mstore(0x40, 0x80)\n      jumpi(tag_1, lt(calldatasize, 0x04))\n      shr(0xe0, calldataload(0x00))\n      dup1\n      0x8da5cb5b\n      gt\n      tag_16\n      jumpi\n      dup1\n      0xd9194bb2\n      gt\n      tag_17\n      jumpi\n      dup1\n      0xd9194bb2\n      eq\n      tag_12\n      jumpi\n      dup1\n      0xde74e57b\n      eq\n      tag_13\n      jumpi\n      dup1\n      0xe20fc118\n      eq\n      tag_14\n      jumpi\n      dup1\n      0xf2fde38b\n      eq\n      tag_15\n      jumpi\n      jump(tag_1)\n    tag_17:\n      dup1\n      0x8da5cb5b\n      eq\n      tag_9\n      jumpi\n      dup1\n      0xaaccf1ec\n      eq\n      tag_10\n      jumpi\n      dup1\n      0xcdd78cfc\n      eq\n      tag_11\n      jumpi\n      jump(tag_1)\n    tag_16:\n      dup1\n      0x4884f459\n      gt\n      tag_18\n      jumpi\n      dup1\n      0x4884f459\n      eq\n      tag_5\n      jumpi\n      dup1\n      0x715018a6\n      eq\n      tag_6\n      jumpi\n      dup1\n      0x8333903e\n      eq\n      tag_7\n      jumpi\n      dup1\n      0x87c35bc0\n      eq\n      tag_8\n      jumpi\n      jump(tag_1)\n    tag_18:\n      dup1\n      0x0d08a3a0\n      eq\n      tag_2\n      jumpi\n      dup1\n      0x1a5d63db\n      eq\n      tag_3\n      jumpi\n      dup1\n      0x305a67a8\n      eq\n      tag_4\n      jumpi\n    tag_1:\n      0x00\n      dup1\n      revert\n        /* \"openzeppelin-contracts-master/gota.sol\":733:766  address public royaltiesFeeWallet */\n    tag_2:\n      callvalue\n      dup1\n      iszero\n      tag_19\n      jumpi\n      0x00\n      dup1\n      revert\n    tag_19:\n      pop\n      tag_20\n      tag_21\n      jump\t// in\n    tag_20:\n      mload(0x40)\n      tag_22\n      swap2\n      swap1\n      tag_23\n      jump\t// in\n    tag_22:\n      mload(0x40)\n      dup1\n      swap2\n      sub\n      swap1\n      return\n        /* \"openzeppelin-contracts-master/gota.sol\":648:689  uint256 public royaltiesFeePercentage = 5 */\n    tag_3:\n      callvalue\n      dup1\n      iszero\n      tag_24\n      jumpi\n      0x00\n      dup1\n      revert\n    tag_24:\n      pop\n      tag_25\n      tag_26\n      jump\t// in\n    tag_25:\n      mload(0x40)\n      tag_27\n      swap2\n      swap1\n      tag_28\n      jump\t// in\n    tag_27:\n      mload(0x40)\n      dup1\n      swap2\n      sub\n      swap1\n      return\n        /* \"openzeppelin-contracts-master/gota.sol\":2724:3204  function cancelListing(uint256 listingId) external {... */\n    tag_4:\n      callvalue\n      dup1\n      iszero\n      tag_29\n      jumpi\n      0x00\n      dup1\n      revert\n    tag_29:\n      pop\n      tag_30\n      0x04\n      dup1\n      calldatasize\n      sub\n      dup2\n      add\n      swap1\n      tag_31\n      swap2\n      swap1\n      tag_32\n      jump\t// in\n    tag_31:\n      tag_33\n      jump\t// in\n    tag_30:\n      stop\n        /* \"openzeppelin-contracts-master/gota.sol\":3210:4133  function buyListing(uint256 listingId) external payable {... */\n    tag_5:\n      tag_34\n      0x04\n      dup1\n      calldatasize\n      sub\n      dup2\n      add\n      swap1\n      tag_35\n      swap2\n      swap1\n      tag_32\n      jump\t// in\n    tag_35:\n      tag_36\n      jump\t// in\n    tag_34:\n      stop\n        /* \"openzeppelin-contracts-master/contracts/access/Ownable.sol\":2293:2394  function renounceOwnership() public virtual onlyOwner {... */\n    tag_6:\n      callvalue\n      dup1\n      iszero\n      tag_37\n      jumpi\n      0x00\n      dup1\n      revert\n    tag_37:\n      pop\n      tag_38\n      tag_39\n      jump\t// in\n    tag_38:\n      stop\n        /* \"openzeppelin-contracts-master/gota.sol\":1505:1772  function setPlatformFeePercentage(uint256 newPercentage) external onlyOwner {... */\n    tag_7:\n      callvalue\n      dup1\n      iszero\n      tag_40\n      jumpi\n      0x00\n      dup1\n      revert\n    tag_40:\n      pop\n      tag_41\n      0x04\n      dup1\n      calldatasize\n      sub\n      dup2\n      add\n      swap1\n      tag_42\n      swap2\n      swap1\n      tag_32\n      jump\t// in\n    tag_42:\n      tag_43\n      jump\t// in\n    tag_41:\n      stop\n        /* \"openzeppelin-contracts-master/gota.sol\":4139:4682  function getActiveListings() external view returns (uint256[] memory) {... */\n    tag_8:\n      callvalue\n      dup1\n      iszero\n      tag_44\n      jumpi\n      0x00\n      dup1\n      revert\n    tag_44:\n      pop\n      tag_45\n      tag_46\n      jump\t// in\n    tag_45:\n      mload(0x40)\n      tag_47\n      swap2\n      swap1\n      tag_48\n      jump\t// in\n    tag_47:\n      mload(0x40)\n      dup1\n      swap2\n      sub\n      swap1\n      return\n        /* \"openzeppelin-contracts-master/contracts/access/Ownable.sol\":1638:1723  function owner() public view virtual returns (address) {... */\n    tag_9:\n      callvalue\n      dup1\n      iszero\n      tag_49\n      jumpi\n      0x00\n      dup1\n      revert\n    tag_49:\n      pop\n      tag_50\n      tag_51\n      jump\t// in\n    tag_50:\n      mload(0x40)\n      tag_52\n      swap2\n      swap1\n      tag_23\n      jump\t// in\n    tag_52:\n      mload(0x40)\n      dup1\n      swap2\n      sub\n      swap1\n      return\n        /* \"openzeppelin-contracts-master/gota.sol\":568:596  uint256 public nextListingId */\n    tag_10:\n      callvalue\n      dup1\n      iszero\n      tag_53\n      jumpi\n      0x00\n      dup1\n      revert\n    tag_53:\n      pop\n      tag_54\n      tag_55\n      jump\t// in\n    tag_54:\n      mload(0x40)\n      tag_56\n      swap2\n      swap1\n      tag_28\n      jump\t// in\n    tag_56:\n      mload(0x40)\n      dup1\n      swap2\n      sub\n      swap1\n      return\n        /* \"openzeppelin-contracts-master/gota.sol\":602:642  uint256 public platformFeePercentage = 5 */\n    tag_11:\n      callvalue\n      dup1\n      iszero\n      tag_57\n      jumpi\n      0x00\n      dup1\n      revert\n    tag_57:\n      pop\n      tag_58\n      tag_59\n      jump\t// in\n    tag_58:\n      mload(0x40)\n      tag_60\n      swap2\n      swap1\n      tag_28\n      jump\t// in\n    tag_60:\n      mload(0x40)\n      dup1\n      swap2\n      sub\n      swap1\n      return\n        /* \"openzeppelin-contracts-master/gota.sol\":1778:2718  function createListing(address nftContract, uint256 tokenId, uint256 price, bool isAuction, uint256 duration) external {... */\n    tag_12:\n      callvalue\n      dup1\n      iszero\n      tag_61\n      jumpi\n      0x00\n      dup1\n      revert\n    tag_61:\n      pop\n      tag_62\n      0x04\n      dup1\n      calldatasize\n      sub\n      dup2\n      add\n      swap1\n      tag_63\n      swap2\n      swap1\n      tag_64\n      jump\t// in\n    tag_63:\n      tag_65\n      jump\t// in\n    tag_62:\n      stop\n        /* \"openzeppelin-contracts-master/gota.sol\":519:562  mapping(uint256 => Listing) public listings */\n    tag_13:\n      callvalue\n      dup1\n      iszero\n      tag_66\n      jumpi\n      0x00\n      dup1\n      revert\n    tag_66:\n      pop\n      tag_67\n      0x04\n      dup1\n      calldatasize\n      sub\n      dup2\n      add\n      swap1\n      tag_68\n      swap2\n      swap1\n      tag_32\n      jump\t// in\n    tag_68:\n      tag_69\n      jump\t// in\n    tag_67:\n      mload(0x40)\n      tag_70\n      swap7\n      swap6\n      swap5\n      swap4\n      swap3\n      swap2\n      swap1\n      tag_71\n      jump\t// in\n    tag_70:\n      mload(0x40)\n      dup1\n      swap2\n      sub\n      swap1\n      return\n        /* \"openzeppelin-contracts-master/gota.sol\":695:727  address public platformFeeWallet */\n    tag_14:\n      callvalue\n      dup1\n      iszero\n      tag_72\n      jumpi\n      0x00\n      dup1\n      revert\n    tag_72:\n      pop\n      tag_73\n      tag_74\n      jump\t// in\n    tag_73:\n      mload(0x40)\n      tag_75\n      swap2\n      swap1\n      tag_23\n      jump\t// in\n    tag_75:\n      mload(0x40)\n      dup1\n      swap2\n      sub\n      swap1\n      return\n        /* \"openzeppelin-contracts-master/contracts/access/Ownable.sol\":2543:2758  function transferOwnership(address newOwner) public virtual onlyOwner {... */\n    tag_15:\n      callvalue\n      dup1\n      iszero\n      tag_76\n      jumpi\n      0x00\n      dup1\n      revert\n    tag_76:\n      pop\n      tag_77\n      0x04\n      dup1\n      calldatasize\n      sub\n      dup2\n      add\n      swap1\n      tag_78\n      swap2\n      swap1\n      tag_79\n      jump\t// in\n    tag_78:\n      tag_80\n      jump\t// in\n    tag_77:\n      stop\n        /* \"openzeppelin-contracts-master/gota.sol\":733:766  address public royaltiesFeeWallet */\n    tag_21:\n      0x06\n      0x00\n      swap1\n      sload\n      swap1\n      0x0100\n      exp\n      swap1\n      div\n      0xffffffffffffffffffffffffffffffffffffffff\n      and\n      dup2\n      jump\t// out\n        /* \"openzeppelin-contracts-master/gota.sol\":648:689  uint256 public royaltiesFeePercentage = 5 */\n    tag_26:\n      sload(0x04)\n      dup2\n      jump\t// out\n        /* \"openzeppelin-contracts-master/gota.sol\":2724:3204  function cancelListing(uint256 listingId) external {... */\n    tag_33:\n        /* \"openzeppelin-contracts-master/gota.sol\":2785:2808  Listing storage listing */\n      0x00\n        /* \"openzeppelin-contracts-master/gota.sol\":2811:2819  listings */\n      0x01\n        /* \"openzeppelin-contracts-master/gota.sol\":2811:2830  listings[listingId] */\n      0x00\n        /* \"openzeppelin-contracts-master/gota.sol\":2820:2829  listingId */\n      dup4\n        /* \"openzeppelin-contracts-master/gota.sol\":2811:2830  listings[listingId] */\n      dup2\n      mstore\n      0x20\n      add\n      swap1\n      dup2\n      mstore\n      0x20\n      add\n      0x00\n      keccak256\n        /* \"openzeppelin-contracts-master/gota.sol\":2785:2830  Listing storage listing = listings[listingId] */\n      swap1\n      pop\n        /* \"openzeppelin-contracts-master/gota.sol\":2848:2855  listing */\n      dup1\n        /* \"openzeppelin-contracts-master/gota.sol\":2848:2864  listing.isActive */\n      0x03\n      add\n      0x01\n      swap1\n      sload\n      swap1\n      0x0100\n      exp\n      swap1\n      div\n      0xff\n      and\n        /* \"openzeppelin-contracts-master/gota.sol\":2840:2890  require(listing.isActive, \"Listing is not active\") */\n      tag_82\n      jumpi\n      mload(0x40)\n      0x08c379a000000000000000000000000000000000000000000000000000000000\n      dup2\n      mstore\n      0x04\n      add\n      tag_83\n      swap1\n      tag_84\n      jump\t// in\n    tag_83:\n      mload(0x40)\n      dup1\n      swap2\n      sub\n      swap1\n      revert\n    tag_82:\n        /* \"openzeppelin-contracts-master/gota.sol\":2973:2977  this */\n      address\n        /* \"openzeppelin-contracts-master/gota.sol\":2908:2978  IERC721(listing.nftContract).ownerOf(listing.tokenId) == address(this) */\n      0xffffffffffffffffffffffffffffffffffffffff\n      and\n        /* \"openzeppelin-contracts-master/gota.sol\":2916:2923  listing */\n      dup2\n        /* \"openzeppelin-contracts-master/gota.sol\":2916:2935  listing.nftContract */\n      0x00\n      add\n      0x00\n      swap1\n      sload\n      swap1\n      0x0100\n      exp\n      swap1\n      div\n      0xffffffffffffffffffffffffffffffffffffffff\n      and\n        /* \"openzeppelin-contracts-master/gota.sol\":2908:2944  IERC721(listing.nftContract).ownerOf */\n      0xffffffffffffffffffffffffffffffffffffffff\n      and\n      0x6352211e\n        /* \"openzeppelin-contracts-master/gota.sol\":2945:2952  listing */\n      dup4\n        /* \"openzeppelin-contracts-master/gota.sol\":2945:2960  listing.tokenId */\n      0x01\n      add\n      sload\n        /* \"openzeppelin-contracts-master/gota.sol\":2908:2961  IERC721(listing.nftContract).ownerOf(listing.tokenId) */\n      mload(0x40)\n      dup3\n      0xffffffff\n      and\n      0xe0\n      shl\n      dup2\n      mstore\n      0x04\n      add\n      tag_85\n      swap2\n      swap1\n      tag_28\n      jump\t// in\n    tag_85:\n      0x20\n      mload(0x40)\n      dup1\n      dup4\n      sub\n      dup2\n      dup7\n      gas\n      staticcall\n      iszero\n      dup1\n      iszero\n      tag_87\n      jumpi\n      returndatasize\n      0x00\n      dup1\n      returndatacopy\n      revert(0x00, returndatasize)\n    tag_87:\n      pop\n      pop\n      pop\n      pop\n      mload(0x40)\n      returndatasize\n      not(0x1f)\n      0x1f\n      dup3\n      add\n      and\n      dup3\n      add\n      dup1\n      0x40\n      mstore\n      pop\n      dup2\n      add\n      swap1\n      tag_88\n      swap2\n      swap1\n      tag_89\n      jump\t// in\n    tag_88:\n        /* \"openzeppelin-contracts-master/gota.sol\":2908:2978  IERC721(listing.nftContract).ownerOf(listing.tokenId) == address(this) */\n      0xffffffffffffffffffffffffffffffffffffffff\n      and\n      eq\n        /* \"openzeppelin-contracts-master/gota.sol\":2900:3023  require(IERC721(listing.nftContract).ownerOf(listing.tokenId) == address(this), \"Only the contract can cancel the listing\") */\n      tag_90\n      jumpi\n      mload(0x40)\n      0x08c379a000000000000000000000000000000000000000000000000000000000\n      dup2\n      mstore\n      0x04\n      add\n      tag_91\n      swap1\n      tag_92\n      jump\t// in\n    tag_91:\n      mload(0x40)\n      dup1\n      swap2\n      sub\n      swap1\n      revert\n    tag_90:\n        /* \"openzeppelin-contracts-master/gota.sol\":3042:3049  listing */\n      dup1\n        /* \"openzeppelin-contracts-master/gota.sol\":3042:3061  listing.nftContract */\n      0x00\n      add\n      0x00\n      swap1\n      sload\n      swap1\n      0x0100\n      exp\n      swap1\n      div\n      0xffffffffffffffffffffffffffffffffffffffff\n      and\n        /* \"openzeppelin-contracts-master/gota.sol\":3034:3075  IERC721(listing.nftContract).transferFrom */\n      0xffffffffffffffffffffffffffffffffffffffff\n      and\n      0x23b872dd\n        /* \"openzeppelin-contracts-master/gota.sol\":3084:3088  this */\n      address\n        /* \"openzeppelin-contracts-master/gota.sol\":3091:3101  msg.sender */\n      caller\n        /* \"openzeppelin-contracts-master/gota.sol\":3103:3110  listing */\n      dup5\n        /* \"openzeppelin-contracts-master/gota.sol\":3103:3118  listing.tokenId */\n      0x01\n      add\n      sload\n        /* \"openzeppelin-contracts-master/gota.sol\":3034:3119  IERC721(listing.nftContract).transferFrom(address(this), msg.sender, listing.tokenId) */\n      mload(0x40)\n      dup5\n      0xffffffff\n      and\n      0xe0\n      shl\n      dup2\n      mstore\n      0x04\n      add\n      tag_93\n      swap4\n      swap3\n      swap2\n      swap1\n      tag_94\n      jump\t// in\n    tag_93:\n      0x00\n      mload(0x40)\n      dup1\n      dup4\n      sub\n      dup2\n      0x00\n      dup8\n      dup1\n      extcodesize\n      iszero\n      dup1\n      iszero\n      tag_95\n      jumpi\n      0x00\n      dup1\n      revert\n    tag_95:\n      pop\n      gas\n      call\n      iszero\n      dup1\n      iszero\n      tag_97\n      jumpi\n      returndatasize\n      0x00\n      dup1\n      returndatacopy\n      revert(0x00, returndatasize)\n    tag_97:\n      pop\n      pop\n      pop\n      pop\n        /* \"openzeppelin-contracts-master/gota.sol\":3149:3154  false */\n      0x00\n        /* \"openzeppelin-contracts-master/gota.sol\":3130:3137  listing */\n      dup2\n        /* \"openzeppelin-contracts-master/gota.sol\":3130:3146  listing.isActive */\n      0x03\n      add\n      0x01\n        /* \"openzeppelin-contracts-master/gota.sol\":3130:3154  listing.isActive = false */\n      0x0100\n      exp\n      dup2\n      sload\n      dup2\n      0xff\n      mul\n      not\n      and\n      swap1\n      dup4\n      iszero\n      iszero\n      mul\n      or\n      swap1\n      sstore\n      pop\n        /* \"openzeppelin-contracts-master/gota.sol\":3170:3197  ListingCancelled(listingId) */\n      0x411aee90354c51b1b04cd563fcab2617142a9d50da19232d888547c8a1b7fd8a\n        /* \"openzeppelin-contracts-master/gota.sol\":3187:3196  listingId */\n      dup3\n        /* \"openzeppelin-contracts-master/gota.sol\":3170:3197  ListingCancelled(listingId) */\n      mload(0x40)\n      tag_98\n      swap2\n      swap1\n      tag_28\n      jump\t// in\n    tag_98:\n      mload(0x40)\n      dup1\n      swap2\n      sub\n      swap1\n      log1\n        /* \"openzeppelin-contracts-master/gota.sol\":2775:3204  {... */\n      pop\n        /* \"openzeppelin-contracts-master/gota.sol\":2724:3204  function cancelListing(uint256 listingId) external {... */\n      pop\n      jump\t// out\n        /* \"openzeppelin-contracts-master/gota.sol\":3210:4133  function buyListing(uint256 listingId) external payable {... */\n    tag_36:\n        /* \"openzeppelin-contracts-master/gota.sol\":3276:3299  Listing storage listing */\n      0x00\n        /* \"openzeppelin-contracts-master/gota.sol\":3302:3310  listings */\n      0x01\n        /* \"openzeppelin-contracts-master/gota.sol\":3302:3321  listings[listingId] */\n      0x00\n        /* \"openzeppelin-contracts-master/gota.sol\":3311:3320  listingId */\n      dup4\n        /* \"openzeppelin-contracts-master/gota.sol\":3302:3321  listings[listingId] */\n      dup2\n      mstore\n      0x20\n      add\n      swap1\n      dup2\n      mstore\n      0x20\n      add\n      0x00\n      keccak256\n        /* \"openzeppelin-contracts-master/gota.sol\":3276:3321  Listing storage listing = listings[listingId] */\n      swap1\n      pop\n        /* \"openzeppelin-contracts-master/gota.sol\":3339:3346  listing */\n      dup1\n        /* \"openzeppelin-contracts-master/gota.sol\":3339:3355  listing.isActive */\n      0x03\n      add\n      0x01\n      swap1\n      sload\n      swap1\n      0x0100\n      exp\n      swap1\n      div\n      0xff\n      and\n        /* \"openzeppelin-contracts-master/gota.sol\":3331:3381  require(listing.isActive, \"Listing is not active\") */\n      tag_100\n      jumpi\n      mload(0x40)\n      0x08c379a000000000000000000000000000000000000000000000000000000000\n      dup2\n      mstore\n      0x04\n      add\n      tag_101\n      swap1\n      tag_84\n      jump\t// in\n    tag_101:\n      mload(0x40)\n      dup1\n      swap2\n      sub\n      swap1\n      revert\n    tag_100:\n        /* \"openzeppelin-contracts-master/gota.sol\":3416:3425  msg.value */\n      callvalue\n        /* \"openzeppelin-contracts-master/gota.sol\":3399:3406  listing */\n      dup2\n        /* \"openzeppelin-contracts-master/gota.sol\":3399:3412  listing.price */\n      0x02\n      add\n      sload\n        /* \"openzeppelin-contracts-master/gota.sol\":3399:3425  listing.price == msg.value */\n      eq\n        /* \"openzeppelin-contracts-master/gota.sol\":3391:3454  require(listing.price == msg.value, \"Incorrect payment amount\") */\n      tag_102\n      jumpi\n      mload(0x40)\n      0x08c379a000000000000000000000000000000000000000000000000000000000\n      dup2\n      mstore\n      0x04\n      add\n      tag_103\n      swap1\n      tag_104\n      jump\t// in\n    tag_103:\n      mload(0x40)\n      dup1\n      swap2\n      sub\n      swap1\n      revert\n    tag_102:\n        /* \"openzeppelin-contracts-master/gota.sol\":3465:3479  address seller */\n      0x00\n        /* \"openzeppelin-contracts-master/gota.sol\":3490:3497  listing */\n      dup2\n        /* \"openzeppelin-contracts-master/gota.sol\":3490:3509  listing.nftContract */\n      0x00\n      add\n      0x00\n      swap1\n      sload\n      swap1\n      0x0100\n      exp\n      swap1\n      div\n      0xffffffffffffffffffffffffffffffffffffffff\n      and\n        /* \"openzeppelin-contracts-master/gota.sol\":3482:3518  IERC721(listing.nftContract).ownerOf */\n      0xffffffffffffffffffffffffffffffffffffffff\n      and\n      0x6352211e\n        /* \"openzeppelin-contracts-master/gota.sol\":3519:3526  listing */\n      dup4\n        /* \"openzeppelin-contracts-master/gota.sol\":3519:3534  listing.tokenId */\n      0x01\n      add\n      sload\n        /* \"openzeppelin-contracts-master/gota.sol\":3482:3535  IERC721(listing.nftContract).ownerOf(listing.tokenId) */\n      mload(0x40)\n      dup3\n      0xffffffff\n      and\n      0xe0\n      shl\n      dup2\n      mstore\n      0x04\n      add\n      tag_105\n      swap2\n      swap1\n      tag_28\n      jump\t// in\n    tag_105:\n      0x20\n      mload(0x40)\n      dup1\n      dup4\n      sub\n      dup2\n      dup7\n      gas\n      staticcall\n      iszero\n      dup1\n      iszero\n      tag_107\n      jumpi\n      returndatasize\n      0x00\n      dup1\n      returndatacopy\n      revert(0x00, returndatasize)\n    tag_107:\n      pop\n      pop\n      pop\n      pop\n      mload(0x40)\n      returndatasize\n      not(0x1f)\n      0x1f\n      dup3\n      add\n      and\n      dup3\n      add\n      dup1\n      0x40\n      mstore\n      pop\n      dup2\n      add\n      swap1\n      tag_108\n      swap2\n      swap1\n      tag_89\n      jump\t// in\n    tag_108:\n        /* \"openzeppelin-contracts-master/gota.sol\":3465:3535  address seller = IERC721(listing.nftContract).ownerOf(listing.tokenId) */\n      swap1\n      pop\n        /* \"openzeppelin-contracts-master/gota.sol\":3554:3561  listing */\n      dup2\n        /* \"openzeppelin-contracts-master/gota.sol\":3554:3573  listing.nftContract */\n      0x00\n      add\n      0x00\n      swap1\n      sload\n      swap1\n      0x0100\n      exp\n      swap1\n      div\n      0xffffffffffffffffffffffffffffffffffffffff\n      and\n        /* \"openzeppelin-contracts-master/gota.sol\":3546:3587  IERC721(listing.nftContract).transferFrom */\n      0xffffffffffffffffffffffffffffffffffffffff\n      and\n      0x23b872dd\n        /* \"openzeppelin-contracts-master/gota.sol\":3596:3600  this */\n      address\n        /* \"openzeppelin-contracts-master/gota.sol\":3603:3613  msg.sender */\n      caller\n        /* \"openzeppelin-contracts-master/gota.sol\":3615:3622  listing */\n      dup6\n        /* \"openzeppelin-contracts-master/gota.sol\":3615:3630  listing.tokenId */\n      0x01\n      add\n      sload\n        /* \"openzeppelin-contracts-master/gota.sol\":3546:3631  IERC721(listing.nftContract).transferFrom(address(this), msg.sender, listing.tokenId) */\n      mload(0x40)\n      dup5\n      0xffffffff\n      and\n      0xe0\n      shl\n      dup2\n      mstore\n      0x04\n      add\n      tag_109\n      swap4\n      swap3\n      swap2\n      swap1\n      tag_94\n      jump\t// in\n    tag_109:\n      0x00\n      mload(0x40)\n      dup1\n      dup4\n      sub\n      dup2\n      0x00\n      dup8\n      dup1\n      extcodesize\n      iszero\n      dup1\n      iszero\n      tag_110\n      jumpi\n      0x00\n      dup1\n      revert\n    tag_110:\n      pop\n      gas\n      call\n      iszero\n      dup1\n      iszero\n      tag_112\n      jumpi\n      returndatasize\n      0x00\n      dup1\n      returndatacopy\n      revert(0x00, returndatasize)\n    tag_112:\n      pop\n      pop\n      pop\n      pop\n        /* \"openzeppelin-contracts-master/gota.sol\":3642:3661  uint256 platformFee */\n      0x00\n        /* \"openzeppelin-contracts-master/gota.sol\":3706:3709  100 */\n      0x64\n        /* \"openzeppelin-contracts-master/gota.sol\":3681:3702  platformFeePercentage */\n      sload(0x03)\n        /* \"openzeppelin-contracts-master/gota.sol\":3665:3672  listing */\n      dup5\n        /* \"openzeppelin-contracts-master/gota.sol\":3665:3678  listing.price */\n      0x02\n      add\n      sload\n        /* \"openzeppelin-contracts-master/gota.sol\":3665:3702  listing.price * platformFeePercentage */\n      tag_113\n      swap2\n      swap1\n      tag_114\n      jump\t// in\n    tag_113:\n        /* \"openzeppelin-contracts-master/gota.sol\":3664:3709  (listing.price * platformFeePercentage) / 100 */\n      tag_115\n      swap2\n      swap1\n      tag_116\n      jump\t// in\n    tag_115:\n        /* \"openzeppelin-contracts-master/gota.sol\":3642:3709  uint256 platformFee = (listing.price * platformFeePercentage) / 100 */\n      swap1\n      pop\n        /* \"openzeppelin-contracts-master/gota.sol\":3719:3739  uint256 royaltiesFee */\n      0x00\n        /* \"openzeppelin-contracts-master/gota.sol\":3785:3788  100 */\n      0x64\n        /* \"openzeppelin-contracts-master/gota.sol\":3759:3781  royaltiesFeePercentage */\n      sload(0x04)\n        /* \"openzeppelin-contracts-master/gota.sol\":3743:3750  listing */\n      dup6\n        /* \"openzeppelin-contracts-master/gota.sol\":3743:3756  listing.price */\n      0x02\n      add\n      sload\n        /* \"openzeppelin-contracts-master/gota.sol\":3743:3781  listing.price * royaltiesFeePercentage */\n      tag_117\n      swap2\n      swap1\n      tag_114\n      jump\t// in\n    tag_117:\n        /* \"openzeppelin-contracts-master/gota.sol\":3742:3788  (listing.price * royaltiesFeePercentage) / 100 */\n      tag_118\n      swap2\n      swap1\n      tag_116\n      jump\t// in\n    tag_118:\n        /* \"openzeppelin-contracts-master/gota.sol\":3719:3788  uint256 royaltiesFee = (listing.price * royaltiesFeePercentage) / 100 */\n      swap1\n      pop\n        /* \"openzeppelin-contracts-master/gota.sol\":3798:3818  uint256 sellerAmount */\n      0x00\n        /* \"openzeppelin-contracts-master/gota.sol\":3851:3863  royaltiesFee */\n      dup2\n        /* \"openzeppelin-contracts-master/gota.sol\":3837:3848  platformFee */\n      dup4\n        /* \"openzeppelin-contracts-master/gota.sol\":3821:3828  listing */\n      dup7\n        /* \"openzeppelin-contracts-master/gota.sol\":3821:3834  listing.price */\n      0x02\n      add\n      sload\n        /* \"openzeppelin-contracts-master/gota.sol\":3821:3848  listing.price - platformFee */\n      tag_119\n      swap2\n      swap1\n      tag_120\n      jump\t// in\n    tag_119:\n        /* \"openzeppelin-contracts-master/gota.sol\":3821:3863  listing.price - platformFee - royaltiesFee */\n      tag_121\n      swap2\n      swap1\n      tag_120\n      jump\t// in\n    tag_121:\n        /* \"openzeppelin-contracts-master/gota.sol\":3798:3863  uint256 sellerAmount = listing.price - platformFee - royaltiesFee */\n      swap1\n      pop\n        /* \"openzeppelin-contracts-master/gota.sol\":3882:3899  platformFeeWallet */\n      0x05\n      0x00\n      swap1\n      sload\n      swap1\n      0x0100\n      exp\n      swap1\n      div\n      0xffffffffffffffffffffffffffffffffffffffff\n      and\n        /* \"openzeppelin-contracts-master/gota.sol\":3874:3909  payable(platformFeeWallet).transfer */\n      0xffffffffffffffffffffffffffffffffffffffff\n      and\n        /* \"openzeppelin-contracts-master/gota.sol\":3874:3922  payable(platformFeeWallet).transfer(platformFee) */\n      0x08fc\n        /* \"openzeppelin-contracts-master/gota.sol\":3910:3921  platformFee */\n      dup5\n        /* \"openzeppelin-contracts-master/gota.sol\":3874:3922  payable(platformFeeWallet).transfer(platformFee) */\n      swap1\n      dup2\n      iszero\n      mul\n      swap1\n      mload(0x40)\n      0x00\n      mload(0x40)\n      dup1\n      dup4\n      sub\n      dup2\n      dup6\n      dup9\n      dup9\n      call\n      swap4\n      pop\n      pop\n      pop\n      pop\n      iszero\n      dup1\n      iszero\n      tag_123\n      jumpi\n      returndatasize\n      0x00\n      dup1\n      returndatacopy\n      revert(0x00, returndatasize)\n    tag_123:\n      pop\n        /* \"openzeppelin-contracts-master/gota.sol\":3940:3958  royaltiesFeeWallet */\n      0x06\n      0x00\n      swap1\n      sload\n      swap1\n      0x0100\n      exp\n      swap1\n      div\n      0xffffffffffffffffffffffffffffffffffffffff\n      and\n        /* \"openzeppelin-contracts-master/gota.sol\":3932:3968  payable(royaltiesFeeWallet).transfer */\n      0xffffffffffffffffffffffffffffffffffffffff\n      and\n        /* \"openzeppelin-contracts-master/gota.sol\":3932:3982  payable(royaltiesFeeWallet).transfer(royaltiesFee) */\n      0x08fc\n        /* \"openzeppelin-contracts-master/gota.sol\":3969:3981  royaltiesFee */\n      dup4\n        /* \"openzeppelin-contracts-master/gota.sol\":3932:3982  payable(royaltiesFeeWallet).transfer(royaltiesFee) */\n      swap1\n      dup2\n      iszero\n      mul\n      swap1\n      mload(0x40)\n      0x00\n      mload(0x40)\n      dup1\n      dup4\n      sub\n      dup2\n      dup6\n      dup9\n      dup9\n      call\n      swap4\n      pop\n      pop\n      pop\n      pop\n      iszero\n      dup1\n      iszero\n      tag_125\n      jumpi\n      returndatasize\n      0x00\n      dup1\n      returndatacopy\n      revert(0x00, returndatasize)\n    tag_125:\n      pop\n        /* \"openzeppelin-contracts-master/gota.sol\":4000:4006  seller */\n      dup4\n        /* \"openzeppelin-contracts-master/gota.sol\":3992:4016  payable(seller).transfer */\n      0xffffffffffffffffffffffffffffffffffffffff\n      and\n        /* \"openzeppelin-contracts-master/gota.sol\":3992:4030  payable(seller).transfer(sellerAmount) */\n      0x08fc\n        /* \"openzeppelin-contracts-master/gota.sol\":4017:4029  sellerAmount */\n      dup3\n        /* \"openzeppelin-contracts-master/gota.sol\":3992:4030  payable(seller).transfer(sellerAmount) */\n      swap1\n      dup2\n      iszero\n      mul\n      swap1\n      mload(0x40)\n      0x00\n      mload(0x40)\n      dup1\n      dup4\n      sub\n      dup2\n      dup6\n      dup9\n      dup9\n      call\n      swap4\n      pop\n      pop\n      pop\n      pop\n      iszero\n      dup1\n      iszero\n      tag_127\n      jumpi\n      returndatasize\n      0x00\n      dup1\n      returndatacopy\n      revert(0x00, returndatasize)\n    tag_127:\n      pop\n        /* \"openzeppelin-contracts-master/gota.sol\":4060:4065  false */\n      0x00\n        /* \"openzeppelin-contracts-master/gota.sol\":4041:4048  listing */\n      dup6\n        /* \"openzeppelin-contracts-master/gota.sol\":4041:4057  listing.isActive */\n      0x03\n      add\n      0x01\n        /* \"openzeppelin-contracts-master/gota.sol\":4041:4065  listing.isActive = false */\n      0x0100\n      exp\n      dup2\n      sload\n      dup2\n      0xff\n      mul\n      not\n      and\n      swap1\n      dup4\n      iszero\n      iszero\n      mul\n      or\n      swap1\n      sstore\n      pop\n        /* \"openzeppelin-contracts-master/gota.sol\":4100:4110  msg.sender */\n      caller\n        /* \"openzeppelin-contracts-master/gota.sol\":4081:4126  NFTSold(listingId, msg.sender, listing.price) */\n      0xffffffffffffffffffffffffffffffffffffffff\n      and\n      0x6329e40c0365262ebbff5ca819385c2b9713dcaa050ed07866d72c441395699a\n        /* \"openzeppelin-contracts-master/gota.sol\":4089:4098  listingId */\n      dup8\n        /* \"openzeppelin-contracts-master/gota.sol\":4112:4119  listing */\n      dup8\n        /* \"openzeppelin-contracts-master/gota.sol\":4112:4125  listing.price */\n      0x02\n      add\n      sload\n        /* \"openzeppelin-contracts-master/gota.sol\":4081:4126  NFTSold(listingId, msg.sender, listing.price) */\n      mload(0x40)\n      tag_128\n      swap3\n      swap2\n      swap1\n      tag_129\n      jump\t// in\n    tag_128:\n      mload(0x40)\n      dup1\n      swap2\n      sub\n      swap1\n      log2\n        /* \"openzeppelin-contracts-master/gota.sol\":3266:4133  {... */\n      pop\n      pop\n      pop\n      pop\n      pop\n        /* \"openzeppelin-contracts-master/gota.sol\":3210:4133  function buyListing(uint256 listingId) external payable {... */\n      pop\n      jump\t// out\n        /* \"openzeppelin-contracts-master/contracts/access/Ownable.sol\":2293:2394  function renounceOwnership() public virtual onlyOwner {... */\n    tag_39:\n        /* \"openzeppelin-contracts-master/contracts/access/Ownable.sol\":1531:1544  _checkOwner() */\n      tag_131\n        /* \"openzeppelin-contracts-master/contracts/access/Ownable.sol\":1531:1542  _checkOwner */\n      tag_132\n        /* \"openzeppelin-contracts-master/contracts/access/Ownable.sol\":1531:1544  _checkOwner() */\n      jump\t// in\n    tag_131:\n        /* \"openzeppelin-contracts-master/contracts/access/Ownable.sol\":2357:2387  _transferOwnership(address(0)) */\n      tag_134\n        /* \"openzeppelin-contracts-master/contracts/access/Ownable.sol\":2384:2385  0 */\n      0x00\n        /* \"openzeppelin-contracts-master/contracts/access/Ownable.sol\":2357:2375  _transferOwnership */\n      tag_135\n        /* \"openzeppelin-contracts-master/contracts/access/Ownable.sol\":2357:2387  _transferOwnership(address(0)) */\n      jump\t// in\n    tag_134:\n        /* \"openzeppelin-contracts-master/contracts/access/Ownable.sol\":2293:2394  function renounceOwnership() public virtual onlyOwner {... */\n      jump\t// out\n        /* \"openzeppelin-contracts-master/gota.sol\":1505:1772  function setPlatformFeePercentage(uint256 newPercentage) external onlyOwner {... */\n    tag_43:\n        /* \"openzeppelin-contracts-master/contracts/access/Ownable.sol\":1531:1544  _checkOwner() */\n      tag_137\n        /* \"openzeppelin-contracts-master/contracts/access/Ownable.sol\":1531:1542  _checkOwner */\n      tag_132\n        /* \"openzeppelin-contracts-master/contracts/access/Ownable.sol\":1531:1544  _checkOwner() */\n      jump\t// in\n    tag_137:\n        /* \"openzeppelin-contracts-master/gota.sol\":1616:1619  100 */\n      0x64\n        /* \"openzeppelin-contracts-master/gota.sol\":1599:1612  newPercentage */\n      dup2\n        /* \"openzeppelin-contracts-master/gota.sol\":1599:1619  newPercentage <= 100 */\n      gt\n      iszero\n        /* \"openzeppelin-contracts-master/gota.sol\":1591:1660  require(newPercentage <= 100, \"Percentage must be between 0 and 100\") */\n      tag_139\n      jumpi\n      mload(0x40)\n      0x08c379a000000000000000000000000000000000000000000000000000000000\n      dup2\n      mstore\n      0x04\n      add\n      tag_140\n      swap1\n      tag_141\n      jump\t// in\n    tag_140:\n      mload(0x40)\n      dup1\n      swap2\n      sub\n      swap1\n      revert\n    tag_139:\n        /* \"openzeppelin-contracts-master/gota.sol\":1694:1707  newPercentage */\n      dup1\n        /* \"openzeppelin-contracts-master/gota.sol\":1670:1691  platformFeePercentage */\n      0x03\n        /* \"openzeppelin-contracts-master/gota.sol\":1670:1707  platformFeePercentage = newPercentage */\n      dup2\n      swap1\n      sstore\n      pop\n        /* \"openzeppelin-contracts-master/gota.sol\":1722:1765  PlatformFeePercentageUpdated(newPercentage) */\n      0xd0a5ddfa06600c6481dcd2923a572827c06e53859f23f7ddab41ff3144ee8687\n        /* \"openzeppelin-contracts-master/gota.sol\":1751:1764  newPercentage */\n      dup2\n        /* \"openzeppelin-contracts-master/gota.sol\":1722:1765  PlatformFeePercentageUpdated(newPercentage) */\n      mload(0x40)\n      tag_142\n      swap2\n      swap1\n      tag_28\n      jump\t// in\n    tag_142:\n      mload(0x40)\n      dup1\n      swap2\n      sub\n      swap1\n      log1\n        /* \"openzeppelin-contracts-master/gota.sol\":1505:1772  function setPlatformFeePercentage(uint256 newPercentage) external onlyOwner {... */\n      pop\n      jump\t// out\n        /* \"openzeppelin-contracts-master/gota.sol\":4139:4682  function getActiveListings() external view returns (uint256[] memory) {... */\n    tag_46:\n        /* \"openzeppelin-contracts-master/gota.sol\":4191:4207  uint256[] memory */\n      0x60\n        /* \"openzeppelin-contracts-master/gota.sol\":4219:4250  uint256[] memory activeListings */\n      0x00\n        /* \"openzeppelin-contracts-master/gota.sol\":4267:4280  nextListingId */\n      sload(0x02)\n        /* \"openzeppelin-contracts-master/gota.sol\":4253:4281  new uint256[](nextListingId) */\n      0xffffffffffffffff\n      dup2\n      gt\n      iszero\n      tag_144\n      jumpi\n      tag_145\n      tag_146\n      jump\t// in\n    tag_145:\n    tag_144:\n      mload(0x40)\n      swap1\n      dup1\n      dup3\n      mstore\n      dup1\n      0x20\n      mul\n      0x20\n      add\n      dup3\n      add\n      0x40\n      mstore\n      dup1\n      iszero\n      tag_147\n      jumpi\n      dup2\n      0x20\n      add\n      0x20\n      dup3\n      mul\n      dup1\n      calldatasize\n      dup4\n      calldatacopy\n      dup1\n      dup3\n      add\n      swap2\n      pop\n      pop\n      swap1\n      pop\n    tag_147:\n      pop\n        /* \"openzeppelin-contracts-master/gota.sol\":4219:4281  uint256[] memory activeListings = new uint256[](nextListingId) */\n      swap1\n      pop\n        /* \"openzeppelin-contracts-master/gota.sol\":4291:4304  uint256 count */\n      0x00\n        /* \"openzeppelin-contracts-master/gota.sol\":4324:4333  uint256 i */\n      dup1\n        /* \"openzeppelin-contracts-master/gota.sol\":4319:4496  for (uint256 i = 0; i < nextListingId; i++) {... */\n    tag_148:\n        /* \"openzeppelin-contracts-master/gota.sol\":4343:4356  nextListingId */\n      sload(0x02)\n        /* \"openzeppelin-contracts-master/gota.sol\":4339:4340  i */\n      dup2\n        /* \"openzeppelin-contracts-master/gota.sol\":4339:4356  i < nextListingId */\n      lt\n        /* \"openzeppelin-contracts-master/gota.sol\":4319:4496  for (uint256 i = 0; i < nextListingId; i++) {... */\n      iszero\n      tag_149\n      jumpi\n        /* \"openzeppelin-contracts-master/gota.sol\":4381:4389  listings */\n      0x01\n        /* \"openzeppelin-contracts-master/gota.sol\":4381:4392  listings[i] */\n      0x00\n        /* \"openzeppelin-contracts-master/gota.sol\":4390:4391  i */\n      dup3\n        /* \"openzeppelin-contracts-master/gota.sol\":4381:4392  listings[i] */\n      dup2\n      mstore\n      0x20\n      add\n      swap1\n      dup2\n      mstore\n      0x20\n      add\n      0x00\n      keccak256\n        /* \"openzeppelin-contracts-master/gota.sol\":4381:4401  listings[i].isActive */\n      0x03\n      add\n      0x01\n      swap1\n      sload\n      swap1\n      0x0100\n      exp\n      swap1\n      div\n      0xff\n      and\n        /* \"openzeppelin-contracts-master/gota.sol\":4377:4486  if (listings[i].isActive) {... */\n      iszero\n      tag_151\n      jumpi\n        /* \"openzeppelin-contracts-master/gota.sol\":4445:4446  i */\n      dup1\n        /* \"openzeppelin-contracts-master/gota.sol\":4421:4435  activeListings */\n      dup4\n        /* \"openzeppelin-contracts-master/gota.sol\":4436:4441  count */\n      dup4\n        /* \"openzeppelin-contracts-master/gota.sol\":4421:4442  activeListings[count] */\n      dup2\n      mload\n      dup2\n      lt\n      tag_152\n      jumpi\n      tag_153\n      tag_154\n      jump\t// in\n    tag_153:\n    tag_152:\n      0x20\n      mul\n      0x20\n      add\n      add\n        /* \"openzeppelin-contracts-master/gota.sol\":4421:4446  activeListings[count] = i */\n      dup2\n      dup2\n      mstore\n      pop\n      pop\n        /* \"openzeppelin-contracts-master/gota.sol\":4464:4471  count++ */\n      dup2\n      dup1\n      tag_155\n      swap1\n      tag_156\n      jump\t// in\n    tag_155:\n      swap3\n      pop\n      pop\n        /* \"openzeppelin-contracts-master/gota.sol\":4377:4486  if (listings[i].isActive) {... */\n    tag_151:\n        /* \"openzeppelin-contracts-master/gota.sol\":4358:4361  i++ */\n      dup1\n      dup1\n      tag_157\n      swap1\n      tag_156\n      jump\t// in\n    tag_157:\n      swap2\n      pop\n      pop\n        /* \"openzeppelin-contracts-master/gota.sol\":4319:4496  for (uint256 i = 0; i < nextListingId; i++) {... */\n      jump(tag_148)\n    tag_149:\n      pop\n        /* \"openzeppelin-contracts-master/gota.sol\":4506:4529  uint256[] memory result */\n      0x00\n        /* \"openzeppelin-contracts-master/gota.sol\":4546:4551  count */\n      dup2\n        /* \"openzeppelin-contracts-master/gota.sol\":4532:4552  new uint256[](count) */\n      0xffffffffffffffff\n      dup2\n      gt\n      iszero\n      tag_158\n      jumpi\n      tag_159\n      tag_146\n      jump\t// in\n    tag_159:\n    tag_158:\n      mload(0x40)\n      swap1\n      dup1\n      dup3\n      mstore\n      dup1\n      0x20\n      mul\n      0x20\n      add\n      dup3\n      add\n      0x40\n      mstore\n      dup1\n      iszero\n      tag_160\n      jumpi\n      dup2\n      0x20\n      add\n      0x20\n      dup3\n      mul\n      dup1\n      calldatasize\n      dup4\n      calldatacopy\n      dup1\n      dup3\n      add\n      swap2\n      pop\n      pop\n      swap1\n      pop\n    tag_160:\n      pop\n        /* \"openzeppelin-contracts-master/gota.sol\":4506:4552  uint256[] memory result = new uint256[](count) */\n      swap1\n      pop\n        /* \"openzeppelin-contracts-master/gota.sol\":4567:4576  uint256 i */\n      0x00\n        /* \"openzeppelin-contracts-master/gota.sol\":4562:4652  for (uint256 i = 0; i < count; i++) {... */\n    tag_161:\n        /* \"openzeppelin-contracts-master/gota.sol\":4586:4591  count */\n      dup3\n        /* \"openzeppelin-contracts-master/gota.sol\":4582:4583  i */\n      dup2\n        /* \"openzeppelin-contracts-master/gota.sol\":4582:4591  i < count */\n      lt\n        /* \"openzeppelin-contracts-master/gota.sol\":4562:4652  for (uint256 i = 0; i < count; i++) {... */\n      iszero\n      tag_162\n      jumpi\n        /* \"openzeppelin-contracts-master/gota.sol\":4624:4638  activeListings */\n      dup4\n        /* \"openzeppelin-contracts-master/gota.sol\":4639:4640  i */\n      dup2\n        /* \"openzeppelin-contracts-master/gota.sol\":4624:4641  activeListings[i] */\n      dup2\n      mload\n      dup2\n      lt\n      tag_164\n      jumpi\n      tag_165\n      tag_154\n      jump\t// in\n    tag_165:\n    tag_164:\n      0x20\n      mul\n      0x20\n      add\n      add\n      mload\n        /* \"openzeppelin-contracts-master/gota.sol\":4612:4618  result */\n      dup3\n        /* \"openzeppelin-contracts-master/gota.sol\":4619:4620  i */\n      dup3\n        /* \"openzeppelin-contracts-master/gota.sol\":4612:4621  result[i] */\n      dup2\n      mload\n      dup2\n      lt\n      tag_166\n      jumpi\n      tag_167\n      tag_154\n      jump\t// in\n    tag_167:\n    tag_166:\n      0x20\n      mul\n      0x20\n      add\n      add\n        /* \"openzeppelin-contracts-master/gota.sol\":4612:4641  result[i] = activeListings[i] */\n      dup2\n      dup2\n      mstore\n      pop\n      pop\n        /* \"openzeppelin-contracts-master/gota.sol\":4593:4596  i++ */\n      dup1\n      dup1\n      tag_168\n      swap1\n      tag_156\n      jump\t// in\n    tag_168:\n      swap2\n      pop\n      pop\n        /* \"openzeppelin-contracts-master/gota.sol\":4562:4652  for (uint256 i = 0; i < count; i++) {... */\n      jump(tag_161)\n    tag_162:\n      pop\n        /* \"openzeppelin-contracts-master/gota.sol\":4669:4675  result */\n      dup1\n        /* \"openzeppelin-contracts-master/gota.sol\":4662:4675  return result */\n      swap4\n      pop\n      pop\n      pop\n      pop\n        /* \"openzeppelin-contracts-master/gota.sol\":4139:4682  function getActiveListings() external view returns (uint256[] memory) {... */\n      swap1\n      jump\t// out\n        /* \"openzeppelin-contracts-master/contracts/access/Ownable.sol\":1638:1723  function owner() public view virtual returns (address) {... */\n    tag_51:\n        /* \"openzeppelin-contracts-master/contracts/access/Ownable.sol\":1684:1691  address */\n      0x00\n        /* \"openzeppelin-contracts-master/contracts/access/Ownable.sol\":1710:1716  _owner */\n      dup1\n      0x00\n      swap1\n      sload\n      swap1\n      0x0100\n      exp\n      swap1\n      div\n      0xffffffffffffffffffffffffffffffffffffffff\n      and\n        /* \"openzeppelin-contracts-master/contracts/access/Ownable.sol\":1703:1716  return _owner */\n      swap1\n      pop\n        /* \"openzeppelin-contracts-master/contracts/access/Ownable.sol\":1638:1723  function owner() public view virtual returns (address) {... */\n      swap1\n      jump\t// out\n        /* \"openzeppelin-contracts-master/gota.sol\":568:596  uint256 public nextListingId */\n    tag_55:\n      sload(0x02)\n      dup2\n      jump\t// out\n        /* \"openzeppelin-contracts-master/gota.sol\":602:642  uint256 public platformFeePercentage = 5 */\n    tag_59:\n      sload(0x03)\n      dup2\n      jump\t// out\n        /* \"openzeppelin-contracts-master/gota.sol\":1778:2718  function createListing(address nftContract, uint256 tokenId, uint256 price, bool isAuction, uint256 duration) external {... */\n    tag_65:\n        /* \"openzeppelin-contracts-master/gota.sol\":1923:1924  0 */\n      0x00\n        /* \"openzeppelin-contracts-master/gota.sol\":1915:1920  price */\n      dup4\n        /* \"openzeppelin-contracts-master/gota.sol\":1915:1924  price > 0 */\n      gt\n        /* \"openzeppelin-contracts-master/gota.sol\":1907:1960  require(price > 0, \"Price must be greater than zero\") */\n      tag_171\n      jumpi\n      mload(0x40)\n      0x08c379a000000000000000000000000000000000000000000000000000000000\n      dup2\n      mstore\n      0x04\n      add\n      tag_172\n      swap1\n      tag_173\n      jump\t// in\n    tag_172:\n      mload(0x40)\n      dup1\n      swap2\n      sub\n      swap1\n      revert\n    tag_171:\n        /* \"openzeppelin-contracts-master/gota.sol\":2019:2029  msg.sender */\n      caller\n        /* \"openzeppelin-contracts-master/gota.sol\":1978:2029  IERC721(nftContract).ownerOf(tokenId) == msg.sender */\n      0xffffffffffffffffffffffffffffffffffffffff\n      and\n        /* \"openzeppelin-contracts-master/gota.sol\":1986:1997  nftContract */\n      dup6\n        /* \"openzeppelin-contracts-master/gota.sol\":1978:2006  IERC721(nftContract).ownerOf */\n      0xffffffffffffffffffffffffffffffffffffffff\n      and\n      0x6352211e\n        /* \"openzeppelin-contracts-master/gota.sol\":2007:2014  tokenId */\n      dup7\n        /* \"openzeppelin-contracts-master/gota.sol\":1978:2015  IERC721(nftContract).ownerOf(tokenId) */\n      mload(0x40)\n      dup3\n      0xffffffff\n      and\n      0xe0\n      shl\n      dup2\n      mstore\n      0x04\n      add\n      tag_174\n      swap2\n      swap1\n      tag_28\n      jump\t// in\n    tag_174:\n      0x20\n      mload(0x40)\n      dup1\n      dup4\n      sub\n      dup2\n      dup7\n      gas\n      staticcall\n      iszero\n      dup1\n      iszero\n      tag_176\n      jumpi\n      returndatasize\n      0x00\n      dup1\n      returndatacopy\n      revert(0x00, returndatasize)\n    tag_176:\n      pop\n      pop\n      pop\n      pop\n      mload(0x40)\n      returndatasize\n      not(0x1f)\n      0x1f\n      dup3\n      add\n      and\n      dup3\n      add\n      dup1\n      0x40\n      mstore\n      pop\n      dup2\n      add\n      swap1\n      tag_177\n      swap2\n      swap1\n      tag_89\n      jump\t// in\n    tag_177:\n        /* \"openzeppelin-contracts-master/gota.sol\":1978:2029  IERC721(nftContract).ownerOf(tokenId) == msg.sender */\n      0xffffffffffffffffffffffffffffffffffffffff\n      and\n      eq\n        /* \"openzeppelin-contracts-master/gota.sol\":1970:2069  require(IERC721(nftContract).ownerOf(tokenId) == msg.sender, \"Only NFT owner can create a listing\") */\n      tag_178\n      jumpi\n      mload(0x40)\n      0x08c379a000000000000000000000000000000000000000000000000000000000\n      dup2\n      mstore\n      0x04\n      add\n      tag_179\n      swap1\n      tag_180\n      jump\t// in\n    tag_179:\n      mload(0x40)\n      dup1\n      swap2\n      sub\n      swap1\n      revert\n    tag_178:\n        /* \"openzeppelin-contracts-master/gota.sol\":2084:2093  isAuction */\n      dup2\n        /* \"openzeppelin-contracts-master/gota.sol\":2080:2230  if (isAuction) {... */\n      iszero\n      tag_181\n      jumpi\n        /* \"openzeppelin-contracts-master/gota.sol\":2128:2129  0 */\n      0x00\n        /* \"openzeppelin-contracts-master/gota.sol\":2117:2125  duration */\n      dup2\n        /* \"openzeppelin-contracts-master/gota.sol\":2117:2129  duration > 0 */\n      gt\n        /* \"openzeppelin-contracts-master/gota.sol\":2109:2176  require(duration > 0, \"Auction duration must be greater than zero\") */\n      tag_182\n      jumpi\n      mload(0x40)\n      0x08c379a000000000000000000000000000000000000000000000000000000000\n      dup2\n      mstore\n      0x04\n      add\n      tag_183\n      swap1\n      tag_184\n      jump\t// in\n    tag_183:\n      mload(0x40)\n      dup1\n      swap2\n      sub\n      swap1\n      revert\n    tag_182:\n        /* \"openzeppelin-contracts-master/gota.sol\":2080:2230  if (isAuction) {... */\n      jump(tag_185)\n    tag_181:\n        /* \"openzeppelin-contracts-master/gota.sol\":2218:2219  0 */\n      0x00\n        /* \"openzeppelin-contracts-master/gota.sol\":2207:2219  duration = 0 */\n      swap1\n      pop\n        /* \"openzeppelin-contracts-master/gota.sol\":2080:2230  if (isAuction) {... */\n    tag_185:\n        /* \"openzeppelin-contracts-master/gota.sol\":2248:2259  nftContract */\n      dup5\n        /* \"openzeppelin-contracts-master/gota.sol\":2240:2273  IERC721(nftContract).transferFrom */\n      0xffffffffffffffffffffffffffffffffffffffff\n      and\n      0x23b872dd\n        /* \"openzeppelin-contracts-master/gota.sol\":2274:2284  msg.sender */\n      caller\n        /* \"openzeppelin-contracts-master/gota.sol\":2294:2298  this */\n      address\n        /* \"openzeppelin-contracts-master/gota.sol\":2301:2308  tokenId */\n      dup8\n        /* \"openzeppelin-contracts-master/gota.sol\":2240:2309  IERC721(nftContract).transferFrom(msg.sender, address(this), tokenId) */\n      mload(0x40)\n      dup5\n      0xffffffff\n      and\n      0xe0\n      shl\n      dup2\n      mstore\n      0x04\n      add\n      tag_186\n      swap4\n      swap3\n      swap2\n      swap1\n      tag_94\n      jump\t// in\n    tag_186:\n      0x00\n      mload(0x40)\n      dup1\n      dup4\n      sub\n      dup2\n      0x00\n      dup8\n      dup1\n      extcodesize\n      iszero\n      dup1\n      iszero\n      tag_187\n      jumpi\n      0x00\n      dup1\n      revert\n    tag_187:\n      pop\n      gas\n      call\n      iszero\n      dup1\n      iszero\n      tag_189\n      jumpi\n      returndatasize\n      0x00\n      dup1\n      returndatacopy\n      revert(0x00, returndatasize)\n    tag_189:\n      pop\n      pop\n      pop\n      pop\n        /* \"openzeppelin-contracts-master/gota.sol\":2346:2572  Listing({... */\n      mload(0x40)\n      dup1\n      0xc0\n      add\n      0x40\n      mstore\n      dup1\n        /* \"openzeppelin-contracts-master/gota.sol\":2381:2392  nftContract */\n      dup7\n        /* \"openzeppelin-contracts-master/gota.sol\":2346:2572  Listing({... */\n      0xffffffffffffffffffffffffffffffffffffffff\n      and\n      dup2\n      mstore\n      0x20\n      add\n        /* \"openzeppelin-contracts-master/gota.sol\":2415:2422  tokenId */\n      dup6\n        /* \"openzeppelin-contracts-master/gota.sol\":2346:2572  Listing({... */\n      dup2\n      mstore\n      0x20\n      add\n        /* \"openzeppelin-contracts-master/gota.sol\":2443:2448  price */\n      dup5\n        /* \"openzeppelin-contracts-master/gota.sol\":2346:2572  Listing({... */\n      dup2\n      mstore\n      0x20\n      add\n        /* \"openzeppelin-contracts-master/gota.sol\":2473:2482  isAuction */\n      dup4\n        /* \"openzeppelin-contracts-master/gota.sol\":2346:2572  Listing({... */\n      iszero\n      iszero\n      dup2\n      mstore\n      0x20\n      add\n        /* \"openzeppelin-contracts-master/gota.sol\":2506:2510  true */\n      0x01\n        /* \"openzeppelin-contracts-master/gota.sol\":2346:2572  Listing({... */\n      iszero\n      iszero\n      dup2\n      mstore\n      0x20\n      add\n        /* \"openzeppelin-contracts-master/gota.sol\":2553:2561  duration */\n      dup3\n        /* \"openzeppelin-contracts-master/gota.sol\":2535:2550  block.timestamp */\n      timestamp\n        /* \"openzeppelin-contracts-master/gota.sol\":2535:2561  block.timestamp + duration */\n      tag_190\n      swap2\n      swap1\n      tag_191\n      jump\t// in\n    tag_190:\n        /* \"openzeppelin-contracts-master/gota.sol\":2346:2572  Listing({... */\n      dup2\n      mstore\n      pop\n        /* \"openzeppelin-contracts-master/gota.sol\":2320:2328  listings */\n      0x01\n        /* \"openzeppelin-contracts-master/gota.sol\":2320:2343  listings[nextListingId] */\n      0x00\n        /* \"openzeppelin-contracts-master/gota.sol\":2329:2342  nextListingId */\n      sload(0x02)\n        /* \"openzeppelin-contracts-master/gota.sol\":2320:2343  listings[nextListingId] */\n      dup2\n      mstore\n      0x20\n      add\n      swap1\n      dup2\n      mstore\n      0x20\n      add\n      0x00\n      keccak256\n        /* \"openzeppelin-contracts-master/gota.sol\":2320:2572  listings[nextListingId] = Listing({... */\n      0x00\n      dup3\n      add\n      mload\n      dup2\n      0x00\n      add\n      exp(0x0100, 0x00)\n      dup2\n      sload\n      dup2\n      0xffffffffffffffffffffffffffffffffffffffff\n      mul\n      not\n      and\n      swap1\n      dup4\n      0xffffffffffffffffffffffffffffffffffffffff\n      and\n      mul\n      or\n      swap1\n      sstore\n      pop\n      0x20\n      dup3\n      add\n      mload\n      dup2\n      0x01\n      add\n      sstore\n      0x40\n      dup3\n      add\n      mload\n      dup2\n      0x02\n      add\n      sstore\n      0x60\n      dup3\n      add\n      mload\n      dup2\n      0x03\n      add\n      exp(0x0100, 0x00)\n      dup2\n      sload\n      dup2\n      0xff\n      mul\n      not\n      and\n      swap1\n      dup4\n      iszero\n      iszero\n      mul\n      or\n      swap1\n      sstore\n      pop\n      0x80\n      dup3\n      add\n      mload\n      dup2\n      0x03\n      add\n      exp(0x0100, 0x01)\n      dup2\n      sload\n      dup2\n      0xff\n      mul\n      not\n      and\n      swap1\n      dup4\n      iszero\n      iszero\n      mul\n      or\n      swap1\n      sstore\n      pop\n      0xa0\n      dup3\n      add\n      mload\n      dup2\n      0x04\n      add\n      sstore\n      swap1\n      pop\n      pop\n        /* \"openzeppelin-contracts-master/gota.sol\":2631:2638  tokenId */\n      dup4\n        /* \"openzeppelin-contracts-master/gota.sol\":2618:2629  nftContract */\n      dup6\n        /* \"openzeppelin-contracts-master/gota.sol\":2588:2685  ListingCreated(nextListingId, nftContract, tokenId, price, isAuction, block.timestamp + duration) */\n      0xffffffffffffffffffffffffffffffffffffffff\n      and\n      0x8b20b21402c6ccf4b5f2e911ee605585802d96508e51890a1a317975b864dbb0\n        /* \"openzeppelin-contracts-master/gota.sol\":2603:2616  nextListingId */\n      sload(0x02)\n        /* \"openzeppelin-contracts-master/gota.sol\":2640:2645  price */\n      dup7\n        /* \"openzeppelin-contracts-master/gota.sol\":2647:2656  isAuction */\n      dup7\n        /* \"openzeppelin-contracts-master/gota.sol\":2676:2684  duration */\n      dup7\n        /* \"openzeppelin-contracts-master/gota.sol\":2658:2673  block.timestamp */\n      timestamp\n        /* \"openzeppelin-contracts-master/gota.sol\":2658:2684  block.timestamp + duration */\n      tag_192\n      swap2\n      swap1\n      tag_191\n      jump\t// in\n    tag_192:\n        /* \"openzeppelin-contracts-master/gota.sol\":2588:2685  ListingCreated(nextListingId, nftContract, tokenId, price, isAuction, block.timestamp + duration) */\n      mload(0x40)\n      tag_193\n      swap5\n      swap4\n      swap3\n      swap2\n      swap1\n      tag_194\n      jump\t// in\n    tag_193:\n      mload(0x40)\n      dup1\n      swap2\n      sub\n      swap1\n      log3\n        /* \"openzeppelin-contracts-master/gota.sol\":2696:2709  nextListingId */\n      0x02\n      0x00\n        /* \"openzeppelin-contracts-master/gota.sol\":2696:2711  nextListingId++ */\n      dup2\n      sload\n      dup1\n      swap3\n      swap2\n      swap1\n      tag_195\n      swap1\n      tag_156\n      jump\t// in\n    tag_195:\n      swap2\n      swap1\n      pop\n      sstore\n      pop\n        /* \"openzeppelin-contracts-master/gota.sol\":1778:2718  function createListing(address nftContract, uint256 tokenId, uint256 price, bool isAuction, uint256 duration) external {... */\n      pop\n      pop\n      pop\n      pop\n      pop\n      jump\t// out\n        /* \"openzeppelin-contracts-master/gota.sol\":519:562  mapping(uint256 => Listing) public listings */\n    tag_69:\n      mstore(0x20, 0x01)\n      dup1\n      0x00\n      mstore\n      keccak256(0x00, 0x40)\n      0x00\n      swap2\n      pop\n      swap1\n      pop\n      dup1\n      0x00\n      add\n      0x00\n      swap1\n      sload\n      swap1\n      0x0100\n      exp\n      swap1\n      div\n      0xffffffffffffffffffffffffffffffffffffffff\n      and\n      swap1\n      dup1\n      0x01\n      add\n      sload\n      swap1\n      dup1\n      0x02\n      add\n      sload\n      swap1\n      dup1\n      0x03\n      add\n      0x00\n      swap1\n      sload\n      swap1\n      0x0100\n      exp\n      swap1\n      div\n      0xff\n      and\n      swap1\n      dup1\n      0x03\n      add\n      0x01\n      swap1\n      sload\n      swap1\n      0x0100\n      exp\n      swap1\n      div\n      0xff\n      and\n      swap1\n      dup1\n      0x04\n      add\n      sload\n      swap1\n      pop\n      dup7\n      jump\t// out\n        /* \"openzeppelin-contracts-master/gota.sol\":695:727  address public platformFeeWallet */\n    tag_74:\n      0x05\n      0x00\n      swap1\n      sload\n      swap1\n      0x0100\n      exp\n      swap1\n      div\n      0xffffffffffffffffffffffffffffffffffffffff\n      and\n      dup2\n      jump\t// out\n        /* \"openzeppelin-contracts-master/contracts/access/Ownable.sol\":2543:2758  function transferOwnership(address newOwner) public virtual onlyOwner {... */\n    tag_80:\n        /* \"openzeppelin-contracts-master/contracts/access/Ownable.sol\":1531:1544  _checkOwner() */\n      tag_197\n        /* \"openzeppelin-contracts-master/contracts/access/Ownable.sol\":1531:1542  _checkOwner */\n      tag_132\n        /* \"openzeppelin-contracts-master/contracts/access/Ownable.sol\":1531:1544  _checkOwner() */\n      jump\t// in\n    tag_197:\n        /* \"openzeppelin-contracts-master/contracts/access/Ownable.sol\":2647:2648  0 */\n      0x00\n        /* \"openzeppelin-contracts-master/contracts/access/Ownable.sol\":2627:2649  newOwner == address(0) */\n      0xffffffffffffffffffffffffffffffffffffffff\n      and\n        /* \"openzeppelin-contracts-master/contracts/access/Ownable.sol\":2627:2635  newOwner */\n      dup2\n        /* \"openzeppelin-contracts-master/contracts/access/Ownable.sol\":2627:2649  newOwner == address(0) */\n      0xffffffffffffffffffffffffffffffffffffffff\n      and\n      sub\n        /* \"openzeppelin-contracts-master/contracts/access/Ownable.sol\":2623:2714  if (newOwner == address(0)) {... */\n      tag_199\n      jumpi\n        /* \"openzeppelin-contracts-master/contracts/access/Ownable.sol\":2700:2701  0 */\n      0x00\n        /* \"openzeppelin-contracts-master/contracts/access/Ownable.sol\":2672:2703  OwnableInvalidOwner(address(0)) */\n      mload(0x40)\n      0x1e4fbdf700000000000000000000000000000000000000000000000000000000\n      dup2\n      mstore\n      0x04\n      add\n      tag_200\n      swap2\n      swap1\n      tag_23\n      jump\t// in\n    tag_200:\n      mload(0x40)\n      dup1\n      swap2\n      sub\n      swap1\n      revert\n        /* \"openzeppelin-contracts-master/contracts/access/Ownable.sol\":2623:2714  if (newOwner == address(0)) {... */\n    tag_199:\n        /* \"openzeppelin-contracts-master/contracts/access/Ownable.sol\":2723:2751  _transferOwnership(newOwner) */\n      tag_201\n        /* \"openzeppelin-contracts-master/contracts/access/Ownable.sol\":2742:2750  newOwner */\n      dup2\n        /* \"openzeppelin-contracts-master/contracts/access/Ownable.sol\":2723:2741  _transferOwnership */\n      tag_135\n        /* \"openzeppelin-contracts-master/contracts/access/Ownable.sol\":2723:2751  _transferOwnership(newOwner) */\n      jump\t// in\n    tag_201:\n        /* \"openzeppelin-contracts-master/contracts/access/Ownable.sol\":2543:2758  function transferOwnership(address newOwner) public virtual onlyOwner {... */\n      pop\n      jump\t// out\n        /* \"openzeppelin-contracts-master/contracts/access/Ownable.sol\":1796:1958  function _checkOwner() internal view virtual {... */\n    tag_132:\n        /* \"openzeppelin-contracts-master/contracts/access/Ownable.sol\":1866:1878  _msgSender() */\n      tag_203\n        /* \"openzeppelin-contracts-master/contracts/access/Ownable.sol\":1866:1876  _msgSender */\n      tag_204\n        /* \"openzeppelin-contracts-master/contracts/access/Ownable.sol\":1866:1878  _msgSender() */\n      jump\t// in\n    tag_203:\n        /* \"openzeppelin-contracts-master/contracts/access/Ownable.sol\":1855:1878  owner() != _msgSender() */\n      0xffffffffffffffffffffffffffffffffffffffff\n      and\n        /* \"openzeppelin-contracts-master/contracts/access/Ownable.sol\":1855:1862  owner() */\n      tag_205\n        /* \"openzeppelin-contracts-master/contracts/access/Ownable.sol\":1855:1860  owner */\n      tag_51\n        /* \"openzeppelin-contracts-master/contracts/access/Ownable.sol\":1855:1862  owner() */\n      jump\t// in\n    tag_205:\n        /* \"openzeppelin-contracts-master/contracts/access/Ownable.sol\":1855:1878  owner() != _msgSender() */\n      0xffffffffffffffffffffffffffffffffffffffff\n      and\n      eq\n        /* \"openzeppelin-contracts-master/contracts/access/Ownable.sol\":1851:1952  if (owner() != _msgSender()) {... */\n      tag_206\n      jumpi\n        /* \"openzeppelin-contracts-master/contracts/access/Ownable.sol\":1928:1940  _msgSender() */\n      tag_207\n        /* \"openzeppelin-contracts-master/contracts/access/Ownable.sol\":1928:1938  _msgSender */\n      tag_204\n        /* \"openzeppelin-contracts-master/contracts/access/Ownable.sol\":1928:1940  _msgSender() */\n      jump\t// in\n    tag_207:\n        /* \"openzeppelin-contracts-master/contracts/access/Ownable.sol\":1901:1941  OwnableUnauthorizedAccount(_msgSender()) */\n      mload(0x40)\n      0x118cdaa700000000000000000000000000000000000000000000000000000000\n      dup2\n      mstore\n      0x04\n      add\n      tag_208\n      swap2\n      swap1\n      tag_23\n      jump\t// in\n    tag_208:\n      mload(0x40)\n      dup1\n      swap2\n      sub\n      swap1\n      revert\n        /* \"openzeppelin-contracts-master/contracts/access/Ownable.sol\":1851:1952  if (owner() != _msgSender()) {... */\n    tag_206:\n        /* \"openzeppelin-contracts-master/contracts/access/Ownable.sol\":1796:1958  function _checkOwner() internal view virtual {... */\n      jump\t// out\n        /* \"openzeppelin-contracts-master/contracts/access/Ownable.sol\":2912:3099  function _transferOwnership(address newOwner) internal virtual {... */\n    tag_135:\n        /* \"openzeppelin-contracts-master/contracts/access/Ownable.sol\":2985:3001  address oldOwner */\n      0x00\n        /* \"openzeppelin-contracts-master/contracts/access/Ownable.sol\":3004:3010  _owner */\n      dup1\n      0x00\n      swap1\n      sload\n      swap1\n      0x0100\n      exp\n      swap1\n      div\n      0xffffffffffffffffffffffffffffffffffffffff\n      and\n        /* \"openzeppelin-contracts-master/contracts/access/Ownable.sol\":2985:3010  address oldOwner = _owner */\n      swap1\n      pop\n        /* \"openzeppelin-contracts-master/contracts/access/Ownable.sol\":3029:3037  newOwner */\n      dup2\n        /* \"openzeppelin-contracts-master/contracts/access/Ownable.sol\":3020:3026  _owner */\n      0x00\n      dup1\n        /* \"openzeppelin-contracts-master/contracts/access/Ownable.sol\":3020:3037  _owner = newOwner */\n      0x0100\n      exp\n      dup2\n      sload\n      dup2\n      0xffffffffffffffffffffffffffffffffffffffff\n      mul\n      not\n      and\n      swap1\n      dup4\n      0xffffffffffffffffffffffffffffffffffffffff\n      and\n      mul\n      or\n      swap1\n      sstore\n      pop\n        /* \"openzeppelin-contracts-master/contracts/access/Ownable.sol\":3083:3091  newOwner */\n      dup2\n        /* \"openzeppelin-contracts-master/contracts/access/Ownable.sol\":3052:3092  OwnershipTransferred(oldOwner, newOwner) */\n      0xffffffffffffffffffffffffffffffffffffffff\n      and\n        /* \"openzeppelin-contracts-master/contracts/access/Ownable.sol\":3073:3081  oldOwner */\n      dup2\n        /* \"openzeppelin-contracts-master/contracts/access/Ownable.sol\":3052:3092  OwnershipTransferred(oldOwner, newOwner) */\n      0xffffffffffffffffffffffffffffffffffffffff\n      and\n      0x8be0079c531659141344cd1fd0a4f28419497f9722a3daafe3b4186f6b6457e0\n      mload(0x40)\n      mload(0x40)\n      dup1\n      swap2\n      sub\n      swap1\n      log3\n        /* \"openzeppelin-contracts-master/contracts/access/Ownable.sol\":2975:3099  {... */\n      pop\n        /* \"openzeppelin-contracts-master/contracts/access/Ownable.sol\":2912:3099  function _transferOwnership(address newOwner) internal virtual {... */\n      pop\n      jump\t// out\n        /* \"openzeppelin-contracts-master/contracts/utils/Context.sol\":656:752  function _msgSender() internal view virtual returns (address) {... */\n    tag_204:\n        /* \"openzeppelin-contracts-master/contracts/utils/Context.sol\":709:716  address */\n      0x00\n        /* \"openzeppelin-contracts-master/contracts/utils/Context.sol\":735:745  msg.sender */\n      caller\n        /* \"openzeppelin-contracts-master/contracts/utils/Context.sol\":728:745  return msg.sender */\n      swap1\n      pop\n        /* \"openzeppelin-contracts-master/contracts/utils/Context.sol\":656:752  function _msgSender() internal view virtual returns (address) {... */\n      swap1\n      jump\t// out\n        /* \"#utility.yul\":7:133   */\n    tag_211:\n        /* \"#utility.yul\":44:51   */\n      0x00\n        /* \"#utility.yul\":84:126   */\n      0xffffffffffffffffffffffffffffffffffffffff\n        /* \"#utility.yul\":77:82   */\n      dup3\n        /* \"#utility.yul\":73:127   */\n      and\n        /* \"#utility.yul\":62:127   */\n      swap1\n      pop\n        /* \"#utility.yul\":7:133   */\n      swap2\n      swap1\n      pop\n      jump\t// out\n        /* \"#utility.yul\":139:235   */\n    tag_212:\n        /* \"#utility.yul\":176:183   */\n      0x00\n        /* \"#utility.yul\":205:229   */\n      tag_255\n        /* \"#utility.yul\":223:228   */\n      dup3\n        /* \"#utility.yul\":205:229   */\n      tag_211\n      jump\t// in\n    tag_255:\n        /* \"#utility.yul\":194:229   */\n      swap1\n      pop\n        /* \"#utility.yul\":139:235   */\n      swap2\n      swap1\n      pop\n      jump\t// out\n        /* \"#utility.yul\":241:359   */\n    tag_213:\n        /* \"#utility.yul\":328:352   */\n      tag_257\n        /* \"#utility.yul\":346:351   */\n      dup2\n        /* \"#utility.yul\":328:352   */\n      tag_212\n      jump\t// in\n    tag_257:\n        /* \"#utility.yul\":323:326   */\n      dup3\n        /* \"#utility.yul\":316:353   */\n      mstore\n        /* \"#utility.yul\":241:359   */\n      pop\n      pop\n      jump\t// out\n        /* \"#utility.yul\":365:587   */\n    tag_23:\n        /* \"#utility.yul\":458:462   */\n      0x00\n        /* \"#utility.yul\":496:498   */\n      0x20\n        /* \"#utility.yul\":485:494   */\n      dup3\n        /* \"#utility.yul\":481:499   */\n      add\n        /* \"#utility.yul\":473:499   */\n      swap1\n      pop\n        /* \"#utility.yul\":509:580   */\n      tag_259\n        /* \"#utility.yul\":577:578   */\n      0x00\n        /* \"#utility.yul\":566:575   */\n      dup4\n        /* \"#utility.yul\":562:579   */\n      add\n        /* \"#utility.yul\":553:559   */\n      dup5\n        /* \"#utility.yul\":509:580   */\n      tag_213\n      jump\t// in\n    tag_259:\n        /* \"#utility.yul\":365:587   */\n      swap3\n      swap2\n      pop\n      pop\n      jump\t// out\n        /* \"#utility.yul\":593:670   */\n    tag_214:\n        /* \"#utility.yul\":630:637   */\n      0x00\n        /* \"#utility.yul\":659:664   */\n      dup2\n        /* \"#utility.yul\":648:664   */\n      swap1\n      pop\n        /* \"#utility.yul\":593:670   */\n      swap2\n      swap1\n      pop\n      jump\t// out\n        /* \"#utility.yul\":676:794   */\n    tag_215:\n        /* \"#utility.yul\":763:787   */\n      tag_262\n        /* \"#utility.yul\":781:786   */\n      dup2\n        /* \"#utility.yul\":763:787   */\n      tag_214\n      jump\t// in\n    tag_262:\n        /* \"#utility.yul\":758:761   */\n      dup3\n        /* \"#utility.yul\":751:788   */\n      mstore\n        /* \"#utility.yul\":676:794   */\n      pop\n      pop\n      jump\t// out\n        /* \"#utility.yul\":800:1022   */\n    tag_28:\n        /* \"#utility.yul\":893:897   */\n      0x00\n        /* \"#utility.yul\":931:933   */\n      0x20\n        /* \"#utility.yul\":920:929   */\n      dup3\n        /* \"#utility.yul\":916:934   */\n      add\n        /* \"#utility.yul\":908:934   */\n      swap1\n      pop\n        /* \"#utility.yul\":944:1015   */\n      tag_264\n        /* \"#utility.yul\":1012:1013   */\n      0x00\n        /* \"#utility.yul\":1001:1010   */\n      dup4\n        /* \"#utility.yul\":997:1014   */\n      add\n        /* \"#utility.yul\":988:994   */\n      dup5\n        /* \"#utility.yul\":944:1015   */\n      tag_215\n      jump\t// in\n    tag_264:\n        /* \"#utility.yul\":800:1022   */\n      swap3\n      swap2\n      pop\n      pop\n      jump\t// out\n        /* \"#utility.yul\":1109:1226   */\n    tag_217:\n        /* \"#utility.yul\":1218:1219   */\n      0x00\n        /* \"#utility.yul\":1215:1216   */\n      dup1\n        /* \"#utility.yul\":1208:1220   */\n      revert\n        /* \"#utility.yul\":1355:1477   */\n    tag_219:\n        /* \"#utility.yul\":1428:1452   */\n      tag_269\n        /* \"#utility.yul\":1446:1451   */\n      dup2\n        /* \"#utility.yul\":1428:1452   */\n      tag_214\n      jump\t// in\n    tag_269:\n        /* \"#utility.yul\":1421:1426   */\n      dup2\n        /* \"#utility.yul\":1418:1453   */\n      eq\n        /* \"#utility.yul\":1408:1471   */\n      tag_270\n      jumpi\n        /* \"#utility.yul\":1467:1468   */\n      0x00\n        /* \"#utility.yul\":1464:1465   */\n      dup1\n        /* \"#utility.yul\":1457:1469   */\n      revert\n        /* \"#utility.yul\":1408:1471   */\n    tag_270:\n        /* \"#utility.yul\":1355:1477   */\n      pop\n      jump\t// out\n        /* \"#utility.yul\":1483:1622   */\n    tag_220:\n        /* \"#utility.yul\":1529:1534   */\n      0x00\n        /* \"#utility.yul\":1567:1573   */\n      dup2\n        /* \"#utility.yul\":1554:1574   */\n      calldataload\n        /* \"#utility.yul\":1545:1574   */\n      swap1\n      pop\n        /* \"#utility.yul\":1583:1616   */\n      tag_272\n        /* \"#utility.yul\":1610:1615   */\n      dup2\n        /* \"#utility.yul\":1583:1616   */\n      tag_219\n      jump\t// in\n    tag_272:\n        /* \"#utility.yul\":1483:1622   */\n      swap3\n      swap2\n      pop\n      pop\n      jump\t// out\n        /* \"#utility.yul\":1628:1957   */\n    tag_32:\n        /* \"#utility.yul\":1687:1693   */\n      0x00\n        /* \"#utility.yul\":1736:1738   */\n      0x20\n        /* \"#utility.yul\":1724:1733   */\n      dup3\n        /* \"#utility.yul\":1715:1722   */\n      dup5\n        /* \"#utility.yul\":1711:1734   */\n      sub\n        /* \"#utility.yul\":1707:1739   */\n      slt\n        /* \"#utility.yul\":1704:1823   */\n      iszero\n      tag_274\n      jumpi\n        /* \"#utility.yul\":1742:1821   */\n      tag_275\n      tag_217\n      jump\t// in\n    tag_275:\n        /* \"#utility.yul\":1704:1823   */\n    tag_274:\n        /* \"#utility.yul\":1862:1863   */\n      0x00\n        /* \"#utility.yul\":1887:1940   */\n      tag_276\n        /* \"#utility.yul\":1932:1939   */\n      dup5\n        /* \"#utility.yul\":1923:1929   */\n      dup3\n        /* \"#utility.yul\":1912:1921   */\n      dup6\n        /* \"#utility.yul\":1908:1930   */\n      add\n        /* \"#utility.yul\":1887:1940   */\n      tag_220\n      jump\t// in\n    tag_276:\n        /* \"#utility.yul\":1877:1940   */\n      swap2\n      pop\n        /* \"#utility.yul\":1833:1950   */\n      pop\n        /* \"#utility.yul\":1628:1957   */\n      swap3\n      swap2\n      pop\n      pop\n      jump\t// out\n        /* \"#utility.yul\":1963:2077   */\n    tag_221:\n        /* \"#utility.yul\":2030:2036   */\n      0x00\n        /* \"#utility.yul\":2064:2069   */\n      dup2\n        /* \"#utility.yul\":2058:2070   */\n      mload\n        /* \"#utility.yul\":2048:2070   */\n      swap1\n      pop\n        /* \"#utility.yul\":1963:2077   */\n      swap2\n      swap1\n      pop\n      jump\t// out\n        /* \"#utility.yul\":2083:2267   */\n    tag_222:\n        /* \"#utility.yul\":2182:2193   */\n      0x00\n        /* \"#utility.yul\":2216:2222   */\n      dup3\n        /* \"#utility.yul\":2211:2214   */\n      dup3\n        /* \"#utility.yul\":2204:2223   */\n      mstore\n        /* \"#utility.yul\":2256:2260   */\n      0x20\n        /* \"#utility.yul\":2251:2254   */\n      dup3\n        /* \"#utility.yul\":2247:2261   */\n      add\n        /* \"#utility.yul\":2232:2261   */\n      swap1\n      pop\n        /* \"#utility.yul\":2083:2267   */\n      swap3\n      swap2\n      pop\n      pop\n      jump\t// out\n        /* \"#utility.yul\":2273:2405   */\n    tag_223:\n        /* \"#utility.yul\":2340:2344   */\n      0x00\n        /* \"#utility.yul\":2363:2366   */\n      dup2\n        /* \"#utility.yul\":2355:2366   */\n      swap1\n      pop\n        /* \"#utility.yul\":2393:2397   */\n      0x20\n        /* \"#utility.yul\":2388:2391   */\n      dup3\n        /* \"#utility.yul\":2384:2398   */\n      add\n        /* \"#utility.yul\":2376:2398   */\n      swap1\n      pop\n        /* \"#utility.yul\":2273:2405   */\n      swap2\n      swap1\n      pop\n      jump\t// out\n        /* \"#utility.yul\":2411:2519   */\n    tag_224:\n        /* \"#utility.yul\":2488:2512   */\n      tag_281\n        /* \"#utility.yul\":2506:2511   */\n      dup2\n        /* \"#utility.yul\":2488:2512   */\n      tag_214\n      jump\t// in\n    tag_281:\n        /* \"#utility.yul\":2483:2486   */\n      dup3\n        /* \"#utility.yul\":2476:2513   */\n      mstore\n        /* \"#utility.yul\":2411:2519   */\n      pop\n      pop\n      jump\t// out\n        /* \"#utility.yul\":2525:2704   */\n    tag_225:\n        /* \"#utility.yul\":2594:2604   */\n      0x00\n        /* \"#utility.yul\":2615:2661   */\n      tag_283\n        /* \"#utility.yul\":2657:2660   */\n      dup4\n        /* \"#utility.yul\":2649:2655   */\n      dup4\n        /* \"#utility.yul\":2615:2661   */\n      tag_224\n      jump\t// in\n    tag_283:\n        /* \"#utility.yul\":2693:2697   */\n      0x20\n        /* \"#utility.yul\":2688:2691   */\n      dup4\n        /* \"#utility.yul\":2684:2698   */\n      add\n        /* \"#utility.yul\":2670:2698   */\n      swap1\n      pop\n        /* \"#utility.yul\":2525:2704   */\n      swap3\n      swap2\n      pop\n      pop\n      jump\t// out\n        /* \"#utility.yul\":2710:2823   */\n    tag_226:\n        /* \"#utility.yul\":2780:2784   */\n      0x00\n        /* \"#utility.yul\":2812:2816   */\n      0x20\n        /* \"#utility.yul\":2807:2810   */\n      dup3\n        /* \"#utility.yul\":2803:2817   */\n      add\n        /* \"#utility.yul\":2795:2817   */\n      swap1\n      pop\n        /* \"#utility.yul\":2710:2823   */\n      swap2\n      swap1\n      pop\n      jump\t// out\n        /* \"#utility.yul\":2859:3591   */\n    tag_227:\n        /* \"#utility.yul\":2978:2981   */\n      0x00\n        /* \"#utility.yul\":3007:3061   */\n      tag_286\n        /* \"#utility.yul\":3055:3060   */\n      dup3\n        /* \"#utility.yul\":3007:3061   */\n      tag_221\n      jump\t// in\n    tag_286:\n        /* \"#utility.yul\":3077:3163   */\n      tag_287\n        /* \"#utility.yul\":3156:3162   */\n      dup2\n        /* \"#utility.yul\":3151:3154   */\n      dup6\n        /* \"#utility.yul\":3077:3163   */\n      tag_222\n      jump\t// in\n    tag_287:\n        /* \"#utility.yul\":3070:3163   */\n      swap4\n      pop\n        /* \"#utility.yul\":3187:3243   */\n      tag_288\n        /* \"#utility.yul\":3237:3242   */\n      dup4\n        /* \"#utility.yul\":3187:3243   */\n      tag_223\n      jump\t// in\n    tag_288:\n        /* \"#utility.yul\":3266:3273   */\n      dup1\n        /* \"#utility.yul\":3297:3298   */\n      0x00\n        /* \"#utility.yul\":3282:3566   */\n    tag_289:\n        /* \"#utility.yul\":3307:3313   */\n      dup4\n        /* \"#utility.yul\":3304:3305   */\n      dup2\n        /* \"#utility.yul\":3301:3314   */\n      lt\n        /* \"#utility.yul\":3282:3566   */\n      iszero\n      tag_291\n      jumpi\n        /* \"#utility.yul\":3383:3389   */\n      dup2\n        /* \"#utility.yul\":3377:3390   */\n      mload\n        /* \"#utility.yul\":3410:3473   */\n      tag_292\n        /* \"#utility.yul\":3469:3472   */\n      dup9\n        /* \"#utility.yul\":3454:3467   */\n      dup3\n        /* \"#utility.yul\":3410:3473   */\n      tag_225\n      jump\t// in\n    tag_292:\n        /* \"#utility.yul\":3403:3473   */\n      swap8\n      pop\n        /* \"#utility.yul\":3496:3556   */\n      tag_293\n        /* \"#utility.yul\":3549:3555   */\n      dup4\n        /* \"#utility.yul\":3496:3556   */\n      tag_226\n      jump\t// in\n    tag_293:\n        /* \"#utility.yul\":3486:3556   */\n      swap3\n      pop\n        /* \"#utility.yul\":3342:3566   */\n      pop\n        /* \"#utility.yul\":3329:3330   */\n      0x01\n        /* \"#utility.yul\":3326:3327   */\n      dup2\n        /* \"#utility.yul\":3322:3331   */\n      add\n        /* \"#utility.yul\":3317:3331   */\n      swap1\n      pop\n        /* \"#utility.yul\":3282:3566   */\n      jump(tag_289)\n    tag_291:\n        /* \"#utility.yul\":3286:3300   */\n      pop\n        /* \"#utility.yul\":3582:3585   */\n      dup6\n        /* \"#utility.yul\":3575:3585   */\n      swap4\n      pop\n        /* \"#utility.yul\":2983:3591   */\n      pop\n      pop\n      pop\n        /* \"#utility.yul\":2859:3591   */\n      swap3\n      swap2\n      pop\n      pop\n      jump\t// out\n        /* \"#utility.yul\":3597:3970   */\n    tag_48:\n        /* \"#utility.yul\":3740:3744   */\n      0x00\n        /* \"#utility.yul\":3778:3780   */\n      0x20\n        /* \"#utility.yul\":3767:3776   */\n      dup3\n        /* \"#utility.yul\":3763:3781   */\n      add\n        /* \"#utility.yul\":3755:3781   */\n      swap1\n      pop\n        /* \"#utility.yul\":3827:3836   */\n      dup2\n        /* \"#utility.yul\":3821:3825   */\n      dup2\n        /* \"#utility.yul\":3817:3837   */\n      sub\n        /* \"#utility.yul\":3813:3814   */\n      0x00\n        /* \"#utility.yul\":3802:3811   */\n      dup4\n        /* \"#utility.yul\":3798:3815   */\n      add\n        /* \"#utility.yul\":3791:3838   */\n      mstore\n        /* \"#utility.yul\":3855:3963   */\n      tag_295\n        /* \"#utility.yul\":3958:3962   */\n      dup2\n        /* \"#utility.yul\":3949:3955   */\n      dup5\n        /* \"#utility.yul\":3855:3963   */\n      tag_227\n      jump\t// in\n    tag_295:\n        /* \"#utility.yul\":3847:3963   */\n      swap1\n      pop\n        /* \"#utility.yul\":3597:3970   */\n      swap3\n      swap2\n      pop\n      pop\n      jump\t// out\n        /* \"#utility.yul\":3976:4098   */\n    tag_228:\n        /* \"#utility.yul\":4049:4073   */\n      tag_297\n        /* \"#utility.yul\":4067:4072   */\n      dup2\n        /* \"#utility.yul\":4049:4073   */\n      tag_212\n      jump\t// in\n    tag_297:\n        /* \"#utility.yul\":4042:4047   */\n      dup2\n        /* \"#utility.yul\":4039:4074   */\n      eq\n        /* \"#utility.yul\":4029:4092   */\n      tag_298\n      jumpi\n        /* \"#utility.yul\":4088:4089   */\n      0x00\n        /* \"#utility.yul\":4085:4086   */\n      dup1\n        /* \"#utility.yul\":4078:4090   */\n      revert\n        /* \"#utility.yul\":4029:4092   */\n    tag_298:\n        /* \"#utility.yul\":3976:4098   */\n      pop\n      jump\t// out\n        /* \"#utility.yul\":4104:4243   */\n    tag_229:\n        /* \"#utility.yul\":4150:4155   */\n      0x00\n        /* \"#utility.yul\":4188:4194   */\n      dup2\n        /* \"#utility.yul\":4175:4195   */\n      calldataload\n        /* \"#utility.yul\":4166:4195   */\n      swap1\n      pop\n        /* \"#utility.yul\":4204:4237   */\n      tag_300\n        /* \"#utility.yul\":4231:4236   */\n      dup2\n        /* \"#utility.yul\":4204:4237   */\n      tag_228\n      jump\t// in\n    tag_300:\n        /* \"#utility.yul\":4104:4243   */\n      swap3\n      swap2\n      pop\n      pop\n      jump\t// out\n        /* \"#utility.yul\":4249:4339   */\n    tag_230:\n        /* \"#utility.yul\":4283:4290   */\n      0x00\n        /* \"#utility.yul\":4326:4331   */\n      dup2\n        /* \"#utility.yul\":4319:4332   */\n      iszero\n        /* \"#utility.yul\":4312:4333   */\n      iszero\n        /* \"#utility.yul\":4301:4333   */\n      swap1\n      pop\n        /* \"#utility.yul\":4249:4339   */\n      swap2\n      swap1\n      pop\n      jump\t// out\n        /* \"#utility.yul\":4345:4461   */\n    tag_231:\n        /* \"#utility.yul\":4415:4436   */\n      tag_303\n        /* \"#utility.yul\":4430:4435   */\n      dup2\n        /* \"#utility.yul\":4415:4436   */\n      tag_230\n      jump\t// in\n    tag_303:\n        /* \"#utility.yul\":4408:4413   */\n      dup2\n        /* \"#utility.yul\":4405:4437   */\n      eq\n        /* \"#utility.yul\":4395:4455   */\n      tag_304\n      jumpi\n        /* \"#utility.yul\":4451:4452   */\n      0x00\n        /* \"#utility.yul\":4448:4449   */\n      dup1\n        /* \"#utility.yul\":4441:4453   */\n      revert\n        /* \"#utility.yul\":4395:4455   */\n    tag_304:\n        /* \"#utility.yul\":4345:4461   */\n      pop\n      jump\t// out\n        /* \"#utility.yul\":4467:4600   */\n    tag_232:\n        /* \"#utility.yul\":4510:4515   */\n      0x00\n        /* \"#utility.yul\":4548:4554   */\n      dup2\n        /* \"#utility.yul\":4535:4555   */\n      calldataload\n        /* \"#utility.yul\":4526:4555   */\n      swap1\n      pop\n        /* \"#utility.yul\":4564:4594   */\n      tag_306\n        /* \"#utility.yul\":4588:4593   */\n      dup2\n        /* \"#utility.yul\":4564:4594   */\n      tag_231\n      jump\t// in\n    tag_306:\n        /* \"#utility.yul\":4467:4600   */\n      swap3\n      swap2\n      pop\n      pop\n      jump\t// out\n        /* \"#utility.yul\":4606:5511   */\n    tag_64:\n        /* \"#utility.yul\":4698:4704   */\n      0x00\n        /* \"#utility.yul\":4706:4712   */\n      dup1\n        /* \"#utility.yul\":4714:4720   */\n      0x00\n        /* \"#utility.yul\":4722:4728   */\n      dup1\n        /* \"#utility.yul\":4730:4736   */\n      0x00\n        /* \"#utility.yul\":4779:4782   */\n      0xa0\n        /* \"#utility.yul\":4767:4776   */\n      dup7\n        /* \"#utility.yul\":4758:4765   */\n      dup9\n        /* \"#utility.yul\":4754:4777   */\n      sub\n        /* \"#utility.yul\":4750:4783   */\n      slt\n        /* \"#utility.yul\":4747:4867   */\n      iszero\n      tag_308\n      jumpi\n        /* \"#utility.yul\":4786:4865   */\n      tag_309\n      tag_217\n      jump\t// in\n    tag_309:\n        /* \"#utility.yul\":4747:4867   */\n    tag_308:\n        /* \"#utility.yul\":4906:4907   */\n      0x00\n        /* \"#utility.yul\":4931:4984   */\n      tag_310\n        /* \"#utility.yul\":4976:4983   */\n      dup9\n        /* \"#utility.yul\":4967:4973   */\n      dup3\n        /* \"#utility.yul\":4956:4965   */\n      dup10\n        /* \"#utility.yul\":4952:4974   */\n      add\n        /* \"#utility.yul\":4931:4984   */\n      tag_229\n      jump\t// in\n    tag_310:\n        /* \"#utility.yul\":4921:4984   */\n      swap6\n      pop\n        /* \"#utility.yul\":4877:4994   */\n      pop\n        /* \"#utility.yul\":5033:5035   */\n      0x20\n        /* \"#utility.yul\":5059:5112   */\n      tag_311\n        /* \"#utility.yul\":5104:5111   */\n      dup9\n        /* \"#utility.yul\":5095:5101   */\n      dup3\n        /* \"#utility.yul\":5084:5093   */\n      dup10\n        /* \"#utility.yul\":5080:5102   */\n      add\n        /* \"#utility.yul\":5059:5112   */\n      tag_220\n      jump\t// in\n    tag_311:\n        /* \"#utility.yul\":5049:5112   */\n      swap5\n      pop\n        /* \"#utility.yul\":5004:5122   */\n      pop\n        /* \"#utility.yul\":5161:5163   */\n      0x40\n        /* \"#utility.yul\":5187:5240   */\n      tag_312\n        /* \"#utility.yul\":5232:5239   */\n      dup9\n        /* \"#utility.yul\":5223:5229   */\n      dup3\n        /* \"#utility.yul\":5212:5221   */\n      dup10\n        /* \"#utility.yul\":5208:5230   */\n      add\n        /* \"#utility.yul\":5187:5240   */\n      tag_220\n      jump\t// in\n    tag_312:\n        /* \"#utility.yul\":5177:5240   */\n      swap4\n      pop\n        /* \"#utility.yul\":5132:5250   */\n      pop\n        /* \"#utility.yul\":5289:5291   */\n      0x60\n        /* \"#utility.yul\":5315:5365   */\n      tag_313\n        /* \"#utility.yul\":5357:5364   */\n      dup9\n        /* \"#utility.yul\":5348:5354   */\n      dup3\n        /* \"#utility.yul\":5337:5346   */\n      dup10\n        /* \"#utility.yul\":5333:5355   */\n      add\n        /* \"#utility.yul\":5315:5365   */\n      tag_232\n      jump\t// in\n    tag_313:\n        /* \"#utility.yul\":5305:5365   */\n      swap3\n      pop\n        /* \"#utility.yul\":5260:5375   */\n      pop\n        /* \"#utility.yul\":5414:5417   */\n      0x80\n        /* \"#utility.yul\":5441:5494   */\n      tag_314\n        /* \"#utility.yul\":5486:5493   */\n      dup9\n        /* \"#utility.yul\":5477:5483   */\n      dup3\n        /* \"#utility.yul\":5466:5475   */\n      dup10\n        /* \"#utility.yul\":5462:5484   */\n      add\n        /* \"#utility.yul\":5441:5494   */\n      tag_220\n      jump\t// in\n    tag_314:\n        /* \"#utility.yul\":5431:5494   */\n      swap2\n      pop\n        /* \"#utility.yul\":5385:5504   */\n      pop\n        /* \"#utility.yul\":4606:5511   */\n      swap3\n      swap6\n      pop\n      swap3\n      swap6\n      swap1\n      swap4\n      pop\n      jump\t// out\n        /* \"#utility.yul\":5517:5626   */\n    tag_233:\n        /* \"#utility.yul\":5598:5619   */\n      tag_316\n        /* \"#utility.yul\":5613:5618   */\n      dup2\n        /* \"#utility.yul\":5598:5619   */\n      tag_230\n      jump\t// in\n    tag_316:\n        /* \"#utility.yul\":5593:5596   */\n      dup3\n        /* \"#utility.yul\":5586:5620   */\n      mstore\n        /* \"#utility.yul\":5517:5626   */\n      pop\n      pop\n      jump\t// out\n        /* \"#utility.yul\":5632:6383   */\n    tag_71:\n        /* \"#utility.yul\":5853:5857   */\n      0x00\n        /* \"#utility.yul\":5891:5894   */\n      0xc0\n        /* \"#utility.yul\":5880:5889   */\n      dup3\n        /* \"#utility.yul\":5876:5895   */\n      add\n        /* \"#utility.yul\":5868:5895   */\n      swap1\n      pop\n        /* \"#utility.yul\":5905:5976   */\n      tag_318\n        /* \"#utility.yul\":5973:5974   */\n      0x00\n        /* \"#utility.yul\":5962:5971   */\n      dup4\n        /* \"#utility.yul\":5958:5975   */\n      add\n        /* \"#utility.yul\":5949:5955   */\n      dup10\n        /* \"#utility.yul\":5905:5976   */\n      tag_213\n      jump\t// in\n    tag_318:\n        /* \"#utility.yul\":5986:6058   */\n      tag_319\n        /* \"#utility.yul\":6054:6056   */\n      0x20\n        /* \"#utility.yul\":6043:6052   */\n      dup4\n        /* \"#utility.yul\":6039:6057   */\n      add\n        /* \"#utility.yul\":6030:6036   */\n      dup9\n        /* \"#utility.yul\":5986:6058   */\n      tag_215\n      jump\t// in\n    tag_319:\n        /* \"#utility.yul\":6068:6140   */\n      tag_320\n        /* \"#utility.yul\":6136:6138   */\n      0x40\n        /* \"#utility.yul\":6125:6134   */\n      dup4\n        /* \"#utility.yul\":6121:6139   */\n      add\n        /* \"#utility.yul\":6112:6118   */\n      dup8\n        /* \"#utility.yul\":6068:6140   */\n      tag_215\n      jump\t// in\n    tag_320:\n        /* \"#utility.yul\":6150:6216   */\n      tag_321\n        /* \"#utility.yul\":6212:6214   */\n      0x60\n        /* \"#utility.yul\":6201:6210   */\n      dup4\n        /* \"#utility.yul\":6197:6215   */\n      add\n        /* \"#utility.yul\":6188:6194   */\n      dup7\n        /* \"#utility.yul\":6150:6216   */\n      tag_233\n      jump\t// in\n    tag_321:\n        /* \"#utility.yul\":6226:6293   */\n      tag_322\n        /* \"#utility.yul\":6288:6291   */\n      0x80\n        /* \"#utility.yul\":6277:6286   */\n      dup4\n        /* \"#utility.yul\":6273:6292   */\n      add\n        /* \"#utility.yul\":6264:6270   */\n      dup6\n        /* \"#utility.yul\":6226:6293   */\n      tag_233\n      jump\t// in\n    tag_322:\n        /* \"#utility.yul\":6303:6376   */\n      tag_323\n        /* \"#utility.yul\":6371:6374   */\n      0xa0\n        /* \"#utility.yul\":6360:6369   */\n      dup4\n        /* \"#utility.yul\":6356:6375   */\n      add\n        /* \"#utility.yul\":6347:6353   */\n      dup5\n        /* \"#utility.yul\":6303:6376   */\n      tag_215\n      jump\t// in\n    tag_323:\n        /* \"#utility.yul\":5632:6383   */\n      swap8\n      swap7\n      pop\n      pop\n      pop\n      pop\n      pop\n      pop\n      pop\n      jump\t// out\n        /* \"#utility.yul\":6389:6718   */\n    tag_79:\n        /* \"#utility.yul\":6448:6454   */\n      0x00\n        /* \"#utility.yul\":6497:6499   */\n      0x20\n        /* \"#utility.yul\":6485:6494   */\n      dup3\n        /* \"#utility.yul\":6476:6483   */\n      dup5\n        /* \"#utility.yul\":6472:6495   */\n      sub\n        /* \"#utility.yul\":6468:6500   */\n      slt\n        /* \"#utility.yul\":6465:6584   */\n      iszero\n      tag_325\n      jumpi\n        /* \"#utility.yul\":6503:6582   */\n      tag_326\n      tag_217\n      jump\t// in\n    tag_326:\n        /* \"#utility.yul\":6465:6584   */\n    tag_325:\n        /* \"#utility.yul\":6623:6624   */\n      0x00\n        /* \"#utility.yul\":6648:6701   */\n      tag_327\n        /* \"#utility.yul\":6693:6700   */\n      dup5\n        /* \"#utility.yul\":6684:6690   */\n      dup3\n        /* \"#utility.yul\":6673:6682   */\n      dup6\n        /* \"#utility.yul\":6669:6691   */\n      add\n        /* \"#utility.yul\":6648:6701   */\n      tag_229\n      jump\t// in\n    tag_327:\n        /* \"#utility.yul\":6638:6701   */\n      swap2\n      pop\n        /* \"#utility.yul\":6594:6711   */\n      pop\n        /* \"#utility.yul\":6389:6718   */\n      swap3\n      swap2\n      pop\n      pop\n      jump\t// out\n        /* \"#utility.yul\":6724:6893   */\n    tag_234:\n        /* \"#utility.yul\":6808:6819   */\n      0x00\n        /* \"#utility.yul\":6842:6848   */\n      dup3\n        /* \"#utility.yul\":6837:6840   */\n      dup3\n        /* \"#utility.yul\":6830:6849   */\n      mstore\n        /* \"#utility.yul\":6882:6886   */\n      0x20\n        /* \"#utility.yul\":6877:6880   */\n      dup3\n        /* \"#utility.yul\":6873:6887   */\n      add\n        /* \"#utility.yul\":6858:6887   */\n      swap1\n      pop\n        /* \"#utility.yul\":6724:6893   */\n      swap3\n      swap2\n      pop\n      pop\n      jump\t// out\n        /* \"#utility.yul\":6899:7070   */\n    tag_235:\n        /* \"#utility.yul\":7039:7062   */\n      0x4c697374696e67206973206e6f74206163746976650000000000000000000000\n        /* \"#utility.yul\":7035:7036   */\n      0x00\n        /* \"#utility.yul\":7027:7033   */\n      dup3\n        /* \"#utility.yul\":7023:7037   */\n      add\n        /* \"#utility.yul\":7016:7063   */\n      mstore\n        /* \"#utility.yul\":6899:7070   */\n      pop\n      jump\t// out\n        /* \"#utility.yul\":7076:7442   */\n    tag_236:\n        /* \"#utility.yul\":7218:7221   */\n      0x00\n        /* \"#utility.yul\":7239:7306   */\n      tag_331\n        /* \"#utility.yul\":7303:7305   */\n      0x15\n        /* \"#utility.yul\":7298:7301   */\n      dup4\n        /* \"#utility.yul\":7239:7306   */\n      tag_234\n      jump\t// in\n    tag_331:\n        /* \"#utility.yul\":7232:7306   */\n      swap2\n      pop\n        /* \"#utility.yul\":7315:7408   */\n      tag_332\n        /* \"#utility.yul\":7404:7407   */\n      dup3\n        /* \"#utility.yul\":7315:7408   */\n      tag_235\n      jump\t// in\n    tag_332:\n        /* \"#utility.yul\":7433:7435   */\n      0x20\n        /* \"#utility.yul\":7428:7431   */\n      dup3\n        /* \"#utility.yul\":7424:7436   */\n      add\n        /* \"#utility.yul\":7417:7436   */\n      swap1\n      pop\n        /* \"#utility.yul\":7076:7442   */\n      swap2\n      swap1\n      pop\n      jump\t// out\n        /* \"#utility.yul\":7448:7867   */\n    tag_84:\n        /* \"#utility.yul\":7614:7618   */\n      0x00\n        /* \"#utility.yul\":7652:7654   */\n      0x20\n        /* \"#utility.yul\":7641:7650   */\n      dup3\n        /* \"#utility.yul\":7637:7655   */\n      add\n        /* \"#utility.yul\":7629:7655   */\n      swap1\n      pop\n        /* \"#utility.yul\":7701:7710   */\n      dup2\n        /* \"#utility.yul\":7695:7699   */\n      dup2\n        /* \"#utility.yul\":7691:7711   */\n      sub\n        /* \"#utility.yul\":7687:7688   */\n      0x00\n        /* \"#utility.yul\":7676:7685   */\n      dup4\n        /* \"#utility.yul\":7672:7689   */\n      add\n        /* \"#utility.yul\":7665:7712   */\n      mstore\n        /* \"#utility.yul\":7729:7860   */\n      tag_334\n        /* \"#utility.yul\":7855:7859   */\n      dup2\n        /* \"#utility.yul\":7729:7860   */\n      tag_236\n      jump\t// in\n    tag_334:\n        /* \"#utility.yul\":7721:7860   */\n      swap1\n      pop\n        /* \"#utility.yul\":7448:7867   */\n      swap2\n      swap1\n      pop\n      jump\t// out\n        /* \"#utility.yul\":7873:8016   */\n    tag_237:\n        /* \"#utility.yul\":7930:7935   */\n      0x00\n        /* \"#utility.yul\":7961:7967   */\n      dup2\n        /* \"#utility.yul\":7955:7968   */\n      mload\n        /* \"#utility.yul\":7946:7968   */\n      swap1\n      pop\n        /* \"#utility.yul\":7977:8010   */\n      tag_336\n        /* \"#utility.yul\":8004:8009   */\n      dup2\n        /* \"#utility.yul\":7977:8010   */\n      tag_228\n      jump\t// in\n    tag_336:\n        /* \"#utility.yul\":7873:8016   */\n      swap3\n      swap2\n      pop\n      pop\n      jump\t// out\n        /* \"#utility.yul\":8022:8373   */\n    tag_89:\n        /* \"#utility.yul\":8092:8098   */\n      0x00\n        /* \"#utility.yul\":8141:8143   */\n      0x20\n        /* \"#utility.yul\":8129:8138   */\n      dup3\n        /* \"#utility.yul\":8120:8127   */\n      dup5\n        /* \"#utility.yul\":8116:8139   */\n      sub\n        /* \"#utility.yul\":8112:8144   */\n      slt\n        /* \"#utility.yul\":8109:8228   */\n      iszero\n      tag_338\n      jumpi\n        /* \"#utility.yul\":8147:8226   */\n      tag_339\n      tag_217\n      jump\t// in\n    tag_339:\n        /* \"#utility.yul\":8109:8228   */\n    tag_338:\n        /* \"#utility.yul\":8267:8268   */\n      0x00\n        /* \"#utility.yul\":8292:8356   */\n      tag_340\n        /* \"#utility.yul\":8348:8355   */\n      dup5\n        /* \"#utility.yul\":8339:8345   */\n      dup3\n        /* \"#utility.yul\":8328:8337   */\n      dup6\n        /* \"#utility.yul\":8324:8346   */\n      add\n        /* \"#utility.yul\":8292:8356   */\n      tag_237\n      jump\t// in\n    tag_340:\n        /* \"#utility.yul\":8282:8356   */\n      swap2\n      pop\n        /* \"#utility.yul\":8238:8366   */\n      pop\n        /* \"#utility.yul\":8022:8373   */\n      swap3\n      swap2\n      pop\n      pop\n      jump\t// out\n        /* \"#utility.yul\":8379:8606   */\n    tag_238:\n        /* \"#utility.yul\":8519:8553   */\n      0x4f6e6c792074686520636f6e74726163742063616e2063616e63656c20746865\n        /* \"#utility.yul\":8515:8516   */\n      0x00\n        /* \"#utility.yul\":8507:8513   */\n      dup3\n        /* \"#utility.yul\":8503:8517   */\n      add\n        /* \"#utility.yul\":8496:8554   */\n      mstore\n        /* \"#utility.yul\":8588:8598   */\n      0x206c697374696e67000000000000000000000000000000000000000000000000\n        /* \"#utility.yul\":8583:8585   */\n      0x20\n        /* \"#utility.yul\":8575:8581   */\n      dup3\n        /* \"#utility.yul\":8571:8586   */\n      add\n        /* \"#utility.yul\":8564:8599   */\n      mstore\n        /* \"#utility.yul\":8379:8606   */\n      pop\n      jump\t// out\n        /* \"#utility.yul\":8612:8978   */\n    tag_239:\n        /* \"#utility.yul\":8754:8757   */\n      0x00\n        /* \"#utility.yul\":8775:8842   */\n      tag_343\n        /* \"#utility.yul\":8839:8841   */\n      0x28\n        /* \"#utility.yul\":8834:8837   */\n      dup4\n        /* \"#utility.yul\":8775:8842   */\n      tag_234\n      jump\t// in\n    tag_343:\n        /* \"#utility.yul\":8768:8842   */\n      swap2\n      pop\n        /* \"#utility.yul\":8851:8944   */\n      tag_344\n        /* \"#utility.yul\":8940:8943   */\n      dup3\n        /* \"#utility.yul\":8851:8944   */\n      tag_238\n      jump\t// in\n    tag_344:\n        /* \"#utility.yul\":8969:8971   */\n      0x40\n        /* \"#utility.yul\":8964:8967   */\n      dup3\n        /* \"#utility.yul\":8960:8972   */\n      add\n        /* \"#utility.yul\":8953:8972   */\n      swap1\n      pop\n        /* \"#utility.yul\":8612:8978   */\n      swap2\n      swap1\n      pop\n      jump\t// out\n        /* \"#utility.yul\":8984:9403   */\n    tag_92:\n        /* \"#utility.yul\":9150:9154   */\n      0x00\n        /* \"#utility.yul\":9188:9190   */\n      0x20\n        /* \"#utility.yul\":9177:9186   */\n      dup3\n        /* \"#utility.yul\":9173:9191   */\n      add\n        /* \"#utility.yul\":9165:9191   */\n      swap1\n      pop\n        /* \"#utility.yul\":9237:9246   */\n      dup2\n        /* \"#utility.yul\":9231:9235   */\n      dup2\n        /* \"#utility.yul\":9227:9247   */\n      sub\n        /* \"#utility.yul\":9223:9224   */\n      0x00\n        /* \"#utility.yul\":9212:9221   */\n      dup4\n        /* \"#utility.yul\":9208:9225   */\n      add\n        /* \"#utility.yul\":9201:9248   */\n      mstore\n        /* \"#utility.yul\":9265:9396   */\n      tag_346\n        /* \"#utility.yul\":9391:9395   */\n      dup2\n        /* \"#utility.yul\":9265:9396   */\n      tag_239\n      jump\t// in\n    tag_346:\n        /* \"#utility.yul\":9257:9396   */\n      swap1\n      pop\n        /* \"#utility.yul\":8984:9403   */\n      swap2\n      swap1\n      pop\n      jump\t// out\n        /* \"#utility.yul\":9409:9851   */\n    tag_94:\n        /* \"#utility.yul\":9558:9562   */\n      0x00\n        /* \"#utility.yul\":9596:9598   */\n      0x60\n        /* \"#utility.yul\":9585:9594   */\n      dup3\n        /* \"#utility.yul\":9581:9599   */\n      add\n        /* \"#utility.yul\":9573:9599   */\n      swap1\n      pop\n        /* \"#utility.yul\":9609:9680   */\n      tag_348\n        /* \"#utility.yul\":9677:9678   */\n      0x00\n        /* \"#utility.yul\":9666:9675   */\n      dup4\n        /* \"#utility.yul\":9662:9679   */\n      add\n        /* \"#utility.yul\":9653:9659   */\n      dup7\n        /* \"#utility.yul\":9609:9680   */\n      tag_213\n      jump\t// in\n    tag_348:\n        /* \"#utility.yul\":9690:9762   */\n      tag_349\n        /* \"#utility.yul\":9758:9760   */\n      0x20\n        /* \"#utility.yul\":9747:9756   */\n      dup4\n        /* \"#utility.yul\":9743:9761   */\n      add\n        /* \"#utility.yul\":9734:9740   */\n      dup6\n        /* \"#utility.yul\":9690:9762   */\n      tag_213\n      jump\t// in\n    tag_349:\n        /* \"#utility.yul\":9772:9844   */\n      tag_350\n        /* \"#utility.yul\":9840:9842   */\n      0x40\n        /* \"#utility.yul\":9829:9838   */\n      dup4\n        /* \"#utility.yul\":9825:9843   */\n      add\n        /* \"#utility.yul\":9816:9822   */\n      dup5\n        /* \"#utility.yul\":9772:9844   */\n      tag_215\n      jump\t// in\n    tag_350:\n        /* \"#utility.yul\":9409:9851   */\n      swap5\n      swap4\n      pop\n      pop\n      pop\n      pop\n      jump\t// out\n        /* \"#utility.yul\":9857:10031   */\n    tag_240:\n        /* \"#utility.yul\":9997:10023   */\n      0x496e636f7272656374207061796d656e7420616d6f756e740000000000000000\n        /* \"#utility.yul\":9993:9994   */\n      0x00\n        /* \"#utility.yul\":9985:9991   */\n      dup3\n        /* \"#utility.yul\":9981:9995   */\n      add\n        /* \"#utility.yul\":9974:10024   */\n      mstore\n        /* \"#utility.yul\":9857:10031   */\n      pop\n      jump\t// out\n        /* \"#utility.yul\":10037:10403   */\n    tag_241:\n        /* \"#utility.yul\":10179:10182   */\n      0x00\n        /* \"#utility.yul\":10200:10267   */\n      tag_353\n        /* \"#utility.yul\":10264:10266   */\n      0x18\n        /* \"#utility.yul\":10259:10262   */\n      dup4\n        /* \"#utility.yul\":10200:10267   */\n      tag_234\n      jump\t// in\n    tag_353:\n        /* \"#utility.yul\":10193:10267   */\n      swap2\n      pop\n        /* \"#utility.yul\":10276:10369   */\n      tag_354\n        /* \"#utility.yul\":10365:10368   */\n      dup3\n        /* \"#utility.yul\":10276:10369   */\n      tag_240\n      jump\t// in\n    tag_354:\n        /* \"#utility.yul\":10394:10396   */\n      0x20\n        /* \"#utility.yul\":10389:10392   */\n      dup3\n        /* \"#utility.yul\":10385:10397   */\n      add\n        /* \"#utility.yul\":10378:10397   */\n      swap1\n      pop\n        /* \"#utility.yul\":10037:10403   */\n      swap2\n      swap1\n      pop\n      jump\t// out\n        /* \"#utility.yul\":10409:10828   */\n    tag_104:\n        /* \"#utility.yul\":10575:10579   */\n      0x00\n        /* \"#utility.yul\":10613:10615   */\n      0x20\n        /* \"#utility.yul\":10602:10611   */\n      dup3\n        /* \"#utility.yul\":10598:10616   */\n      add\n        /* \"#utility.yul\":10590:10616   */\n      swap1\n      pop\n        /* \"#utility.yul\":10662:10671   */\n      dup2\n        /* \"#utility.yul\":10656:10660   */\n      dup2\n        /* \"#utility.yul\":10652:10672   */\n      sub\n        /* \"#utility.yul\":10648:10649   */\n      0x00\n        /* \"#utility.yul\":10637:10646   */\n      dup4\n        /* \"#utility.yul\":10633:10650   */\n      add\n        /* \"#utility.yul\":10626:10673   */\n      mstore\n        /* \"#utility.yul\":10690:10821   */\n      tag_356\n        /* \"#utility.yul\":10816:10820   */\n      dup2\n        /* \"#utility.yul\":10690:10821   */\n      tag_241\n      jump\t// in\n    tag_356:\n        /* \"#utility.yul\":10682:10821   */\n      swap1\n      pop\n        /* \"#utility.yul\":10409:10828   */\n      swap2\n      swap1\n      pop\n      jump\t// out\n        /* \"#utility.yul\":10834:11014   */\n    tag_242:\n        /* \"#utility.yul\":10882:10959   */\n      0x4e487b7100000000000000000000000000000000000000000000000000000000\n        /* \"#utility.yul\":10879:10880   */\n      0x00\n        /* \"#utility.yul\":10872:10960   */\n      mstore\n        /* \"#utility.yul\":10979:10983   */\n      0x11\n        /* \"#utility.yul\":10976:10977   */\n      0x04\n        /* \"#utility.yul\":10969:10984   */\n      mstore\n        /* \"#utility.yul\":11003:11007   */\n      0x24\n        /* \"#utility.yul\":11000:11001   */\n      0x00\n        /* \"#utility.yul\":10993:11008   */\n      revert\n        /* \"#utility.yul\":11020:11430   */\n    tag_114:\n        /* \"#utility.yul\":11060:11067   */\n      0x00\n        /* \"#utility.yul\":11083:11103   */\n      tag_359\n        /* \"#utility.yul\":11101:11102   */\n      dup3\n        /* \"#utility.yul\":11083:11103   */\n      tag_214\n      jump\t// in\n    tag_359:\n        /* \"#utility.yul\":11078:11103   */\n      swap2\n      pop\n        /* \"#utility.yul\":11117:11137   */\n      tag_360\n        /* \"#utility.yul\":11135:11136   */\n      dup4\n        /* \"#utility.yul\":11117:11137   */\n      tag_214\n      jump\t// in\n    tag_360:\n        /* \"#utility.yul\":11112:11137   */\n      swap3\n      pop\n        /* \"#utility.yul\":11172:11173   */\n      dup3\n        /* \"#utility.yul\":11169:11170   */\n      dup3\n        /* \"#utility.yul\":11165:11174   */\n      mul\n        /* \"#utility.yul\":11194:11224   */\n      tag_361\n        /* \"#utility.yul\":11212:11223   */\n      dup2\n        /* \"#utility.yul\":11194:11224   */\n      tag_214\n      jump\t// in\n    tag_361:\n        /* \"#utility.yul\":11183:11224   */\n      swap2\n      pop\n        /* \"#utility.yul\":11373:11374   */\n      dup3\n        /* \"#utility.yul\":11364:11371   */\n      dup3\n        /* \"#utility.yul\":11360:11375   */\n      div\n        /* \"#utility.yul\":11357:11358   */\n      dup5\n        /* \"#utility.yul\":11354:11376   */\n      eq\n        /* \"#utility.yul\":11334:11335   */\n      dup4\n        /* \"#utility.yul\":11327:11336   */\n      iszero\n        /* \"#utility.yul\":11307:11390   */\n      or\n        /* \"#utility.yul\":11284:11423   */\n      tag_362\n      jumpi\n        /* \"#utility.yul\":11403:11421   */\n      tag_363\n      tag_242\n      jump\t// in\n    tag_363:\n        /* \"#utility.yul\":11284:11423   */\n    tag_362:\n        /* \"#utility.yul\":11068:11430   */\n      pop\n        /* \"#utility.yul\":11020:11430   */\n      swap3\n      swap2\n      pop\n      pop\n      jump\t// out\n        /* \"#utility.yul\":11436:11616   */\n    tag_243:\n        /* \"#utility.yul\":11484:11561   */\n      0x4e487b7100000000000000000000000000000000000000000000000000000000\n        /* \"#utility.yul\":11481:11482   */\n      0x00\n        /* \"#utility.yul\":11474:11562   */\n      mstore\n        /* \"#utility.yul\":11581:11585   */\n      0x12\n        /* \"#utility.yul\":11578:11579   */\n      0x04\n        /* \"#utility.yul\":11571:11586   */\n      mstore\n        /* \"#utility.yul\":11605:11609   */\n      0x24\n        /* \"#utility.yul\":11602:11603   */\n      0x00\n        /* \"#utility.yul\":11595:11610   */\n      revert\n        /* \"#utility.yul\":11622:11807   */\n    tag_116:\n        /* \"#utility.yul\":11662:11663   */\n      0x00\n        /* \"#utility.yul\":11679:11699   */\n      tag_366\n        /* \"#utility.yul\":11697:11698   */\n      dup3\n        /* \"#utility.yul\":11679:11699   */\n      tag_214\n      jump\t// in\n    tag_366:\n        /* \"#utility.yul\":11674:11699   */\n      swap2\n      pop\n        /* \"#utility.yul\":11713:11733   */\n      tag_367\n        /* \"#utility.yul\":11731:11732   */\n      dup4\n        /* \"#utility.yul\":11713:11733   */\n      tag_214\n      jump\t// in\n    tag_367:\n        /* \"#utility.yul\":11708:11733   */\n      swap3\n      pop\n        /* \"#utility.yul\":11752:11753   */\n      dup3\n        /* \"#utility.yul\":11742:11777   */\n      tag_368\n      jumpi\n        /* \"#utility.yul\":11757:11775   */\n      tag_369\n      tag_243\n      jump\t// in\n    tag_369:\n        /* \"#utility.yul\":11742:11777   */\n    tag_368:\n        /* \"#utility.yul\":11799:11800   */\n      dup3\n        /* \"#utility.yul\":11796:11797   */\n      dup3\n        /* \"#utility.yul\":11792:11801   */\n      div\n        /* \"#utility.yul\":11787:11801   */\n      swap1\n      pop\n        /* \"#utility.yul\":11622:11807   */\n      swap3\n      swap2\n      pop\n      pop\n      jump\t// out\n        /* \"#utility.yul\":11813:12007   */\n    tag_120:\n        /* \"#utility.yul\":11853:11857   */\n      0x00\n        /* \"#utility.yul\":11873:11893   */\n      tag_371\n        /* \"#utility.yul\":11891:11892   */\n      dup3\n        /* \"#utility.yul\":11873:11893   */\n      tag_214\n      jump\t// in\n    tag_371:\n        /* \"#utility.yul\":11868:11893   */\n      swap2\n      pop\n        /* \"#utility.yul\":11907:11927   */\n      tag_372\n        /* \"#utility.yul\":11925:11926   */\n      dup4\n        /* \"#utility.yul\":11907:11927   */\n      tag_214\n      jump\t// in\n    tag_372:\n        /* \"#utility.yul\":11902:11927   */\n      swap3\n      pop\n        /* \"#utility.yul\":11951:11952   */\n      dup3\n        /* \"#utility.yul\":11948:11949   */\n      dup3\n        /* \"#utility.yul\":11944:11953   */\n      sub\n        /* \"#utility.yul\":11936:11953   */\n      swap1\n      pop\n        /* \"#utility.yul\":11975:11976   */\n      dup2\n        /* \"#utility.yul\":11969:11973   */\n      dup2\n        /* \"#utility.yul\":11966:11977   */\n      gt\n        /* \"#utility.yul\":11963:12000   */\n      iszero\n      tag_373\n      jumpi\n        /* \"#utility.yul\":11980:11998   */\n      tag_374\n      tag_242\n      jump\t// in\n    tag_374:\n        /* \"#utility.yul\":11963:12000   */\n    tag_373:\n        /* \"#utility.yul\":11813:12007   */\n      swap3\n      swap2\n      pop\n      pop\n      jump\t// out\n        /* \"#utility.yul\":12013:12345   */\n    tag_129:\n        /* \"#utility.yul\":12134:12138   */\n      0x00\n        /* \"#utility.yul\":12172:12174   */\n      0x40\n        /* \"#utility.yul\":12161:12170   */\n      dup3\n        /* \"#utility.yul\":12157:12175   */\n      add\n        /* \"#utility.yul\":12149:12175   */\n      swap1\n      pop\n        /* \"#utility.yul\":12185:12256   */\n      tag_376\n        /* \"#utility.yul\":12253:12254   */\n      0x00\n        /* \"#utility.yul\":12242:12251   */\n      dup4\n        /* \"#utility.yul\":12238:12255   */\n      add\n        /* \"#utility.yul\":12229:12235   */\n      dup6\n        /* \"#utility.yul\":12185:12256   */\n      tag_215\n      jump\t// in\n    tag_376:\n        /* \"#utility.yul\":12266:12338   */\n      tag_377\n        /* \"#utility.yul\":12334:12336   */\n      0x20\n        /* \"#utility.yul\":12323:12332   */\n      dup4\n        /* \"#utility.yul\":12319:12337   */\n      add\n        /* \"#utility.yul\":12310:12316   */\n      dup5\n        /* \"#utility.yul\":12266:12338   */\n      tag_215\n      jump\t// in\n    tag_377:\n        /* \"#utility.yul\":12013:12345   */\n      swap4\n      swap3\n      pop\n      pop\n      pop\n      jump\t// out\n        /* \"#utility.yul\":12351:12574   */\n    tag_244:\n        /* \"#utility.yul\":12491:12525   */\n      0x50657263656e74616765206d757374206265206265747765656e203020616e64\n        /* \"#utility.yul\":12487:12488   */\n      0x00\n        /* \"#utility.yul\":12479:12485   */\n      dup3\n        /* \"#utility.yul\":12475:12489   */\n      add\n        /* \"#utility.yul\":12468:12526   */\n      mstore\n        /* \"#utility.yul\":12560:12566   */\n      0x2031303000000000000000000000000000000000000000000000000000000000\n        /* \"#utility.yul\":12555:12557   */\n      0x20\n        /* \"#utility.yul\":12547:12553   */\n      dup3\n        /* \"#utility.yul\":12543:12558   */\n      add\n        /* \"#utility.yul\":12536:12567   */\n      mstore\n        /* \"#utility.yul\":12351:12574   */\n      pop\n      jump\t// out\n        /* \"#utility.yul\":12580:12946   */\n    tag_245:\n        /* \"#utility.yul\":12722:12725   */\n      0x00\n        /* \"#utility.yul\":12743:12810   */\n      tag_380\n        /* \"#utility.yul\":12807:12809   */\n      0x24\n        /* \"#utility.yul\":12802:12805   */\n      dup4\n        /* \"#utility.yul\":12743:12810   */\n      tag_234\n      jump\t// in\n    tag_380:\n        /* \"#utility.yul\":12736:12810   */\n      swap2\n      pop\n        /* \"#utility.yul\":12819:12912   */\n      tag_381\n        /* \"#utility.yul\":12908:12911   */\n      dup3\n        /* \"#utility.yul\":12819:12912   */\n      tag_244\n      jump\t// in\n    tag_381:\n        /* \"#utility.yul\":12937:12939   */\n      0x40\n        /* \"#utility.yul\":12932:12935   */\n      dup3\n        /* \"#utility.yul\":12928:12940   */\n      add\n        /* \"#utility.yul\":12921:12940   */\n      swap1\n      pop\n        /* \"#utility.yul\":12580:12946   */\n      swap2\n      swap1\n      pop\n      jump\t// out\n        /* \"#utility.yul\":12952:13371   */\n    tag_141:\n        /* \"#utility.yul\":13118:13122   */\n      0x00\n        /* \"#utility.yul\":13156:13158   */\n      0x20\n        /* \"#utility.yul\":13145:13154   */\n      dup3\n        /* \"#utility.yul\":13141:13159   */\n      add\n        /* \"#utility.yul\":13133:13159   */\n      swap1\n      pop\n        /* \"#utility.yul\":13205:13214   */\n      dup2\n        /* \"#utility.yul\":13199:13203   */\n      dup2\n        /* \"#utility.yul\":13195:13215   */\n      sub\n        /* \"#utility.yul\":13191:13192   */\n      0x00\n        /* \"#utility.yul\":13180:13189   */\n      dup4\n        /* \"#utility.yul\":13176:13193   */\n      add\n        /* \"#utility.yul\":13169:13216   */\n      mstore\n        /* \"#utility.yul\":13233:13364   */\n      tag_383\n        /* \"#utility.yul\":13359:13363   */\n      dup2\n        /* \"#utility.yul\":13233:13364   */\n      tag_245\n      jump\t// in\n    tag_383:\n        /* \"#utility.yul\":13225:13364   */\n      swap1\n      pop\n        /* \"#utility.yul\":12952:13371   */\n      swap2\n      swap1\n      pop\n      jump\t// out\n        /* \"#utility.yul\":13377:13557   */\n    tag_146:\n        /* \"#utility.yul\":13425:13502   */\n      0x4e487b7100000000000000000000000000000000000000000000000000000000\n        /* \"#utility.yul\":13422:13423   */\n      0x00\n        /* \"#utility.yul\":13415:13503   */\n      mstore\n        /* \"#utility.yul\":13522:13526   */\n      0x41\n        /* \"#utility.yul\":13519:13520   */\n      0x04\n        /* \"#utility.yul\":13512:13527   */\n      mstore\n        /* \"#utility.yul\":13546:13550   */\n      0x24\n        /* \"#utility.yul\":13543:13544   */\n      0x00\n        /* \"#utility.yul\":13536:13551   */\n      revert\n        /* \"#utility.yul\":13563:13743   */\n    tag_154:\n        /* \"#utility.yul\":13611:13688   */\n      0x4e487b7100000000000000000000000000000000000000000000000000000000\n        /* \"#utility.yul\":13608:13609   */\n      0x00\n        /* \"#utility.yul\":13601:13689   */\n      mstore\n        /* \"#utility.yul\":13708:13712   */\n      0x32\n        /* \"#utility.yul\":13705:13706   */\n      0x04\n        /* \"#utility.yul\":13698:13713   */\n      mstore\n        /* \"#utility.yul\":13732:13736   */\n      0x24\n        /* \"#utility.yul\":13729:13730   */\n      0x00\n        /* \"#utility.yul\":13722:13737   */\n      revert\n        /* \"#utility.yul\":13749:13982   */\n    tag_156:\n        /* \"#utility.yul\":13788:13791   */\n      0x00\n        /* \"#utility.yul\":13811:13835   */\n      tag_387\n        /* \"#utility.yul\":13829:13834   */\n      dup3\n        /* \"#utility.yul\":13811:13835   */\n      tag_214\n      jump\t// in\n    tag_387:\n        /* \"#utility.yul\":13802:13835   */\n      swap2\n      pop\n        /* \"#utility.yul\":13857:13923   */\n      0xffffffffffffffffffffffffffffffffffffffffffffffffffffffffffffffff\n        /* \"#utility.yul\":13850:13855   */\n      dup3\n        /* \"#utility.yul\":13847:13924   */\n      sub\n        /* \"#utility.yul\":13844:13947   */\n      tag_388\n      jumpi\n        /* \"#utility.yul\":13927:13945   */\n      tag_389\n      tag_242\n      jump\t// in\n    tag_389:\n        /* \"#utility.yul\":13844:13947   */\n    tag_388:\n        /* \"#utility.yul\":13974:13975   */\n      0x01\n        /* \"#utility.yul\":13967:13972   */\n      dup3\n        /* \"#utility.yul\":13963:13976   */\n      add\n        /* \"#utility.yul\":13956:13976   */\n      swap1\n      pop\n        /* \"#utility.yul\":13749:13982   */\n      swap2\n      swap1\n      pop\n      jump\t// out\n        /* \"#utility.yul\":13988:14169   */\n    tag_246:\n        /* \"#utility.yul\":14128:14161   */\n      0x5072696365206d7573742062652067726561746572207468616e207a65726f00\n        /* \"#utility.yul\":14124:14125   */\n      0x00\n        /* \"#utility.yul\":14116:14122   */\n      dup3\n        /* \"#utility.yul\":14112:14126   */\n      add\n        /* \"#utility.yul\":14105:14162   */\n      mstore\n        /* \"#utility.yul\":13988:14169   */\n      pop\n      jump\t// out\n        /* \"#utility.yul\":14175:14541   */\n    tag_247:\n        /* \"#utility.yul\":14317:14320   */\n      0x00\n        /* \"#utility.yul\":14338:14405   */\n      tag_392\n        /* \"#utility.yul\":14402:14404   */\n      0x1f\n        /* \"#utility.yul\":14397:14400   */\n      dup4\n        /* \"#utility.yul\":14338:14405   */\n      tag_234\n      jump\t// in\n    tag_392:\n        /* \"#utility.yul\":14331:14405   */\n      swap2\n      pop\n        /* \"#utility.yul\":14414:14507   */\n      tag_393\n        /* \"#utility.yul\":14503:14506   */\n      dup3\n        /* \"#utility.yul\":14414:14507   */\n      tag_246\n      jump\t// in\n    tag_393:\n        /* \"#utility.yul\":14532:14534   */\n      0x20\n        /* \"#utility.yul\":14527:14530   */\n      dup3\n        /* \"#utility.yul\":14523:14535   */\n      add\n        /* \"#utility.yul\":14516:14535   */\n      swap1\n      pop\n        /* \"#utility.yul\":14175:14541   */\n      swap2\n      swap1\n      pop\n      jump\t// out\n        /* \"#utility.yul\":14547:14966   */\n    tag_173:\n        /* \"#utility.yul\":14713:14717   */\n      0x00\n        /* \"#utility.yul\":14751:14753   */\n      0x20\n        /* \"#utility.yul\":14740:14749   */\n      dup3\n        /* \"#utility.yul\":14736:14754   */\n      add\n        /* \"#utility.yul\":14728:14754   */\n      swap1\n      pop\n        /* \"#utility.yul\":14800:14809   */\n      dup2\n        /* \"#utility.yul\":14794:14798   */\n      dup2\n        /* \"#utility.yul\":14790:14810   */\n      sub\n        /* \"#utility.yul\":14786:14787   */\n      0x00\n        /* \"#utility.yul\":14775:14784   */\n      dup4\n        /* \"#utility.yul\":14771:14788   */\n      add\n        /* \"#utility.yul\":14764:14811   */\n      mstore\n        /* \"#utility.yul\":14828:14959   */\n      tag_395\n        /* \"#utility.yul\":14954:14958   */\n      dup2\n        /* \"#utility.yul\":14828:14959   */\n      tag_247\n      jump\t// in\n    tag_395:\n        /* \"#utility.yul\":14820:14959   */\n      swap1\n      pop\n        /* \"#utility.yul\":14547:14966   */\n      swap2\n      swap1\n      pop\n      jump\t// out\n        /* \"#utility.yul\":14972:15194   */\n    tag_248:\n        /* \"#utility.yul\":15112:15146   */\n      0x4f6e6c79204e4654206f776e65722063616e206372656174652061206c697374\n        /* \"#utility.yul\":15108:15109   */\n      0x00\n        /* \"#utility.yul\":15100:15106   */\n      dup3\n        /* \"#utility.yul\":15096:15110   */\n      add\n        /* \"#utility.yul\":15089:15147   */\n      mstore\n        /* \"#utility.yul\":15181:15186   */\n      0x696e670000000000000000000000000000000000000000000000000000000000\n        /* \"#utility.yul\":15176:15178   */\n      0x20\n        /* \"#utility.yul\":15168:15174   */\n      dup3\n        /* \"#utility.yul\":15164:15179   */\n      add\n        /* \"#utility.yul\":15157:15187   */\n      mstore\n        /* \"#utility.yul\":14972:15194   */\n      pop\n      jump\t// out\n        /* \"#utility.yul\":15200:15566   */\n    tag_249:\n        /* \"#utility.yul\":15342:15345   */\n      0x00\n        /* \"#utility.yul\":15363:15430   */\n      tag_398\n        /* \"#utility.yul\":15427:15429   */\n      0x23\n        /* \"#utility.yul\":15422:15425   */\n      dup4\n        /* \"#utility.yul\":15363:15430   */\n      tag_234\n      jump\t// in\n    tag_398:\n        /* \"#utility.yul\":15356:15430   */\n      swap2\n      pop\n        /* \"#utility.yul\":15439:15532   */\n      tag_399\n        /* \"#utility.yul\":15528:15531   */\n      dup3\n        /* \"#utility.yul\":15439:15532   */\n      tag_248\n      jump\t// in\n    tag_399:\n        /* \"#utility.yul\":15557:15559   */\n      0x40\n        /* \"#utility.yul\":15552:15555   */\n      dup3\n        /* \"#utility.yul\":15548:15560   */\n      add\n        /* \"#utility.yul\":15541:15560   */\n      swap1\n      pop\n        /* \"#utility.yul\":15200:15566   */\n      swap2\n      swap1\n      pop\n      jump\t// out\n        /* \"#utility.yul\":15572:15991   */\n    tag_180:\n        /* \"#utility.yul\":15738:15742   */\n      0x00\n        /* \"#utility.yul\":15776:15778   */\n      0x20\n        /* \"#utility.yul\":15765:15774   */\n      dup3\n        /* \"#utility.yul\":15761:15779   */\n      add\n        /* \"#utility.yul\":15753:15779   */\n      swap1\n      pop\n        /* \"#utility.yul\":15825:15834   */\n      dup2\n        /* \"#utility.yul\":15819:15823   */\n      dup2\n        /* \"#utility.yul\":15815:15835   */\n      sub\n        /* \"#utility.yul\":15811:15812   */\n      0x00\n        /* \"#utility.yul\":15800:15809   */\n      dup4\n        /* \"#utility.yul\":15796:15813   */\n      add\n        /* \"#utility.yul\":15789:15836   */\n      mstore\n        /* \"#utility.yul\":15853:15984   */\n      tag_401\n        /* \"#utility.yul\":15979:15983   */\n      dup2\n        /* \"#utility.yul\":15853:15984   */\n      tag_249\n      jump\t// in\n    tag_401:\n        /* \"#utility.yul\":15845:15984   */\n      swap1\n      pop\n        /* \"#utility.yul\":15572:15991   */\n      swap2\n      swap1\n      pop\n      jump\t// out\n        /* \"#utility.yul\":15997:16226   */\n    tag_250:\n        /* \"#utility.yul\":16137:16171   */\n      0x41756374696f6e206475726174696f6e206d7573742062652067726561746572\n        /* \"#utility.yul\":16133:16134   */\n      0x00\n        /* \"#utility.yul\":16125:16131   */\n      dup3\n        /* \"#utility.yul\":16121:16135   */\n      add\n        /* \"#utility.yul\":16114:16172   */\n      mstore\n        /* \"#utility.yul\":16206:16218   */\n      0x207468616e207a65726f00000000000000000000000000000000000000000000\n        /* \"#utility.yul\":16201:16203   */\n      0x20\n        /* \"#utility.yul\":16193:16199   */\n      dup3\n        /* \"#utility.yul\":16189:16204   */\n      add\n        /* \"#utility.yul\":16182:16219   */\n      mstore\n        /* \"#utility.yul\":15997:16226   */\n      pop\n      jump\t// out\n        /* \"#utility.yul\":16232:16598   */\n    tag_251:\n        /* \"#utility.yul\":16374:16377   */\n      0x00\n        /* \"#utility.yul\":16395:16462   */\n      tag_404\n        /* \"#utility.yul\":16459:16461   */\n      0x2a\n        /* \"#utility.yul\":16454:16457   */\n      dup4\n        /* \"#utility.yul\":16395:16462   */\n      tag_234\n      jump\t// in\n    tag_404:\n        /* \"#utility.yul\":16388:16462   */\n      swap2\n      pop\n        /* \"#utility.yul\":16471:16564   */\n      tag_405\n        /* \"#utility.yul\":16560:16563   */\n      dup3\n        /* \"#utility.yul\":16471:16564   */\n      tag_250\n      jump\t// in\n    tag_405:\n        /* \"#utility.yul\":16589:16591   */\n      0x40\n        /* \"#utility.yul\":16584:16587   */\n      dup3\n        /* \"#utility.yul\":16580:16592   */\n      add\n        /* \"#utility.yul\":16573:16592   */\n      swap1\n      pop\n        /* \"#utility.yul\":16232:16598   */\n      swap2\n      swap1\n      pop\n      jump\t// out\n        /* \"#utility.yul\":16604:17023   */\n    tag_184:\n        /* \"#utility.yul\":16770:16774   */\n      0x00\n        /* \"#utility.yul\":16808:16810   */\n      0x20\n        /* \"#utility.yul\":16797:16806   */\n      dup3\n        /* \"#utility.yul\":16793:16811   */\n      add\n        /* \"#utility.yul\":16785:16811   */\n      swap1\n      pop\n        /* \"#utility.yul\":16857:16866   */\n      dup2\n        /* \"#utility.yul\":16851:16855   */\n      dup2\n        /* \"#utility.yul\":16847:16867   */\n      sub\n        /* \"#utility.yul\":16843:16844   */\n      0x00\n        /* \"#utility.yul\":16832:16841   */\n      dup4\n        /* \"#utility.yul\":16828:16845   */\n      add\n        /* \"#utility.yul\":16821:16868   */\n      mstore\n        /* \"#utility.yul\":16885:17016   */\n      tag_407\n        /* \"#utility.yul\":17011:17015   */\n      dup2\n        /* \"#utility.yul\":16885:17016   */\n      tag_251\n      jump\t// in\n    tag_407:\n        /* \"#utility.yul\":16877:17016   */\n      swap1\n      pop\n        /* \"#utility.yul\":16604:17023   */\n      swap2\n      swap1\n      pop\n      jump\t// out\n        /* \"#utility.yul\":17029:17220   */\n    tag_191:\n        /* \"#utility.yul\":17069:17072   */\n      0x00\n        /* \"#utility.yul\":17088:17108   */\n      tag_409\n        /* \"#utility.yul\":17106:17107   */\n      dup3\n        /* \"#utility.yul\":17088:17108   */\n      tag_214\n      jump\t// in\n    tag_409:\n        /* \"#utility.yul\":17083:17108   */\n      swap2\n      pop\n        /* \"#utility.yul\":17122:17142   */\n      tag_410\n        /* \"#utility.yul\":17140:17141   */\n      dup4\n        /* \"#utility.yul\":17122:17142   */\n      tag_214\n      jump\t// in\n    tag_410:\n        /* \"#utility.yul\":17117:17142   */\n      swap3\n      pop\n        /* \"#utility.yul\":17165:17166   */\n      dup3\n        /* \"#utility.yul\":17162:17163   */\n      dup3\n        /* \"#utility.yul\":17158:17167   */\n      add\n        /* \"#utility.yul\":17151:17167   */\n      swap1\n      pop\n        /* \"#utility.yul\":17186:17189   */\n      dup1\n        /* \"#utility.yul\":17183:17184   */\n      dup3\n        /* \"#utility.yul\":17180:17190   */\n      gt\n        /* \"#utility.yul\":17177:17213   */\n      iszero\n      tag_411\n      jumpi\n        /* \"#utility.yul\":17193:17211   */\n      tag_412\n      tag_242\n      jump\t// in\n    tag_412:\n        /* \"#utility.yul\":17177:17213   */\n    tag_411:\n        /* \"#utility.yul\":17029:17220   */\n      swap3\n      swap2\n      pop\n      pop\n      jump\t// out\n        /* \"#utility.yul\":17226:17767   */\n    tag_194:\n        /* \"#utility.yul\":17397:17401   */\n      0x00\n        /* \"#utility.yul\":17435:17438   */\n      0x80\n        /* \"#utility.yul\":17424:17433   */\n      dup3\n        /* \"#utility.yul\":17420:17439   */\n      add\n        /* \"#utility.yul\":17412:17439   */\n      swap1\n      pop\n        /* \"#utility.yul\":17449:17520   */\n      tag_414\n        /* \"#utility.yul\":17517:17518   */\n      0x00\n        /* \"#utility.yul\":17506:17515   */\n      dup4\n        /* \"#utility.yul\":17502:17519   */\n      add\n        /* \"#utility.yul\":17493:17499   */\n      dup8\n        /* \"#utility.yul\":17449:17520   */\n      tag_215\n      jump\t// in\n    tag_414:\n        /* \"#utility.yul\":17530:17602   */\n      tag_415\n        /* \"#utility.yul\":17598:17600   */\n      0x20\n        /* \"#utility.yul\":17587:17596   */\n      dup4\n        /* \"#utility.yul\":17583:17601   */\n      add\n        /* \"#utility.yul\":17574:17580   */\n      dup7\n        /* \"#utility.yul\":17530:17602   */\n      tag_215\n      jump\t// in\n    tag_415:\n        /* \"#utility.yul\":17612:17678   */\n      tag_416\n        /* \"#utility.yul\":17674:17676   */\n      0x40\n        /* \"#utility.yul\":17663:17672   */\n      dup4\n        /* \"#utility.yul\":17659:17677   */\n      add\n        /* \"#utility.yul\":17650:17656   */\n      dup6\n        /* \"#utility.yul\":17612:17678   */\n      tag_233\n      jump\t// in\n    tag_416:\n        /* \"#utility.yul\":17688:17760   */\n      tag_417\n        /* \"#utility.yul\":17756:17758   */\n      0x60\n        /* \"#utility.yul\":17745:17754   */\n      dup4\n        /* \"#utility.yul\":17741:17759   */\n      add\n        /* \"#utility.yul\":17732:17738   */\n      dup5\n        /* \"#utility.yul\":17688:17760   */\n      tag_215\n      jump\t// in\n    tag_417:\n        /* \"#utility.yul\":17226:17767   */\n      swap6\n      swap5\n      pop\n      pop\n      pop\n      pop\n      pop\n      jump\t// out\n\n    auxdata: 0xa26469706673582212205751f742c6eaa00e7ea313be277db23fc5929cdc8fde5c29cb18936e35ce67de64736f6c63430008150033\n}\n",
				"bytecode": {
					"linkReferences": {},
					"object": "6080604052600560035560056004553480156200001a575f80fd5b5060405162001df938038062001df9833981810160405281019062000040919062000274565b335f73ffffffffffffffffffffffffffffffffffffffff168173ffffffffffffffffffffffffffffffffffffffff1603620000b4575f6040517f1e4fbdf7000000000000000000000000000000000000000000000000000000008152600401620000ab9190620002ca565b60405180910390fd5b620000c5816200014e60201b60201c565b508160055f6101000a81548173ffffffffffffffffffffffffffffffffffffffff021916908373ffffffffffffffffffffffffffffffffffffffff1602179055508060065f6101000a81548173ffffffffffffffffffffffffffffffffffffffff021916908373ffffffffffffffffffffffffffffffffffffffff1602179055505050620002e5565b5f805f9054906101000a900473ffffffffffffffffffffffffffffffffffffffff169050815f806101000a81548173ffffffffffffffffffffffffffffffffffffffff021916908373ffffffffffffffffffffffffffffffffffffffff1602179055508173ffffffffffffffffffffffffffffffffffffffff168173ffffffffffffffffffffffffffffffffffffffff167f8be0079c531659141344cd1fd0a4f28419497f9722a3daafe3b4186f6b6457e060405160405180910390a35050565b5f80fd5b5f73ffffffffffffffffffffffffffffffffffffffff82169050919050565b5f6200023e8262000213565b9050919050565b620002508162000232565b81146200025b575f80fd5b50565b5f815190506200026e8162000245565b92915050565b5f80604083850312156200028d576200028c6200020f565b5b5f6200029c858286016200025e565b9250506020620002af858286016200025e565b9150509250929050565b620002c48162000232565b82525050565b5f602082019050620002df5f830184620002b9565b92915050565b611b0680620002f35f395ff3fe6080604052600436106100dc575f3560e01c80638da5cb5b1161007e578063d9194bb211610058578063d9194bb21461025e578063de74e57b14610286578063e20fc118146102c7578063f2fde38b146102f1576100dc565b80638da5cb5b146101e0578063aaccf1ec1461020a578063cdd78cfc14610234576100dc565b80634884f459116100ba5780634884f4591461015c578063715018a6146101785780638333903e1461018e57806387c35bc0146101b6576100dc565b80630d08a3a0146100e05780631a5d63db1461010a578063305a67a814610134575b5f80fd5b3480156100eb575f80fd5b506100f4610319565b60405161010191906111b7565b60405180910390f35b348015610115575f80fd5b5061011e61033e565b60405161012b91906111e8565b60405180910390f35b34801561013f575f80fd5b5061015a6004803603810190610155919061122f565b610344565b005b6101766004803603810190610171919061122f565b61059b565b005b348015610183575f80fd5b5061018c61095d565b005b348015610199575f80fd5b506101b460048036038101906101af919061122f565b610970565b005b3480156101c1575f80fd5b506101ca6109fd565b6040516101d79190611311565b60405180910390f35b3480156101eb575f80fd5b506101f4610b71565b60405161020191906111b7565b60405180910390f35b348015610215575f80fd5b5061021e610b98565b60405161022b91906111e8565b60405180910390f35b34801561023f575f80fd5b50610248610b9e565b60405161025591906111e8565b60405180910390f35b348015610269575f80fd5b50610284600480360381019061027f9190611390565b610ba4565b005b348015610291575f80fd5b506102ac60048036038101906102a7919061122f565b610f10565b6040516102be96959493929190611416565b60405180910390f35b3480156102d2575f80fd5b506102db610f80565b6040516102e891906111b7565b60405180910390f35b3480156102fc575f80fd5b5061031760048036038101906103129190611475565b610fa5565b005b60065f9054906101000a900473ffffffffffffffffffffffffffffffffffffffff1681565b60045481565b5f60015f8381526020019081526020015f2090508060030160019054906101000a900460ff166103a9576040517f08c379a00000000000000000000000000000000000000000000000000000000081526004016103a0906114fa565b60405180910390fd5b3073ffffffffffffffffffffffffffffffffffffffff16815f015f9054906101000a900473ffffffffffffffffffffffffffffffffffffffff1673ffffffffffffffffffffffffffffffffffffffff16636352211e83600101546040518263ffffffff1660e01b815260040161041f91906111e8565b602060405180830381865afa15801561043a573d5f803e3d5ffd5b505050506040513d601f19601f8201168201806040525081019061045e919061152c565b73ffffffffffffffffffffffffffffffffffffffff16146104b4576040517f08c379a00000000000000000000000000000000000000000000000000000000081526004016104ab906115c7565b60405180910390fd5b805f015f9054906101000a900473ffffffffffffffffffffffffffffffffffffffff1673ffffffffffffffffffffffffffffffffffffffff166323b872dd303384600101546040518463ffffffff1660e01b8152600401610517939291906115e5565b5f604051808303815f87803b15801561052e575f80fd5b505af1158015610540573d5f803e3d5ffd5b505050505f8160030160016101000a81548160ff0219169083151502179055507f411aee90354c51b1b04cd563fcab2617142a9d50da19232d888547c8a1b7fd8a8260405161058f91906111e8565b60405180910390a15050565b5f60015f8381526020019081526020015f2090508060030160019054906101000a900460ff16610600576040517f08c379a00000000000000000000000000000000000000000000000000000000081526004016105f7906114fa565b60405180910390fd5b34816002015414610646576040517f08c379a000000000000000000000000000000000000000000000000000000000815260040161063d90611664565b60405180910390fd5b5f815f015f9054906101000a900473ffffffffffffffffffffffffffffffffffffffff1673ffffffffffffffffffffffffffffffffffffffff16636352211e83600101546040518263ffffffff1660e01b81526004016106a691906111e8565b602060405180830381865afa1580156106c1573d5f803e3d5ffd5b505050506040513d601f19601f820116820180604052508101906106e5919061152c565b9050815f015f9054906101000a900473ffffffffffffffffffffffffffffffffffffffff1673ffffffffffffffffffffffffffffffffffffffff166323b872dd303385600101546040518463ffffffff1660e01b815260040161074a939291906115e5565b5f604051808303815f87803b158015610761575f80fd5b505af1158015610773573d5f803e3d5ffd5b505050505f6064600354846002015461078c91906116af565b610796919061171d565b90505f606460045485600201546107ad91906116af565b6107b7919061171d565b90505f818386600201546107cb919061174d565b6107d5919061174d565b905060055f9054906101000a900473ffffffffffffffffffffffffffffffffffffffff1673ffffffffffffffffffffffffffffffffffffffff166108fc8490811502906040515f60405180830381858888f1935050505015801561083b573d5f803e3d5ffd5b5060065f9054906101000a900473ffffffffffffffffffffffffffffffffffffffff1673ffffffffffffffffffffffffffffffffffffffff166108fc8390811502906040515f60405180830381858888f193505050501580156108a0573d5f803e3d5ffd5b508373ffffffffffffffffffffffffffffffffffffffff166108fc8290811502906040515f60405180830381858888f193505050501580156108e4573d5f803e3d5ffd5b505f8560030160016101000a81548160ff0219169083151502179055503373ffffffffffffffffffffffffffffffffffffffff167f6329e40c0365262ebbff5ca819385c2b9713dcaa050ed07866d72c441395699a87876002015460405161094d929190611780565b60405180910390a2505050505050565b610965611029565b61096e5f6110b0565b565b610978611029565b60648111156109bc576040517f08c379a00000000000000000000000000000000000000000000000000000000081526004016109b390611817565b60405180910390fd5b806003819055507fd0a5ddfa06600c6481dcd2923a572827c06e53859f23f7ddab41ff3144ee8687816040516109f291906111e8565b60405180910390a150565b60605f60025467ffffffffffffffff811115610a1c57610a1b611835565b5b604051908082528060200260200182016040528015610a4a5781602001602082028036833780820191505090505b5090505f805b600254811015610ac35760015f8281526020019081526020015f2060030160019054906101000a900460ff1615610ab05780838381518110610a9557610a94611862565b5b6020026020010181815250508180610aac9061188f565b9250505b8080610abb9061188f565b915050610a50565b505f8167ffffffffffffffff811115610adf57610ade611835565b5b604051908082528060200260200182016040528015610b0d5781602001602082028036833780820191505090505b5090505f5b82811015610b6757838181518110610b2d57610b2c611862565b5b6020026020010151828281518110610b4857610b47611862565b5b6020026020010181815250508080610b5f9061188f565b915050610b12565b5080935050505090565b5f805f9054906101000a900473ffffffffffffffffffffffffffffffffffffffff16905090565b60025481565b60035481565b5f8311610be6576040517f08c379a0000000000000000000000000000000000000000000000000000000008152600401610bdd90611920565b60405180910390fd5b3373ffffffffffffffffffffffffffffffffffffffff168573ffffffffffffffffffffffffffffffffffffffff16636352211e866040518263ffffffff1660e01b8152600401610c3691906111e8565b602060405180830381865afa158015610c51573d5f803e3d5ffd5b505050506040513d601f19601f82011682018060405250810190610c75919061152c565b73ffffffffffffffffffffffffffffffffffffffff1614610ccb576040517f08c379a0000000000000000000000000000000000000000000000000000000008152600401610cc2906119ae565b60405180910390fd5b8115610d18575f8111610d13576040517f08c379a0000000000000000000000000000000000000000000000000000000008152600401610d0a90611a3c565b60405180910390fd5b610d1c565b5f90505b8473ffffffffffffffffffffffffffffffffffffffff166323b872dd3330876040518463ffffffff1660e01b8152600401610d59939291906115e5565b5f604051808303815f87803b158015610d70575f80fd5b505af1158015610d82573d5f803e3d5ffd5b505050506040518060c001604052808673ffffffffffffffffffffffffffffffffffffffff16815260200185815260200184815260200183151581526020016001151581526020018242610dd69190611a5a565b81525060015f60025481526020019081526020015f205f820151815f015f6101000a81548173ffffffffffffffffffffffffffffffffffffffff021916908373ffffffffffffffffffffffffffffffffffffffff16021790555060208201518160010155604082015181600201556060820151816003015f6101000a81548160ff02191690831515021790555060808201518160030160016101000a81548160ff02191690831515021790555060a08201518160040155905050838573ffffffffffffffffffffffffffffffffffffffff167f8b20b21402c6ccf4b5f2e911ee605585802d96508e51890a1a317975b864dbb060025486868642610eda9190611a5a565b604051610eea9493929190611a8d565b60405180910390a360025f815480929190610f049061188f565b91905055505050505050565b6001602052805f5260405f205f91509050805f015f9054906101000a900473ffffffffffffffffffffffffffffffffffffffff1690806001015490806002015490806003015f9054906101000a900460ff16908060030160019054906101000a900460ff16908060040154905086565b60055f9054906101000a900473ffffffffffffffffffffffffffffffffffffffff1681565b610fad611029565b5f73ffffffffffffffffffffffffffffffffffffffff168173ffffffffffffffffffffffffffffffffffffffff160361101d575f6040517f1e4fbdf700000000000000000000000000000000000000000000000000000000815260040161101491906111b7565b60405180910390fd5b611026816110b0565b50565b611031611171565b73ffffffffffffffffffffffffffffffffffffffff1661104f610b71565b73ffffffffffffffffffffffffffffffffffffffff16146110ae57611072611171565b6040517f118cdaa70000000000000000000000000000000000000000000000000000000081526004016110a591906111b7565b60405180910390fd5b565b5f805f9054906101000a900473ffffffffffffffffffffffffffffffffffffffff169050815f806101000a81548173ffffffffffffffffffffffffffffffffffffffff021916908373ffffffffffffffffffffffffffffffffffffffff1602179055508173ffffffffffffffffffffffffffffffffffffffff168173ffffffffffffffffffffffffffffffffffffffff167f8be0079c531659141344cd1fd0a4f28419497f9722a3daafe3b4186f6b6457e060405160405180910390a35050565b5f33905090565b5f73ffffffffffffffffffffffffffffffffffffffff82169050919050565b5f6111a182611178565b9050919050565b6111b181611197565b82525050565b5f6020820190506111ca5f8301846111a8565b92915050565b5f819050919050565b6111e2816111d0565b82525050565b5f6020820190506111fb5f8301846111d9565b92915050565b5f80fd5b61120e816111d0565b8114611218575f80fd5b50565b5f8135905061122981611205565b92915050565b5f6020828403121561124457611243611201565b5b5f6112518482850161121b565b91505092915050565b5f81519050919050565b5f82825260208201905092915050565b5f819050602082019050919050565b61128c816111d0565b82525050565b5f61129d8383611283565b60208301905092915050565b5f602082019050919050565b5f6112bf8261125a565b6112c98185611264565b93506112d483611274565b805f5b838110156113045781516112eb8882611292565b97506112f6836112a9565b9250506001810190506112d7565b5085935050505092915050565b5f6020820190508181035f83015261132981846112b5565b905092915050565b61133a81611197565b8114611344575f80fd5b50565b5f8135905061135581611331565b92915050565b5f8115159050919050565b61136f8161135b565b8114611379575f80fd5b50565b5f8135905061138a81611366565b92915050565b5f805f805f60a086880312156113a9576113a8611201565b5b5f6113b688828901611347565b95505060206113c78882890161121b565b94505060406113d88882890161121b565b93505060606113e98882890161137c565b92505060806113fa8882890161121b565b9150509295509295909350565b6114108161135b565b82525050565b5f60c0820190506114295f8301896111a8565b61143660208301886111d9565b61144360408301876111d9565b6114506060830186611407565b61145d6080830185611407565b61146a60a08301846111d9565b979650505050505050565b5f6020828403121561148a57611489611201565b5b5f61149784828501611347565b91505092915050565b5f82825260208201905092915050565b7f4c697374696e67206973206e6f742061637469766500000000000000000000005f82015250565b5f6114e46015836114a0565b91506114ef826114b0565b602082019050919050565b5f6020820190508181035f830152611511816114d8565b9050919050565b5f8151905061152681611331565b92915050565b5f6020828403121561154157611540611201565b5b5f61154e84828501611518565b91505092915050565b7f4f6e6c792074686520636f6e74726163742063616e2063616e63656c207468655f8201527f206c697374696e67000000000000000000000000000000000000000000000000602082015250565b5f6115b16028836114a0565b91506115bc82611557565b604082019050919050565b5f6020820190508181035f8301526115de816115a5565b9050919050565b5f6060820190506115f85f8301866111a8565b61160560208301856111a8565b61161260408301846111d9565b949350505050565b7f496e636f7272656374207061796d656e7420616d6f756e7400000000000000005f82015250565b5f61164e6018836114a0565b91506116598261161a565b602082019050919050565b5f6020820190508181035f83015261167b81611642565b9050919050565b7f4e487b71000000000000000000000000000000000000000000000000000000005f52601160045260245ffd5b5f6116b9826111d0565b91506116c4836111d0565b92508282026116d2816111d0565b915082820484148315176116e9576116e8611682565b5b5092915050565b7f4e487b71000000000000000000000000000000000000000000000000000000005f52601260045260245ffd5b5f611727826111d0565b9150611732836111d0565b925082611742576117416116f0565b5b828204905092915050565b5f611757826111d0565b9150611762836111d0565b925082820390508181111561177a57611779611682565b5b92915050565b5f6040820190506117935f8301856111d9565b6117a060208301846111d9565b9392505050565b7f50657263656e74616765206d757374206265206265747765656e203020616e645f8201527f2031303000000000000000000000000000000000000000000000000000000000602082015250565b5f6118016024836114a0565b915061180c826117a7565b604082019050919050565b5f6020820190508181035f83015261182e816117f5565b9050919050565b7f4e487b71000000000000000000000000000000000000000000000000000000005f52604160045260245ffd5b7f4e487b71000000000000000000000000000000000000000000000000000000005f52603260045260245ffd5b5f611899826111d0565b91507fffffffffffffffffffffffffffffffffffffffffffffffffffffffffffffffff82036118cb576118ca611682565b5b600182019050919050565b7f5072696365206d7573742062652067726561746572207468616e207a65726f005f82015250565b5f61190a601f836114a0565b9150611915826118d6565b602082019050919050565b5f6020820190508181035f830152611937816118fe565b9050919050565b7f4f6e6c79204e4654206f776e65722063616e206372656174652061206c6973745f8201527f696e670000000000000000000000000000000000000000000000000000000000602082015250565b5f6119986023836114a0565b91506119a38261193e565b604082019050919050565b5f6020820190508181035f8301526119c58161198c565b9050919050565b7f41756374696f6e206475726174696f6e206d75737420626520677265617465725f8201527f207468616e207a65726f00000000000000000000000000000000000000000000602082015250565b5f611a26602a836114a0565b9150611a31826119cc565b604082019050919050565b5f6020820190508181035f830152611a5381611a1a565b9050919050565b5f611a64826111d0565b9150611a6f836111d0565b9250828201905080821115611a8757611a86611682565b5b92915050565b5f608082019050611aa05f8301876111d9565b611aad60208301866111d9565b611aba6040830185611407565b611ac760608301846111d9565b9594505050505056fea26469706673582212205751f742c6eaa00e7ea313be277db23fc5929cdc8fde5c29cb18936e35ce67de64736f6c63430008150033",
					"opcodes": "PUSH1 0x80 PUSH1 0x40 MSTORE PUSH1 0x5 PUSH1 0x3 SSTORE PUSH1 0x5 PUSH1 0x4 SSTORE CALLVALUE DUP1 ISZERO PUSH3 0x1A JUMPI PUSH0 DUP1 REVERT JUMPDEST POP PUSH1 0x40 MLOAD PUSH3 0x1DF9 CODESIZE SUB DUP1 PUSH3 0x1DF9 DUP4 CODECOPY DUP2 DUP2 ADD PUSH1 0x40 MSTORE DUP2 ADD SWAP1 PUSH3 0x40 SWAP2 SWAP1 PUSH3 0x274 JUMP JUMPDEST CALLER PUSH0 PUSH20 0xFFFFFFFFFFFFFFFFFFFFFFFFFFFFFFFFFFFFFFFF AND DUP2 PUSH20 0xFFFFFFFFFFFFFFFFFFFFFFFFFFFFFFFFFFFFFFFF AND SUB PUSH3 0xB4 JUMPI PUSH0 PUSH1 0x40 MLOAD PUSH32 0x1E4FBDF700000000000000000000000000000000000000000000000000000000 DUP2 MSTORE PUSH1 0x4 ADD PUSH3 0xAB SWAP2 SWAP1 PUSH3 0x2CA JUMP JUMPDEST PUSH1 0x40 MLOAD DUP1 SWAP2 SUB SWAP1 REVERT JUMPDEST PUSH3 0xC5 DUP2 PUSH3 0x14E PUSH1 0x20 SHL PUSH1 0x20 SHR JUMP JUMPDEST POP DUP2 PUSH1 0x5 PUSH0 PUSH2 0x100 EXP DUP2 SLOAD DUP2 PUSH20 0xFFFFFFFFFFFFFFFFFFFFFFFFFFFFFFFFFFFFFFFF MUL NOT AND SWAP1 DUP4 PUSH20 0xFFFFFFFFFFFFFFFFFFFFFFFFFFFFFFFFFFFFFFFF AND MUL OR SWAP1 SSTORE POP DUP1 PUSH1 0x6 PUSH0 PUSH2 0x100 EXP DUP2 SLOAD DUP2 PUSH20 0xFFFFFFFFFFFFFFFFFFFFFFFFFFFFFFFFFFFFFFFF MUL NOT AND SWAP1 DUP4 PUSH20 0xFFFFFFFFFFFFFFFFFFFFFFFFFFFFFFFFFFFFFFFF AND MUL OR SWAP1 SSTORE POP POP POP PUSH3 0x2E5 JUMP JUMPDEST PUSH0 DUP1 PUSH0 SWAP1 SLOAD SWAP1 PUSH2 0x100 EXP SWAP1 DIV PUSH20 0xFFFFFFFFFFFFFFFFFFFFFFFFFFFFFFFFFFFFFFFF AND SWAP1 POP DUP2 PUSH0 DUP1 PUSH2 0x100 EXP DUP2 SLOAD DUP2 PUSH20 0xFFFFFFFFFFFFFFFFFFFFFFFFFFFFFFFFFFFFFFFF MUL NOT AND SWAP1 DUP4 PUSH20 0xFFFFFFFFFFFFFFFFFFFFFFFFFFFFFFFFFFFFFFFF AND MUL OR SWAP1 SSTORE POP DUP2 PUSH20 0xFFFFFFFFFFFFFFFFFFFFFFFFFFFFFFFFFFFFFFFF AND DUP2 PUSH20 0xFFFFFFFFFFFFFFFFFFFFFFFFFFFFFFFFFFFFFFFF AND PUSH32 0x8BE0079C531659141344CD1FD0A4F28419497F9722A3DAAFE3B4186F6B6457E0 PUSH1 0x40 MLOAD PUSH1 0x40 MLOAD DUP1 SWAP2 SUB SWAP1 LOG3 POP POP JUMP JUMPDEST PUSH0 DUP1 REVERT JUMPDEST PUSH0 PUSH20 0xFFFFFFFFFFFFFFFFFFFFFFFFFFFFFFFFFFFFFFFF DUP3 AND SWAP1 POP SWAP2 SWAP1 POP JUMP JUMPDEST PUSH0 PUSH3 0x23E DUP3 PUSH3 0x213 JUMP JUMPDEST SWAP1 POP SWAP2 SWAP1 POP JUMP JUMPDEST PUSH3 0x250 DUP2 PUSH3 0x232 JUMP JUMPDEST DUP2 EQ PUSH3 0x25B JUMPI PUSH0 DUP1 REVERT JUMPDEST POP JUMP JUMPDEST PUSH0 DUP2 MLOAD SWAP1 POP PUSH3 0x26E DUP2 PUSH3 0x245 JUMP JUMPDEST SWAP3 SWAP2 POP POP JUMP JUMPDEST PUSH0 DUP1 PUSH1 0x40 DUP4 DUP6 SUB SLT ISZERO PUSH3 0x28D JUMPI PUSH3 0x28C PUSH3 0x20F JUMP JUMPDEST JUMPDEST PUSH0 PUSH3 0x29C DUP6 DUP3 DUP7 ADD PUSH3 0x25E JUMP JUMPDEST SWAP3 POP POP PUSH1 0x20 PUSH3 0x2AF DUP6 DUP3 DUP7 ADD PUSH3 0x25E JUMP JUMPDEST SWAP2 POP POP SWAP3 POP SWAP3 SWAP1 POP JUMP JUMPDEST PUSH3 0x2C4 DUP2 PUSH3 0x232 JUMP JUMPDEST DUP3 MSTORE POP POP JUMP JUMPDEST PUSH0 PUSH1 0x20 DUP3 ADD SWAP1 POP PUSH3 0x2DF PUSH0 DUP4 ADD DUP5 PUSH3 0x2B9 JUMP JUMPDEST SWAP3 SWAP2 POP POP JUMP JUMPDEST PUSH2 0x1B06 DUP1 PUSH3 0x2F3 PUSH0 CODECOPY PUSH0 RETURN INVALID PUSH1 0x80 PUSH1 0x40 MSTORE PUSH1 0x4 CALLDATASIZE LT PUSH2 0xDC JUMPI PUSH0 CALLDATALOAD PUSH1 0xE0 SHR DUP1 PUSH4 0x8DA5CB5B GT PUSH2 0x7E JUMPI DUP1 PUSH4 0xD9194BB2 GT PUSH2 0x58 JUMPI DUP1 PUSH4 0xD9194BB2 EQ PUSH2 0x25E JUMPI DUP1 PUSH4 0xDE74E57B EQ PUSH2 0x286 JUMPI DUP1 PUSH4 0xE20FC118 EQ PUSH2 0x2C7 JUMPI DUP1 PUSH4 0xF2FDE38B EQ PUSH2 0x2F1 JUMPI PUSH2 0xDC JUMP JUMPDEST DUP1 PUSH4 0x8DA5CB5B EQ PUSH2 0x1E0 JUMPI DUP1 PUSH4 0xAACCF1EC EQ PUSH2 0x20A JUMPI DUP1 PUSH4 0xCDD78CFC EQ PUSH2 0x234 JUMPI PUSH2 0xDC JUMP JUMPDEST DUP1 PUSH4 0x4884F459 GT PUSH2 0xBA JUMPI DUP1 PUSH4 0x4884F459 EQ PUSH2 0x15C JUMPI DUP1 PUSH4 0x715018A6 EQ PUSH2 0x178 JUMPI DUP1 PUSH4 0x8333903E EQ PUSH2 0x18E JUMPI DUP1 PUSH4 0x87C35BC0 EQ PUSH2 0x1B6 JUMPI PUSH2 0xDC JUMP JUMPDEST DUP1 PUSH4 0xD08A3A0 EQ PUSH2 0xE0 JUMPI DUP1 PUSH4 0x1A5D63DB EQ PUSH2 0x10A JUMPI DUP1 PUSH4 0x305A67A8 EQ PUSH2 0x134 JUMPI JUMPDEST PUSH0 DUP1 REVERT JUMPDEST CALLVALUE DUP1 ISZERO PUSH2 0xEB JUMPI PUSH0 DUP1 REVERT JUMPDEST POP PUSH2 0xF4 PUSH2 0x319 JUMP JUMPDEST PUSH1 0x40 MLOAD PUSH2 0x101 SWAP2 SWAP1 PUSH2 0x11B7 JUMP JUMPDEST PUSH1 0x40 MLOAD DUP1 SWAP2 SUB SWAP1 RETURN JUMPDEST CALLVALUE DUP1 ISZERO PUSH2 0x115 JUMPI PUSH0 DUP1 REVERT JUMPDEST POP PUSH2 0x11E PUSH2 0x33E JUMP JUMPDEST PUSH1 0x40 MLOAD PUSH2 0x12B SWAP2 SWAP1 PUSH2 0x11E8 JUMP JUMPDEST PUSH1 0x40 MLOAD DUP1 SWAP2 SUB SWAP1 RETURN JUMPDEST CALLVALUE DUP1 ISZERO PUSH2 0x13F JUMPI PUSH0 DUP1 REVERT JUMPDEST POP PUSH2 0x15A PUSH1 0x4 DUP1 CALLDATASIZE SUB DUP2 ADD SWAP1 PUSH2 0x155 SWAP2 SWAP1 PUSH2 0x122F JUMP JUMPDEST PUSH2 0x344 JUMP JUMPDEST STOP JUMPDEST PUSH2 0x176 PUSH1 0x4 DUP1 CALLDATASIZE SUB DUP2 ADD SWAP1 PUSH2 0x171 SWAP2 SWAP1 PUSH2 0x122F JUMP JUMPDEST PUSH2 0x59B JUMP JUMPDEST STOP JUMPDEST CALLVALUE DUP1 ISZERO PUSH2 0x183 JUMPI PUSH0 DUP1 REVERT JUMPDEST POP PUSH2 0x18C PUSH2 0x95D JUMP JUMPDEST STOP JUMPDEST CALLVALUE DUP1 ISZERO PUSH2 0x199 JUMPI PUSH0 DUP1 REVERT JUMPDEST POP PUSH2 0x1B4 PUSH1 0x4 DUP1 CALLDATASIZE SUB DUP2 ADD SWAP1 PUSH2 0x1AF SWAP2 SWAP1 PUSH2 0x122F JUMP JUMPDEST PUSH2 0x970 JUMP JUMPDEST STOP JUMPDEST CALLVALUE DUP1 ISZERO PUSH2 0x1C1 JUMPI PUSH0 DUP1 REVERT JUMPDEST POP PUSH2 0x1CA PUSH2 0x9FD JUMP JUMPDEST PUSH1 0x40 MLOAD PUSH2 0x1D7 SWAP2 SWAP1 PUSH2 0x1311 JUMP JUMPDEST PUSH1 0x40 MLOAD DUP1 SWAP2 SUB SWAP1 RETURN JUMPDEST CALLVALUE DUP1 ISZERO PUSH2 0x1EB JUMPI PUSH0 DUP1 REVERT JUMPDEST POP PUSH2 0x1F4 PUSH2 0xB71 JUMP JUMPDEST PUSH1 0x40 MLOAD PUSH2 0x201 SWAP2 SWAP1 PUSH2 0x11B7 JUMP JUMPDEST PUSH1 0x40 MLOAD DUP1 SWAP2 SUB SWAP1 RETURN JUMPDEST CALLVALUE DUP1 ISZERO PUSH2 0x215 JUMPI PUSH0 DUP1 REVERT JUMPDEST POP PUSH2 0x21E PUSH2 0xB98 JUMP JUMPDEST PUSH1 0x40 MLOAD PUSH2 0x22B SWAP2 SWAP1 PUSH2 0x11E8 JUMP JUMPDEST PUSH1 0x40 MLOAD DUP1 SWAP2 SUB SWAP1 RETURN JUMPDEST CALLVALUE DUP1 ISZERO PUSH2 0x23F JUMPI PUSH0 DUP1 REVERT JUMPDEST POP PUSH2 0x248 PUSH2 0xB9E JUMP JUMPDEST PUSH1 0x40 MLOAD PUSH2 0x255 SWAP2 SWAP1 PUSH2 0x11E8 JUMP JUMPDEST PUSH1 0x40 MLOAD DUP1 SWAP2 SUB SWAP1 RETURN JUMPDEST CALLVALUE DUP1 ISZERO PUSH2 0x269 JUMPI PUSH0 DUP1 REVERT JUMPDEST POP PUSH2 0x284 PUSH1 0x4 DUP1 CALLDATASIZE SUB DUP2 ADD SWAP1 PUSH2 0x27F SWAP2 SWAP1 PUSH2 0x1390 JUMP JUMPDEST PUSH2 0xBA4 JUMP JUMPDEST STOP JUMPDEST CALLVALUE DUP1 ISZERO PUSH2 0x291 JUMPI PUSH0 DUP1 REVERT JUMPDEST POP PUSH2 0x2AC PUSH1 0x4 DUP1 CALLDATASIZE SUB DUP2 ADD SWAP1 PUSH2 0x2A7 SWAP2 SWAP1 PUSH2 0x122F JUMP JUMPDEST PUSH2 0xF10 JUMP JUMPDEST PUSH1 0x40 MLOAD PUSH2 0x2BE SWAP7 SWAP6 SWAP5 SWAP4 SWAP3 SWAP2 SWAP1 PUSH2 0x1416 JUMP JUMPDEST PUSH1 0x40 MLOAD DUP1 SWAP2 SUB SWAP1 RETURN JUMPDEST CALLVALUE DUP1 ISZERO PUSH2 0x2D2 JUMPI PUSH0 DUP1 REVERT JUMPDEST POP PUSH2 0x2DB PUSH2 0xF80 JUMP JUMPDEST PUSH1 0x40 MLOAD PUSH2 0x2E8 SWAP2 SWAP1 PUSH2 0x11B7 JUMP JUMPDEST PUSH1 0x40 MLOAD DUP1 SWAP2 SUB SWAP1 RETURN JUMPDEST CALLVALUE DUP1 ISZERO PUSH2 0x2FC JUMPI PUSH0 DUP1 REVERT JUMPDEST POP PUSH2 0x317 PUSH1 0x4 DUP1 CALLDATASIZE SUB DUP2 ADD SWAP1 PUSH2 0x312 SWAP2 SWAP1 PUSH2 0x1475 JUMP JUMPDEST PUSH2 0xFA5 JUMP JUMPDEST STOP JUMPDEST PUSH1 0x6 PUSH0 SWAP1 SLOAD SWAP1 PUSH2 0x100 EXP SWAP1 DIV PUSH20 0xFFFFFFFFFFFFFFFFFFFFFFFFFFFFFFFFFFFFFFFF AND DUP2 JUMP JUMPDEST PUSH1 0x4 SLOAD DUP2 JUMP JUMPDEST PUSH0 PUSH1 0x1 PUSH0 DUP4 DUP2 MSTORE PUSH1 0x20 ADD SWAP1 DUP2 MSTORE PUSH1 0x20 ADD PUSH0 KECCAK256 SWAP1 POP DUP1 PUSH1 0x3 ADD PUSH1 0x1 SWAP1 SLOAD SWAP1 PUSH2 0x100 EXP SWAP1 DIV PUSH1 0xFF AND PUSH2 0x3A9 JUMPI PUSH1 0x40 MLOAD PUSH32 0x8C379A000000000000000000000000000000000000000000000000000000000 DUP2 MSTORE PUSH1 0x4 ADD PUSH2 0x3A0 SWAP1 PUSH2 0x14FA JUMP JUMPDEST PUSH1 0x40 MLOAD DUP1 SWAP2 SUB SWAP1 REVERT JUMPDEST ADDRESS PUSH20 0xFFFFFFFFFFFFFFFFFFFFFFFFFFFFFFFFFFFFFFFF AND DUP2 PUSH0 ADD PUSH0 SWAP1 SLOAD SWAP1 PUSH2 0x100 EXP SWAP1 DIV PUSH20 0xFFFFFFFFFFFFFFFFFFFFFFFFFFFFFFFFFFFFFFFF AND PUSH20 0xFFFFFFFFFFFFFFFFFFFFFFFFFFFFFFFFFFFFFFFF AND PUSH4 0x6352211E DUP4 PUSH1 0x1 ADD SLOAD PUSH1 0x40 MLOAD DUP3 PUSH4 0xFFFFFFFF AND PUSH1 0xE0 SHL DUP2 MSTORE PUSH1 0x4 ADD PUSH2 0x41F SWAP2 SWAP1 PUSH2 0x11E8 JUMP JUMPDEST PUSH1 0x20 PUSH1 0x40 MLOAD DUP1 DUP4 SUB DUP2 DUP7 GAS STATICCALL ISZERO DUP1 ISZERO PUSH2 0x43A JUMPI RETURNDATASIZE PUSH0 DUP1 RETURNDATACOPY RETURNDATASIZE PUSH0 REVERT JUMPDEST POP POP POP POP PUSH1 0x40 MLOAD RETURNDATASIZE PUSH1 0x1F NOT PUSH1 0x1F DUP3 ADD AND DUP3 ADD DUP1 PUSH1 0x40 MSTORE POP DUP2 ADD SWAP1 PUSH2 0x45E SWAP2 SWAP1 PUSH2 0x152C JUMP JUMPDEST PUSH20 0xFFFFFFFFFFFFFFFFFFFFFFFFFFFFFFFFFFFFFFFF AND EQ PUSH2 0x4B4 JUMPI PUSH1 0x40 MLOAD PUSH32 0x8C379A000000000000000000000000000000000000000000000000000000000 DUP2 MSTORE PUSH1 0x4 ADD PUSH2 0x4AB SWAP1 PUSH2 0x15C7 JUMP JUMPDEST PUSH1 0x40 MLOAD DUP1 SWAP2 SUB SWAP1 REVERT JUMPDEST DUP1 PUSH0 ADD PUSH0 SWAP1 SLOAD SWAP1 PUSH2 0x100 EXP SWAP1 DIV PUSH20 0xFFFFFFFFFFFFFFFFFFFFFFFFFFFFFFFFFFFFFFFF AND PUSH20 0xFFFFFFFFFFFFFFFFFFFFFFFFFFFFFFFFFFFFFFFF AND PUSH4 0x23B872DD ADDRESS CALLER DUP5 PUSH1 0x1 ADD SLOAD PUSH1 0x40 MLOAD DUP5 PUSH4 0xFFFFFFFF AND PUSH1 0xE0 SHL DUP2 MSTORE PUSH1 0x4 ADD PUSH2 0x517 SWAP4 SWAP3 SWAP2 SWAP1 PUSH2 0x15E5 JUMP JUMPDEST PUSH0 PUSH1 0x40 MLOAD DUP1 DUP4 SUB DUP2 PUSH0 DUP8 DUP1 EXTCODESIZE ISZERO DUP1 ISZERO PUSH2 0x52E JUMPI PUSH0 DUP1 REVERT JUMPDEST POP GAS CALL ISZERO DUP1 ISZERO PUSH2 0x540 JUMPI RETURNDATASIZE PUSH0 DUP1 RETURNDATACOPY RETURNDATASIZE PUSH0 REVERT JUMPDEST POP POP POP POP PUSH0 DUP2 PUSH1 0x3 ADD PUSH1 0x1 PUSH2 0x100 EXP DUP2 SLOAD DUP2 PUSH1 0xFF MUL NOT AND SWAP1 DUP4 ISZERO ISZERO MUL OR SWAP1 SSTORE POP PUSH32 0x411AEE90354C51B1B04CD563FCAB2617142A9D50DA19232D888547C8A1B7FD8A DUP3 PUSH1 0x40 MLOAD PUSH2 0x58F SWAP2 SWAP1 PUSH2 0x11E8 JUMP JUMPDEST PUSH1 0x40 MLOAD DUP1 SWAP2 SUB SWAP1 LOG1 POP POP JUMP JUMPDEST PUSH0 PUSH1 0x1 PUSH0 DUP4 DUP2 MSTORE PUSH1 0x20 ADD SWAP1 DUP2 MSTORE PUSH1 0x20 ADD PUSH0 KECCAK256 SWAP1 POP DUP1 PUSH1 0x3 ADD PUSH1 0x1 SWAP1 SLOAD SWAP1 PUSH2 0x100 EXP SWAP1 DIV PUSH1 0xFF AND PUSH2 0x600 JUMPI PUSH1 0x40 MLOAD PUSH32 0x8C379A000000000000000000000000000000000000000000000000000000000 DUP2 MSTORE PUSH1 0x4 ADD PUSH2 0x5F7 SWAP1 PUSH2 0x14FA JUMP JUMPDEST PUSH1 0x40 MLOAD DUP1 SWAP2 SUB SWAP1 REVERT JUMPDEST CALLVALUE DUP2 PUSH1 0x2 ADD SLOAD EQ PUSH2 0x646 JUMPI PUSH1 0x40 MLOAD PUSH32 0x8C379A000000000000000000000000000000000000000000000000000000000 DUP2 MSTORE PUSH1 0x4 ADD PUSH2 0x63D SWAP1 PUSH2 0x1664 JUMP JUMPDEST PUSH1 0x40 MLOAD DUP1 SWAP2 SUB SWAP1 REVERT JUMPDEST PUSH0 DUP2 PUSH0 ADD PUSH0 SWAP1 SLOAD SWAP1 PUSH2 0x100 EXP SWAP1 DIV PUSH20 0xFFFFFFFFFFFFFFFFFFFFFFFFFFFFFFFFFFFFFFFF AND PUSH20 0xFFFFFFFFFFFFFFFFFFFFFFFFFFFFFFFFFFFFFFFF AND PUSH4 0x6352211E DUP4 PUSH1 0x1 ADD SLOAD PUSH1 0x40 MLOAD DUP3 PUSH4 0xFFFFFFFF AND PUSH1 0xE0 SHL DUP2 MSTORE PUSH1 0x4 ADD PUSH2 0x6A6 SWAP2 SWAP1 PUSH2 0x11E8 JUMP JUMPDEST PUSH1 0x20 PUSH1 0x40 MLOAD DUP1 DUP4 SUB DUP2 DUP7 GAS STATICCALL ISZERO DUP1 ISZERO PUSH2 0x6C1 JUMPI RETURNDATASIZE PUSH0 DUP1 RETURNDATACOPY RETURNDATASIZE PUSH0 REVERT JUMPDEST POP POP POP POP PUSH1 0x40 MLOAD RETURNDATASIZE PUSH1 0x1F NOT PUSH1 0x1F DUP3 ADD AND DUP3 ADD DUP1 PUSH1 0x40 MSTORE POP DUP2 ADD SWAP1 PUSH2 0x6E5 SWAP2 SWAP1 PUSH2 0x152C JUMP JUMPDEST SWAP1 POP DUP2 PUSH0 ADD PUSH0 SWAP1 SLOAD SWAP1 PUSH2 0x100 EXP SWAP1 DIV PUSH20 0xFFFFFFFFFFFFFFFFFFFFFFFFFFFFFFFFFFFFFFFF AND PUSH20 0xFFFFFFFFFFFFFFFFFFFFFFFFFFFFFFFFFFFFFFFF AND PUSH4 0x23B872DD ADDRESS CALLER DUP6 PUSH1 0x1 ADD SLOAD PUSH1 0x40 MLOAD DUP5 PUSH4 0xFFFFFFFF AND PUSH1 0xE0 SHL DUP2 MSTORE PUSH1 0x4 ADD PUSH2 0x74A SWAP4 SWAP3 SWAP2 SWAP1 PUSH2 0x15E5 JUMP JUMPDEST PUSH0 PUSH1 0x40 MLOAD DUP1 DUP4 SUB DUP2 PUSH0 DUP8 DUP1 EXTCODESIZE ISZERO DUP1 ISZERO PUSH2 0x761 JUMPI PUSH0 DUP1 REVERT JUMPDEST POP GAS CALL ISZERO DUP1 ISZERO PUSH2 0x773 JUMPI RETURNDATASIZE PUSH0 DUP1 RETURNDATACOPY RETURNDATASIZE PUSH0 REVERT JUMPDEST POP POP POP POP PUSH0 PUSH1 0x64 PUSH1 0x3 SLOAD DUP5 PUSH1 0x2 ADD SLOAD PUSH2 0x78C SWAP2 SWAP1 PUSH2 0x16AF JUMP JUMPDEST PUSH2 0x796 SWAP2 SWAP1 PUSH2 0x171D JUMP JUMPDEST SWAP1 POP PUSH0 PUSH1 0x64 PUSH1 0x4 SLOAD DUP6 PUSH1 0x2 ADD SLOAD PUSH2 0x7AD SWAP2 SWAP1 PUSH2 0x16AF JUMP JUMPDEST PUSH2 0x7B7 SWAP2 SWAP1 PUSH2 0x171D JUMP JUMPDEST SWAP1 POP PUSH0 DUP2 DUP4 DUP7 PUSH1 0x2 ADD SLOAD PUSH2 0x7CB SWAP2 SWAP1 PUSH2 0x174D JUMP JUMPDEST PUSH2 0x7D5 SWAP2 SWAP1 PUSH2 0x174D JUMP JUMPDEST SWAP1 POP PUSH1 0x5 PUSH0 SWAP1 SLOAD SWAP1 PUSH2 0x100 EXP SWAP1 DIV PUSH20 0xFFFFFFFFFFFFFFFFFFFFFFFFFFFFFFFFFFFFFFFF AND PUSH20 0xFFFFFFFFFFFFFFFFFFFFFFFFFFFFFFFFFFFFFFFF AND PUSH2 0x8FC DUP5 SWAP1 DUP2 ISZERO MUL SWAP1 PUSH1 0x40 MLOAD PUSH0 PUSH1 0x40 MLOAD DUP1 DUP4 SUB DUP2 DUP6 DUP9 DUP9 CALL SWAP4 POP POP POP POP ISZERO DUP1 ISZERO PUSH2 0x83B JUMPI RETURNDATASIZE PUSH0 DUP1 RETURNDATACOPY RETURNDATASIZE PUSH0 REVERT JUMPDEST POP PUSH1 0x6 PUSH0 SWAP1 SLOAD SWAP1 PUSH2 0x100 EXP SWAP1 DIV PUSH20 0xFFFFFFFFFFFFFFFFFFFFFFFFFFFFFFFFFFFFFFFF AND PUSH20 0xFFFFFFFFFFFFFFFFFFFFFFFFFFFFFFFFFFFFFFFF AND PUSH2 0x8FC DUP4 SWAP1 DUP2 ISZERO MUL SWAP1 PUSH1 0x40 MLOAD PUSH0 PUSH1 0x40 MLOAD DUP1 DUP4 SUB DUP2 DUP6 DUP9 DUP9 CALL SWAP4 POP POP POP POP ISZERO DUP1 ISZERO PUSH2 0x8A0 JUMPI RETURNDATASIZE PUSH0 DUP1 RETURNDATACOPY RETURNDATASIZE PUSH0 REVERT JUMPDEST POP DUP4 PUSH20 0xFFFFFFFFFFFFFFFFFFFFFFFFFFFFFFFFFFFFFFFF AND PUSH2 0x8FC DUP3 SWAP1 DUP2 ISZERO MUL SWAP1 PUSH1 0x40 MLOAD PUSH0 PUSH1 0x40 MLOAD DUP1 DUP4 SUB DUP2 DUP6 DUP9 DUP9 CALL SWAP4 POP POP POP POP ISZERO DUP1 ISZERO PUSH2 0x8E4 JUMPI RETURNDATASIZE PUSH0 DUP1 RETURNDATACOPY RETURNDATASIZE PUSH0 REVERT JUMPDEST POP PUSH0 DUP6 PUSH1 0x3 ADD PUSH1 0x1 PUSH2 0x100 EXP DUP2 SLOAD DUP2 PUSH1 0xFF MUL NOT AND SWAP1 DUP4 ISZERO ISZERO MUL OR SWAP1 SSTORE POP CALLER PUSH20 0xFFFFFFFFFFFFFFFFFFFFFFFFFFFFFFFFFFFFFFFF AND PUSH32 0x6329E40C0365262EBBFF5CA819385C2B9713DCAA050ED07866D72C441395699A DUP8 DUP8 PUSH1 0x2 ADD SLOAD PUSH1 0x40 MLOAD PUSH2 0x94D SWAP3 SWAP2 SWAP1 PUSH2 0x1780 JUMP JUMPDEST PUSH1 0x40 MLOAD DUP1 SWAP2 SUB SWAP1 LOG2 POP POP POP POP POP POP JUMP JUMPDEST PUSH2 0x965 PUSH2 0x1029 JUMP JUMPDEST PUSH2 0x96E PUSH0 PUSH2 0x10B0 JUMP JUMPDEST JUMP JUMPDEST PUSH2 0x978 PUSH2 0x1029 JUMP JUMPDEST PUSH1 0x64 DUP2 GT ISZERO PUSH2 0x9BC JUMPI PUSH1 0x40 MLOAD PUSH32 0x8C379A000000000000000000000000000000000000000000000000000000000 DUP2 MSTORE PUSH1 0x4 ADD PUSH2 0x9B3 SWAP1 PUSH2 0x1817 JUMP JUMPDEST PUSH1 0x40 MLOAD DUP1 SWAP2 SUB SWAP1 REVERT JUMPDEST DUP1 PUSH1 0x3 DUP2 SWAP1 SSTORE POP PUSH32 0xD0A5DDFA06600C6481DCD2923A572827C06E53859F23F7DDAB41FF3144EE8687 DUP2 PUSH1 0x40 MLOAD PUSH2 0x9F2 SWAP2 SWAP1 PUSH2 0x11E8 JUMP JUMPDEST PUSH1 0x40 MLOAD DUP1 SWAP2 SUB SWAP1 LOG1 POP JUMP JUMPDEST PUSH1 0x60 PUSH0 PUSH1 0x2 SLOAD PUSH8 0xFFFFFFFFFFFFFFFF DUP2 GT ISZERO PUSH2 0xA1C JUMPI PUSH2 0xA1B PUSH2 0x1835 JUMP JUMPDEST JUMPDEST PUSH1 0x40 MLOAD SWAP1 DUP1 DUP3 MSTORE DUP1 PUSH1 0x20 MUL PUSH1 0x20 ADD DUP3 ADD PUSH1 0x40 MSTORE DUP1 ISZERO PUSH2 0xA4A JUMPI DUP2 PUSH1 0x20 ADD PUSH1 0x20 DUP3 MUL DUP1 CALLDATASIZE DUP4 CALLDATACOPY DUP1 DUP3 ADD SWAP2 POP POP SWAP1 POP JUMPDEST POP SWAP1 POP PUSH0 DUP1 JUMPDEST PUSH1 0x2 SLOAD DUP2 LT ISZERO PUSH2 0xAC3 JUMPI PUSH1 0x1 PUSH0 DUP3 DUP2 MSTORE PUSH1 0x20 ADD SWAP1 DUP2 MSTORE PUSH1 0x20 ADD PUSH0 KECCAK256 PUSH1 0x3 ADD PUSH1 0x1 SWAP1 SLOAD SWAP1 PUSH2 0x100 EXP SWAP1 DIV PUSH1 0xFF AND ISZERO PUSH2 0xAB0 JUMPI DUP1 DUP4 DUP4 DUP2 MLOAD DUP2 LT PUSH2 0xA95 JUMPI PUSH2 0xA94 PUSH2 0x1862 JUMP JUMPDEST JUMPDEST PUSH1 0x20 MUL PUSH1 0x20 ADD ADD DUP2 DUP2 MSTORE POP POP DUP2 DUP1 PUSH2 0xAAC SWAP1 PUSH2 0x188F JUMP JUMPDEST SWAP3 POP POP JUMPDEST DUP1 DUP1 PUSH2 0xABB SWAP1 PUSH2 0x188F JUMP JUMPDEST SWAP2 POP POP PUSH2 0xA50 JUMP JUMPDEST POP PUSH0 DUP2 PUSH8 0xFFFFFFFFFFFFFFFF DUP2 GT ISZERO PUSH2 0xADF JUMPI PUSH2 0xADE PUSH2 0x1835 JUMP JUMPDEST JUMPDEST PUSH1 0x40 MLOAD SWAP1 DUP1 DUP3 MSTORE DUP1 PUSH1 0x20 MUL PUSH1 0x20 ADD DUP3 ADD PUSH1 0x40 MSTORE DUP1 ISZERO PUSH2 0xB0D JUMPI DUP2 PUSH1 0x20 ADD PUSH1 0x20 DUP3 MUL DUP1 CALLDATASIZE DUP4 CALLDATACOPY DUP1 DUP3 ADD SWAP2 POP POP SWAP1 POP JUMPDEST POP SWAP1 POP PUSH0 JUMPDEST DUP3 DUP2 LT ISZERO PUSH2 0xB67 JUMPI DUP4 DUP2 DUP2 MLOAD DUP2 LT PUSH2 0xB2D JUMPI PUSH2 0xB2C PUSH2 0x1862 JUMP JUMPDEST JUMPDEST PUSH1 0x20 MUL PUSH1 0x20 ADD ADD MLOAD DUP3 DUP3 DUP2 MLOAD DUP2 LT PUSH2 0xB48 JUMPI PUSH2 0xB47 PUSH2 0x1862 JUMP JUMPDEST JUMPDEST PUSH1 0x20 MUL PUSH1 0x20 ADD ADD DUP2 DUP2 MSTORE POP POP DUP1 DUP1 PUSH2 0xB5F SWAP1 PUSH2 0x188F JUMP JUMPDEST SWAP2 POP POP PUSH2 0xB12 JUMP JUMPDEST POP DUP1 SWAP4 POP POP POP POP SWAP1 JUMP JUMPDEST PUSH0 DUP1 PUSH0 SWAP1 SLOAD SWAP1 PUSH2 0x100 EXP SWAP1 DIV PUSH20 0xFFFFFFFFFFFFFFFFFFFFFFFFFFFFFFFFFFFFFFFF AND SWAP1 POP SWAP1 JUMP JUMPDEST PUSH1 0x2 SLOAD DUP2 JUMP JUMPDEST PUSH1 0x3 SLOAD DUP2 JUMP JUMPDEST PUSH0 DUP4 GT PUSH2 0xBE6 JUMPI PUSH1 0x40 MLOAD PUSH32 0x8C379A000000000000000000000000000000000000000000000000000000000 DUP2 MSTORE PUSH1 0x4 ADD PUSH2 0xBDD SWAP1 PUSH2 0x1920 JUMP JUMPDEST PUSH1 0x40 MLOAD DUP1 SWAP2 SUB SWAP1 REVERT JUMPDEST CALLER PUSH20 0xFFFFFFFFFFFFFFFFFFFFFFFFFFFFFFFFFFFFFFFF AND DUP6 PUSH20 0xFFFFFFFFFFFFFFFFFFFFFFFFFFFFFFFFFFFFFFFF AND PUSH4 0x6352211E DUP7 PUSH1 0x40 MLOAD DUP3 PUSH4 0xFFFFFFFF AND PUSH1 0xE0 SHL DUP2 MSTORE PUSH1 0x4 ADD PUSH2 0xC36 SWAP2 SWAP1 PUSH2 0x11E8 JUMP JUMPDEST PUSH1 0x20 PUSH1 0x40 MLOAD DUP1 DUP4 SUB DUP2 DUP7 GAS STATICCALL ISZERO DUP1 ISZERO PUSH2 0xC51 JUMPI RETURNDATASIZE PUSH0 DUP1 RETURNDATACOPY RETURNDATASIZE PUSH0 REVERT JUMPDEST POP POP POP POP PUSH1 0x40 MLOAD RETURNDATASIZE PUSH1 0x1F NOT PUSH1 0x1F DUP3 ADD AND DUP3 ADD DUP1 PUSH1 0x40 MSTORE POP DUP2 ADD SWAP1 PUSH2 0xC75 SWAP2 SWAP1 PUSH2 0x152C JUMP JUMPDEST PUSH20 0xFFFFFFFFFFFFFFFFFFFFFFFFFFFFFFFFFFFFFFFF AND EQ PUSH2 0xCCB JUMPI PUSH1 0x40 MLOAD PUSH32 0x8C379A000000000000000000000000000000000000000000000000000000000 DUP2 MSTORE PUSH1 0x4 ADD PUSH2 0xCC2 SWAP1 PUSH2 0x19AE JUMP JUMPDEST PUSH1 0x40 MLOAD DUP1 SWAP2 SUB SWAP1 REVERT JUMPDEST DUP2 ISZERO PUSH2 0xD18 JUMPI PUSH0 DUP2 GT PUSH2 0xD13 JUMPI PUSH1 0x40 MLOAD PUSH32 0x8C379A000000000000000000000000000000000000000000000000000000000 DUP2 MSTORE PUSH1 0x4 ADD PUSH2 0xD0A SWAP1 PUSH2 0x1A3C JUMP JUMPDEST PUSH1 0x40 MLOAD DUP1 SWAP2 SUB SWAP1 REVERT JUMPDEST PUSH2 0xD1C JUMP JUMPDEST PUSH0 SWAP1 POP JUMPDEST DUP5 PUSH20 0xFFFFFFFFFFFFFFFFFFFFFFFFFFFFFFFFFFFFFFFF AND PUSH4 0x23B872DD CALLER ADDRESS DUP8 PUSH1 0x40 MLOAD DUP5 PUSH4 0xFFFFFFFF AND PUSH1 0xE0 SHL DUP2 MSTORE PUSH1 0x4 ADD PUSH2 0xD59 SWAP4 SWAP3 SWAP2 SWAP1 PUSH2 0x15E5 JUMP JUMPDEST PUSH0 PUSH1 0x40 MLOAD DUP1 DUP4 SUB DUP2 PUSH0 DUP8 DUP1 EXTCODESIZE ISZERO DUP1 ISZERO PUSH2 0xD70 JUMPI PUSH0 DUP1 REVERT JUMPDEST POP GAS CALL ISZERO DUP1 ISZERO PUSH2 0xD82 JUMPI RETURNDATASIZE PUSH0 DUP1 RETURNDATACOPY RETURNDATASIZE PUSH0 REVERT JUMPDEST POP POP POP POP PUSH1 0x40 MLOAD DUP1 PUSH1 0xC0 ADD PUSH1 0x40 MSTORE DUP1 DUP7 PUSH20 0xFFFFFFFFFFFFFFFFFFFFFFFFFFFFFFFFFFFFFFFF AND DUP2 MSTORE PUSH1 0x20 ADD DUP6 DUP2 MSTORE PUSH1 0x20 ADD DUP5 DUP2 MSTORE PUSH1 0x20 ADD DUP4 ISZERO ISZERO DUP2 MSTORE PUSH1 0x20 ADD PUSH1 0x1 ISZERO ISZERO DUP2 MSTORE PUSH1 0x20 ADD DUP3 TIMESTAMP PUSH2 0xDD6 SWAP2 SWAP1 PUSH2 0x1A5A JUMP JUMPDEST DUP2 MSTORE POP PUSH1 0x1 PUSH0 PUSH1 0x2 SLOAD DUP2 MSTORE PUSH1 0x20 ADD SWAP1 DUP2 MSTORE PUSH1 0x20 ADD PUSH0 KECCAK256 PUSH0 DUP3 ADD MLOAD DUP2 PUSH0 ADD PUSH0 PUSH2 0x100 EXP DUP2 SLOAD DUP2 PUSH20 0xFFFFFFFFFFFFFFFFFFFFFFFFFFFFFFFFFFFFFFFF MUL NOT AND SWAP1 DUP4 PUSH20 0xFFFFFFFFFFFFFFFFFFFFFFFFFFFFFFFFFFFFFFFF AND MUL OR SWAP1 SSTORE POP PUSH1 0x20 DUP3 ADD MLOAD DUP2 PUSH1 0x1 ADD SSTORE PUSH1 0x40 DUP3 ADD MLOAD DUP2 PUSH1 0x2 ADD SSTORE PUSH1 0x60 DUP3 ADD MLOAD DUP2 PUSH1 0x3 ADD PUSH0 PUSH2 0x100 EXP DUP2 SLOAD DUP2 PUSH1 0xFF MUL NOT AND SWAP1 DUP4 ISZERO ISZERO MUL OR SWAP1 SSTORE POP PUSH1 0x80 DUP3 ADD MLOAD DUP2 PUSH1 0x3 ADD PUSH1 0x1 PUSH2 0x100 EXP DUP2 SLOAD DUP2 PUSH1 0xFF MUL NOT AND SWAP1 DUP4 ISZERO ISZERO MUL OR SWAP1 SSTORE POP PUSH1 0xA0 DUP3 ADD MLOAD DUP2 PUSH1 0x4 ADD SSTORE SWAP1 POP POP DUP4 DUP6 PUSH20 0xFFFFFFFFFFFFFFFFFFFFFFFFFFFFFFFFFFFFFFFF AND PUSH32 0x8B20B21402C6CCF4B5F2E911EE605585802D96508E51890A1A317975B864DBB0 PUSH1 0x2 SLOAD DUP7 DUP7 DUP7 TIMESTAMP PUSH2 0xEDA SWAP2 SWAP1 PUSH2 0x1A5A JUMP JUMPDEST PUSH1 0x40 MLOAD PUSH2 0xEEA SWAP5 SWAP4 SWAP3 SWAP2 SWAP1 PUSH2 0x1A8D JUMP JUMPDEST PUSH1 0x40 MLOAD DUP1 SWAP2 SUB SWAP1 LOG3 PUSH1 0x2 PUSH0 DUP2 SLOAD DUP1 SWAP3 SWAP2 SWAP1 PUSH2 0xF04 SWAP1 PUSH2 0x188F JUMP JUMPDEST SWAP2 SWAP1 POP SSTORE POP POP POP POP POP POP JUMP JUMPDEST PUSH1 0x1 PUSH1 0x20 MSTORE DUP1 PUSH0 MSTORE PUSH1 0x40 PUSH0 KECCAK256 PUSH0 SWAP2 POP SWAP1 POP DUP1 PUSH0 ADD PUSH0 SWAP1 SLOAD SWAP1 PUSH2 0x100 EXP SWAP1 DIV PUSH20 0xFFFFFFFFFFFFFFFFFFFFFFFFFFFFFFFFFFFFFFFF AND SWAP1 DUP1 PUSH1 0x1 ADD SLOAD SWAP1 DUP1 PUSH1 0x2 ADD SLOAD SWAP1 DUP1 PUSH1 0x3 ADD PUSH0 SWAP1 SLOAD SWAP1 PUSH2 0x100 EXP SWAP1 DIV PUSH1 0xFF AND SWAP1 DUP1 PUSH1 0x3 ADD PUSH1 0x1 SWAP1 SLOAD SWAP1 PUSH2 0x100 EXP SWAP1 DIV PUSH1 0xFF AND SWAP1 DUP1 PUSH1 0x4 ADD SLOAD SWAP1 POP DUP7 JUMP JUMPDEST PUSH1 0x5 PUSH0 SWAP1 SLOAD SWAP1 PUSH2 0x100 EXP SWAP1 DIV PUSH20 0xFFFFFFFFFFFFFFFFFFFFFFFFFFFFFFFFFFFFFFFF AND DUP2 JUMP JUMPDEST PUSH2 0xFAD PUSH2 0x1029 JUMP JUMPDEST PUSH0 PUSH20 0xFFFFFFFFFFFFFFFFFFFFFFFFFFFFFFFFFFFFFFFF AND DUP2 PUSH20 0xFFFFFFFFFFFFFFFFFFFFFFFFFFFFFFFFFFFFFFFF AND SUB PUSH2 0x101D JUMPI PUSH0 PUSH1 0x40 MLOAD PUSH32 0x1E4FBDF700000000000000000000000000000000000000000000000000000000 DUP2 MSTORE PUSH1 0x4 ADD PUSH2 0x1014 SWAP2 SWAP1 PUSH2 0x11B7 JUMP JUMPDEST PUSH1 0x40 MLOAD DUP1 SWAP2 SUB SWAP1 REVERT JUMPDEST PUSH2 0x1026 DUP2 PUSH2 0x10B0 JUMP JUMPDEST POP JUMP JUMPDEST PUSH2 0x1031 PUSH2 0x1171 JUMP JUMPDEST PUSH20 0xFFFFFFFFFFFFFFFFFFFFFFFFFFFFFFFFFFFFFFFF AND PUSH2 0x104F PUSH2 0xB71 JUMP JUMPDEST PUSH20 0xFFFFFFFFFFFFFFFFFFFFFFFFFFFFFFFFFFFFFFFF AND EQ PUSH2 0x10AE JUMPI PUSH2 0x1072 PUSH2 0x1171 JUMP JUMPDEST PUSH1 0x40 MLOAD PUSH32 0x118CDAA700000000000000000000000000000000000000000000000000000000 DUP2 MSTORE PUSH1 0x4 ADD PUSH2 0x10A5 SWAP2 SWAP1 PUSH2 0x11B7 JUMP JUMPDEST PUSH1 0x40 MLOAD DUP1 SWAP2 SUB SWAP1 REVERT JUMPDEST JUMP JUMPDEST PUSH0 DUP1 PUSH0 SWAP1 SLOAD SWAP1 PUSH2 0x100 EXP SWAP1 DIV PUSH20 0xFFFFFFFFFFFFFFFFFFFFFFFFFFFFFFFFFFFFFFFF AND SWAP1 POP DUP2 PUSH0 DUP1 PUSH2 0x100 EXP DUP2 SLOAD DUP2 PUSH20 0xFFFFFFFFFFFFFFFFFFFFFFFFFFFFFFFFFFFFFFFF MUL NOT AND SWAP1 DUP4 PUSH20 0xFFFFFFFFFFFFFFFFFFFFFFFFFFFFFFFFFFFFFFFF AND MUL OR SWAP1 SSTORE POP DUP2 PUSH20 0xFFFFFFFFFFFFFFFFFFFFFFFFFFFFFFFFFFFFFFFF AND DUP2 PUSH20 0xFFFFFFFFFFFFFFFFFFFFFFFFFFFFFFFFFFFFFFFF AND PUSH32 0x8BE0079C531659141344CD1FD0A4F28419497F9722A3DAAFE3B4186F6B6457E0 PUSH1 0x40 MLOAD PUSH1 0x40 MLOAD DUP1 SWAP2 SUB SWAP1 LOG3 POP POP JUMP JUMPDEST PUSH0 CALLER SWAP1 POP SWAP1 JUMP JUMPDEST PUSH0 PUSH20 0xFFFFFFFFFFFFFFFFFFFFFFFFFFFFFFFFFFFFFFFF DUP3 AND SWAP1 POP SWAP2 SWAP1 POP JUMP JUMPDEST PUSH0 PUSH2 0x11A1 DUP3 PUSH2 0x1178 JUMP JUMPDEST SWAP1 POP SWAP2 SWAP1 POP JUMP JUMPDEST PUSH2 0x11B1 DUP2 PUSH2 0x1197 JUMP JUMPDEST DUP3 MSTORE POP POP JUMP JUMPDEST PUSH0 PUSH1 0x20 DUP3 ADD SWAP1 POP PUSH2 0x11CA PUSH0 DUP4 ADD DUP5 PUSH2 0x11A8 JUMP JUMPDEST SWAP3 SWAP2 POP POP JUMP JUMPDEST PUSH0 DUP2 SWAP1 POP SWAP2 SWAP1 POP JUMP JUMPDEST PUSH2 0x11E2 DUP2 PUSH2 0x11D0 JUMP JUMPDEST DUP3 MSTORE POP POP JUMP JUMPDEST PUSH0 PUSH1 0x20 DUP3 ADD SWAP1 POP PUSH2 0x11FB PUSH0 DUP4 ADD DUP5 PUSH2 0x11D9 JUMP JUMPDEST SWAP3 SWAP2 POP POP JUMP JUMPDEST PUSH0 DUP1 REVERT JUMPDEST PUSH2 0x120E DUP2 PUSH2 0x11D0 JUMP JUMPDEST DUP2 EQ PUSH2 0x1218 JUMPI PUSH0 DUP1 REVERT JUMPDEST POP JUMP JUMPDEST PUSH0 DUP2 CALLDATALOAD SWAP1 POP PUSH2 0x1229 DUP2 PUSH2 0x1205 JUMP JUMPDEST SWAP3 SWAP2 POP POP JUMP JUMPDEST PUSH0 PUSH1 0x20 DUP3 DUP5 SUB SLT ISZERO PUSH2 0x1244 JUMPI PUSH2 0x1243 PUSH2 0x1201 JUMP JUMPDEST JUMPDEST PUSH0 PUSH2 0x1251 DUP5 DUP3 DUP6 ADD PUSH2 0x121B JUMP JUMPDEST SWAP2 POP POP SWAP3 SWAP2 POP POP JUMP JUMPDEST PUSH0 DUP2 MLOAD SWAP1 POP SWAP2 SWAP1 POP JUMP JUMPDEST PUSH0 DUP3 DUP3 MSTORE PUSH1 0x20 DUP3 ADD SWAP1 POP SWAP3 SWAP2 POP POP JUMP JUMPDEST PUSH0 DUP2 SWAP1 POP PUSH1 0x20 DUP3 ADD SWAP1 POP SWAP2 SWAP1 POP JUMP JUMPDEST PUSH2 0x128C DUP2 PUSH2 0x11D0 JUMP JUMPDEST DUP3 MSTORE POP POP JUMP JUMPDEST PUSH0 PUSH2 0x129D DUP4 DUP4 PUSH2 0x1283 JUMP JUMPDEST PUSH1 0x20 DUP4 ADD SWAP1 POP SWAP3 SWAP2 POP POP JUMP JUMPDEST PUSH0 PUSH1 0x20 DUP3 ADD SWAP1 POP SWAP2 SWAP1 POP JUMP JUMPDEST PUSH0 PUSH2 0x12BF DUP3 PUSH2 0x125A JUMP JUMPDEST PUSH2 0x12C9 DUP2 DUP6 PUSH2 0x1264 JUMP JUMPDEST SWAP4 POP PUSH2 0x12D4 DUP4 PUSH2 0x1274 JUMP JUMPDEST DUP1 PUSH0 JUMPDEST DUP4 DUP2 LT ISZERO PUSH2 0x1304 JUMPI DUP2 MLOAD PUSH2 0x12EB DUP9 DUP3 PUSH2 0x1292 JUMP JUMPDEST SWAP8 POP PUSH2 0x12F6 DUP4 PUSH2 0x12A9 JUMP JUMPDEST SWAP3 POP POP PUSH1 0x1 DUP2 ADD SWAP1 POP PUSH2 0x12D7 JUMP JUMPDEST POP DUP6 SWAP4 POP POP POP POP SWAP3 SWAP2 POP POP JUMP JUMPDEST PUSH0 PUSH1 0x20 DUP3 ADD SWAP1 POP DUP2 DUP2 SUB PUSH0 DUP4 ADD MSTORE PUSH2 0x1329 DUP2 DUP5 PUSH2 0x12B5 JUMP JUMPDEST SWAP1 POP SWAP3 SWAP2 POP POP JUMP JUMPDEST PUSH2 0x133A DUP2 PUSH2 0x1197 JUMP JUMPDEST DUP2 EQ PUSH2 0x1344 JUMPI PUSH0 DUP1 REVERT JUMPDEST POP JUMP JUMPDEST PUSH0 DUP2 CALLDATALOAD SWAP1 POP PUSH2 0x1355 DUP2 PUSH2 0x1331 JUMP JUMPDEST SWAP3 SWAP2 POP POP JUMP JUMPDEST PUSH0 DUP2 ISZERO ISZERO SWAP1 POP SWAP2 SWAP1 POP JUMP JUMPDEST PUSH2 0x136F DUP2 PUSH2 0x135B JUMP JUMPDEST DUP2 EQ PUSH2 0x1379 JUMPI PUSH0 DUP1 REVERT JUMPDEST POP JUMP JUMPDEST PUSH0 DUP2 CALLDATALOAD SWAP1 POP PUSH2 0x138A DUP2 PUSH2 0x1366 JUMP JUMPDEST SWAP3 SWAP2 POP POP JUMP JUMPDEST PUSH0 DUP1 PUSH0 DUP1 PUSH0 PUSH1 0xA0 DUP7 DUP9 SUB SLT ISZERO PUSH2 0x13A9 JUMPI PUSH2 0x13A8 PUSH2 0x1201 JUMP JUMPDEST JUMPDEST PUSH0 PUSH2 0x13B6 DUP9 DUP3 DUP10 ADD PUSH2 0x1347 JUMP JUMPDEST SWAP6 POP POP PUSH1 0x20 PUSH2 0x13C7 DUP9 DUP3 DUP10 ADD PUSH2 0x121B JUMP JUMPDEST SWAP5 POP POP PUSH1 0x40 PUSH2 0x13D8 DUP9 DUP3 DUP10 ADD PUSH2 0x121B JUMP JUMPDEST SWAP4 POP POP PUSH1 0x60 PUSH2 0x13E9 DUP9 DUP3 DUP10 ADD PUSH2 0x137C JUMP JUMPDEST SWAP3 POP POP PUSH1 0x80 PUSH2 0x13FA DUP9 DUP3 DUP10 ADD PUSH2 0x121B JUMP JUMPDEST SWAP2 POP POP SWAP3 SWAP6 POP SWAP3 SWAP6 SWAP1 SWAP4 POP JUMP JUMPDEST PUSH2 0x1410 DUP2 PUSH2 0x135B JUMP JUMPDEST DUP3 MSTORE POP POP JUMP JUMPDEST PUSH0 PUSH1 0xC0 DUP3 ADD SWAP1 POP PUSH2 0x1429 PUSH0 DUP4 ADD DUP10 PUSH2 0x11A8 JUMP JUMPDEST PUSH2 0x1436 PUSH1 0x20 DUP4 ADD DUP9 PUSH2 0x11D9 JUMP JUMPDEST PUSH2 0x1443 PUSH1 0x40 DUP4 ADD DUP8 PUSH2 0x11D9 JUMP JUMPDEST PUSH2 0x1450 PUSH1 0x60 DUP4 ADD DUP7 PUSH2 0x1407 JUMP JUMPDEST PUSH2 0x145D PUSH1 0x80 DUP4 ADD DUP6 PUSH2 0x1407 JUMP JUMPDEST PUSH2 0x146A PUSH1 0xA0 DUP4 ADD DUP5 PUSH2 0x11D9 JUMP JUMPDEST SWAP8 SWAP7 POP POP POP POP POP POP POP JUMP JUMPDEST PUSH0 PUSH1 0x20 DUP3 DUP5 SUB SLT ISZERO PUSH2 0x148A JUMPI PUSH2 0x1489 PUSH2 0x1201 JUMP JUMPDEST JUMPDEST PUSH0 PUSH2 0x1497 DUP5 DUP3 DUP6 ADD PUSH2 0x1347 JUMP JUMPDEST SWAP2 POP POP SWAP3 SWAP2 POP POP JUMP JUMPDEST PUSH0 DUP3 DUP3 MSTORE PUSH1 0x20 DUP3 ADD SWAP1 POP SWAP3 SWAP2 POP POP JUMP JUMPDEST PUSH32 0x4C697374696E67206973206E6F74206163746976650000000000000000000000 PUSH0 DUP3 ADD MSTORE POP JUMP JUMPDEST PUSH0 PUSH2 0x14E4 PUSH1 0x15 DUP4 PUSH2 0x14A0 JUMP JUMPDEST SWAP2 POP PUSH2 0x14EF DUP3 PUSH2 0x14B0 JUMP JUMPDEST PUSH1 0x20 DUP3 ADD SWAP1 POP SWAP2 SWAP1 POP JUMP JUMPDEST PUSH0 PUSH1 0x20 DUP3 ADD SWAP1 POP DUP2 DUP2 SUB PUSH0 DUP4 ADD MSTORE PUSH2 0x1511 DUP2 PUSH2 0x14D8 JUMP JUMPDEST SWAP1 POP SWAP2 SWAP1 POP JUMP JUMPDEST PUSH0 DUP2 MLOAD SWAP1 POP PUSH2 0x1526 DUP2 PUSH2 0x1331 JUMP JUMPDEST SWAP3 SWAP2 POP POP JUMP JUMPDEST PUSH0 PUSH1 0x20 DUP3 DUP5 SUB SLT ISZERO PUSH2 0x1541 JUMPI PUSH2 0x1540 PUSH2 0x1201 JUMP JUMPDEST JUMPDEST PUSH0 PUSH2 0x154E DUP5 DUP3 DUP6 ADD PUSH2 0x1518 JUMP JUMPDEST SWAP2 POP POP SWAP3 SWAP2 POP POP JUMP JUMPDEST PUSH32 0x4F6E6C792074686520636F6E74726163742063616E2063616E63656C20746865 PUSH0 DUP3 ADD MSTORE PUSH32 0x206C697374696E67000000000000000000000000000000000000000000000000 PUSH1 0x20 DUP3 ADD MSTORE POP JUMP JUMPDEST PUSH0 PUSH2 0x15B1 PUSH1 0x28 DUP4 PUSH2 0x14A0 JUMP JUMPDEST SWAP2 POP PUSH2 0x15BC DUP3 PUSH2 0x1557 JUMP JUMPDEST PUSH1 0x40 DUP3 ADD SWAP1 POP SWAP2 SWAP1 POP JUMP JUMPDEST PUSH0 PUSH1 0x20 DUP3 ADD SWAP1 POP DUP2 DUP2 SUB PUSH0 DUP4 ADD MSTORE PUSH2 0x15DE DUP2 PUSH2 0x15A5 JUMP JUMPDEST SWAP1 POP SWAP2 SWAP1 POP JUMP JUMPDEST PUSH0 PUSH1 0x60 DUP3 ADD SWAP1 POP PUSH2 0x15F8 PUSH0 DUP4 ADD DUP7 PUSH2 0x11A8 JUMP JUMPDEST PUSH2 0x1605 PUSH1 0x20 DUP4 ADD DUP6 PUSH2 0x11A8 JUMP JUMPDEST PUSH2 0x1612 PUSH1 0x40 DUP4 ADD DUP5 PUSH2 0x11D9 JUMP JUMPDEST SWAP5 SWAP4 POP POP POP POP JUMP JUMPDEST PUSH32 0x496E636F7272656374207061796D656E7420616D6F756E740000000000000000 PUSH0 DUP3 ADD MSTORE POP JUMP JUMPDEST PUSH0 PUSH2 0x164E PUSH1 0x18 DUP4 PUSH2 0x14A0 JUMP JUMPDEST SWAP2 POP PUSH2 0x1659 DUP3 PUSH2 0x161A JUMP JUMPDEST PUSH1 0x20 DUP3 ADD SWAP1 POP SWAP2 SWAP1 POP JUMP JUMPDEST PUSH0 PUSH1 0x20 DUP3 ADD SWAP1 POP DUP2 DUP2 SUB PUSH0 DUP4 ADD MSTORE PUSH2 0x167B DUP2 PUSH2 0x1642 JUMP JUMPDEST SWAP1 POP SWAP2 SWAP1 POP JUMP JUMPDEST PUSH32 0x4E487B7100000000000000000000000000000000000000000000000000000000 PUSH0 MSTORE PUSH1 0x11 PUSH1 0x4 MSTORE PUSH1 0x24 PUSH0 REVERT JUMPDEST PUSH0 PUSH2 0x16B9 DUP3 PUSH2 0x11D0 JUMP JUMPDEST SWAP2 POP PUSH2 0x16C4 DUP4 PUSH2 0x11D0 JUMP JUMPDEST SWAP3 POP DUP3 DUP3 MUL PUSH2 0x16D2 DUP2 PUSH2 0x11D0 JUMP JUMPDEST SWAP2 POP DUP3 DUP3 DIV DUP5 EQ DUP4 ISZERO OR PUSH2 0x16E9 JUMPI PUSH2 0x16E8 PUSH2 0x1682 JUMP JUMPDEST JUMPDEST POP SWAP3 SWAP2 POP POP JUMP JUMPDEST PUSH32 0x4E487B7100000000000000000000000000000000000000000000000000000000 PUSH0 MSTORE PUSH1 0x12 PUSH1 0x4 MSTORE PUSH1 0x24 PUSH0 REVERT JUMPDEST PUSH0 PUSH2 0x1727 DUP3 PUSH2 0x11D0 JUMP JUMPDEST SWAP2 POP PUSH2 0x1732 DUP4 PUSH2 0x11D0 JUMP JUMPDEST SWAP3 POP DUP3 PUSH2 0x1742 JUMPI PUSH2 0x1741 PUSH2 0x16F0 JUMP JUMPDEST JUMPDEST DUP3 DUP3 DIV SWAP1 POP SWAP3 SWAP2 POP POP JUMP JUMPDEST PUSH0 PUSH2 0x1757 DUP3 PUSH2 0x11D0 JUMP JUMPDEST SWAP2 POP PUSH2 0x1762 DUP4 PUSH2 0x11D0 JUMP JUMPDEST SWAP3 POP DUP3 DUP3 SUB SWAP1 POP DUP2 DUP2 GT ISZERO PUSH2 0x177A JUMPI PUSH2 0x1779 PUSH2 0x1682 JUMP JUMPDEST JUMPDEST SWAP3 SWAP2 POP POP JUMP JUMPDEST PUSH0 PUSH1 0x40 DUP3 ADD SWAP1 POP PUSH2 0x1793 PUSH0 DUP4 ADD DUP6 PUSH2 0x11D9 JUMP JUMPDEST PUSH2 0x17A0 PUSH1 0x20 DUP4 ADD DUP5 PUSH2 0x11D9 JUMP JUMPDEST SWAP4 SWAP3 POP POP POP JUMP JUMPDEST PUSH32 0x50657263656E74616765206D757374206265206265747765656E203020616E64 PUSH0 DUP3 ADD MSTORE PUSH32 0x2031303000000000000000000000000000000000000000000000000000000000 PUSH1 0x20 DUP3 ADD MSTORE POP JUMP JUMPDEST PUSH0 PUSH2 0x1801 PUSH1 0x24 DUP4 PUSH2 0x14A0 JUMP JUMPDEST SWAP2 POP PUSH2 0x180C DUP3 PUSH2 0x17A7 JUMP JUMPDEST PUSH1 0x40 DUP3 ADD SWAP1 POP SWAP2 SWAP1 POP JUMP JUMPDEST PUSH0 PUSH1 0x20 DUP3 ADD SWAP1 POP DUP2 DUP2 SUB PUSH0 DUP4 ADD MSTORE PUSH2 0x182E DUP2 PUSH2 0x17F5 JUMP JUMPDEST SWAP1 POP SWAP2 SWAP1 POP JUMP JUMPDEST PUSH32 0x4E487B7100000000000000000000000000000000000000000000000000000000 PUSH0 MSTORE PUSH1 0x41 PUSH1 0x4 MSTORE PUSH1 0x24 PUSH0 REVERT JUMPDEST PUSH32 0x4E487B7100000000000000000000000000000000000000000000000000000000 PUSH0 MSTORE PUSH1 0x32 PUSH1 0x4 MSTORE PUSH1 0x24 PUSH0 REVERT JUMPDEST PUSH0 PUSH2 0x1899 DUP3 PUSH2 0x11D0 JUMP JUMPDEST SWAP2 POP PUSH32 0xFFFFFFFFFFFFFFFFFFFFFFFFFFFFFFFFFFFFFFFFFFFFFFFFFFFFFFFFFFFFFFFF DUP3 SUB PUSH2 0x18CB JUMPI PUSH2 0x18CA PUSH2 0x1682 JUMP JUMPDEST JUMPDEST PUSH1 0x1 DUP3 ADD SWAP1 POP SWAP2 SWAP1 POP JUMP JUMPDEST PUSH32 0x5072696365206D7573742062652067726561746572207468616E207A65726F00 PUSH0 DUP3 ADD MSTORE POP JUMP JUMPDEST PUSH0 PUSH2 0x190A PUSH1 0x1F DUP4 PUSH2 0x14A0 JUMP JUMPDEST SWAP2 POP PUSH2 0x1915 DUP3 PUSH2 0x18D6 JUMP JUMPDEST PUSH1 0x20 DUP3 ADD SWAP1 POP SWAP2 SWAP1 POP JUMP JUMPDEST PUSH0 PUSH1 0x20 DUP3 ADD SWAP1 POP DUP2 DUP2 SUB PUSH0 DUP4 ADD MSTORE PUSH2 0x1937 DUP2 PUSH2 0x18FE JUMP JUMPDEST SWAP1 POP SWAP2 SWAP1 POP JUMP JUMPDEST PUSH32 0x4F6E6C79204E4654206F776E65722063616E206372656174652061206C697374 PUSH0 DUP3 ADD MSTORE PUSH32 0x696E670000000000000000000000000000000000000000000000000000000000 PUSH1 0x20 DUP3 ADD MSTORE POP JUMP JUMPDEST PUSH0 PUSH2 0x1998 PUSH1 0x23 DUP4 PUSH2 0x14A0 JUMP JUMPDEST SWAP2 POP PUSH2 0x19A3 DUP3 PUSH2 0x193E JUMP JUMPDEST PUSH1 0x40 DUP3 ADD SWAP1 POP SWAP2 SWAP1 POP JUMP JUMPDEST PUSH0 PUSH1 0x20 DUP3 ADD SWAP1 POP DUP2 DUP2 SUB PUSH0 DUP4 ADD MSTORE PUSH2 0x19C5 DUP2 PUSH2 0x198C JUMP JUMPDEST SWAP1 POP SWAP2 SWAP1 POP JUMP JUMPDEST PUSH32 0x41756374696F6E206475726174696F6E206D7573742062652067726561746572 PUSH0 DUP3 ADD MSTORE PUSH32 0x207468616E207A65726F00000000000000000000000000000000000000000000 PUSH1 0x20 DUP3 ADD MSTORE POP JUMP JUMPDEST PUSH0 PUSH2 0x1A26 PUSH1 0x2A DUP4 PUSH2 0x14A0 JUMP JUMPDEST SWAP2 POP PUSH2 0x1A31 DUP3 PUSH2 0x19CC JUMP JUMPDEST PUSH1 0x40 DUP3 ADD SWAP1 POP SWAP2 SWAP1 POP JUMP JUMPDEST PUSH0 PUSH1 0x20 DUP3 ADD SWAP1 POP DUP2 DUP2 SUB PUSH0 DUP4 ADD MSTORE PUSH2 0x1A53 DUP2 PUSH2 0x1A1A JUMP JUMPDEST SWAP1 POP SWAP2 SWAP1 POP JUMP JUMPDEST PUSH0 PUSH2 0x1A64 DUP3 PUSH2 0x11D0 JUMP JUMPDEST SWAP2 POP PUSH2 0x1A6F DUP4 PUSH2 0x11D0 JUMP JUMPDEST SWAP3 POP DUP3 DUP3 ADD SWAP1 POP DUP1 DUP3 GT ISZERO PUSH2 0x1A87 JUMPI PUSH2 0x1A86 PUSH2 0x1682 JUMP JUMPDEST JUMPDEST SWAP3 SWAP2 POP POP JUMP JUMPDEST PUSH0 PUSH1 0x80 DUP3 ADD SWAP1 POP PUSH2 0x1AA0 PUSH0 DUP4 ADD DUP8 PUSH2 0x11D9 JUMP JUMPDEST PUSH2 0x1AAD PUSH1 0x20 DUP4 ADD DUP7 PUSH2 0x11D9 JUMP JUMPDEST PUSH2 0x1ABA PUSH1 0x40 DUP4 ADD DUP6 PUSH2 0x1407 JUMP JUMPDEST PUSH2 0x1AC7 PUSH1 0x60 DUP4 ADD DUP5 PUSH2 0x11D9 JUMP JUMPDEST SWAP6 SWAP5 POP POP POP POP POP JUMP INVALID LOG2 PUSH5 0x6970667358 0x22 SLT KECCAK256 JUMPI MLOAD 0xF7 TIMESTAMP 0xC6 0xEA LOG0 0xE PUSH31 0xA313BE277DB23FC5929CDC8FDE5C29CB18936E35CE67DE64736F6C63430008 ISZERO STOP CALLER "
				},
				"gasEstimates": {
					"creation": {
						"codeDepositCost": "1383600",
						"executionCost": "infinite",
						"totalCost": "infinite"
					},
					"external": {
						"buyListing(uint256)": "infinite",
						"cancelListing(uint256)": "infinite",
						"createListing(address,uint256,uint256,bool,uint256)": "infinite",
						"getActiveListings()": "infinite",
						"listings(uint256)": "infinite",
						"nextListingId()": "2470",
						"owner()": "2538",
						"platformFeePercentage()": "2492",
						"platformFeeWallet()": "2574",
						"renounceOwnership()": "infinite",
						"royaltiesFeePercentage()": "2471",
						"royaltiesFeeWallet()": "2532",
						"setPlatformFeePercentage(uint256)": "infinite",
						"transferOwnership(address)": "infinite"
					}
				},
				"methodIdentifiers": {
					"buyListing(uint256)": "4884f459",
					"cancelListing(uint256)": "305a67a8",
					"createListing(address,uint256,uint256,bool,uint256)": "d9194bb2",
					"getActiveListings()": "87c35bc0",
					"listings(uint256)": "de74e57b",
					"nextListingId()": "aaccf1ec",
					"owner()": "8da5cb5b",
					"platformFeePercentage()": "cdd78cfc",
					"platformFeeWallet()": "e20fc118",
					"renounceOwnership()": "715018a6",
					"royaltiesFeePercentage()": "1a5d63db",
					"royaltiesFeeWallet()": "0d08a3a0",
					"setPlatformFeePercentage(uint256)": "8333903e",
					"transferOwnership(address)": "f2fde38b"
				}
			},
			"storageLayout": {
				"storage": [
					{
						"astId": 8,
						"contract": "openzeppelin-contracts-master/gota.sol:NFTMarketplace",
						"label": "_owner",
						"offset": 0,
						"slot": "0",
						"type": "t_address"
					},
					{
						"astId": 3369,
						"contract": "openzeppelin-contracts-master/gota.sol:NFTMarketplace",
						"label": "listings",
						"offset": 0,
						"slot": "1",
						"type": "t_mapping(t_uint256,t_struct(Listing)3364_storage)"
					},
					{
						"astId": 3371,
						"contract": "openzeppelin-contracts-master/gota.sol:NFTMarketplace",
						"label": "nextListingId",
						"offset": 0,
						"slot": "2",
						"type": "t_uint256"
					},
					{
						"astId": 3374,
						"contract": "openzeppelin-contracts-master/gota.sol:NFTMarketplace",
						"label": "platformFeePercentage",
						"offset": 0,
						"slot": "3",
						"type": "t_uint256"
					},
					{
						"astId": 3377,
						"contract": "openzeppelin-contracts-master/gota.sol:NFTMarketplace",
						"label": "royaltiesFeePercentage",
						"offset": 0,
						"slot": "4",
						"type": "t_uint256"
					},
					{
						"astId": 3379,
						"contract": "openzeppelin-contracts-master/gota.sol:NFTMarketplace",
						"label": "platformFeeWallet",
						"offset": 0,
						"slot": "5",
						"type": "t_address"
					},
					{
						"astId": 3381,
						"contract": "openzeppelin-contracts-master/gota.sol:NFTMarketplace",
						"label": "royaltiesFeeWallet",
						"offset": 0,
						"slot": "6",
						"type": "t_address"
					}
				],
				"types": {
					"t_address": {
						"encoding": "inplace",
						"label": "address",
						"numberOfBytes": "20"
					},
					"t_bool": {
						"encoding": "inplace",
						"label": "bool",
						"numberOfBytes": "1"
					},
					"t_mapping(t_uint256,t_struct(Listing)3364_storage)": {
						"encoding": "mapping",
						"key": "t_uint256",
						"label": "mapping(uint256 => struct NFTMarketplace.Listing)",
						"numberOfBytes": "32",
						"value": "t_struct(Listing)3364_storage"
					},
					"t_struct(Listing)3364_storage": {
						"encoding": "inplace",
						"label": "struct NFTMarketplace.Listing",
						"members": [
							{
								"astId": 3353,
								"contract": "openzeppelin-contracts-master/gota.sol:NFTMarketplace",
								"label": "nftContract",
								"offset": 0,
								"slot": "0",
								"type": "t_address"
							},
							{
								"astId": 3355,
								"contract": "openzeppelin-contracts-master/gota.sol:NFTMarketplace",
								"label": "tokenId",
								"offset": 0,
								"slot": "1",
								"type": "t_uint256"
							},
							{
								"astId": 3357,
								"contract": "openzeppelin-contracts-master/gota.sol:NFTMarketplace",
								"label": "price",
								"offset": 0,
								"slot": "2",
								"type": "t_uint256"
							},
							{
								"astId": 3359,
								"contract": "openzeppelin-contracts-master/gota.sol:NFTMarketplace",
								"label": "isAuction",
								"offset": 0,
								"slot": "3",
								"type": "t_bool"
							},
							{
								"astId": 3361,
								"contract": "openzeppelin-contracts-master/gota.sol:NFTMarketplace",
								"label": "isActive",
								"offset": 1,
								"slot": "3",
								"type": "t_bool"
							},
							{
								"astId": 3363,
								"contract": "openzeppelin-contracts-master/gota.sol:NFTMarketplace",
								"label": "expiresAt",
								"offset": 0,
								"slot": "4",
								"type": "t_uint256"
							}
						],
						"numberOfBytes": "160"
					},
					"t_uint256": {
						"encoding": "inplace",
						"label": "uint256",
						"numberOfBytes": "32"
					}
				}
			},
			"userdoc": {
				"kind": "user",
				"methods": {},
				"version": 1
			}
		}
	}
}