{
	"gota.sol": {
		"GotasNFTMarketplace": {
			"abi": [
				{
					"inputs": [
						{
							"internalType": "uint256",
							"name": "_royaltyPercentage",
							"type": "uint256"
						},
						{
							"internalType": "uint256",
							"name": "_platformFeePercentage",
							"type": "uint256"
						},
						{
							"internalType": "address",
							"name": "_royaltyAddress",
							"type": "address"
						},
						{
							"internalType": "address",
							"name": "_platformFeeAddress",
							"type": "address"
						}
					],
					"stateMutability": "nonpayable",
					"type": "constructor"
				},
				{
					"inputs": [
						{
							"internalType": "address",
							"name": "owner",
							"type": "address"
						}
					],
					"name": "OwnableInvalidOwner",
					"type": "error"
				},
				{
					"inputs": [
						{
							"internalType": "address",
							"name": "account",
							"type": "address"
						}
					],
					"name": "OwnableUnauthorizedAccount",
					"type": "error"
				},
				{
					"anonymous": false,
					"inputs": [
						{
							"indexed": true,
							"internalType": "uint256",
							"name": "listingId",
							"type": "uint256"
						}
					],
					"name": "NFTDelisted",
					"type": "event"
				},
				{
					"anonymous": false,
					"inputs": [
						{
							"indexed": true,
							"internalType": "uint256",
							"name": "listingId",
							"type": "uint256"
						},
						{
							"indexed": true,
							"internalType": "address",
							"name": "seller",
							"type": "address"
						},
						{
							"indexed": true,
							"internalType": "address",
							"name": "nftContract",
							"type": "address"
						},
						{
							"indexed": false,
							"internalType": "uint256[]",
							"name": "nftIds",
							"type": "uint256[]"
						},
						{
							"indexed": false,
							"internalType": "uint256",
							"name": "price",
							"type": "uint256"
						},
						{
							"indexed": false,
							"internalType": "uint256",
							"name": "deadline",
							"type": "uint256"
						}
					],
					"name": "NFTListed",
					"type": "event"
				},
				{
					"anonymous": false,
					"inputs": [
						{
							"indexed": true,
							"internalType": "uint256",
							"name": "listingId",
							"type": "uint256"
						},
						{
							"indexed": true,
							"internalType": "address",
							"name": "seller",
							"type": "address"
						},
						{
							"indexed": true,
							"internalType": "address",
							"name": "buyer",
							"type": "address"
						},
						{
							"indexed": false,
							"internalType": "uint256",
							"name": "price",
							"type": "uint256"
						}
					],
					"name": "NFTSold",
					"type": "event"
				},
				{
					"anonymous": false,
					"inputs": [
						{
							"indexed": true,
							"internalType": "address",
							"name": "previousOwner",
							"type": "address"
						},
						{
							"indexed": true,
							"internalType": "address",
							"name": "newOwner",
							"type": "address"
						}
					],
					"name": "OwnershipTransferred",
					"type": "event"
				},
				{
					"anonymous": false,
					"inputs": [
						{
							"indexed": false,
							"internalType": "address",
							"name": "account",
							"type": "address"
						}
					],
					"name": "Paused",
					"type": "event"
				},
				{
					"anonymous": false,
					"inputs": [
						{
							"indexed": false,
							"internalType": "address",
							"name": "account",
							"type": "address"
						}
					],
					"name": "Unpaused",
					"type": "event"
				},
				{
					"inputs": [
						{
							"internalType": "uint256",
							"name": "",
							"type": "uint256"
						}
					],
					"name": "activeListingIds",
					"outputs": [
						{
							"internalType": "uint256",
							"name": "",
							"type": "uint256"
						}
					],
					"stateMutability": "view",
					"type": "function"
				},
				{
					"inputs": [
						{
							"internalType": "uint256",
							"name": "_listingId",
							"type": "uint256"
						}
					],
					"name": "buyNFT",
					"outputs": [],
					"stateMutability": "payable",
					"type": "function"
				},
				{
					"inputs": [
						{
							"internalType": "uint256",
							"name": "_listingId",
							"type": "uint256"
						}
					],
					"name": "cancelListing",
					"outputs": [],
					"stateMutability": "nonpayable",
					"type": "function"
				},
				{
					"inputs": [],
					"name": "getAllListingIds",
					"outputs": [
						{
							"internalType": "uint256[]",
							"name": "",
							"type": "uint256[]"
						}
					],
					"stateMutability": "view",
					"type": "function"
				},
				{
					"inputs": [
						{
							"internalType": "uint256",
							"name": "_listingId",
							"type": "uint256"
						}
					],
					"name": "getListingInfo",
					"outputs": [
						{
							"components": [
								{
									"internalType": "uint256",
									"name": "tokenId",
									"type": "uint256"
								},
								{
									"internalType": "string",
									"name": "metadataLink",
									"type": "string"
								}
							],
							"internalType": "struct GotasNFTMarketplace.TokenInfo[]",
							"name": "",
							"type": "tuple[]"
						}
					],
					"stateMutability": "view",
					"type": "function"
				},
				{
					"inputs": [
						{
							"internalType": "address",
							"name": "_nftContractAddress",
							"type": "address"
						},
						{
							"internalType": "uint256[]",
							"name": "_nftIds",
							"type": "uint256[]"
						},
						{
							"internalType": "uint256",
							"name": "_price",
							"type": "uint256"
						},
						{
							"internalType": "uint256",
							"name": "_deadline",
							"type": "uint256"
						}
					],
					"name": "listNFT",
					"outputs": [],
					"stateMutability": "nonpayable",
					"type": "function"
				},
				{
					"inputs": [
						{
							"internalType": "uint256",
							"name": "",
							"type": "uint256"
						}
					],
					"name": "listingOwners",
					"outputs": [
						{
							"internalType": "address",
							"name": "",
							"type": "address"
						}
					],
					"stateMutability": "view",
					"type": "function"
				},
				{
					"inputs": [
						{
							"internalType": "uint256",
							"name": "",
							"type": "uint256"
						}
					],
					"name": "listings",
					"outputs": [
						{
							"internalType": "address",
							"name": "nftContractAddress",
							"type": "address"
						},
						{
							"internalType": "address",
							"name": "seller",
							"type": "address"
						},
						{
							"internalType": "uint256",
							"name": "price",
							"type": "uint256"
						},
						{
							"internalType": "uint256",
							"name": "deadline",
							"type": "uint256"
						}
					],
					"stateMutability": "view",
					"type": "function"
				},
				{
					"inputs": [],
					"name": "nextListingId",
					"outputs": [
						{
							"internalType": "uint256",
							"name": "",
							"type": "uint256"
						}
					],
					"stateMutability": "view",
					"type": "function"
				},
				{
					"inputs": [],
					"name": "owner",
					"outputs": [
						{
							"internalType": "address",
							"name": "",
							"type": "address"
						}
					],
					"stateMutability": "view",
					"type": "function"
				},
				{
					"inputs": [],
					"name": "pause",
					"outputs": [],
					"stateMutability": "nonpayable",
					"type": "function"
				},
				{
					"inputs": [],
					"name": "paused",
					"outputs": [
						{
							"internalType": "bool",
							"name": "",
							"type": "bool"
						}
					],
					"stateMutability": "view",
					"type": "function"
				},
				{
					"inputs": [],
					"name": "platformFeeAddress",
					"outputs": [
						{
							"internalType": "address",
							"name": "",
							"type": "address"
						}
					],
					"stateMutability": "view",
					"type": "function"
				},
				{
					"inputs": [],
					"name": "platformFeePercentage",
					"outputs": [
						{
							"internalType": "uint256",
							"name": "",
							"type": "uint256"
						}
					],
					"stateMutability": "view",
					"type": "function"
				},
				{
					"inputs": [],
					"name": "renounceOwnership",
					"outputs": [],
					"stateMutability": "nonpayable",
					"type": "function"
				},
				{
					"inputs": [],
					"name": "royaltyAddress",
					"outputs": [
						{
							"internalType": "address",
							"name": "",
							"type": "address"
						}
					],
					"stateMutability": "view",
					"type": "function"
				},
				{
					"inputs": [],
					"name": "royaltyPercentage",
					"outputs": [
						{
							"internalType": "uint256",
							"name": "",
							"type": "uint256"
						}
					],
					"stateMutability": "view",
					"type": "function"
				},
				{
					"inputs": [
						{
							"internalType": "address",
							"name": "newOwner",
							"type": "address"
						}
					],
					"name": "transferOwnership",
					"outputs": [],
					"stateMutability": "nonpayable",
					"type": "function"
				},
				{
					"inputs": [],
					"name": "unpause",
					"outputs": [],
					"stateMutability": "nonpayable",
					"type": "function"
				},
				{
					"inputs": [
						{
							"internalType": "address",
							"name": "_newRoyaltyAddress",
							"type": "address"
						},
						{
							"internalType": "address",
							"name": "_newPlatformFeeAddress",
							"type": "address"
						}
					],
					"name": "updateFeeAddresses",
					"outputs": [],
					"stateMutability": "nonpayable",
					"type": "function"
				},
				{
					"inputs": [
						{
							"internalType": "uint256",
							"name": "_newRoyaltyPercentage",
							"type": "uint256"
						},
						{
							"internalType": "uint256",
							"name": "_newPlatformFeePercentage",
							"type": "uint256"
						}
					],
					"name": "updateFeePercentages",
					"outputs": [],
					"stateMutability": "nonpayable",
					"type": "function"
				}
			],
			"devdoc": {
				"errors": {
					"OwnableInvalidOwner(address)": [
						{
							"details": "The owner is not a valid owner account. (eg. `address(0)`)"
						}
					],
					"OwnableUnauthorizedAccount(address)": [
						{
							"details": "The caller account is not authorized to perform an operation."
						}
					]
				},
				"events": {
					"Paused(address)": {
						"details": "Emitted when the pause is triggered by `account`."
					},
					"Unpaused(address)": {
						"details": "Emitted when the pause is lifted by `account`."
					}
				},
				"kind": "dev",
				"methods": {
					"owner()": {
						"details": "Returns the address of the current owner."
					},
					"paused()": {
						"details": "Returns true if the contract is paused, and false otherwise."
					},
					"renounceOwnership()": {
						"details": "Leaves the contract without owner. It will not be possible to call `onlyOwner` functions. Can only be called by the current owner. NOTE: Renouncing ownership will leave the contract without an owner, thereby disabling any functionality that is only available to the owner."
					},
					"transferOwnership(address)": {
						"details": "Transfers ownership of the contract to a new account (`newOwner`). Can only be called by the current owner."
					}
				},
				"version": 1
			},
			"evm": {
				"assembly": "    /* \"gota.sol\":368:7135  contract GotasNFTMarketplace is Ownable(msg.sender), ReentrancyGuard, Pausable {... */\n  mstore(0x40, 0x80)\n    /* \"gota.sol\":1062:1063  1 */\n  0x01\n    /* \"gota.sol\":1031:1063  uint256 public nextListingId = 1 */\n  0x0a\n  sstore\n    /* \"gota.sol\":1475:1989  constructor(... */\n  callvalue\n  dup1\n  iszero\n  tag_1\n  jumpi\n  0x00\n  dup1\n  revert\ntag_1:\n  pop\n  mload(0x40)\n  sub(codesize, bytecodeSize)\n  dup1\n  bytecodeSize\n  dup4\n  codecopy\n  dup2\n  dup2\n  add\n  0x40\n  mstore\n  dup2\n  add\n  swap1\n  tag_2\n  swap2\n  swap1\n  tag_3\n  jump\t// in\ntag_2:\n    /* \"gota.sol\":408:418  msg.sender */\n  caller\n    /* \"@openzeppelin/contracts/access/Ownable.sol\":1297:1298  0 */\n  0x00\n    /* \"@openzeppelin/contracts/access/Ownable.sol\":1273:1299  initialOwner == address(0) */\n  0xffffffffffffffffffffffffffffffffffffffff\n  and\n    /* \"@openzeppelin/contracts/access/Ownable.sol\":1273:1285  initialOwner */\n  dup2\n    /* \"@openzeppelin/contracts/access/Ownable.sol\":1273:1299  initialOwner == address(0) */\n  0xffffffffffffffffffffffffffffffffffffffff\n  and\n  sub\n    /* \"@openzeppelin/contracts/access/Ownable.sol\":1269:1364  if (initialOwner == address(0)) {... */\n  tag_9\n  jumpi\n    /* \"@openzeppelin/contracts/access/Ownable.sol\":1350:1351  0 */\n  0x00\n    /* \"@openzeppelin/contracts/access/Ownable.sol\":1322:1353  OwnableInvalidOwner(address(0)) */\n  mload(0x40)\n  0x1e4fbdf700000000000000000000000000000000000000000000000000000000\n  dup2\n  mstore\n  0x04\n  add\n  tag_10\n  swap2\n  swap1\n  tag_11\n  jump\t// in\ntag_10:\n  mload(0x40)\n  dup1\n  swap2\n  sub\n  swap1\n  revert\n    /* \"@openzeppelin/contracts/access/Ownable.sol\":1269:1364  if (initialOwner == address(0)) {... */\ntag_9:\n    /* \"@openzeppelin/contracts/access/Ownable.sol\":1373:1405  _transferOwnership(initialOwner) */\n  tag_12\n    /* \"@openzeppelin/contracts/access/Ownable.sol\":1392:1404  initialOwner */\n  dup2\n    /* \"@openzeppelin/contracts/access/Ownable.sol\":1373:1391  _transferOwnership */\n  shl(0x20, tag_13)\n    /* \"@openzeppelin/contracts/access/Ownable.sol\":1373:1405  _transferOwnership(initialOwner) */\n  0x20\n  shr\n  jump\t// in\ntag_12:\n    /* \"@openzeppelin/contracts/access/Ownable.sol\":1225:1412  constructor(address initialOwner) {... */\n  pop\n    /* \"@openzeppelin/contracts/security/ReentrancyGuard.sol\":1716:1717  1 */\n  0x01\n    /* \"@openzeppelin/contracts/security/ReentrancyGuard.sol\":1821:1828  _status */\n  dup1\n    /* \"@openzeppelin/contracts/security/ReentrancyGuard.sol\":1821:1843  _status = _NOT_ENTERED */\n  dup2\n  swap1\n  sstore\n  pop\n    /* \"@openzeppelin/contracts/security/Pausable.sol\":1006:1011  false */\n  0x00\n    /* \"@openzeppelin/contracts/security/Pausable.sol\":996:1003  _paused */\n  0x02\n  0x00\n    /* \"@openzeppelin/contracts/security/Pausable.sol\":996:1011  _paused = false */\n  0x0100\n  exp\n  dup2\n  sload\n  dup2\n  0xff\n  mul\n  not\n  and\n  swap1\n  dup4\n  iszero\n  iszero\n  mul\n  or\n  swap1\n  sstore\n  pop\n    /* \"gota.sol\":1697:1698  0 */\n  0x00\n    /* \"gota.sol\":1670:1699  _royaltyAddress != address(0) */\n  0xffffffffffffffffffffffffffffffffffffffff\n  and\n    /* \"gota.sol\":1670:1685  _royaltyAddress */\n  dup3\n    /* \"gota.sol\":1670:1699  _royaltyAddress != address(0) */\n  0xffffffffffffffffffffffffffffffffffffffff\n  and\n  eq\n  iszero\n    /* \"gota.sol\":1670:1736  _royaltyAddress != address(0) && _platformFeeAddress != address(0) */\n  dup1\n  iszero\n  tag_17\n  jumpi\n  pop\n    /* \"gota.sol\":1734:1735  0 */\n  0x00\n    /* \"gota.sol\":1703:1736  _platformFeeAddress != address(0) */\n  0xffffffffffffffffffffffffffffffffffffffff\n  and\n    /* \"gota.sol\":1703:1722  _platformFeeAddress */\n  dup2\n    /* \"gota.sol\":1703:1736  _platformFeeAddress != address(0) */\n  0xffffffffffffffffffffffffffffffffffffffff\n  and\n  eq\n  iszero\n    /* \"gota.sol\":1670:1736  _royaltyAddress != address(0) && _platformFeeAddress != address(0) */\ntag_17:\n    /* \"gota.sol\":1649:1786  require(... */\n  tag_18\n  jumpi\n  mload(0x40)\n  0x08c379a000000000000000000000000000000000000000000000000000000000\n  dup2\n  mstore\n  0x04\n  add\n  tag_19\n  swap1\n  tag_20\n  jump\t// in\ntag_19:\n  mload(0x40)\n  dup1\n  swap2\n  sub\n  swap1\n  revert\ntag_18:\n    /* \"gota.sol\":1816:1834  _royaltyPercentage */\n  dup4\n    /* \"gota.sol\":1796:1813  royaltyPercentage */\n  0x04\n    /* \"gota.sol\":1796:1834  royaltyPercentage = _royaltyPercentage */\n  dup2\n  swap1\n  sstore\n  pop\n    /* \"gota.sol\":1868:1890  _platformFeePercentage */\n  dup3\n    /* \"gota.sol\":1844:1865  platformFeePercentage */\n  0x05\n    /* \"gota.sol\":1844:1890  platformFeePercentage = _platformFeePercentage */\n  dup2\n  swap1\n  sstore\n  pop\n    /* \"gota.sol\":1917:1932  _royaltyAddress */\n  dup2\n    /* \"gota.sol\":1900:1914  royaltyAddress */\n  0x06\n  0x00\n    /* \"gota.sol\":1900:1932  royaltyAddress = _royaltyAddress */\n  0x0100\n  exp\n  dup2\n  sload\n  dup2\n  0xffffffffffffffffffffffffffffffffffffffff\n  mul\n  not\n  and\n  swap1\n  dup4\n  0xffffffffffffffffffffffffffffffffffffffff\n  and\n  mul\n  or\n  swap1\n  sstore\n  pop\n    /* \"gota.sol\":1963:1982  _platformFeeAddress */\n  dup1\n    /* \"gota.sol\":1942:1960  platformFeeAddress */\n  0x07\n  0x00\n    /* \"gota.sol\":1942:1982  platformFeeAddress = _platformFeeAddress */\n  0x0100\n  exp\n  dup2\n  sload\n  dup2\n  0xffffffffffffffffffffffffffffffffffffffff\n  mul\n  not\n  and\n  swap1\n  dup4\n  0xffffffffffffffffffffffffffffffffffffffff\n  and\n  mul\n  or\n  swap1\n  sstore\n  pop\n    /* \"gota.sol\":1475:1989  constructor(... */\n  pop\n  pop\n  pop\n  pop\n    /* \"gota.sol\":368:7135  contract GotasNFTMarketplace is Ownable(msg.sender), ReentrancyGuard, Pausable {... */\n  jump(tag_21)\n    /* \"@openzeppelin/contracts/access/Ownable.sol\":2912:3099  function _transferOwnership(address newOwner) internal virtual {... */\ntag_13:\n    /* \"@openzeppelin/contracts/access/Ownable.sol\":2985:3001  address oldOwner */\n  0x00\n    /* \"@openzeppelin/contracts/access/Ownable.sol\":3004:3010  _owner */\n  dup1\n  0x00\n  swap1\n  sload\n  swap1\n  0x0100\n  exp\n  swap1\n  div\n  0xffffffffffffffffffffffffffffffffffffffff\n  and\n    /* \"@openzeppelin/contracts/access/Ownable.sol\":2985:3010  address oldOwner = _owner */\n  swap1\n  pop\n    /* \"@openzeppelin/contracts/access/Ownable.sol\":3029:3037  newOwner */\n  dup2\n    /* \"@openzeppelin/contracts/access/Ownable.sol\":3020:3026  _owner */\n  0x00\n  dup1\n    /* \"@openzeppelin/contracts/access/Ownable.sol\":3020:3037  _owner = newOwner */\n  0x0100\n  exp\n  dup2\n  sload\n  dup2\n  0xffffffffffffffffffffffffffffffffffffffff\n  mul\n  not\n  and\n  swap1\n  dup4\n  0xffffffffffffffffffffffffffffffffffffffff\n  and\n  mul\n  or\n  swap1\n  sstore\n  pop\n    /* \"@openzeppelin/contracts/access/Ownable.sol\":3083:3091  newOwner */\n  dup2\n    /* \"@openzeppelin/contracts/access/Ownable.sol\":3052:3092  OwnershipTransferred(oldOwner, newOwner) */\n  0xffffffffffffffffffffffffffffffffffffffff\n  and\n    /* \"@openzeppelin/contracts/access/Ownable.sol\":3073:3081  oldOwner */\n  dup2\n    /* \"@openzeppelin/contracts/access/Ownable.sol\":3052:3092  OwnershipTransferred(oldOwner, newOwner) */\n  0xffffffffffffffffffffffffffffffffffffffff\n  and\n  0x8be0079c531659141344cd1fd0a4f28419497f9722a3daafe3b4186f6b6457e0\n  mload(0x40)\n  mload(0x40)\n  dup1\n  swap2\n  sub\n  swap1\n  log3\n    /* \"@openzeppelin/contracts/access/Ownable.sol\":2975:3099  {... */\n  pop\n    /* \"@openzeppelin/contracts/access/Ownable.sol\":2912:3099  function _transferOwnership(address newOwner) internal virtual {... */\n  pop\n  jump\t// out\n    /* \"#utility.yul\":88:205   */\ntag_24:\n    /* \"#utility.yul\":197:198   */\n  0x00\n    /* \"#utility.yul\":194:195   */\n  dup1\n    /* \"#utility.yul\":187:199   */\n  revert\n    /* \"#utility.yul\":334:411   */\ntag_26:\n    /* \"#utility.yul\":371:378   */\n  0x00\n    /* \"#utility.yul\":400:405   */\n  dup2\n    /* \"#utility.yul\":389:405   */\n  swap1\n  pop\n    /* \"#utility.yul\":334:411   */\n  swap2\n  swap1\n  pop\n  jump\t// out\n    /* \"#utility.yul\":417:539   */\ntag_27:\n    /* \"#utility.yul\":490:514   */\n  tag_43\n    /* \"#utility.yul\":508:513   */\n  dup2\n    /* \"#utility.yul\":490:514   */\n  tag_26\n  jump\t// in\ntag_43:\n    /* \"#utility.yul\":483:488   */\n  dup2\n    /* \"#utility.yul\":480:515   */\n  eq\n    /* \"#utility.yul\":470:533   */\n  tag_44\n  jumpi\n    /* \"#utility.yul\":529:530   */\n  0x00\n    /* \"#utility.yul\":526:527   */\n  dup1\n    /* \"#utility.yul\":519:531   */\n  revert\n    /* \"#utility.yul\":470:533   */\ntag_44:\n    /* \"#utility.yul\":417:539   */\n  pop\n  jump\t// out\n    /* \"#utility.yul\":545:688   */\ntag_28:\n    /* \"#utility.yul\":602:607   */\n  0x00\n    /* \"#utility.yul\":633:639   */\n  dup2\n    /* \"#utility.yul\":627:640   */\n  mload\n    /* \"#utility.yul\":618:640   */\n  swap1\n  pop\n    /* \"#utility.yul\":649:682   */\n  tag_46\n    /* \"#utility.yul\":676:681   */\n  dup2\n    /* \"#utility.yul\":649:682   */\n  tag_27\n  jump\t// in\ntag_46:\n    /* \"#utility.yul\":545:688   */\n  swap3\n  swap2\n  pop\n  pop\n  jump\t// out\n    /* \"#utility.yul\":694:820   */\ntag_29:\n    /* \"#utility.yul\":731:738   */\n  0x00\n    /* \"#utility.yul\":771:813   */\n  0xffffffffffffffffffffffffffffffffffffffff\n    /* \"#utility.yul\":764:769   */\n  dup3\n    /* \"#utility.yul\":760:814   */\n  and\n    /* \"#utility.yul\":749:814   */\n  swap1\n  pop\n    /* \"#utility.yul\":694:820   */\n  swap2\n  swap1\n  pop\n  jump\t// out\n    /* \"#utility.yul\":826:922   */\ntag_30:\n    /* \"#utility.yul\":863:870   */\n  0x00\n    /* \"#utility.yul\":892:916   */\n  tag_49\n    /* \"#utility.yul\":910:915   */\n  dup3\n    /* \"#utility.yul\":892:916   */\n  tag_29\n  jump\t// in\ntag_49:\n    /* \"#utility.yul\":881:916   */\n  swap1\n  pop\n    /* \"#utility.yul\":826:922   */\n  swap2\n  swap1\n  pop\n  jump\t// out\n    /* \"#utility.yul\":928:1050   */\ntag_31:\n    /* \"#utility.yul\":1001:1025   */\n  tag_51\n    /* \"#utility.yul\":1019:1024   */\n  dup2\n    /* \"#utility.yul\":1001:1025   */\n  tag_30\n  jump\t// in\ntag_51:\n    /* \"#utility.yul\":994:999   */\n  dup2\n    /* \"#utility.yul\":991:1026   */\n  eq\n    /* \"#utility.yul\":981:1044   */\n  tag_52\n  jumpi\n    /* \"#utility.yul\":1040:1041   */\n  0x00\n    /* \"#utility.yul\":1037:1038   */\n  dup1\n    /* \"#utility.yul\":1030:1042   */\n  revert\n    /* \"#utility.yul\":981:1044   */\ntag_52:\n    /* \"#utility.yul\":928:1050   */\n  pop\n  jump\t// out\n    /* \"#utility.yul\":1056:1199   */\ntag_32:\n    /* \"#utility.yul\":1113:1118   */\n  0x00\n    /* \"#utility.yul\":1144:1150   */\n  dup2\n    /* \"#utility.yul\":1138:1151   */\n  mload\n    /* \"#utility.yul\":1129:1151   */\n  swap1\n  pop\n    /* \"#utility.yul\":1160:1193   */\n  tag_54\n    /* \"#utility.yul\":1187:1192   */\n  dup2\n    /* \"#utility.yul\":1160:1193   */\n  tag_31\n  jump\t// in\ntag_54:\n    /* \"#utility.yul\":1056:1199   */\n  swap3\n  swap2\n  pop\n  pop\n  jump\t// out\n    /* \"#utility.yul\":1205:2025   */\ntag_3:\n    /* \"#utility.yul\":1302:1308   */\n  0x00\n    /* \"#utility.yul\":1310:1316   */\n  dup1\n    /* \"#utility.yul\":1318:1324   */\n  0x00\n    /* \"#utility.yul\":1326:1332   */\n  dup1\n    /* \"#utility.yul\":1375:1378   */\n  0x80\n    /* \"#utility.yul\":1363:1372   */\n  dup6\n    /* \"#utility.yul\":1354:1361   */\n  dup8\n    /* \"#utility.yul\":1350:1373   */\n  sub\n    /* \"#utility.yul\":1346:1379   */\n  slt\n    /* \"#utility.yul\":1343:1463   */\n  iszero\n  tag_56\n  jumpi\n    /* \"#utility.yul\":1382:1461   */\n  tag_57\n  tag_24\n  jump\t// in\ntag_57:\n    /* \"#utility.yul\":1343:1463   */\ntag_56:\n    /* \"#utility.yul\":1502:1503   */\n  0x00\n    /* \"#utility.yul\":1527:1591   */\n  tag_58\n    /* \"#utility.yul\":1583:1590   */\n  dup8\n    /* \"#utility.yul\":1574:1580   */\n  dup3\n    /* \"#utility.yul\":1563:1572   */\n  dup9\n    /* \"#utility.yul\":1559:1581   */\n  add\n    /* \"#utility.yul\":1527:1591   */\n  tag_28\n  jump\t// in\ntag_58:\n    /* \"#utility.yul\":1517:1591   */\n  swap5\n  pop\n    /* \"#utility.yul\":1473:1601   */\n  pop\n    /* \"#utility.yul\":1640:1642   */\n  0x20\n    /* \"#utility.yul\":1666:1730   */\n  tag_59\n    /* \"#utility.yul\":1722:1729   */\n  dup8\n    /* \"#utility.yul\":1713:1719   */\n  dup3\n    /* \"#utility.yul\":1702:1711   */\n  dup9\n    /* \"#utility.yul\":1698:1720   */\n  add\n    /* \"#utility.yul\":1666:1730   */\n  tag_28\n  jump\t// in\ntag_59:\n    /* \"#utility.yul\":1656:1730   */\n  swap4\n  pop\n    /* \"#utility.yul\":1611:1740   */\n  pop\n    /* \"#utility.yul\":1779:1781   */\n  0x40\n    /* \"#utility.yul\":1805:1869   */\n  tag_60\n    /* \"#utility.yul\":1861:1868   */\n  dup8\n    /* \"#utility.yul\":1852:1858   */\n  dup3\n    /* \"#utility.yul\":1841:1850   */\n  dup9\n    /* \"#utility.yul\":1837:1859   */\n  add\n    /* \"#utility.yul\":1805:1869   */\n  tag_32\n  jump\t// in\ntag_60:\n    /* \"#utility.yul\":1795:1869   */\n  swap3\n  pop\n    /* \"#utility.yul\":1750:1879   */\n  pop\n    /* \"#utility.yul\":1918:1920   */\n  0x60\n    /* \"#utility.yul\":1944:2008   */\n  tag_61\n    /* \"#utility.yul\":2000:2007   */\n  dup8\n    /* \"#utility.yul\":1991:1997   */\n  dup3\n    /* \"#utility.yul\":1980:1989   */\n  dup9\n    /* \"#utility.yul\":1976:1998   */\n  add\n    /* \"#utility.yul\":1944:2008   */\n  tag_32\n  jump\t// in\ntag_61:\n    /* \"#utility.yul\":1934:2008   */\n  swap2\n  pop\n    /* \"#utility.yul\":1889:2018   */\n  pop\n    /* \"#utility.yul\":1205:2025   */\n  swap3\n  swap6\n  swap2\n  swap5\n  pop\n  swap3\n  pop\n  jump\t// out\n    /* \"#utility.yul\":2031:2149   */\ntag_33:\n    /* \"#utility.yul\":2118:2142   */\n  tag_63\n    /* \"#utility.yul\":2136:2141   */\n  dup2\n    /* \"#utility.yul\":2118:2142   */\n  tag_30\n  jump\t// in\ntag_63:\n    /* \"#utility.yul\":2113:2116   */\n  dup3\n    /* \"#utility.yul\":2106:2143   */\n  mstore\n    /* \"#utility.yul\":2031:2149   */\n  pop\n  pop\n  jump\t// out\n    /* \"#utility.yul\":2155:2377   */\ntag_11:\n    /* \"#utility.yul\":2248:2252   */\n  0x00\n    /* \"#utility.yul\":2286:2288   */\n  0x20\n    /* \"#utility.yul\":2275:2284   */\n  dup3\n    /* \"#utility.yul\":2271:2289   */\n  add\n    /* \"#utility.yul\":2263:2289   */\n  swap1\n  pop\n    /* \"#utility.yul\":2299:2370   */\n  tag_65\n    /* \"#utility.yul\":2367:2368   */\n  0x00\n    /* \"#utility.yul\":2356:2365   */\n  dup4\n    /* \"#utility.yul\":2352:2369   */\n  add\n    /* \"#utility.yul\":2343:2349   */\n  dup5\n    /* \"#utility.yul\":2299:2370   */\n  tag_33\n  jump\t// in\ntag_65:\n    /* \"#utility.yul\":2155:2377   */\n  swap3\n  swap2\n  pop\n  pop\n  jump\t// out\n    /* \"#utility.yul\":2383:2552   */\ntag_34:\n    /* \"#utility.yul\":2467:2478   */\n  0x00\n    /* \"#utility.yul\":2501:2507   */\n  dup3\n    /* \"#utility.yul\":2496:2499   */\n  dup3\n    /* \"#utility.yul\":2489:2508   */\n  mstore\n    /* \"#utility.yul\":2541:2545   */\n  0x20\n    /* \"#utility.yul\":2536:2539   */\n  dup3\n    /* \"#utility.yul\":2532:2546   */\n  add\n    /* \"#utility.yul\":2517:2546   */\n  swap1\n  pop\n    /* \"#utility.yul\":2383:2552   */\n  swap3\n  swap2\n  pop\n  pop\n  jump\t// out\n    /* \"#utility.yul\":2558:2732   */\ntag_35:\n    /* \"#utility.yul\":2698:2724   */\n  0x4164647265737365732063616e6e6f74206265207a65726f0000000000000000\n    /* \"#utility.yul\":2694:2695   */\n  0x00\n    /* \"#utility.yul\":2686:2692   */\n  dup3\n    /* \"#utility.yul\":2682:2696   */\n  add\n    /* \"#utility.yul\":2675:2725   */\n  mstore\n    /* \"#utility.yul\":2558:2732   */\n  pop\n  jump\t// out\n    /* \"#utility.yul\":2738:3104   */\ntag_36:\n    /* \"#utility.yul\":2880:2883   */\n  0x00\n    /* \"#utility.yul\":2901:2968   */\n  tag_69\n    /* \"#utility.yul\":2965:2967   */\n  0x18\n    /* \"#utility.yul\":2960:2963   */\n  dup4\n    /* \"#utility.yul\":2901:2968   */\n  tag_34\n  jump\t// in\ntag_69:\n    /* \"#utility.yul\":2894:2968   */\n  swap2\n  pop\n    /* \"#utility.yul\":2977:3070   */\n  tag_70\n    /* \"#utility.yul\":3066:3069   */\n  dup3\n    /* \"#utility.yul\":2977:3070   */\n  tag_35\n  jump\t// in\ntag_70:\n    /* \"#utility.yul\":3095:3097   */\n  0x20\n    /* \"#utility.yul\":3090:3093   */\n  dup3\n    /* \"#utility.yul\":3086:3098   */\n  add\n    /* \"#utility.yul\":3079:3098   */\n  swap1\n  pop\n    /* \"#utility.yul\":2738:3104   */\n  swap2\n  swap1\n  pop\n  jump\t// out\n    /* \"#utility.yul\":3110:3529   */\ntag_20:\n    /* \"#utility.yul\":3276:3280   */\n  0x00\n    /* \"#utility.yul\":3314:3316   */\n  0x20\n    /* \"#utility.yul\":3303:3312   */\n  dup3\n    /* \"#utility.yul\":3299:3317   */\n  add\n    /* \"#utility.yul\":3291:3317   */\n  swap1\n  pop\n    /* \"#utility.yul\":3363:3372   */\n  dup2\n    /* \"#utility.yul\":3357:3361   */\n  dup2\n    /* \"#utility.yul\":3353:3373   */\n  sub\n    /* \"#utility.yul\":3349:3350   */\n  0x00\n    /* \"#utility.yul\":3338:3347   */\n  dup4\n    /* \"#utility.yul\":3334:3351   */\n  add\n    /* \"#utility.yul\":3327:3374   */\n  mstore\n    /* \"#utility.yul\":3391:3522   */\n  tag_72\n    /* \"#utility.yul\":3517:3521   */\n  dup2\n    /* \"#utility.yul\":3391:3522   */\n  tag_36\n  jump\t// in\ntag_72:\n    /* \"#utility.yul\":3383:3522   */\n  swap1\n  pop\n    /* \"#utility.yul\":3110:3529   */\n  swap2\n  swap1\n  pop\n  jump\t// out\n    /* \"gota.sol\":368:7135  contract GotasNFTMarketplace is Ownable(msg.sender), ReentrancyGuard, Pausable {... */\ntag_21:\n  dataSize(sub_0)\n  dup1\n  dataOffset(sub_0)\n  0x00\n  codecopy\n  0x00\n  return\nstop\n\nsub_0: assembly {\n        /* \"gota.sol\":368:7135  contract GotasNFTMarketplace is Ownable(msg.sender), ReentrancyGuard, Pausable {... */\n      mstore(0x40, 0x80)\n      jumpi(tag_1, lt(calldatasize, 0x04))\n      shr(0xe0, calldataload(0x00))\n      dup1\n      0x85dd3008\n      gt\n      tag_23\n      jumpi\n      dup1\n      0xb9314135\n      gt\n      tag_24\n      jumpi\n      dup1\n      0xb9314135\n      eq\n      tag_17\n      jumpi\n      dup1\n      0xcdd78cfc\n      eq\n      tag_18\n      jumpi\n      dup1\n      0xde74e57b\n      eq\n      tag_19\n      jumpi\n      dup1\n      0xe3b6a1f6\n      eq\n      tag_20\n      jumpi\n      dup1\n      0xed14834f\n      eq\n      tag_21\n      jumpi\n      dup1\n      0xf2fde38b\n      eq\n      tag_22\n      jumpi\n      jump(tag_1)\n    tag_24:\n      dup1\n      0x85dd3008\n      eq\n      tag_12\n      jumpi\n      dup1\n      0x8a71bb2d\n      eq\n      tag_13\n      jumpi\n      dup1\n      0x8da5cb5b\n      eq\n      tag_14\n      jumpi\n      dup1\n      0xaaccf1ec\n      eq\n      tag_15\n      jumpi\n      dup1\n      0xad2f852a\n      eq\n      tag_16\n      jumpi\n      jump(tag_1)\n    tag_23:\n      dup1\n      0x5e4e8d65\n      gt\n      tag_25\n      jumpi\n      dup1\n      0x5e4e8d65\n      eq\n      tag_7\n      jumpi\n      dup1\n      0x715018a6\n      eq\n      tag_8\n      jumpi\n      dup1\n      0x78578bb3\n      eq\n      tag_9\n      jumpi\n      dup1\n      0x7bdaceef\n      eq\n      tag_10\n      jumpi\n      dup1\n      0x8456cb59\n      eq\n      tag_11\n      jumpi\n      jump(tag_1)\n    tag_25:\n      dup1\n      0x305a67a8\n      eq\n      tag_2\n      jumpi\n      dup1\n      0x3f4ba83a\n      eq\n      tag_3\n      jumpi\n      dup1\n      0x4e313796\n      eq\n      tag_4\n      jumpi\n      dup1\n      0x51ed8288\n      eq\n      tag_5\n      jumpi\n      dup1\n      0x5c975abb\n      eq\n      tag_6\n      jumpi\n    tag_1:\n      0x00\n      dup1\n      revert\n        /* \"gota.sol\":4985:5307  function cancelListing(uint256 _listingId) external nonReentrant {... */\n    tag_2:\n      callvalue\n      dup1\n      iszero\n      tag_26\n      jumpi\n      0x00\n      dup1\n      revert\n    tag_26:\n      pop\n      tag_27\n      0x04\n      dup1\n      calldatasize\n      sub\n      dup2\n      add\n      swap1\n      tag_28\n      swap2\n      swap1\n      tag_29\n      jump\t// in\n    tag_28:\n      tag_30\n      jump\t// in\n    tag_27:\n      stop\n        /* \"gota.sol\":5393:5471  function unpause() external onlyOwner nonReentrant {... */\n    tag_3:\n      callvalue\n      dup1\n      iszero\n      tag_31\n      jumpi\n      0x00\n      dup1\n      revert\n    tag_31:\n      pop\n      tag_32\n      tag_33\n      jump\t// in\n    tag_32:\n      stop\n        /* \"gota.sol\":1995:3268  function listNFT(... */\n    tag_4:\n      callvalue\n      dup1\n      iszero\n      tag_34\n      jumpi\n      0x00\n      dup1\n      revert\n    tag_34:\n      pop\n      tag_35\n      0x04\n      dup1\n      calldatasize\n      sub\n      dup2\n      add\n      swap1\n      tag_36\n      swap2\n      swap1\n      tag_37\n      jump\t// in\n    tag_36:\n      tag_38\n      jump\t// in\n    tag_35:\n      stop\n        /* \"gota.sol\":3274:4979  function buyNFT(uint256 _listingId)... */\n    tag_5:\n      tag_39\n      0x04\n      dup1\n      calldatasize\n      sub\n      dup2\n      add\n      swap1\n      tag_40\n      swap2\n      swap1\n      tag_29\n      jump\t// in\n    tag_40:\n      tag_41\n      jump\t// in\n    tag_39:\n      stop\n        /* \"@openzeppelin/contracts/security/Pausable.sol\":1615:1699  function paused() public view virtual returns (bool) {... */\n    tag_6:\n      callvalue\n      dup1\n      iszero\n      tag_42\n      jumpi\n      0x00\n      dup1\n      revert\n    tag_42:\n      pop\n      tag_43\n      tag_44\n      jump\t// in\n    tag_43:\n      mload(0x40)\n      tag_45\n      swap2\n      swap1\n      tag_46\n      jump\t// in\n    tag_45:\n      mload(0x40)\n      dup1\n      swap2\n      sub\n      swap1\n      return\n        /* \"gota.sol\":5477:5893  function updateFeeAddresses(... */\n    tag_7:\n      callvalue\n      dup1\n      iszero\n      tag_47\n      jumpi\n      0x00\n      dup1\n      revert\n    tag_47:\n      pop\n      tag_48\n      0x04\n      dup1\n      calldatasize\n      sub\n      dup2\n      add\n      swap1\n      tag_49\n      swap2\n      swap1\n      tag_50\n      jump\t// in\n    tag_49:\n      tag_51\n      jump\t// in\n    tag_48:\n      stop\n        /* \"@openzeppelin/contracts/access/Ownable.sol\":2293:2394  function renounceOwnership() public virtual onlyOwner {... */\n    tag_8:\n      callvalue\n      dup1\n      iszero\n      tag_52\n      jumpi\n      0x00\n      dup1\n      revert\n    tag_52:\n      pop\n      tag_53\n      tag_54\n      jump\t// in\n    tag_53:\n      stop\n        /* \"gota.sol\":5899:6166  function updateFeePercentages(... */\n    tag_9:\n      callvalue\n      dup1\n      iszero\n      tag_55\n      jumpi\n      0x00\n      dup1\n      revert\n    tag_55:\n      pop\n      tag_56\n      0x04\n      dup1\n      calldatasize\n      sub\n      dup2\n      add\n      swap1\n      tag_57\n      swap2\n      swap1\n      tag_58\n      jump\t// in\n    tag_57:\n      tag_59\n      jump\t// in\n    tag_56:\n      stop\n        /* \"gota.sol\":976:1024  mapping(uint256 => address) public listingOwners */\n    tag_10:\n      callvalue\n      dup1\n      iszero\n      tag_60\n      jumpi\n      0x00\n      dup1\n      revert\n    tag_60:\n      pop\n      tag_61\n      0x04\n      dup1\n      calldatasize\n      sub\n      dup2\n      add\n      swap1\n      tag_62\n      swap2\n      swap1\n      tag_29\n      jump\t// in\n    tag_62:\n      tag_63\n      jump\t// in\n    tag_61:\n      mload(0x40)\n      tag_64\n      swap2\n      swap1\n      tag_65\n      jump\t// in\n    tag_64:\n      mload(0x40)\n      dup1\n      swap2\n      sub\n      swap1\n      return\n        /* \"gota.sol\":5313:5387  function pause() external onlyOwner nonReentrant {... */\n    tag_11:\n      callvalue\n      dup1\n      iszero\n      tag_66\n      jumpi\n      0x00\n      dup1\n      revert\n    tag_66:\n      pop\n      tag_67\n      tag_68\n      jump\t// in\n    tag_67:\n      stop\n        /* \"gota.sol\":6172:6281  function getAllListingIds() external view returns (uint256[] memory) {... */\n    tag_12:\n      callvalue\n      dup1\n      iszero\n      tag_69\n      jumpi\n      0x00\n      dup1\n      revert\n    tag_69:\n      pop\n      tag_70\n      tag_71\n      jump\t// in\n    tag_70:\n      mload(0x40)\n      tag_72\n      swap2\n      swap1\n      tag_73\n      jump\t// in\n    tag_72:\n      mload(0x40)\n      dup1\n      swap2\n      sub\n      swap1\n      return\n        /* \"gota.sol\":772:804  uint256 public royaltyPercentage */\n    tag_13:\n      callvalue\n      dup1\n      iszero\n      tag_74\n      jumpi\n      0x00\n      dup1\n      revert\n    tag_74:\n      pop\n      tag_75\n      tag_76\n      jump\t// in\n    tag_75:\n      mload(0x40)\n      tag_77\n      swap2\n      swap1\n      tag_78\n      jump\t// in\n    tag_77:\n      mload(0x40)\n      dup1\n      swap2\n      sub\n      swap1\n      return\n        /* \"@openzeppelin/contracts/access/Ownable.sol\":1638:1723  function owner() public view virtual returns (address) {... */\n    tag_14:\n      callvalue\n      dup1\n      iszero\n      tag_79\n      jumpi\n      0x00\n      dup1\n      revert\n    tag_79:\n      pop\n      tag_80\n      tag_81\n      jump\t// in\n    tag_80:\n      mload(0x40)\n      tag_82\n      swap2\n      swap1\n      tag_65\n      jump\t// in\n    tag_82:\n      mload(0x40)\n      dup1\n      swap2\n      sub\n      swap1\n      return\n        /* \"gota.sol\":1031:1063  uint256 public nextListingId = 1 */\n    tag_15:\n      callvalue\n      dup1\n      iszero\n      tag_83\n      jumpi\n      0x00\n      dup1\n      revert\n    tag_83:\n      pop\n      tag_84\n      tag_85\n      jump\t// in\n    tag_84:\n      mload(0x40)\n      tag_86\n      swap2\n      swap1\n      tag_78\n      jump\t// in\n    tag_86:\n      mload(0x40)\n      dup1\n      swap2\n      sub\n      swap1\n      return\n        /* \"gota.sol\":852:881  address public royaltyAddress */\n    tag_16:\n      callvalue\n      dup1\n      iszero\n      tag_87\n      jumpi\n      0x00\n      dup1\n      revert\n    tag_87:\n      pop\n      tag_88\n      tag_89\n      jump\t// in\n    tag_88:\n      mload(0x40)\n      tag_90\n      swap2\n      swap1\n      tag_65\n      jump\t// in\n    tag_90:\n      mload(0x40)\n      dup1\n      swap2\n      sub\n      swap1\n      return\n        /* \"gota.sol\":6287:7133  function getListingInfo(uint256 _listingId)... */\n    tag_17:\n      callvalue\n      dup1\n      iszero\n      tag_91\n      jumpi\n      0x00\n      dup1\n      revert\n    tag_91:\n      pop\n      tag_92\n      0x04\n      dup1\n      calldatasize\n      sub\n      dup2\n      add\n      swap1\n      tag_93\n      swap2\n      swap1\n      tag_29\n      jump\t// in\n    tag_93:\n      tag_94\n      jump\t// in\n    tag_92:\n      mload(0x40)\n      tag_95\n      swap2\n      swap1\n      tag_96\n      jump\t// in\n    tag_95:\n      mload(0x40)\n      dup1\n      swap2\n      sub\n      swap1\n      return\n        /* \"gota.sol\":810:846  uint256 public platformFeePercentage */\n    tag_18:\n      callvalue\n      dup1\n      iszero\n      tag_97\n      jumpi\n      0x00\n      dup1\n      revert\n    tag_97:\n      pop\n      tag_98\n      tag_99\n      jump\t// in\n    tag_98:\n      mload(0x40)\n      tag_100\n      swap2\n      swap1\n      tag_78\n      jump\t// in\n    tag_100:\n      mload(0x40)\n      dup1\n      swap2\n      sub\n      swap1\n      return\n        /* \"gota.sol\":927:970  mapping(uint256 => Listing) public listings */\n    tag_19:\n      callvalue\n      dup1\n      iszero\n      tag_101\n      jumpi\n      0x00\n      dup1\n      revert\n    tag_101:\n      pop\n      tag_102\n      0x04\n      dup1\n      calldatasize\n      sub\n      dup2\n      add\n      swap1\n      tag_103\n      swap2\n      swap1\n      tag_29\n      jump\t// in\n    tag_103:\n      tag_104\n      jump\t// in\n    tag_102:\n      mload(0x40)\n      tag_105\n      swap5\n      swap4\n      swap3\n      swap2\n      swap1\n      tag_106\n      jump\t// in\n    tag_105:\n      mload(0x40)\n      dup1\n      swap2\n      sub\n      swap1\n      return\n        /* \"gota.sol\":733:766  uint256[] public activeListingIds */\n    tag_20:\n      callvalue\n      dup1\n      iszero\n      tag_107\n      jumpi\n      0x00\n      dup1\n      revert\n    tag_107:\n      pop\n      tag_108\n      0x04\n      dup1\n      calldatasize\n      sub\n      dup2\n      add\n      swap1\n      tag_109\n      swap2\n      swap1\n      tag_29\n      jump\t// in\n    tag_109:\n      tag_110\n      jump\t// in\n    tag_108:\n      mload(0x40)\n      tag_111\n      swap2\n      swap1\n      tag_78\n      jump\t// in\n    tag_111:\n      mload(0x40)\n      dup1\n      swap2\n      sub\n      swap1\n      return\n        /* \"gota.sol\":887:920  address public platformFeeAddress */\n    tag_21:\n      callvalue\n      dup1\n      iszero\n      tag_112\n      jumpi\n      0x00\n      dup1\n      revert\n    tag_112:\n      pop\n      tag_113\n      tag_114\n      jump\t// in\n    tag_113:\n      mload(0x40)\n      tag_115\n      swap2\n      swap1\n      tag_65\n      jump\t// in\n    tag_115:\n      mload(0x40)\n      dup1\n      swap2\n      sub\n      swap1\n      return\n        /* \"@openzeppelin/contracts/access/Ownable.sol\":2543:2758  function transferOwnership(address newOwner) public virtual onlyOwner {... */\n    tag_22:\n      callvalue\n      dup1\n      iszero\n      tag_116\n      jumpi\n      0x00\n      dup1\n      revert\n    tag_116:\n      pop\n      tag_117\n      0x04\n      dup1\n      calldatasize\n      sub\n      dup2\n      add\n      swap1\n      tag_118\n      swap2\n      swap1\n      tag_119\n      jump\t// in\n    tag_118:\n      tag_120\n      jump\t// in\n    tag_117:\n      stop\n        /* \"gota.sol\":4985:5307  function cancelListing(uint256 _listingId) external nonReentrant {... */\n    tag_30:\n        /* \"@openzeppelin/contracts/security/ReentrancyGuard.sol\":2261:2282  _nonReentrantBefore() */\n      tag_122\n        /* \"@openzeppelin/contracts/security/ReentrancyGuard.sol\":2261:2280  _nonReentrantBefore */\n      tag_123\n        /* \"@openzeppelin/contracts/security/ReentrancyGuard.sol\":2261:2282  _nonReentrantBefore() */\n      jump\t// in\n    tag_122:\n        /* \"gota.sol\":5110:5120  msg.sender */\n      caller\n        /* \"gota.sol\":5081:5120  listingOwners[_listingId] == msg.sender */\n      0xffffffffffffffffffffffffffffffffffffffff\n      and\n        /* \"gota.sol\":5081:5094  listingOwners */\n      0x09\n        /* \"gota.sol\":5081:5106  listingOwners[_listingId] */\n      0x00\n        /* \"gota.sol\":5095:5105  _listingId */\n      dup4\n        /* \"gota.sol\":5081:5106  listingOwners[_listingId] */\n      dup2\n      mstore\n      0x20\n      add\n      swap1\n      dup2\n      mstore\n      0x20\n      add\n      0x00\n      keccak256\n      0x00\n      swap1\n      sload\n      swap1\n      0x0100\n      exp\n      swap1\n      div\n      0xffffffffffffffffffffffffffffffffffffffff\n      and\n        /* \"gota.sol\":5081:5120  listingOwners[_listingId] == msg.sender */\n      0xffffffffffffffffffffffffffffffffffffffff\n      and\n      eq\n        /* \"gota.sol\":5060:5183  require(... */\n      tag_125\n      jumpi\n      mload(0x40)\n      0x08c379a000000000000000000000000000000000000000000000000000000000\n      dup2\n      mstore\n      0x04\n      add\n      tag_126\n      swap1\n      tag_127\n      jump\t// in\n    tag_126:\n      mload(0x40)\n      dup1\n      swap2\n      sub\n      swap1\n      revert\n    tag_125:\n        /* \"gota.sol\":5200:5208  listings */\n      0x08\n        /* \"gota.sol\":5200:5220  listings[_listingId] */\n      0x00\n        /* \"gota.sol\":5209:5219  _listingId */\n      dup3\n        /* \"gota.sol\":5200:5220  listings[_listingId] */\n      dup2\n      mstore\n      0x20\n      add\n      swap1\n      dup2\n      mstore\n      0x20\n      add\n      0x00\n      keccak256\n      0x00\n        /* \"gota.sol\":5193:5220  delete listings[_listingId] */\n      dup1\n      dup3\n      add\n      exp(0x0100, 0x00)\n      dup2\n      sload\n      swap1\n      0xffffffffffffffffffffffffffffffffffffffff\n      mul\n      not\n      and\n      swap1\n      sstore\n      0x01\n      dup3\n      add\n      0x00\n      tag_128\n      swap2\n      swap1\n      tag_129\n      jump\t// in\n    tag_128:\n      0x02\n      dup3\n      add\n      exp(0x0100, 0x00)\n      dup2\n      sload\n      swap1\n      0xffffffffffffffffffffffffffffffffffffffff\n      mul\n      not\n      and\n      swap1\n      sstore\n      0x03\n      dup3\n      add\n      0x00\n      swap1\n      sstore\n      0x04\n      dup3\n      add\n      0x00\n      swap1\n      sstore\n      pop\n      pop\n        /* \"gota.sol\":5237:5250  listingOwners */\n      0x09\n        /* \"gota.sol\":5237:5262  listingOwners[_listingId] */\n      0x00\n        /* \"gota.sol\":5251:5261  _listingId */\n      dup3\n        /* \"gota.sol\":5237:5262  listingOwners[_listingId] */\n      dup2\n      mstore\n      0x20\n      add\n      swap1\n      dup2\n      mstore\n      0x20\n      add\n      0x00\n      keccak256\n      0x00\n        /* \"gota.sol\":5230:5262  delete listingOwners[_listingId] */\n      0x0100\n      exp\n      dup2\n      sload\n      swap1\n      0xffffffffffffffffffffffffffffffffffffffff\n      mul\n      not\n      and\n      swap1\n      sstore\n        /* \"gota.sol\":5289:5299  _listingId */\n      dup1\n        /* \"gota.sol\":5277:5300  NFTDelisted(_listingId) */\n      0xc0c55a6edead4433d18cb1e287a0a20a2fa003a6f483bc9823d2e504d70d1c67\n      mload(0x40)\n      mload(0x40)\n      dup1\n      swap2\n      sub\n      swap1\n      log2\n        /* \"@openzeppelin/contracts/security/ReentrancyGuard.sol\":2303:2323  _nonReentrantAfter() */\n      tag_130\n        /* \"@openzeppelin/contracts/security/ReentrancyGuard.sol\":2303:2321  _nonReentrantAfter */\n      tag_131\n        /* \"@openzeppelin/contracts/security/ReentrancyGuard.sol\":2303:2323  _nonReentrantAfter() */\n      jump\t// in\n    tag_130:\n        /* \"gota.sol\":4985:5307  function cancelListing(uint256 _listingId) external nonReentrant {... */\n      pop\n      jump\t// out\n        /* \"gota.sol\":5393:5471  function unpause() external onlyOwner nonReentrant {... */\n    tag_33:\n        /* \"@openzeppelin/contracts/access/Ownable.sol\":1531:1544  _checkOwner() */\n      tag_133\n        /* \"@openzeppelin/contracts/access/Ownable.sol\":1531:1542  _checkOwner */\n      tag_134\n        /* \"@openzeppelin/contracts/access/Ownable.sol\":1531:1544  _checkOwner() */\n      jump\t// in\n    tag_133:\n        /* \"@openzeppelin/contracts/security/ReentrancyGuard.sol\":2261:2282  _nonReentrantBefore() */\n      tag_136\n        /* \"@openzeppelin/contracts/security/ReentrancyGuard.sol\":2261:2280  _nonReentrantBefore */\n      tag_123\n        /* \"@openzeppelin/contracts/security/ReentrancyGuard.sol\":2261:2282  _nonReentrantBefore() */\n      jump\t// in\n    tag_136:\n        /* \"gota.sol\":5454:5464  _unpause() */\n      tag_138\n        /* \"gota.sol\":5454:5462  _unpause */\n      tag_139\n        /* \"gota.sol\":5454:5464  _unpause() */\n      jump\t// in\n    tag_138:\n        /* \"@openzeppelin/contracts/security/ReentrancyGuard.sol\":2303:2323  _nonReentrantAfter() */\n      tag_140\n        /* \"@openzeppelin/contracts/security/ReentrancyGuard.sol\":2303:2321  _nonReentrantAfter */\n      tag_131\n        /* \"@openzeppelin/contracts/security/ReentrancyGuard.sol\":2303:2323  _nonReentrantAfter() */\n      jump\t// in\n    tag_140:\n        /* \"gota.sol\":5393:5471  function unpause() external onlyOwner nonReentrant {... */\n      jump\t// out\n        /* \"gota.sol\":1995:3268  function listNFT(... */\n    tag_38:\n        /* \"@openzeppelin/contracts/security/Pausable.sol\":1239:1258  _requireNotPaused() */\n      tag_142\n        /* \"@openzeppelin/contracts/security/Pausable.sol\":1239:1256  _requireNotPaused */\n      tag_143\n        /* \"@openzeppelin/contracts/security/Pausable.sol\":1239:1258  _requireNotPaused() */\n      jump\t// in\n    tag_142:\n        /* \"@openzeppelin/contracts/security/ReentrancyGuard.sol\":2261:2282  _nonReentrantBefore() */\n      tag_145\n        /* \"@openzeppelin/contracts/security/ReentrancyGuard.sol\":2261:2280  _nonReentrantBefore */\n      tag_123\n        /* \"@openzeppelin/contracts/security/ReentrancyGuard.sol\":2261:2282  _nonReentrantBefore() */\n      jump\t// in\n    tag_145:\n        /* \"gota.sol\":2203:2204  0 */\n      0x00\n        /* \"gota.sol\":2194:2200  _price */\n      dup3\n        /* \"gota.sol\":2194:2204  _price > 0 */\n      gt\n        /* \"gota.sol\":2186:2241  require(_price > 0, \"Price must be greater than zero.\") */\n      tag_147\n      jumpi\n      mload(0x40)\n      0x08c379a000000000000000000000000000000000000000000000000000000000\n      dup2\n      mstore\n      0x04\n      add\n      tag_148\n      swap1\n      tag_149\n      jump\t// in\n    tag_148:\n      mload(0x40)\n      dup1\n      swap2\n      sub\n      swap1\n      revert\n    tag_147:\n        /* \"gota.sol\":2271:2272  0 */\n      0x00\n        /* \"gota.sol\":2259:2268  _deadline */\n      dup2\n        /* \"gota.sol\":2259:2272  _deadline > 0 */\n      gt\n        /* \"gota.sol\":2251:2312  require(_deadline > 0, \"Deadline must be greater than zero.\") */\n      tag_150\n      jumpi\n      mload(0x40)\n      0x08c379a000000000000000000000000000000000000000000000000000000000\n      dup2\n      mstore\n      0x04\n      add\n      tag_151\n      swap1\n      tag_152\n      jump\t// in\n    tag_151:\n      mload(0x40)\n      dup1\n      swap2\n      sub\n      swap1\n      revert\n    tag_150:\n        /* \"gota.sol\":2347:2348  0 */\n      0x00\n        /* \"gota.sol\":2330:2337  _nftIds */\n      dup4\n        /* \"gota.sol\":2330:2344  _nftIds.length */\n      mload\n        /* \"gota.sol\":2330:2348  _nftIds.length > 0 */\n      gt\n        /* \"gota.sol\":2322:2380  require(_nftIds.length > 0, \"Must list at least one NFT.\") */\n      tag_153\n      jumpi\n      mload(0x40)\n      0x08c379a000000000000000000000000000000000000000000000000000000000\n      dup2\n      mstore\n      0x04\n      add\n      tag_154\n      swap1\n      tag_155\n      jump\t// in\n    tag_154:\n      mload(0x40)\n      dup1\n      swap2\n      sub\n      swap1\n      revert\n    tag_153:\n        /* \"gota.sol\":2390:2409  IERC721 nftContract */\n      0x00\n        /* \"gota.sol\":2420:2439  _nftContractAddress */\n      dup5\n        /* \"gota.sol\":2390:2440  IERC721 nftContract = IERC721(_nftContractAddress) */\n      swap1\n      pop\n        /* \"gota.sol\":2455:2464  uint256 i */\n      0x00\n        /* \"gota.sol\":2450:2693  for (uint256 i = 0; i < _nftIds.length; i++) {... */\n    tag_156:\n        /* \"gota.sol\":2474:2481  _nftIds */\n      dup5\n        /* \"gota.sol\":2474:2488  _nftIds.length */\n      mload\n        /* \"gota.sol\":2470:2471  i */\n      dup2\n        /* \"gota.sol\":2470:2488  i < _nftIds.length */\n      lt\n        /* \"gota.sol\":2450:2693  for (uint256 i = 0; i < _nftIds.length; i++) {... */\n      iszero\n      tag_157\n      jumpi\n        /* \"gota.sol\":2509:2523  uint256 _nftId */\n      0x00\n        /* \"gota.sol\":2526:2533  _nftIds */\n      dup6\n        /* \"gota.sol\":2534:2535  i */\n      dup3\n        /* \"gota.sol\":2526:2536  _nftIds[i] */\n      dup2\n      mload\n      dup2\n      lt\n      tag_159\n      jumpi\n      tag_160\n      tag_161\n      jump\t// in\n    tag_160:\n    tag_159:\n      0x20\n      mul\n      0x20\n      add\n      add\n      mload\n        /* \"gota.sol\":2509:2536  uint256 _nftId = _nftIds[i] */\n      swap1\n      pop\n        /* \"gota.sol\":2606:2616  msg.sender */\n      caller\n        /* \"gota.sol\":2575:2616  nftContract.ownerOf(_nftId) == msg.sender */\n      0xffffffffffffffffffffffffffffffffffffffff\n      and\n        /* \"gota.sol\":2575:2586  nftContract */\n      dup4\n        /* \"gota.sol\":2575:2594  nftContract.ownerOf */\n      0xffffffffffffffffffffffffffffffffffffffff\n      and\n      0x6352211e\n        /* \"gota.sol\":2595:2601  _nftId */\n      dup4\n        /* \"gota.sol\":2575:2602  nftContract.ownerOf(_nftId) */\n      mload(0x40)\n      dup3\n      0xffffffff\n      and\n      0xe0\n      shl\n      dup2\n      mstore\n      0x04\n      add\n      tag_162\n      swap2\n      swap1\n      tag_78\n      jump\t// in\n    tag_162:\n      0x20\n      mload(0x40)\n      dup1\n      dup4\n      sub\n      dup2\n      dup7\n      gas\n      staticcall\n      iszero\n      dup1\n      iszero\n      tag_164\n      jumpi\n      returndatasize\n      0x00\n      dup1\n      returndatacopy\n      revert(0x00, returndatasize)\n    tag_164:\n      pop\n      pop\n      pop\n      pop\n      mload(0x40)\n      returndatasize\n      not(0x1f)\n      0x1f\n      dup3\n      add\n      and\n      dup3\n      add\n      dup1\n      0x40\n      mstore\n      pop\n      dup2\n      add\n      swap1\n      tag_165\n      swap2\n      swap1\n      tag_166\n      jump\t// in\n    tag_165:\n        /* \"gota.sol\":2575:2616  nftContract.ownerOf(_nftId) == msg.sender */\n      0xffffffffffffffffffffffffffffffffffffffff\n      and\n      eq\n        /* \"gota.sol\":2550:2682  require(... */\n      tag_167\n      jumpi\n      mload(0x40)\n      0x08c379a000000000000000000000000000000000000000000000000000000000\n      dup2\n      mstore\n      0x04\n      add\n      tag_168\n      swap1\n      tag_169\n      jump\t// in\n    tag_168:\n      mload(0x40)\n      dup1\n      swap2\n      sub\n      swap1\n      revert\n    tag_167:\n        /* \"gota.sol\":2495:2693  {... */\n      pop\n        /* \"gota.sol\":2490:2493  i++ */\n      dup1\n      dup1\n      tag_170\n      swap1\n      tag_171\n      jump\t// in\n    tag_170:\n      swap2\n      pop\n      pop\n        /* \"gota.sol\":2450:2693  for (uint256 i = 0; i < _nftIds.length; i++) {... */\n      jump(tag_156)\n    tag_157:\n      pop\n        /* \"gota.sol\":2728:2939  Listing({... */\n      mload(0x40)\n      dup1\n      0xa0\n      add\n      0x40\n      mstore\n      dup1\n        /* \"gota.sol\":2770:2789  _nftContractAddress */\n      dup7\n        /* \"gota.sol\":2728:2939  Listing({... */\n      0xffffffffffffffffffffffffffffffffffffffff\n      and\n      dup2\n      mstore\n      0x20\n      add\n        /* \"gota.sol\":2811:2818  _nftIds */\n      dup6\n        /* \"gota.sol\":2728:2939  Listing({... */\n      dup2\n      mstore\n      0x20\n      add\n        /* \"gota.sol\":2840:2850  msg.sender */\n      caller\n        /* \"gota.sol\":2728:2939  Listing({... */\n      0xffffffffffffffffffffffffffffffffffffffff\n      and\n      dup2\n      mstore\n      0x20\n      add\n        /* \"gota.sol\":2871:2877  _price */\n      dup5\n        /* \"gota.sol\":2728:2939  Listing({... */\n      dup2\n      mstore\n      0x20\n      add\n        /* \"gota.sol\":2919:2928  _deadline */\n      dup4\n        /* \"gota.sol\":2901:2916  block.timestamp */\n      timestamp\n        /* \"gota.sol\":2901:2928  block.timestamp + _deadline */\n      tag_172\n      swap2\n      swap1\n      tag_173\n      jump\t// in\n    tag_172:\n        /* \"gota.sol\":2728:2939  Listing({... */\n      dup2\n      mstore\n      pop\n        /* \"gota.sol\":2702:2710  listings */\n      0x08\n        /* \"gota.sol\":2702:2725  listings[nextListingId] */\n      0x00\n        /* \"gota.sol\":2711:2724  nextListingId */\n      sload(0x0a)\n        /* \"gota.sol\":2702:2725  listings[nextListingId] */\n      dup2\n      mstore\n      0x20\n      add\n      swap1\n      dup2\n      mstore\n      0x20\n      add\n      0x00\n      keccak256\n        /* \"gota.sol\":2702:2939  listings[nextListingId] = Listing({... */\n      0x00\n      dup3\n      add\n      mload\n      dup2\n      0x00\n      add\n      exp(0x0100, 0x00)\n      dup2\n      sload\n      dup2\n      0xffffffffffffffffffffffffffffffffffffffff\n      mul\n      not\n      and\n      swap1\n      dup4\n      0xffffffffffffffffffffffffffffffffffffffff\n      and\n      mul\n      or\n      swap1\n      sstore\n      pop\n      0x20\n      dup3\n      add\n      mload\n      dup2\n      0x01\n      add\n      swap1\n      dup1\n      mload\n      swap1\n      0x20\n      add\n      swap1\n      tag_174\n      swap3\n      swap2\n      swap1\n      tag_175\n      jump\t// in\n    tag_174:\n      pop\n      0x40\n      dup3\n      add\n      mload\n      dup2\n      0x02\n      add\n      exp(0x0100, 0x00)\n      dup2\n      sload\n      dup2\n      0xffffffffffffffffffffffffffffffffffffffff\n      mul\n      not\n      and\n      swap1\n      dup4\n      0xffffffffffffffffffffffffffffffffffffffff\n      and\n      mul\n      or\n      swap1\n      sstore\n      pop\n      0x60\n      dup3\n      add\n      mload\n      dup2\n      0x03\n      add\n      sstore\n      0x80\n      dup3\n      add\n      mload\n      dup2\n      0x04\n      add\n      sstore\n      swap1\n      pop\n      pop\n        /* \"gota.sol\":2980:2990  msg.sender */\n      caller\n        /* \"gota.sol\":2949:2962  listingOwners */\n      0x09\n        /* \"gota.sol\":2949:2977  listingOwners[nextListingId] */\n      0x00\n        /* \"gota.sol\":2963:2976  nextListingId */\n      sload(0x0a)\n        /* \"gota.sol\":2949:2977  listingOwners[nextListingId] */\n      dup2\n      mstore\n      0x20\n      add\n      swap1\n      dup2\n      mstore\n      0x20\n      add\n      0x00\n      keccak256\n      0x00\n        /* \"gota.sol\":2949:2990  listingOwners[nextListingId] = msg.sender */\n      0x0100\n      exp\n      dup2\n      sload\n      dup2\n      0xffffffffffffffffffffffffffffffffffffffff\n      mul\n      not\n      and\n      swap1\n      dup4\n      0xffffffffffffffffffffffffffffffffffffffff\n      and\n      mul\n      or\n      swap1\n      sstore\n      pop\n        /* \"gota.sol\":3000:3016  activeListingIds */\n      0x03\n        /* \"gota.sol\":3022:3035  nextListingId */\n      sload(0x0a)\n        /* \"gota.sol\":3000:3036  activeListingIds.push(nextListingId) */\n      swap1\n      dup1\n      0x01\n      dup2\n      sload\n      add\n      dup1\n      dup3\n      sstore\n      dup1\n      swap2\n      pop\n      pop\n      0x01\n      swap1\n      sub\n      swap1\n      0x00\n      mstore\n      keccak256(0x00, 0x20)\n      add\n      0x00\n      swap1\n      swap2\n      swap1\n      swap2\n      swap1\n      swap2\n      pop\n      sstore\n        /* \"gota.sol\":3125:3144  _nftContractAddress */\n      dup5\n        /* \"gota.sol\":3051:3236  NFTListed(... */\n      0xffffffffffffffffffffffffffffffffffffffff\n      and\n        /* \"gota.sol\":3101:3111  msg.sender */\n      caller\n        /* \"gota.sol\":3051:3236  NFTListed(... */\n      0xffffffffffffffffffffffffffffffffffffffff\n      and\n        /* \"gota.sol\":3074:3087  nextListingId */\n      sload(0x0a)\n        /* \"gota.sol\":3051:3236  NFTListed(... */\n      0xb135ab5d6fb2741efa75bf597e471845ca0a87fc756c5ab2a23f77639e3a8941\n        /* \"gota.sol\":3158:3165  _nftIds */\n      dup8\n        /* \"gota.sol\":3179:3185  _price */\n      dup8\n        /* \"gota.sol\":3217:3226  _deadline */\n      dup8\n        /* \"gota.sol\":3199:3214  block.timestamp */\n      timestamp\n        /* \"gota.sol\":3199:3226  block.timestamp + _deadline */\n      tag_177\n      swap2\n      swap1\n      tag_173\n      jump\t// in\n    tag_177:\n        /* \"gota.sol\":3051:3236  NFTListed(... */\n      mload(0x40)\n      tag_178\n      swap4\n      swap3\n      swap2\n      swap1\n      tag_179\n      jump\t// in\n    tag_178:\n      mload(0x40)\n      dup1\n      swap2\n      sub\n      swap1\n      log4\n        /* \"gota.sol\":3246:3259  nextListingId */\n      0x0a\n      0x00\n        /* \"gota.sol\":3246:3261  nextListingId++ */\n      dup2\n      sload\n      dup1\n      swap3\n      swap2\n      swap1\n      tag_180\n      swap1\n      tag_171\n      jump\t// in\n    tag_180:\n      swap2\n      swap1\n      pop\n      sstore\n      pop\n        /* \"gota.sol\":2176:3268  {... */\n      pop\n        /* \"@openzeppelin/contracts/security/ReentrancyGuard.sol\":2303:2323  _nonReentrantAfter() */\n      tag_181\n        /* \"@openzeppelin/contracts/security/ReentrancyGuard.sol\":2303:2321  _nonReentrantAfter */\n      tag_131\n        /* \"@openzeppelin/contracts/security/ReentrancyGuard.sol\":2303:2323  _nonReentrantAfter() */\n      jump\t// in\n    tag_181:\n        /* \"gota.sol\":1995:3268  function listNFT(... */\n      pop\n      pop\n      pop\n      pop\n      jump\t// out\n        /* \"gota.sol\":3274:4979  function buyNFT(uint256 _listingId)... */\n    tag_41:\n        /* \"@openzeppelin/contracts/security/Pausable.sol\":1239:1258  _requireNotPaused() */\n      tag_183\n        /* \"@openzeppelin/contracts/security/Pausable.sol\":1239:1256  _requireNotPaused */\n      tag_143\n        /* \"@openzeppelin/contracts/security/Pausable.sol\":1239:1258  _requireNotPaused() */\n      jump\t// in\n    tag_183:\n        /* \"@openzeppelin/contracts/security/ReentrancyGuard.sol\":2261:2282  _nonReentrantBefore() */\n      tag_185\n        /* \"@openzeppelin/contracts/security/ReentrancyGuard.sol\":2261:2280  _nonReentrantBefore */\n      tag_123\n        /* \"@openzeppelin/contracts/security/ReentrancyGuard.sol\":2261:2282  _nonReentrantBefore() */\n      jump\t// in\n    tag_185:\n        /* \"gota.sol\":3420:3421  0 */\n      0x00\n        /* \"gota.sol\":3408:3417  msg.value */\n      callvalue\n        /* \"gota.sol\":3408:3421  msg.value > 0 */\n      gt\n        /* \"gota.sol\":3400:3463  require(msg.value > 0, \"Sent value must be greater than zero.\") */\n      tag_187\n      jumpi\n      mload(0x40)\n      0x08c379a000000000000000000000000000000000000000000000000000000000\n      dup2\n      mstore\n      0x04\n      add\n      tag_188\n      swap1\n      tag_189\n      jump\t// in\n    tag_188:\n      mload(0x40)\n      dup1\n      swap2\n      sub\n      swap1\n      revert\n    tag_187:\n        /* \"gota.sol\":3473:3496  Listing storage listing */\n      0x00\n        /* \"gota.sol\":3499:3507  listings */\n      0x08\n        /* \"gota.sol\":3499:3519  listings[_listingId] */\n      0x00\n        /* \"gota.sol\":3508:3518  _listingId */\n      dup4\n        /* \"gota.sol\":3499:3519  listings[_listingId] */\n      dup2\n      mstore\n      0x20\n      add\n      swap1\n      dup2\n      mstore\n      0x20\n      add\n      0x00\n      keccak256\n        /* \"gota.sol\":3473:3519  Listing storage listing = listings[_listingId] */\n      swap1\n      pop\n        /* \"gota.sol\":3563:3564  0 */\n      0x00\n        /* \"gota.sol\":3537:3565  listing.seller != address(0) */\n      0xffffffffffffffffffffffffffffffffffffffff\n      and\n        /* \"gota.sol\":3537:3544  listing */\n      dup2\n        /* \"gota.sol\":3537:3551  listing.seller */\n      0x02\n      add\n      0x00\n      swap1\n      sload\n      swap1\n      0x0100\n      exp\n      swap1\n      div\n      0xffffffffffffffffffffffffffffffffffffffff\n      and\n        /* \"gota.sol\":3537:3565  listing.seller != address(0) */\n      0xffffffffffffffffffffffffffffffffffffffff\n      and\n      sub\n        /* \"gota.sol\":3529:3593  require(listing.seller != address(0), \"Listing does not exist.\") */\n      tag_190\n      jumpi\n      mload(0x40)\n      0x08c379a000000000000000000000000000000000000000000000000000000000\n      dup2\n      mstore\n      0x04\n      add\n      tag_191\n      swap1\n      tag_192\n      jump\t// in\n    tag_191:\n      mload(0x40)\n      dup1\n      swap2\n      sub\n      swap1\n      revert\n    tag_190:\n        /* \"gota.sol\":3643:3650  listing */\n      dup1\n        /* \"gota.sol\":3643:3659  listing.deadline */\n      0x04\n      add\n      sload\n        /* \"gota.sol\":3624:3639  block.timestamp */\n      timestamp\n        /* \"gota.sol\":3624:3659  block.timestamp <= listing.deadline */\n      gt\n      iszero\n        /* \"gota.sol\":3603:3710  require(... */\n      tag_193\n      jumpi\n      mload(0x40)\n      0x08c379a000000000000000000000000000000000000000000000000000000000\n      dup2\n      mstore\n      0x04\n      add\n      tag_194\n      swap1\n      tag_195\n      jump\t// in\n    tag_194:\n      mload(0x40)\n      dup1\n      swap2\n      sub\n      swap1\n      revert\n    tag_193:\n        /* \"gota.sol\":3754:3761  listing */\n      dup1\n        /* \"gota.sol\":3754:3767  listing.price */\n      0x03\n      add\n      sload\n        /* \"gota.sol\":3741:3750  msg.value */\n      callvalue\n        /* \"gota.sol\":3741:3767  msg.value == listing.price */\n      eq\n        /* \"gota.sol\":3720:3839  require(... */\n      tag_196\n      jumpi\n      mload(0x40)\n      0x08c379a000000000000000000000000000000000000000000000000000000000\n      dup2\n      mstore\n      0x04\n      add\n      tag_197\n      swap1\n      tag_198\n      jump\t// in\n    tag_197:\n      mload(0x40)\n      dup1\n      swap2\n      sub\n      swap1\n      revert\n    tag_196:\n        /* \"gota.sol\":3849:3870  uint256 royaltyAmount */\n      0x00\n        /* \"gota.sol\":3911:3916  10000 */\n      0x2710\n        /* \"gota.sol\":3890:3907  royaltyPercentage */\n      sload(0x04)\n        /* \"gota.sol\":3874:3881  listing */\n      dup4\n        /* \"gota.sol\":3874:3887  listing.price */\n      0x03\n      add\n      sload\n        /* \"gota.sol\":3874:3907  listing.price * royaltyPercentage */\n      tag_199\n      swap2\n      swap1\n      tag_200\n      jump\t// in\n    tag_199:\n        /* \"gota.sol\":3873:3916  (listing.price * royaltyPercentage) / 10000 */\n      tag_201\n      swap2\n      swap1\n      tag_202\n      jump\t// in\n    tag_201:\n        /* \"gota.sol\":3849:3916  uint256 royaltyAmount = (listing.price * royaltyPercentage) / 10000 */\n      swap1\n      pop\n        /* \"gota.sol\":3926:3945  uint256 platformFee */\n      0x00\n        /* \"gota.sol\":3990:3995  10000 */\n      0x2710\n        /* \"gota.sol\":3965:3986  platformFeePercentage */\n      sload(0x05)\n        /* \"gota.sol\":3949:3956  listing */\n      dup5\n        /* \"gota.sol\":3949:3962  listing.price */\n      0x03\n      add\n      sload\n        /* \"gota.sol\":3949:3986  listing.price * platformFeePercentage */\n      tag_203\n      swap2\n      swap1\n      tag_200\n      jump\t// in\n    tag_203:\n        /* \"gota.sol\":3948:3995  (listing.price * platformFeePercentage) / 10000 */\n      tag_204\n      swap2\n      swap1\n      tag_202\n      jump\t// in\n    tag_204:\n        /* \"gota.sol\":3926:3995  uint256 platformFee = (listing.price * platformFeePercentage) / 10000 */\n      swap1\n      pop\n        /* \"gota.sol\":4005:4025  uint256 sellerAmount */\n      0x00\n        /* \"gota.sol\":4060:4071  platformFee */\n      dup2\n        /* \"gota.sol\":4044:4057  royaltyAmount */\n      dup4\n        /* \"gota.sol\":4028:4035  listing */\n      dup6\n        /* \"gota.sol\":4028:4041  listing.price */\n      0x03\n      add\n      sload\n        /* \"gota.sol\":4028:4057  listing.price - royaltyAmount */\n      tag_205\n      swap2\n      swap1\n      tag_206\n      jump\t// in\n    tag_205:\n        /* \"gota.sol\":4028:4071  listing.price - royaltyAmount - platformFee */\n      tag_207\n      swap2\n      swap1\n      tag_206\n      jump\t// in\n    tag_207:\n        /* \"gota.sol\":4005:4071  uint256 sellerAmount = listing.price - royaltyAmount - platformFee */\n      swap1\n      pop\n        /* \"gota.sol\":4132:4141  uint256 i */\n      0x00\n        /* \"gota.sol\":4127:4598  for (uint256 i = 0; i < listing.nftIds.length; i++) {... */\n    tag_208:\n        /* \"gota.sol\":4151:4158  listing */\n      dup5\n        /* \"gota.sol\":4151:4165  listing.nftIds */\n      0x01\n      add\n        /* \"gota.sol\":4151:4172  listing.nftIds.length */\n      dup1\n      sload\n      swap1\n      pop\n        /* \"gota.sol\":4147:4148  i */\n      dup2\n        /* \"gota.sol\":4147:4172  i < listing.nftIds.length */\n      lt\n        /* \"gota.sol\":4127:4598  for (uint256 i = 0; i < listing.nftIds.length; i++) {... */\n      iszero\n      tag_209\n      jumpi\n        /* \"gota.sol\":4193:4207  uint256 _nftId */\n      0x00\n        /* \"gota.sol\":4210:4217  listing */\n      dup6\n        /* \"gota.sol\":4210:4224  listing.nftIds */\n      0x01\n      add\n        /* \"gota.sol\":4225:4226  i */\n      dup3\n        /* \"gota.sol\":4210:4227  listing.nftIds[i] */\n      dup2\n      sload\n      dup2\n      lt\n      tag_211\n      jumpi\n      tag_212\n      tag_161\n      jump\t// in\n    tag_212:\n    tag_211:\n      swap1\n      0x00\n      mstore\n      keccak256(0x00, 0x20)\n      add\n      sload\n        /* \"gota.sol\":4193:4227  uint256 _nftId = listing.nftIds[i] */\n      swap1\n      pop\n        /* \"gota.sol\":4341:4348  listing */\n      dup6\n        /* \"gota.sol\":4341:4355  listing.seller */\n      0x02\n      add\n      0x00\n      swap1\n      sload\n      swap1\n      0x0100\n      exp\n      swap1\n      div\n      0xffffffffffffffffffffffffffffffffffffffff\n      and\n        /* \"gota.sol\":4266:4355  IERC721(listing.nftContractAddress).ownerOf(_nftId) ==... */\n      0xffffffffffffffffffffffffffffffffffffffff\n      and\n        /* \"gota.sol\":4274:4281  listing */\n      dup7\n        /* \"gota.sol\":4274:4300  listing.nftContractAddress */\n      0x00\n      add\n      0x00\n      swap1\n      sload\n      swap1\n      0x0100\n      exp\n      swap1\n      div\n      0xffffffffffffffffffffffffffffffffffffffff\n      and\n        /* \"gota.sol\":4266:4309  IERC721(listing.nftContractAddress).ownerOf */\n      0xffffffffffffffffffffffffffffffffffffffff\n      and\n      0x6352211e\n        /* \"gota.sol\":4310:4316  _nftId */\n      dup4\n        /* \"gota.sol\":4266:4317  IERC721(listing.nftContractAddress).ownerOf(_nftId) */\n      mload(0x40)\n      dup3\n      0xffffffff\n      and\n      0xe0\n      shl\n      dup2\n      mstore\n      0x04\n      add\n      tag_214\n      swap2\n      swap1\n      tag_78\n      jump\t// in\n    tag_214:\n      0x20\n      mload(0x40)\n      dup1\n      dup4\n      sub\n      dup2\n      dup7\n      gas\n      staticcall\n      iszero\n      dup1\n      iszero\n      tag_216\n      jumpi\n      returndatasize\n      0x00\n      dup1\n      returndatacopy\n      revert(0x00, returndatasize)\n    tag_216:\n      pop\n      pop\n      pop\n      pop\n      mload(0x40)\n      returndatasize\n      not(0x1f)\n      0x1f\n      dup3\n      add\n      and\n      dup3\n      add\n      dup1\n      0x40\n      mstore\n      pop\n      dup2\n      add\n      swap1\n      tag_217\n      swap2\n      swap1\n      tag_166\n      jump\t// in\n    tag_217:\n        /* \"gota.sol\":4266:4355  IERC721(listing.nftContractAddress).ownerOf(_nftId) ==... */\n      0xffffffffffffffffffffffffffffffffffffffff\n      and\n      eq\n        /* \"gota.sol\":4241:4427  require(... */\n      tag_218\n      jumpi\n      mload(0x40)\n      0x08c379a000000000000000000000000000000000000000000000000000000000\n      dup2\n      mstore\n      0x04\n      add\n      tag_219\n      swap1\n      tag_220\n      jump\t// in\n    tag_219:\n      mload(0x40)\n      dup1\n      swap2\n      sub\n      swap1\n      revert\n    tag_218:\n        /* \"gota.sol\":4449:4456  listing */\n      dup6\n        /* \"gota.sol\":4449:4475  listing.nftContractAddress */\n      0x00\n      add\n      0x00\n      swap1\n      sload\n      swap1\n      0x0100\n      exp\n      swap1\n      div\n      0xffffffffffffffffffffffffffffffffffffffff\n      and\n        /* \"gota.sol\":4441:4489  IERC721(listing.nftContractAddress).transferFrom */\n      0xffffffffffffffffffffffffffffffffffffffff\n      and\n      0x23b872dd\n        /* \"gota.sol\":4507:4514  listing */\n      dup8\n        /* \"gota.sol\":4507:4521  listing.seller */\n      0x02\n      add\n      0x00\n      swap1\n      sload\n      swap1\n      0x0100\n      exp\n      swap1\n      div\n      0xffffffffffffffffffffffffffffffffffffffff\n      and\n        /* \"gota.sol\":4539:4549  msg.sender */\n      caller\n        /* \"gota.sol\":4567:4573  _nftId */\n      dup5\n        /* \"gota.sol\":4441:4587  IERC721(listing.nftContractAddress).transferFrom(... */\n      mload(0x40)\n      dup5\n      0xffffffff\n      and\n      0xe0\n      shl\n      dup2\n      mstore\n      0x04\n      add\n      tag_221\n      swap4\n      swap3\n      swap2\n      swap1\n      tag_222\n      jump\t// in\n    tag_221:\n      0x00\n      mload(0x40)\n      dup1\n      dup4\n      sub\n      dup2\n      0x00\n      dup8\n      dup1\n      extcodesize\n      iszero\n      dup1\n      iszero\n      tag_223\n      jumpi\n      0x00\n      dup1\n      revert\n    tag_223:\n      pop\n      gas\n      call\n      iszero\n      dup1\n      iszero\n      tag_225\n      jumpi\n      returndatasize\n      0x00\n      dup1\n      returndatacopy\n      revert(0x00, returndatasize)\n    tag_225:\n      pop\n      pop\n      pop\n      pop\n        /* \"gota.sol\":4179:4598  {... */\n      pop\n        /* \"gota.sol\":4174:4177  i++ */\n      dup1\n      dup1\n      tag_226\n      swap1\n      tag_171\n      jump\t// in\n    tag_226:\n      swap2\n      pop\n      pop\n        /* \"gota.sol\":4127:4598  for (uint256 i = 0; i < listing.nftIds.length; i++) {... */\n      jump(tag_208)\n    tag_209:\n      pop\n        /* \"gota.sol\":4650:4657  listing */\n      dup4\n        /* \"gota.sol\":4650:4664  listing.seller */\n      0x02\n      add\n      0x00\n      swap1\n      sload\n      swap1\n      0x0100\n      exp\n      swap1\n      div\n      0xffffffffffffffffffffffffffffffffffffffff\n      and\n        /* \"gota.sol\":4642:4674  payable(listing.seller).transfer */\n      0xffffffffffffffffffffffffffffffffffffffff\n      and\n        /* \"gota.sol\":4642:4688  payable(listing.seller).transfer(sellerAmount) */\n      0x08fc\n        /* \"gota.sol\":4675:4687  sellerAmount */\n      dup3\n        /* \"gota.sol\":4642:4688  payable(listing.seller).transfer(sellerAmount) */\n      swap1\n      dup2\n      iszero\n      mul\n      swap1\n      mload(0x40)\n      0x00\n      mload(0x40)\n      dup1\n      dup4\n      sub\n      dup2\n      dup6\n      dup9\n      dup9\n      call\n      swap4\n      pop\n      pop\n      pop\n      pop\n      iszero\n      dup1\n      iszero\n      tag_228\n      jumpi\n      returndatasize\n      0x00\n      dup1\n      returndatacopy\n      revert(0x00, returndatasize)\n    tag_228:\n      pop\n        /* \"gota.sol\":4706:4720  royaltyAddress */\n      0x06\n      0x00\n      swap1\n      sload\n      swap1\n      0x0100\n      exp\n      swap1\n      div\n      0xffffffffffffffffffffffffffffffffffffffff\n      and\n        /* \"gota.sol\":4698:4730  payable(royaltyAddress).transfer */\n      0xffffffffffffffffffffffffffffffffffffffff\n      and\n        /* \"gota.sol\":4698:4745  payable(royaltyAddress).transfer(royaltyAmount) */\n      0x08fc\n        /* \"gota.sol\":4731:4744  royaltyAmount */\n      dup5\n        /* \"gota.sol\":4698:4745  payable(royaltyAddress).transfer(royaltyAmount) */\n      swap1\n      dup2\n      iszero\n      mul\n      swap1\n      mload(0x40)\n      0x00\n      mload(0x40)\n      dup1\n      dup4\n      sub\n      dup2\n      dup6\n      dup9\n      dup9\n      call\n      swap4\n      pop\n      pop\n      pop\n      pop\n      iszero\n      dup1\n      iszero\n      tag_230\n      jumpi\n      returndatasize\n      0x00\n      dup1\n      returndatacopy\n      revert(0x00, returndatasize)\n    tag_230:\n      pop\n        /* \"gota.sol\":4763:4781  platformFeeAddress */\n      0x07\n      0x00\n      swap1\n      sload\n      swap1\n      0x0100\n      exp\n      swap1\n      div\n      0xffffffffffffffffffffffffffffffffffffffff\n      and\n        /* \"gota.sol\":4755:4791  payable(platformFeeAddress).transfer */\n      0xffffffffffffffffffffffffffffffffffffffff\n      and\n        /* \"gota.sol\":4755:4804  payable(platformFeeAddress).transfer(platformFee) */\n      0x08fc\n        /* \"gota.sol\":4792:4803  platformFee */\n      dup4\n        /* \"gota.sol\":4755:4804  payable(platformFeeAddress).transfer(platformFee) */\n      swap1\n      dup2\n      iszero\n      mul\n      swap1\n      mload(0x40)\n      0x00\n      mload(0x40)\n      dup1\n      dup4\n      sub\n      dup2\n      dup6\n      dup9\n      dup9\n      call\n      swap4\n      pop\n      pop\n      pop\n      pop\n      iszero\n      dup1\n      iszero\n      tag_232\n      jumpi\n      returndatasize\n      0x00\n      dup1\n      returndatacopy\n      revert(0x00, returndatasize)\n    tag_232:\n      pop\n        /* \"gota.sol\":4946:4956  msg.sender */\n      caller\n        /* \"gota.sol\":4910:4972  NFTSold(_listingId, listing.seller, msg.sender, listing.price) */\n      0xffffffffffffffffffffffffffffffffffffffff\n      and\n        /* \"gota.sol\":4930:4937  listing */\n      dup5\n        /* \"gota.sol\":4930:4944  listing.seller */\n      0x02\n      add\n      0x00\n      swap1\n      sload\n      swap1\n      0x0100\n      exp\n      swap1\n      div\n      0xffffffffffffffffffffffffffffffffffffffff\n      and\n        /* \"gota.sol\":4910:4972  NFTSold(_listingId, listing.seller, msg.sender, listing.price) */\n      0xffffffffffffffffffffffffffffffffffffffff\n      and\n        /* \"gota.sol\":4918:4928  _listingId */\n      dup7\n        /* \"gota.sol\":4910:4972  NFTSold(_listingId, listing.seller, msg.sender, listing.price) */\n      0x8562eb94748e30bb0071e932744ce902b460c683474fcb3bfd567ffa16b1afb2\n        /* \"gota.sol\":4958:4965  listing */\n      dup8\n        /* \"gota.sol\":4958:4971  listing.price */\n      0x03\n      add\n      sload\n        /* \"gota.sol\":4910:4972  NFTSold(_listingId, listing.seller, msg.sender, listing.price) */\n      mload(0x40)\n      tag_233\n      swap2\n      swap1\n      tag_78\n      jump\t// in\n    tag_233:\n      mload(0x40)\n      dup1\n      swap2\n      sub\n      swap1\n      log4\n        /* \"gota.sol\":3390:4979  {... */\n      pop\n      pop\n      pop\n      pop\n        /* \"@openzeppelin/contracts/security/ReentrancyGuard.sol\":2303:2323  _nonReentrantAfter() */\n      tag_234\n        /* \"@openzeppelin/contracts/security/ReentrancyGuard.sol\":2303:2321  _nonReentrantAfter */\n      tag_131\n        /* \"@openzeppelin/contracts/security/ReentrancyGuard.sol\":2303:2323  _nonReentrantAfter() */\n      jump\t// in\n    tag_234:\n        /* \"gota.sol\":3274:4979  function buyNFT(uint256 _listingId)... */\n      pop\n      jump\t// out\n        /* \"@openzeppelin/contracts/security/Pausable.sol\":1615:1699  function paused() public view virtual returns (bool) {... */\n    tag_44:\n        /* \"@openzeppelin/contracts/security/Pausable.sol\":1662:1666  bool */\n      0x00\n        /* \"@openzeppelin/contracts/security/Pausable.sol\":1685:1692  _paused */\n      0x02\n      0x00\n      swap1\n      sload\n      swap1\n      0x0100\n      exp\n      swap1\n      div\n      0xff\n      and\n        /* \"@openzeppelin/contracts/security/Pausable.sol\":1678:1692  return _paused */\n      swap1\n      pop\n        /* \"@openzeppelin/contracts/security/Pausable.sol\":1615:1699  function paused() public view virtual returns (bool) {... */\n      swap1\n      jump\t// out\n        /* \"gota.sol\":5477:5893  function updateFeeAddresses(... */\n    tag_51:\n        /* \"@openzeppelin/contracts/access/Ownable.sol\":1531:1544  _checkOwner() */\n      tag_237\n        /* \"@openzeppelin/contracts/access/Ownable.sol\":1531:1542  _checkOwner */\n      tag_134\n        /* \"@openzeppelin/contracts/access/Ownable.sol\":1531:1544  _checkOwner() */\n      jump\t// in\n    tag_237:\n        /* \"@openzeppelin/contracts/security/ReentrancyGuard.sol\":2261:2282  _nonReentrantBefore() */\n      tag_239\n        /* \"@openzeppelin/contracts/security/ReentrancyGuard.sol\":2261:2280  _nonReentrantBefore */\n      tag_123\n        /* \"@openzeppelin/contracts/security/ReentrancyGuard.sol\":2261:2282  _nonReentrantBefore() */\n      jump\t// in\n    tag_239:\n        /* \"gota.sol\":5680:5681  0 */\n      0x00\n        /* \"gota.sol\":5650:5682  _newRoyaltyAddress != address(0) */\n      0xffffffffffffffffffffffffffffffffffffffff\n      and\n        /* \"gota.sol\":5650:5668  _newRoyaltyAddress */\n      dup3\n        /* \"gota.sol\":5650:5682  _newRoyaltyAddress != address(0) */\n      0xffffffffffffffffffffffffffffffffffffffff\n      and\n      eq\n      iszero\n        /* \"gota.sol\":5650:5738  _newRoyaltyAddress != address(0) &&... */\n      dup1\n      iszero\n      tag_241\n      jumpi\n      pop\n        /* \"gota.sol\":5736:5737  0 */\n      0x00\n        /* \"gota.sol\":5702:5738  _newPlatformFeeAddress != address(0) */\n      0xffffffffffffffffffffffffffffffffffffffff\n      and\n        /* \"gota.sol\":5702:5724  _newPlatformFeeAddress */\n      dup2\n        /* \"gota.sol\":5702:5738  _newPlatformFeeAddress != address(0) */\n      0xffffffffffffffffffffffffffffffffffffffff\n      and\n      eq\n      iszero\n        /* \"gota.sol\":5650:5738  _newRoyaltyAddress != address(0) &&... */\n    tag_241:\n        /* \"gota.sol\":5629:5788  require(... */\n      tag_242\n      jumpi\n      mload(0x40)\n      0x08c379a000000000000000000000000000000000000000000000000000000000\n      dup2\n      mstore\n      0x04\n      add\n      tag_243\n      swap1\n      tag_244\n      jump\t// in\n    tag_243:\n      mload(0x40)\n      dup1\n      swap2\n      sub\n      swap1\n      revert\n    tag_242:\n        /* \"gota.sol\":5815:5833  _newRoyaltyAddress */\n      dup2\n        /* \"gota.sol\":5798:5812  royaltyAddress */\n      0x06\n      0x00\n        /* \"gota.sol\":5798:5833  royaltyAddress = _newRoyaltyAddress */\n      0x0100\n      exp\n      dup2\n      sload\n      dup2\n      0xffffffffffffffffffffffffffffffffffffffff\n      mul\n      not\n      and\n      swap1\n      dup4\n      0xffffffffffffffffffffffffffffffffffffffff\n      and\n      mul\n      or\n      swap1\n      sstore\n      pop\n        /* \"gota.sol\":5864:5886  _newPlatformFeeAddress */\n      dup1\n        /* \"gota.sol\":5843:5861  platformFeeAddress */\n      0x07\n      0x00\n        /* \"gota.sol\":5843:5886  platformFeeAddress = _newPlatformFeeAddress */\n      0x0100\n      exp\n      dup2\n      sload\n      dup2\n      0xffffffffffffffffffffffffffffffffffffffff\n      mul\n      not\n      and\n      swap1\n      dup4\n      0xffffffffffffffffffffffffffffffffffffffff\n      and\n      mul\n      or\n      swap1\n      sstore\n      pop\n        /* \"@openzeppelin/contracts/security/ReentrancyGuard.sol\":2303:2323  _nonReentrantAfter() */\n      tag_245\n        /* \"@openzeppelin/contracts/security/ReentrancyGuard.sol\":2303:2321  _nonReentrantAfter */\n      tag_131\n        /* \"@openzeppelin/contracts/security/ReentrancyGuard.sol\":2303:2323  _nonReentrantAfter() */\n      jump\t// in\n    tag_245:\n        /* \"gota.sol\":5477:5893  function updateFeeAddresses(... */\n      pop\n      pop\n      jump\t// out\n        /* \"@openzeppelin/contracts/access/Ownable.sol\":2293:2394  function renounceOwnership() public virtual onlyOwner {... */\n    tag_54:\n        /* \"@openzeppelin/contracts/access/Ownable.sol\":1531:1544  _checkOwner() */\n      tag_247\n        /* \"@openzeppelin/contracts/access/Ownable.sol\":1531:1542  _checkOwner */\n      tag_134\n        /* \"@openzeppelin/contracts/access/Ownable.sol\":1531:1544  _checkOwner() */\n      jump\t// in\n    tag_247:\n        /* \"@openzeppelin/contracts/access/Ownable.sol\":2357:2387  _transferOwnership(address(0)) */\n      tag_249\n        /* \"@openzeppelin/contracts/access/Ownable.sol\":2384:2385  0 */\n      0x00\n        /* \"@openzeppelin/contracts/access/Ownable.sol\":2357:2375  _transferOwnership */\n      tag_250\n        /* \"@openzeppelin/contracts/access/Ownable.sol\":2357:2387  _transferOwnership(address(0)) */\n      jump\t// in\n    tag_249:\n        /* \"@openzeppelin/contracts/access/Ownable.sol\":2293:2394  function renounceOwnership() public virtual onlyOwner {... */\n      jump\t// out\n        /* \"gota.sol\":5899:6166  function updateFeePercentages(... */\n    tag_59:\n        /* \"@openzeppelin/contracts/access/Ownable.sol\":1531:1544  _checkOwner() */\n      tag_252\n        /* \"@openzeppelin/contracts/access/Ownable.sol\":1531:1542  _checkOwner */\n      tag_134\n        /* \"@openzeppelin/contracts/access/Ownable.sol\":1531:1544  _checkOwner() */\n      jump\t// in\n    tag_252:\n        /* \"@openzeppelin/contracts/security/ReentrancyGuard.sol\":2261:2282  _nonReentrantBefore() */\n      tag_254\n        /* \"@openzeppelin/contracts/security/ReentrancyGuard.sol\":2261:2280  _nonReentrantBefore */\n      tag_123\n        /* \"@openzeppelin/contracts/security/ReentrancyGuard.sol\":2261:2282  _nonReentrantBefore() */\n      jump\t// in\n    tag_254:\n        /* \"gota.sol\":6079:6100  _newRoyaltyPercentage */\n      dup2\n        /* \"gota.sol\":6059:6076  royaltyPercentage */\n      0x04\n        /* \"gota.sol\":6059:6100  royaltyPercentage = _newRoyaltyPercentage */\n      dup2\n      swap1\n      sstore\n      pop\n        /* \"gota.sol\":6134:6159  _newPlatformFeePercentage */\n      dup1\n        /* \"gota.sol\":6110:6131  platformFeePercentage */\n      0x05\n        /* \"gota.sol\":6110:6159  platformFeePercentage = _newPlatformFeePercentage */\n      dup2\n      swap1\n      sstore\n      pop\n        /* \"@openzeppelin/contracts/security/ReentrancyGuard.sol\":2303:2323  _nonReentrantAfter() */\n      tag_256\n        /* \"@openzeppelin/contracts/security/ReentrancyGuard.sol\":2303:2321  _nonReentrantAfter */\n      tag_131\n        /* \"@openzeppelin/contracts/security/ReentrancyGuard.sol\":2303:2323  _nonReentrantAfter() */\n      jump\t// in\n    tag_256:\n        /* \"gota.sol\":5899:6166  function updateFeePercentages(... */\n      pop\n      pop\n      jump\t// out\n        /* \"gota.sol\":976:1024  mapping(uint256 => address) public listingOwners */\n    tag_63:\n      mstore(0x20, 0x09)\n      dup1\n      0x00\n      mstore\n      keccak256(0x00, 0x40)\n      0x00\n      swap2\n      pop\n      sload\n      swap1\n      0x0100\n      exp\n      swap1\n      div\n      0xffffffffffffffffffffffffffffffffffffffff\n      and\n      dup2\n      jump\t// out\n        /* \"gota.sol\":5313:5387  function pause() external onlyOwner nonReentrant {... */\n    tag_68:\n        /* \"@openzeppelin/contracts/access/Ownable.sol\":1531:1544  _checkOwner() */\n      tag_258\n        /* \"@openzeppelin/contracts/access/Ownable.sol\":1531:1542  _checkOwner */\n      tag_134\n        /* \"@openzeppelin/contracts/access/Ownable.sol\":1531:1544  _checkOwner() */\n      jump\t// in\n    tag_258:\n        /* \"@openzeppelin/contracts/security/ReentrancyGuard.sol\":2261:2282  _nonReentrantBefore() */\n      tag_260\n        /* \"@openzeppelin/contracts/security/ReentrancyGuard.sol\":2261:2280  _nonReentrantBefore */\n      tag_123\n        /* \"@openzeppelin/contracts/security/ReentrancyGuard.sol\":2261:2282  _nonReentrantBefore() */\n      jump\t// in\n    tag_260:\n        /* \"gota.sol\":5372:5380  _pause() */\n      tag_262\n        /* \"gota.sol\":5372:5378  _pause */\n      tag_263\n        /* \"gota.sol\":5372:5380  _pause() */\n      jump\t// in\n    tag_262:\n        /* \"@openzeppelin/contracts/security/ReentrancyGuard.sol\":2303:2323  _nonReentrantAfter() */\n      tag_264\n        /* \"@openzeppelin/contracts/security/ReentrancyGuard.sol\":2303:2321  _nonReentrantAfter */\n      tag_131\n        /* \"@openzeppelin/contracts/security/ReentrancyGuard.sol\":2303:2323  _nonReentrantAfter() */\n      jump\t// in\n    tag_264:\n        /* \"gota.sol\":5313:5387  function pause() external onlyOwner nonReentrant {... */\n      jump\t// out\n        /* \"gota.sol\":6172:6281  function getAllListingIds() external view returns (uint256[] memory) {... */\n    tag_71:\n        /* \"gota.sol\":6223:6239  uint256[] memory */\n      0x60\n        /* \"gota.sol\":6258:6274  activeListingIds */\n      0x03\n        /* \"gota.sol\":6251:6274  return activeListingIds */\n      dup1\n      sload\n      dup1\n      0x20\n      mul\n      0x20\n      add\n      mload(0x40)\n      swap1\n      dup2\n      add\n      0x40\n      mstore\n      dup1\n      swap3\n      swap2\n      swap1\n      dup2\n      dup2\n      mstore\n      0x20\n      add\n      dup3\n      dup1\n      sload\n      dup1\n      iszero\n      tag_266\n      jumpi\n      0x20\n      mul\n      dup3\n      add\n      swap2\n      swap1\n      0x00\n      mstore\n      keccak256(0x00, 0x20)\n      swap1\n    tag_267:\n      dup2\n      sload\n      dup2\n      mstore\n      0x20\n      add\n      swap1\n      0x01\n      add\n      swap1\n      dup1\n      dup4\n      gt\n      tag_267\n      jumpi\n    tag_266:\n      pop\n      pop\n      pop\n      pop\n      pop\n      swap1\n      pop\n        /* \"gota.sol\":6172:6281  function getAllListingIds() external view returns (uint256[] memory) {... */\n      swap1\n      jump\t// out\n        /* \"gota.sol\":772:804  uint256 public royaltyPercentage */\n    tag_76:\n      sload(0x04)\n      dup2\n      jump\t// out\n        /* \"@openzeppelin/contracts/access/Ownable.sol\":1638:1723  function owner() public view virtual returns (address) {... */\n    tag_81:\n        /* \"@openzeppelin/contracts/access/Ownable.sol\":1684:1691  address */\n      0x00\n        /* \"@openzeppelin/contracts/access/Ownable.sol\":1710:1716  _owner */\n      dup1\n      0x00\n      swap1\n      sload\n      swap1\n      0x0100\n      exp\n      swap1\n      div\n      0xffffffffffffffffffffffffffffffffffffffff\n      and\n        /* \"@openzeppelin/contracts/access/Ownable.sol\":1703:1716  return _owner */\n      swap1\n      pop\n        /* \"@openzeppelin/contracts/access/Ownable.sol\":1638:1723  function owner() public view virtual returns (address) {... */\n      swap1\n      jump\t// out\n        /* \"gota.sol\":1031:1063  uint256 public nextListingId = 1 */\n    tag_85:\n      sload(0x0a)\n      dup2\n      jump\t// out\n        /* \"gota.sol\":852:881  address public royaltyAddress */\n    tag_89:\n      0x06\n      0x00\n      swap1\n      sload\n      swap1\n      0x0100\n      exp\n      swap1\n      div\n      0xffffffffffffffffffffffffffffffffffffffff\n      and\n      dup2\n      jump\t// out\n        /* \"gota.sol\":6287:7133  function getListingInfo(uint256 _listingId)... */\n    tag_94:\n        /* \"gota.sol\":6378:6396  TokenInfo[] memory */\n      0x60\n        /* \"gota.sol\":6412:6435  Listing storage listing */\n      0x00\n        /* \"gota.sol\":6438:6446  listings */\n      0x08\n        /* \"gota.sol\":6438:6458  listings[_listingId] */\n      0x00\n        /* \"gota.sol\":6447:6457  _listingId */\n      dup5\n        /* \"gota.sol\":6438:6458  listings[_listingId] */\n      dup2\n      mstore\n      0x20\n      add\n      swap1\n      dup2\n      mstore\n      0x20\n      add\n      0x00\n      keccak256\n        /* \"gota.sol\":6412:6458  Listing storage listing = listings[_listingId] */\n      swap1\n      pop\n        /* \"gota.sol\":6502:6503  0 */\n      0x00\n        /* \"gota.sol\":6476:6504  listing.seller != address(0) */\n      0xffffffffffffffffffffffffffffffffffffffff\n      and\n        /* \"gota.sol\":6476:6483  listing */\n      dup2\n        /* \"gota.sol\":6476:6490  listing.seller */\n      0x02\n      add\n      0x00\n      swap1\n      sload\n      swap1\n      0x0100\n      exp\n      swap1\n      div\n      0xffffffffffffffffffffffffffffffffffffffff\n      and\n        /* \"gota.sol\":6476:6504  listing.seller != address(0) */\n      0xffffffffffffffffffffffffffffffffffffffff\n      and\n      sub\n        /* \"gota.sol\":6468:6532  require(listing.seller != address(0), \"Listing does not exist.\") */\n      tag_270\n      jumpi\n      mload(0x40)\n      0x08c379a000000000000000000000000000000000000000000000000000000000\n      dup2\n      mstore\n      0x04\n      add\n      tag_271\n      swap1\n      tag_192\n      jump\t// in\n    tag_271:\n      mload(0x40)\n      dup1\n      swap2\n      sub\n      swap1\n      revert\n    tag_270:\n        /* \"gota.sol\":6542:6575  TokenInfo[] memory tokenInfoArray */\n      0x00\n        /* \"gota.sol\":6607:6614  listing */\n      dup2\n        /* \"gota.sol\":6607:6621  listing.nftIds */\n      0x01\n      add\n        /* \"gota.sol\":6607:6628  listing.nftIds.length */\n      dup1\n      sload\n      swap1\n      pop\n        /* \"gota.sol\":6578:6638  new TokenInfo[](... */\n      0xffffffffffffffff\n      dup2\n      gt\n      iszero\n      tag_272\n      jumpi\n      tag_273\n      tag_274\n      jump\t// in\n    tag_273:\n    tag_272:\n      mload(0x40)\n      swap1\n      dup1\n      dup3\n      mstore\n      dup1\n      0x20\n      mul\n      0x20\n      add\n      dup3\n      add\n      0x40\n      mstore\n      dup1\n      iszero\n      tag_275\n      jumpi\n      dup2\n      0x20\n      add\n    tag_276:\n      tag_277\n      tag_278\n      jump\t// in\n    tag_277:\n      dup2\n      mstore\n      0x20\n      add\n      swap1\n      0x01\n      swap1\n      sub\n      swap1\n      dup2\n      tag_276\n      jumpi\n      swap1\n      pop\n    tag_275:\n      pop\n        /* \"gota.sol\":6542:6638  TokenInfo[] memory tokenInfoArray = new TokenInfo[](... */\n      swap1\n      pop\n        /* \"gota.sol\":6653:6662  uint256 i */\n      0x00\n        /* \"gota.sol\":6648:7096  for (uint256 i = 0; i < listing.nftIds.length; i++) {... */\n    tag_279:\n        /* \"gota.sol\":6672:6679  listing */\n      dup3\n        /* \"gota.sol\":6672:6686  listing.nftIds */\n      0x01\n      add\n        /* \"gota.sol\":6672:6693  listing.nftIds.length */\n      dup1\n      sload\n      swap1\n      pop\n        /* \"gota.sol\":6668:6669  i */\n      dup2\n        /* \"gota.sol\":6668:6693  i < listing.nftIds.length */\n      lt\n        /* \"gota.sol\":6648:7096  for (uint256 i = 0; i < listing.nftIds.length; i++) {... */\n      iszero\n      tag_280\n      jumpi\n        /* \"gota.sol\":6714:6728  uint256 _nftId */\n      0x00\n        /* \"gota.sol\":6731:6738  listing */\n      dup4\n        /* \"gota.sol\":6731:6745  listing.nftIds */\n      0x01\n      add\n        /* \"gota.sol\":6746:6747  i */\n      dup3\n        /* \"gota.sol\":6731:6748  listing.nftIds[i] */\n      dup2\n      sload\n      dup2\n      lt\n      tag_282\n      jumpi\n      tag_283\n      tag_161\n      jump\t// in\n    tag_283:\n    tag_282:\n      swap1\n      0x00\n      mstore\n      keccak256(0x00, 0x20)\n      add\n      sload\n        /* \"gota.sol\":6714:6748  uint256 _nftId = listing.nftIds[i] */\n      swap1\n      pop\n        /* \"gota.sol\":6762:6793  string memory tokenMetadataLink */\n      0x00\n        /* \"gota.sol\":6762:6798  string memory tokenMetadataLink = \"\" */\n      mload(0x40)\n      dup1\n      0x20\n      add\n      0x40\n      mstore\n      dup1\n      0x00\n      dup2\n      mstore\n      pop\n      swap1\n      pop\n        /* \"gota.sol\":6848:6855  listing */\n      dup5\n        /* \"gota.sol\":6848:6874  listing.nftContractAddress */\n      0x00\n      add\n      0x00\n      swap1\n      sload\n      swap1\n      0x0100\n      exp\n      swap1\n      div\n      0xffffffffffffffffffffffffffffffffffffffff\n      and\n        /* \"gota.sol\":6832:6884  IERC721Metadata(listing.nftContractAddress).tokenURI */\n      0xffffffffffffffffffffffffffffffffffffffff\n      and\n      0xc87b56dd\n        /* \"gota.sol\":6885:6891  _nftId */\n      dup4\n        /* \"gota.sol\":6832:6892  IERC721Metadata(listing.nftContractAddress).tokenURI(_nftId) */\n      mload(0x40)\n      dup3\n      0xffffffff\n      and\n      0xe0\n      shl\n      dup2\n      mstore\n      0x04\n      add\n      tag_285\n      swap2\n      swap1\n      tag_78\n      jump\t// in\n    tag_285:\n      0x00\n      mload(0x40)\n      dup1\n      dup4\n      sub\n      dup2\n      dup7\n      gas\n      staticcall\n      swap3\n      pop\n      pop\n      pop\n      dup1\n      iszero\n      tag_286\n      jumpi\n      pop\n      mload(0x40)\n      returndatasize\n      0x00\n      dup3\n      returndatacopy\n      returndatasize\n      not(0x1f)\n      0x1f\n      dup3\n      add\n      and\n      dup3\n      add\n      dup1\n      0x40\n      mstore\n      pop\n      dup2\n      add\n      swap1\n      tag_287\n      swap2\n      swap1\n      tag_288\n      jump\t// in\n    tag_287:\n      0x01\n    tag_286:\n        /* \"gota.sol\":6812:7016  try... */\n      iszero\n      tag_293\n      jumpi\n        /* \"gota.sol\":6980:6992  metadataLink */\n      dup1\n        /* \"gota.sol\":6960:6992  tokenMetadataLink = metadataLink */\n      swap2\n      pop\n        /* \"gota.sol\":6905:7007  returns (string memory metadataLink) {... */\n      pop\n        /* \"gota.sol\":6812:7016  try... */\n    tag_293:\n        /* \"gota.sol\":7049:7085  TokenInfo(_nftId, tokenMetadataLink) */\n      mload(0x40)\n      dup1\n      0x40\n      add\n      0x40\n      mstore\n      dup1\n        /* \"gota.sol\":7059:7065  _nftId */\n      dup4\n        /* \"gota.sol\":7049:7085  TokenInfo(_nftId, tokenMetadataLink) */\n      dup2\n      mstore\n      0x20\n      add\n        /* \"gota.sol\":7067:7084  tokenMetadataLink */\n      dup3\n        /* \"gota.sol\":7049:7085  TokenInfo(_nftId, tokenMetadataLink) */\n      dup2\n      mstore\n      pop\n        /* \"gota.sol\":7029:7043  tokenInfoArray */\n      dup5\n        /* \"gota.sol\":7044:7045  i */\n      dup5\n        /* \"gota.sol\":7029:7046  tokenInfoArray[i] */\n      dup2\n      mload\n      dup2\n      lt\n      tag_294\n      jumpi\n      tag_295\n      tag_161\n      jump\t// in\n    tag_295:\n    tag_294:\n      0x20\n      mul\n      0x20\n      add\n      add\n        /* \"gota.sol\":7029:7085  tokenInfoArray[i] = TokenInfo(_nftId, tokenMetadataLink) */\n      dup2\n      swap1\n      mstore\n      pop\n        /* \"gota.sol\":6700:7096  {... */\n      pop\n      pop\n        /* \"gota.sol\":6695:6698  i++ */\n      dup1\n      dup1\n      tag_296\n      swap1\n      tag_171\n      jump\t// in\n    tag_296:\n      swap2\n      pop\n      pop\n        /* \"gota.sol\":6648:7096  for (uint256 i = 0; i < listing.nftIds.length; i++) {... */\n      jump(tag_279)\n    tag_280:\n      pop\n        /* \"gota.sol\":7112:7126  tokenInfoArray */\n      dup1\n        /* \"gota.sol\":7105:7126  return tokenInfoArray */\n      swap3\n      pop\n      pop\n      pop\n        /* \"gota.sol\":6287:7133  function getListingInfo(uint256 _listingId)... */\n      swap2\n      swap1\n      pop\n      jump\t// out\n        /* \"gota.sol\":810:846  uint256 public platformFeePercentage */\n    tag_99:\n      sload(0x05)\n      dup2\n      jump\t// out\n        /* \"gota.sol\":927:970  mapping(uint256 => Listing) public listings */\n    tag_104:\n      mstore(0x20, 0x08)\n      dup1\n      0x00\n      mstore\n      keccak256(0x00, 0x40)\n      0x00\n      swap2\n      pop\n      swap1\n      pop\n      dup1\n      0x00\n      add\n      0x00\n      swap1\n      sload\n      swap1\n      0x0100\n      exp\n      swap1\n      div\n      0xffffffffffffffffffffffffffffffffffffffff\n      and\n      swap1\n      dup1\n      0x02\n      add\n      0x00\n      swap1\n      sload\n      swap1\n      0x0100\n      exp\n      swap1\n      div\n      0xffffffffffffffffffffffffffffffffffffffff\n      and\n      swap1\n      dup1\n      0x03\n      add\n      sload\n      swap1\n      dup1\n      0x04\n      add\n      sload\n      swap1\n      pop\n      dup5\n      jump\t// out\n        /* \"gota.sol\":733:766  uint256[] public activeListingIds */\n    tag_110:\n      0x03\n      dup2\n      dup2\n      sload\n      dup2\n      lt\n      tag_297\n      jumpi\n      0x00\n      dup1\n      revert\n    tag_297:\n      swap1\n      0x00\n      mstore\n      keccak256(0x00, 0x20)\n      add\n      0x00\n      swap2\n      pop\n      swap1\n      pop\n      sload\n      dup2\n      jump\t// out\n        /* \"gota.sol\":887:920  address public platformFeeAddress */\n    tag_114:\n      0x07\n      0x00\n      swap1\n      sload\n      swap1\n      0x0100\n      exp\n      swap1\n      div\n      0xffffffffffffffffffffffffffffffffffffffff\n      and\n      dup2\n      jump\t// out\n        /* \"@openzeppelin/contracts/access/Ownable.sol\":2543:2758  function transferOwnership(address newOwner) public virtual onlyOwner {... */\n    tag_120:\n        /* \"@openzeppelin/contracts/access/Ownable.sol\":1531:1544  _checkOwner() */\n      tag_300\n        /* \"@openzeppelin/contracts/access/Ownable.sol\":1531:1542  _checkOwner */\n      tag_134\n        /* \"@openzeppelin/contracts/access/Ownable.sol\":1531:1544  _checkOwner() */\n      jump\t// in\n    tag_300:\n        /* \"@openzeppelin/contracts/access/Ownable.sol\":2647:2648  0 */\n      0x00\n        /* \"@openzeppelin/contracts/access/Ownable.sol\":2627:2649  newOwner == address(0) */\n      0xffffffffffffffffffffffffffffffffffffffff\n      and\n        /* \"@openzeppelin/contracts/access/Ownable.sol\":2627:2635  newOwner */\n      dup2\n        /* \"@openzeppelin/contracts/access/Ownable.sol\":2627:2649  newOwner == address(0) */\n      0xffffffffffffffffffffffffffffffffffffffff\n      and\n      sub\n        /* \"@openzeppelin/contracts/access/Ownable.sol\":2623:2714  if (newOwner == address(0)) {... */\n      tag_302\n      jumpi\n        /* \"@openzeppelin/contracts/access/Ownable.sol\":2700:2701  0 */\n      0x00\n        /* \"@openzeppelin/contracts/access/Ownable.sol\":2672:2703  OwnableInvalidOwner(address(0)) */\n      mload(0x40)\n      0x1e4fbdf700000000000000000000000000000000000000000000000000000000\n      dup2\n      mstore\n      0x04\n      add\n      tag_303\n      swap2\n      swap1\n      tag_65\n      jump\t// in\n    tag_303:\n      mload(0x40)\n      dup1\n      swap2\n      sub\n      swap1\n      revert\n        /* \"@openzeppelin/contracts/access/Ownable.sol\":2623:2714  if (newOwner == address(0)) {... */\n    tag_302:\n        /* \"@openzeppelin/contracts/access/Ownable.sol\":2723:2751  _transferOwnership(newOwner) */\n      tag_304\n        /* \"@openzeppelin/contracts/access/Ownable.sol\":2742:2750  newOwner */\n      dup2\n        /* \"@openzeppelin/contracts/access/Ownable.sol\":2723:2741  _transferOwnership */\n      tag_250\n        /* \"@openzeppelin/contracts/access/Ownable.sol\":2723:2751  _transferOwnership(newOwner) */\n      jump\t// in\n    tag_304:\n        /* \"@openzeppelin/contracts/access/Ownable.sol\":2543:2758  function transferOwnership(address newOwner) public virtual onlyOwner {... */\n      pop\n      jump\t// out\n        /* \"@openzeppelin/contracts/security/ReentrancyGuard.sol\":2336:2623  function _nonReentrantBefore() private {... */\n    tag_123:\n        /* \"@openzeppelin/contracts/security/ReentrancyGuard.sol\":1759:1760  2 */\n      0x02\n        /* \"@openzeppelin/contracts/security/ReentrancyGuard.sol\":2468:2475  _status */\n      sload(0x01)\n        /* \"@openzeppelin/contracts/security/ReentrancyGuard.sol\":2468:2487  _status != _ENTERED */\n      sub\n        /* \"@openzeppelin/contracts/security/ReentrancyGuard.sol\":2460:2523  require(_status != _ENTERED, \"ReentrancyGuard: reentrant call\") */\n      tag_306\n      jumpi\n      mload(0x40)\n      0x08c379a000000000000000000000000000000000000000000000000000000000\n      dup2\n      mstore\n      0x04\n      add\n      tag_307\n      swap1\n      tag_308\n      jump\t// in\n    tag_307:\n      mload(0x40)\n      dup1\n      swap2\n      sub\n      swap1\n      revert\n    tag_306:\n        /* \"@openzeppelin/contracts/security/ReentrancyGuard.sol\":1759:1760  2 */\n      0x02\n        /* \"@openzeppelin/contracts/security/ReentrancyGuard.sol\":2598:2605  _status */\n      0x01\n        /* \"@openzeppelin/contracts/security/ReentrancyGuard.sol\":2598:2616  _status = _ENTERED */\n      dup2\n      swap1\n      sstore\n      pop\n        /* \"@openzeppelin/contracts/security/ReentrancyGuard.sol\":2336:2623  function _nonReentrantBefore() private {... */\n      jump\t// out\n        /* \"@openzeppelin/contracts/security/ReentrancyGuard.sol\":2629:2838  function _nonReentrantAfter() private {... */\n    tag_131:\n        /* \"@openzeppelin/contracts/security/ReentrancyGuard.sol\":1716:1717  1 */\n      0x01\n        /* \"@openzeppelin/contracts/security/ReentrancyGuard.sol\":2809:2816  _status */\n      dup1\n        /* \"@openzeppelin/contracts/security/ReentrancyGuard.sol\":2809:2831  _status = _NOT_ENTERED */\n      dup2\n      swap1\n      sstore\n      pop\n        /* \"@openzeppelin/contracts/security/ReentrancyGuard.sol\":2629:2838  function _nonReentrantAfter() private {... */\n      jump\t// out\n        /* \"@openzeppelin/contracts/access/Ownable.sol\":1796:1958  function _checkOwner() internal view virtual {... */\n    tag_134:\n        /* \"@openzeppelin/contracts/access/Ownable.sol\":1866:1878  _msgSender() */\n      tag_311\n        /* \"@openzeppelin/contracts/access/Ownable.sol\":1866:1876  _msgSender */\n      tag_312\n        /* \"@openzeppelin/contracts/access/Ownable.sol\":1866:1878  _msgSender() */\n      jump\t// in\n    tag_311:\n        /* \"@openzeppelin/contracts/access/Ownable.sol\":1855:1878  owner() != _msgSender() */\n      0xffffffffffffffffffffffffffffffffffffffff\n      and\n        /* \"@openzeppelin/contracts/access/Ownable.sol\":1855:1862  owner() */\n      tag_313\n        /* \"@openzeppelin/contracts/access/Ownable.sol\":1855:1860  owner */\n      tag_81\n        /* \"@openzeppelin/contracts/access/Ownable.sol\":1855:1862  owner() */\n      jump\t// in\n    tag_313:\n        /* \"@openzeppelin/contracts/access/Ownable.sol\":1855:1878  owner() != _msgSender() */\n      0xffffffffffffffffffffffffffffffffffffffff\n      and\n      eq\n        /* \"@openzeppelin/contracts/access/Ownable.sol\":1851:1952  if (owner() != _msgSender()) {... */\n      tag_314\n      jumpi\n        /* \"@openzeppelin/contracts/access/Ownable.sol\":1928:1940  _msgSender() */\n      tag_315\n        /* \"@openzeppelin/contracts/access/Ownable.sol\":1928:1938  _msgSender */\n      tag_312\n        /* \"@openzeppelin/contracts/access/Ownable.sol\":1928:1940  _msgSender() */\n      jump\t// in\n    tag_315:\n        /* \"@openzeppelin/contracts/access/Ownable.sol\":1901:1941  OwnableUnauthorizedAccount(_msgSender()) */\n      mload(0x40)\n      0x118cdaa700000000000000000000000000000000000000000000000000000000\n      dup2\n      mstore\n      0x04\n      add\n      tag_316\n      swap2\n      swap1\n      tag_65\n      jump\t// in\n    tag_316:\n      mload(0x40)\n      dup1\n      swap2\n      sub\n      swap1\n      revert\n        /* \"@openzeppelin/contracts/access/Ownable.sol\":1851:1952  if (owner() != _msgSender()) {... */\n    tag_314:\n        /* \"@openzeppelin/contracts/access/Ownable.sol\":1796:1958  function _checkOwner() internal view virtual {... */\n      jump\t// out\n        /* \"@openzeppelin/contracts/security/Pausable.sol\":2433:2550  function _unpause() internal virtual whenPaused {... */\n    tag_139:\n        /* \"@openzeppelin/contracts/security/Pausable.sol\":1486:1502  _requirePaused() */\n      tag_318\n        /* \"@openzeppelin/contracts/security/Pausable.sol\":1486:1500  _requirePaused */\n      tag_319\n        /* \"@openzeppelin/contracts/security/Pausable.sol\":1486:1502  _requirePaused() */\n      jump\t// in\n    tag_318:\n        /* \"@openzeppelin/contracts/security/Pausable.sol\":2501:2506  false */\n      0x00\n        /* \"@openzeppelin/contracts/security/Pausable.sol\":2491:2498  _paused */\n      0x02\n      0x00\n        /* \"@openzeppelin/contracts/security/Pausable.sol\":2491:2506  _paused = false */\n      0x0100\n      exp\n      dup2\n      sload\n      dup2\n      0xff\n      mul\n      not\n      and\n      swap1\n      dup4\n      iszero\n      iszero\n      mul\n      or\n      swap1\n      sstore\n      pop\n        /* \"@openzeppelin/contracts/security/Pausable.sol\":2521:2543  Unpaused(_msgSender()) */\n      0x5db9ee0a495bf2e6ff9c91a7834c1ba4fdd244a5e8aa4e537bd38aeae4b073aa\n        /* \"@openzeppelin/contracts/security/Pausable.sol\":2530:2542  _msgSender() */\n      tag_321\n        /* \"@openzeppelin/contracts/security/Pausable.sol\":2530:2540  _msgSender */\n      tag_312\n        /* \"@openzeppelin/contracts/security/Pausable.sol\":2530:2542  _msgSender() */\n      jump\t// in\n    tag_321:\n        /* \"@openzeppelin/contracts/security/Pausable.sol\":2521:2543  Unpaused(_msgSender()) */\n      mload(0x40)\n      tag_322\n      swap2\n      swap1\n      tag_65\n      jump\t// in\n    tag_322:\n      mload(0x40)\n      dup1\n      swap2\n      sub\n      swap1\n      log1\n        /* \"@openzeppelin/contracts/security/Pausable.sol\":2433:2550  function _unpause() internal virtual whenPaused {... */\n      jump\t// out\n        /* \"@openzeppelin/contracts/security/Pausable.sol\":1767:1873  function _requireNotPaused() internal view virtual {... */\n    tag_143:\n        /* \"@openzeppelin/contracts/security/Pausable.sol\":1837:1845  paused() */\n      tag_324\n        /* \"@openzeppelin/contracts/security/Pausable.sol\":1837:1843  paused */\n      tag_44\n        /* \"@openzeppelin/contracts/security/Pausable.sol\":1837:1845  paused() */\n      jump\t// in\n    tag_324:\n        /* \"@openzeppelin/contracts/security/Pausable.sol\":1836:1845  !paused() */\n      iszero\n        /* \"@openzeppelin/contracts/security/Pausable.sol\":1828:1866  require(!paused(), \"Pausable: paused\") */\n      tag_325\n      jumpi\n      mload(0x40)\n      0x08c379a000000000000000000000000000000000000000000000000000000000\n      dup2\n      mstore\n      0x04\n      add\n      tag_326\n      swap1\n      tag_327\n      jump\t// in\n    tag_326:\n      mload(0x40)\n      dup1\n      swap2\n      sub\n      swap1\n      revert\n    tag_325:\n        /* \"@openzeppelin/contracts/security/Pausable.sol\":1767:1873  function _requireNotPaused() internal view virtual {... */\n      jump\t// out\n        /* \"@openzeppelin/contracts/access/Ownable.sol\":2912:3099  function _transferOwnership(address newOwner) internal virtual {... */\n    tag_250:\n        /* \"@openzeppelin/contracts/access/Ownable.sol\":2985:3001  address oldOwner */\n      0x00\n        /* \"@openzeppelin/contracts/access/Ownable.sol\":3004:3010  _owner */\n      dup1\n      0x00\n      swap1\n      sload\n      swap1\n      0x0100\n      exp\n      swap1\n      div\n      0xffffffffffffffffffffffffffffffffffffffff\n      and\n        /* \"@openzeppelin/contracts/access/Ownable.sol\":2985:3010  address oldOwner = _owner */\n      swap1\n      pop\n        /* \"@openzeppelin/contracts/access/Ownable.sol\":3029:3037  newOwner */\n      dup2\n        /* \"@openzeppelin/contracts/access/Ownable.sol\":3020:3026  _owner */\n      0x00\n      dup1\n        /* \"@openzeppelin/contracts/access/Ownable.sol\":3020:3037  _owner = newOwner */\n      0x0100\n      exp\n      dup2\n      sload\n      dup2\n      0xffffffffffffffffffffffffffffffffffffffff\n      mul\n      not\n      and\n      swap1\n      dup4\n      0xffffffffffffffffffffffffffffffffffffffff\n      and\n      mul\n      or\n      swap1\n      sstore\n      pop\n        /* \"@openzeppelin/contracts/access/Ownable.sol\":3083:3091  newOwner */\n      dup2\n        /* \"@openzeppelin/contracts/access/Ownable.sol\":3052:3092  OwnershipTransferred(oldOwner, newOwner) */\n      0xffffffffffffffffffffffffffffffffffffffff\n      and\n        /* \"@openzeppelin/contracts/access/Ownable.sol\":3073:3081  oldOwner */\n      dup2\n        /* \"@openzeppelin/contracts/access/Ownable.sol\":3052:3092  OwnershipTransferred(oldOwner, newOwner) */\n      0xffffffffffffffffffffffffffffffffffffffff\n      and\n      0x8be0079c531659141344cd1fd0a4f28419497f9722a3daafe3b4186f6b6457e0\n      mload(0x40)\n      mload(0x40)\n      dup1\n      swap2\n      sub\n      swap1\n      log3\n        /* \"@openzeppelin/contracts/access/Ownable.sol\":2975:3099  {... */\n      pop\n        /* \"@openzeppelin/contracts/access/Ownable.sol\":2912:3099  function _transferOwnership(address newOwner) internal virtual {... */\n      pop\n      jump\t// out\n        /* \"@openzeppelin/contracts/security/Pausable.sol\":2186:2301  function _pause() internal virtual whenNotPaused {... */\n    tag_263:\n        /* \"@openzeppelin/contracts/security/Pausable.sol\":1239:1258  _requireNotPaused() */\n      tag_330\n        /* \"@openzeppelin/contracts/security/Pausable.sol\":1239:1256  _requireNotPaused */\n      tag_143\n        /* \"@openzeppelin/contracts/security/Pausable.sol\":1239:1258  _requireNotPaused() */\n      jump\t// in\n    tag_330:\n        /* \"@openzeppelin/contracts/security/Pausable.sol\":2255:2259  true */\n      0x01\n        /* \"@openzeppelin/contracts/security/Pausable.sol\":2245:2252  _paused */\n      0x02\n      0x00\n        /* \"@openzeppelin/contracts/security/Pausable.sol\":2245:2259  _paused = true */\n      0x0100\n      exp\n      dup2\n      sload\n      dup2\n      0xff\n      mul\n      not\n      and\n      swap1\n      dup4\n      iszero\n      iszero\n      mul\n      or\n      swap1\n      sstore\n      pop\n        /* \"@openzeppelin/contracts/security/Pausable.sol\":2274:2294  Paused(_msgSender()) */\n      0x62e78cea01bee320cd4e420270b5ea74000d11b0c9f74754ebdbfc544b05a258\n        /* \"@openzeppelin/contracts/security/Pausable.sol\":2281:2293  _msgSender() */\n      tag_332\n        /* \"@openzeppelin/contracts/security/Pausable.sol\":2281:2291  _msgSender */\n      tag_312\n        /* \"@openzeppelin/contracts/security/Pausable.sol\":2281:2293  _msgSender() */\n      jump\t// in\n    tag_332:\n        /* \"@openzeppelin/contracts/security/Pausable.sol\":2274:2294  Paused(_msgSender()) */\n      mload(0x40)\n      tag_333\n      swap2\n      swap1\n      tag_65\n      jump\t// in\n    tag_333:\n      mload(0x40)\n      dup1\n      swap2\n      sub\n      swap1\n      log1\n        /* \"@openzeppelin/contracts/security/Pausable.sol\":2186:2301  function _pause() internal virtual whenNotPaused {... */\n      jump\t// out\n        /* \"@openzeppelin/contracts/utils/Context.sol\":656:752  function _msgSender() internal view virtual returns (address) {... */\n    tag_312:\n        /* \"@openzeppelin/contracts/utils/Context.sol\":709:716  address */\n      0x00\n        /* \"@openzeppelin/contracts/utils/Context.sol\":735:745  msg.sender */\n      caller\n        /* \"@openzeppelin/contracts/utils/Context.sol\":728:745  return msg.sender */\n      swap1\n      pop\n        /* \"@openzeppelin/contracts/utils/Context.sol\":656:752  function _msgSender() internal view virtual returns (address) {... */\n      swap1\n      jump\t// out\n        /* \"@openzeppelin/contracts/security/Pausable.sol\":1945:2051  function _requirePaused() internal view virtual {... */\n    tag_319:\n        /* \"@openzeppelin/contracts/security/Pausable.sol\":2011:2019  paused() */\n      tag_336\n        /* \"@openzeppelin/contracts/security/Pausable.sol\":2011:2017  paused */\n      tag_44\n        /* \"@openzeppelin/contracts/security/Pausable.sol\":2011:2019  paused() */\n      jump\t// in\n    tag_336:\n        /* \"@openzeppelin/contracts/security/Pausable.sol\":2003:2044  require(paused(), \"Pausable: not paused\") */\n      tag_337\n      jumpi\n      mload(0x40)\n      0x08c379a000000000000000000000000000000000000000000000000000000000\n      dup2\n      mstore\n      0x04\n      add\n      tag_338\n      swap1\n      tag_339\n      jump\t// in\n    tag_338:\n      mload(0x40)\n      dup1\n      swap2\n      sub\n      swap1\n      revert\n    tag_337:\n        /* \"@openzeppelin/contracts/security/Pausable.sol\":1945:2051  function _requirePaused() internal view virtual {... */\n      jump\t// out\n    tag_129:\n      pop\n      dup1\n      sload\n      0x00\n      dup3\n      sstore\n      swap1\n      0x00\n      mstore\n      keccak256(0x00, 0x20)\n      swap1\n      dup2\n      add\n      swap1\n      tag_341\n      swap2\n      swap1\n      tag_342\n      jump\t// in\n    tag_341:\n      pop\n      jump\t// out\n    tag_175:\n      dup3\n      dup1\n      sload\n      dup3\n      dup3\n      sstore\n      swap1\n      0x00\n      mstore\n      keccak256(0x00, 0x20)\n      swap1\n      dup2\n      add\n      swap3\n      dup3\n      iszero\n      tag_343\n      jumpi\n      swap2\n      0x20\n      mul\n      dup3\n      add\n    tag_344:\n      dup3\n      dup2\n      gt\n      iszero\n      tag_345\n      jumpi\n      dup3\n      mload\n      dup3\n      sstore\n      swap2\n      0x20\n      add\n      swap2\n      swap1\n      0x01\n      add\n      swap1\n      jump(tag_344)\n    tag_345:\n    tag_343:\n      pop\n      swap1\n      pop\n      tag_346\n      swap2\n      swap1\n      tag_342\n      jump\t// in\n    tag_346:\n      pop\n      swap1\n      jump\t// out\n    tag_278:\n      mload(0x40)\n      dup1\n      0x40\n      add\n      0x40\n      mstore\n      dup1\n      0x00\n      dup2\n      mstore\n      0x20\n      add\n      0x60\n      dup2\n      mstore\n      pop\n      swap1\n      jump\t// out\n    tag_342:\n    tag_347:\n      dup1\n      dup3\n      gt\n      iszero\n      tag_348\n      jumpi\n      0x00\n      dup2\n      0x00\n      swap1\n      sstore\n      pop\n      0x01\n      add\n      jump(tag_347)\n    tag_348:\n      pop\n      swap1\n      jump\t// out\n        /* \"#utility.yul\":7:82   */\n    tag_349:\n        /* \"#utility.yul\":40:46   */\n      0x00\n        /* \"#utility.yul\":73:75   */\n      0x40\n        /* \"#utility.yul\":67:76   */\n      mload\n        /* \"#utility.yul\":57:76   */\n      swap1\n      pop\n        /* \"#utility.yul\":7:82   */\n      swap1\n      jump\t// out\n        /* \"#utility.yul\":88:205   */\n    tag_350:\n        /* \"#utility.yul\":197:198   */\n      0x00\n        /* \"#utility.yul\":194:195   */\n      dup1\n        /* \"#utility.yul\":187:199   */\n      revert\n        /* \"#utility.yul\":211:328   */\n    tag_351:\n        /* \"#utility.yul\":320:321   */\n      0x00\n        /* \"#utility.yul\":317:318   */\n      dup1\n        /* \"#utility.yul\":310:322   */\n      revert\n        /* \"#utility.yul\":334:411   */\n    tag_352:\n        /* \"#utility.yul\":371:378   */\n      0x00\n        /* \"#utility.yul\":400:405   */\n      dup2\n        /* \"#utility.yul\":389:405   */\n      swap1\n      pop\n        /* \"#utility.yul\":334:411   */\n      swap2\n      swap1\n      pop\n      jump\t// out\n        /* \"#utility.yul\":417:539   */\n    tag_353:\n        /* \"#utility.yul\":490:514   */\n      tag_431\n        /* \"#utility.yul\":508:513   */\n      dup2\n        /* \"#utility.yul\":490:514   */\n      tag_352\n      jump\t// in\n    tag_431:\n        /* \"#utility.yul\":483:488   */\n      dup2\n        /* \"#utility.yul\":480:515   */\n      eq\n        /* \"#utility.yul\":470:533   */\n      tag_432\n      jumpi\n        /* \"#utility.yul\":529:530   */\n      0x00\n        /* \"#utility.yul\":526:527   */\n      dup1\n        /* \"#utility.yul\":519:531   */\n      revert\n        /* \"#utility.yul\":470:533   */\n    tag_432:\n        /* \"#utility.yul\":417:539   */\n      pop\n      jump\t// out\n        /* \"#utility.yul\":545:684   */\n    tag_354:\n        /* \"#utility.yul\":591:596   */\n      0x00\n        /* \"#utility.yul\":629:635   */\n      dup2\n        /* \"#utility.yul\":616:636   */\n      calldataload\n        /* \"#utility.yul\":607:636   */\n      swap1\n      pop\n        /* \"#utility.yul\":645:678   */\n      tag_434\n        /* \"#utility.yul\":672:677   */\n      dup2\n        /* \"#utility.yul\":645:678   */\n      tag_353\n      jump\t// in\n    tag_434:\n        /* \"#utility.yul\":545:684   */\n      swap3\n      swap2\n      pop\n      pop\n      jump\t// out\n        /* \"#utility.yul\":690:1019   */\n    tag_29:\n        /* \"#utility.yul\":749:755   */\n      0x00\n        /* \"#utility.yul\":798:800   */\n      0x20\n        /* \"#utility.yul\":786:795   */\n      dup3\n        /* \"#utility.yul\":777:784   */\n      dup5\n        /* \"#utility.yul\":773:796   */\n      sub\n        /* \"#utility.yul\":769:801   */\n      slt\n        /* \"#utility.yul\":766:885   */\n      iszero\n      tag_436\n      jumpi\n        /* \"#utility.yul\":804:883   */\n      tag_437\n      tag_350\n      jump\t// in\n    tag_437:\n        /* \"#utility.yul\":766:885   */\n    tag_436:\n        /* \"#utility.yul\":924:925   */\n      0x00\n        /* \"#utility.yul\":949:1002   */\n      tag_438\n        /* \"#utility.yul\":994:1001   */\n      dup5\n        /* \"#utility.yul\":985:991   */\n      dup3\n        /* \"#utility.yul\":974:983   */\n      dup6\n        /* \"#utility.yul\":970:992   */\n      add\n        /* \"#utility.yul\":949:1002   */\n      tag_354\n      jump\t// in\n    tag_438:\n        /* \"#utility.yul\":939:1002   */\n      swap2\n      pop\n        /* \"#utility.yul\":895:1012   */\n      pop\n        /* \"#utility.yul\":690:1019   */\n      swap3\n      swap2\n      pop\n      pop\n      jump\t// out\n        /* \"#utility.yul\":1025:1151   */\n    tag_355:\n        /* \"#utility.yul\":1062:1069   */\n      0x00\n        /* \"#utility.yul\":1102:1144   */\n      0xffffffffffffffffffffffffffffffffffffffff\n        /* \"#utility.yul\":1095:1100   */\n      dup3\n        /* \"#utility.yul\":1091:1145   */\n      and\n        /* \"#utility.yul\":1080:1145   */\n      swap1\n      pop\n        /* \"#utility.yul\":1025:1151   */\n      swap2\n      swap1\n      pop\n      jump\t// out\n        /* \"#utility.yul\":1157:1253   */\n    tag_356:\n        /* \"#utility.yul\":1194:1201   */\n      0x00\n        /* \"#utility.yul\":1223:1247   */\n      tag_441\n        /* \"#utility.yul\":1241:1246   */\n      dup3\n        /* \"#utility.yul\":1223:1247   */\n      tag_355\n      jump\t// in\n    tag_441:\n        /* \"#utility.yul\":1212:1247   */\n      swap1\n      pop\n        /* \"#utility.yul\":1157:1253   */\n      swap2\n      swap1\n      pop\n      jump\t// out\n        /* \"#utility.yul\":1259:1381   */\n    tag_357:\n        /* \"#utility.yul\":1332:1356   */\n      tag_443\n        /* \"#utility.yul\":1350:1355   */\n      dup2\n        /* \"#utility.yul\":1332:1356   */\n      tag_356\n      jump\t// in\n    tag_443:\n        /* \"#utility.yul\":1325:1330   */\n      dup2\n        /* \"#utility.yul\":1322:1357   */\n      eq\n        /* \"#utility.yul\":1312:1375   */\n      tag_444\n      jumpi\n        /* \"#utility.yul\":1371:1372   */\n      0x00\n        /* \"#utility.yul\":1368:1369   */\n      dup1\n        /* \"#utility.yul\":1361:1373   */\n      revert\n        /* \"#utility.yul\":1312:1375   */\n    tag_444:\n        /* \"#utility.yul\":1259:1381   */\n      pop\n      jump\t// out\n        /* \"#utility.yul\":1387:1526   */\n    tag_358:\n        /* \"#utility.yul\":1433:1438   */\n      0x00\n        /* \"#utility.yul\":1471:1477   */\n      dup2\n        /* \"#utility.yul\":1458:1478   */\n      calldataload\n        /* \"#utility.yul\":1449:1478   */\n      swap1\n      pop\n        /* \"#utility.yul\":1487:1520   */\n      tag_446\n        /* \"#utility.yul\":1514:1519   */\n      dup2\n        /* \"#utility.yul\":1487:1520   */\n      tag_357\n      jump\t// in\n    tag_446:\n        /* \"#utility.yul\":1387:1526   */\n      swap3\n      swap2\n      pop\n      pop\n      jump\t// out\n        /* \"#utility.yul\":1532:1649   */\n    tag_359:\n        /* \"#utility.yul\":1641:1642   */\n      0x00\n        /* \"#utility.yul\":1638:1639   */\n      dup1\n        /* \"#utility.yul\":1631:1643   */\n      revert\n        /* \"#utility.yul\":1655:1757   */\n    tag_360:\n        /* \"#utility.yul\":1696:1702   */\n      0x00\n        /* \"#utility.yul\":1747:1749   */\n      0x1f\n        /* \"#utility.yul\":1743:1750   */\n      not\n        /* \"#utility.yul\":1738:1740   */\n      0x1f\n        /* \"#utility.yul\":1731:1736   */\n      dup4\n        /* \"#utility.yul\":1727:1741   */\n      add\n        /* \"#utility.yul\":1723:1751   */\n      and\n        /* \"#utility.yul\":1713:1751   */\n      swap1\n      pop\n        /* \"#utility.yul\":1655:1757   */\n      swap2\n      swap1\n      pop\n      jump\t// out\n        /* \"#utility.yul\":1763:1943   */\n    tag_274:\n        /* \"#utility.yul\":1811:1888   */\n      0x4e487b7100000000000000000000000000000000000000000000000000000000\n        /* \"#utility.yul\":1808:1809   */\n      0x00\n        /* \"#utility.yul\":1801:1889   */\n      mstore\n        /* \"#utility.yul\":1908:1912   */\n      0x41\n        /* \"#utility.yul\":1905:1906   */\n      0x04\n        /* \"#utility.yul\":1898:1913   */\n      mstore\n        /* \"#utility.yul\":1932:1936   */\n      0x24\n        /* \"#utility.yul\":1929:1930   */\n      0x00\n        /* \"#utility.yul\":1922:1937   */\n      revert\n        /* \"#utility.yul\":1949:2230   */\n    tag_361:\n        /* \"#utility.yul\":2032:2059   */\n      tag_451\n        /* \"#utility.yul\":2054:2058   */\n      dup3\n        /* \"#utility.yul\":2032:2059   */\n      tag_360\n      jump\t// in\n    tag_451:\n        /* \"#utility.yul\":2024:2030   */\n      dup2\n        /* \"#utility.yul\":2020:2060   */\n      add\n        /* \"#utility.yul\":2162:2168   */\n      dup2\n        /* \"#utility.yul\":2150:2160   */\n      dup2\n        /* \"#utility.yul\":2147:2169   */\n      lt\n        /* \"#utility.yul\":2126:2144   */\n      0xffffffffffffffff\n        /* \"#utility.yul\":2114:2124   */\n      dup3\n        /* \"#utility.yul\":2111:2145   */\n      gt\n        /* \"#utility.yul\":2108:2170   */\n      or\n        /* \"#utility.yul\":2105:2193   */\n      iszero\n      tag_452\n      jumpi\n        /* \"#utility.yul\":2173:2191   */\n      tag_453\n      tag_274\n      jump\t// in\n    tag_453:\n        /* \"#utility.yul\":2105:2193   */\n    tag_452:\n        /* \"#utility.yul\":2213:2223   */\n      dup1\n        /* \"#utility.yul\":2209:2211   */\n      0x40\n        /* \"#utility.yul\":2202:2224   */\n      mstore\n        /* \"#utility.yul\":1992:2230   */\n      pop\n        /* \"#utility.yul\":1949:2230   */\n      pop\n      pop\n      jump\t// out\n        /* \"#utility.yul\":2236:2365   */\n    tag_362:\n        /* \"#utility.yul\":2270:2276   */\n      0x00\n        /* \"#utility.yul\":2297:2317   */\n      tag_455\n      tag_349\n      jump\t// in\n    tag_455:\n        /* \"#utility.yul\":2287:2317   */\n      swap1\n      pop\n        /* \"#utility.yul\":2326:2359   */\n      tag_456\n        /* \"#utility.yul\":2354:2358   */\n      dup3\n        /* \"#utility.yul\":2346:2352   */\n      dup3\n        /* \"#utility.yul\":2326:2359   */\n      tag_361\n      jump\t// in\n    tag_456:\n        /* \"#utility.yul\":2236:2365   */\n      swap2\n      swap1\n      pop\n      jump\t// out\n        /* \"#utility.yul\":2371:2682   */\n    tag_363:\n        /* \"#utility.yul\":2448:2452   */\n      0x00\n        /* \"#utility.yul\":2538:2556   */\n      0xffffffffffffffff\n        /* \"#utility.yul\":2530:2536   */\n      dup3\n        /* \"#utility.yul\":2527:2557   */\n      gt\n        /* \"#utility.yul\":2524:2580   */\n      iszero\n      tag_458\n      jumpi\n        /* \"#utility.yul\":2560:2578   */\n      tag_459\n      tag_274\n      jump\t// in\n    tag_459:\n        /* \"#utility.yul\":2524:2580   */\n    tag_458:\n        /* \"#utility.yul\":2610:2614   */\n      0x20\n        /* \"#utility.yul\":2602:2608   */\n      dup3\n        /* \"#utility.yul\":2598:2615   */\n      mul\n        /* \"#utility.yul\":2590:2615   */\n      swap1\n      pop\n        /* \"#utility.yul\":2670:2674   */\n      0x20\n        /* \"#utility.yul\":2664:2668   */\n      dup2\n        /* \"#utility.yul\":2660:2675   */\n      add\n        /* \"#utility.yul\":2652:2675   */\n      swap1\n      pop\n        /* \"#utility.yul\":2371:2682   */\n      swap2\n      swap1\n      pop\n      jump\t// out\n        /* \"#utility.yul\":2688:2805   */\n    tag_364:\n        /* \"#utility.yul\":2797:2798   */\n      0x00\n        /* \"#utility.yul\":2794:2795   */\n      dup1\n        /* \"#utility.yul\":2787:2799   */\n      revert\n        /* \"#utility.yul\":2828:3538   */\n    tag_365:\n        /* \"#utility.yul\":2924:2929   */\n      0x00\n        /* \"#utility.yul\":2949:3030   */\n      tag_462\n        /* \"#utility.yul\":2965:3029   */\n      tag_463\n        /* \"#utility.yul\":3022:3028   */\n      dup5\n        /* \"#utility.yul\":2965:3029   */\n      tag_363\n      jump\t// in\n    tag_463:\n        /* \"#utility.yul\":2949:3030   */\n      tag_362\n      jump\t// in\n    tag_462:\n        /* \"#utility.yul\":2940:3030   */\n      swap1\n      pop\n        /* \"#utility.yul\":3050:3055   */\n      dup1\n        /* \"#utility.yul\":3079:3085   */\n      dup4\n        /* \"#utility.yul\":3072:3077   */\n      dup3\n        /* \"#utility.yul\":3065:3086   */\n      mstore\n        /* \"#utility.yul\":3113:3117   */\n      0x20\n        /* \"#utility.yul\":3106:3111   */\n      dup3\n        /* \"#utility.yul\":3102:3118   */\n      add\n        /* \"#utility.yul\":3095:3118   */\n      swap1\n      pop\n        /* \"#utility.yul\":3166:3170   */\n      0x20\n        /* \"#utility.yul\":3158:3164   */\n      dup5\n        /* \"#utility.yul\":3154:3171   */\n      mul\n        /* \"#utility.yul\":3146:3152   */\n      dup4\n        /* \"#utility.yul\":3142:3172   */\n      add\n        /* \"#utility.yul\":3195:3198   */\n      dup6\n        /* \"#utility.yul\":3187:3193   */\n      dup2\n        /* \"#utility.yul\":3184:3199   */\n      gt\n        /* \"#utility.yul\":3181:3303   */\n      iszero\n      tag_464\n      jumpi\n        /* \"#utility.yul\":3214:3293   */\n      tag_465\n      tag_364\n      jump\t// in\n    tag_465:\n        /* \"#utility.yul\":3181:3303   */\n    tag_464:\n        /* \"#utility.yul\":3329:3335   */\n      dup4\n        /* \"#utility.yul\":3312:3532   */\n    tag_466:\n        /* \"#utility.yul\":3346:3352   */\n      dup2\n        /* \"#utility.yul\":3341:3344   */\n      dup2\n        /* \"#utility.yul\":3338:3353   */\n      lt\n        /* \"#utility.yul\":3312:3532   */\n      iszero\n      tag_468\n      jumpi\n        /* \"#utility.yul\":3421:3424   */\n      dup1\n        /* \"#utility.yul\":3450:3487   */\n      tag_469\n        /* \"#utility.yul\":3483:3486   */\n      dup9\n        /* \"#utility.yul\":3471:3481   */\n      dup3\n        /* \"#utility.yul\":3450:3487   */\n      tag_354\n      jump\t// in\n    tag_469:\n        /* \"#utility.yul\":3445:3448   */\n      dup5\n        /* \"#utility.yul\":3438:3488   */\n      mstore\n        /* \"#utility.yul\":3517:3521   */\n      0x20\n        /* \"#utility.yul\":3512:3515   */\n      dup5\n        /* \"#utility.yul\":3508:3522   */\n      add\n        /* \"#utility.yul\":3501:3522   */\n      swap4\n      pop\n        /* \"#utility.yul\":3388:3532   */\n      pop\n        /* \"#utility.yul\":3372:3376   */\n      0x20\n        /* \"#utility.yul\":3367:3370   */\n      dup2\n        /* \"#utility.yul\":3363:3377   */\n      add\n        /* \"#utility.yul\":3356:3377   */\n      swap1\n      pop\n        /* \"#utility.yul\":3312:3532   */\n      jump(tag_466)\n    tag_468:\n        /* \"#utility.yul\":3316:3337   */\n      pop\n        /* \"#utility.yul\":2930:3538   */\n      pop\n      pop\n        /* \"#utility.yul\":2828:3538   */\n      swap4\n      swap3\n      pop\n      pop\n      pop\n      jump\t// out\n        /* \"#utility.yul\":3561:3931   */\n    tag_366:\n        /* \"#utility.yul\":3632:3637   */\n      0x00\n        /* \"#utility.yul\":3681:3684   */\n      dup3\n        /* \"#utility.yul\":3674:3678   */\n      0x1f\n        /* \"#utility.yul\":3666:3672   */\n      dup4\n        /* \"#utility.yul\":3662:3679   */\n      add\n        /* \"#utility.yul\":3658:3685   */\n      slt\n        /* \"#utility.yul\":3648:3770   */\n      tag_471\n      jumpi\n        /* \"#utility.yul\":3689:3768   */\n      tag_472\n      tag_359\n      jump\t// in\n    tag_472:\n        /* \"#utility.yul\":3648:3770   */\n    tag_471:\n        /* \"#utility.yul\":3806:3812   */\n      dup2\n        /* \"#utility.yul\":3793:3813   */\n      calldataload\n        /* \"#utility.yul\":3831:3925   */\n      tag_473\n        /* \"#utility.yul\":3921:3924   */\n      dup5\n        /* \"#utility.yul\":3913:3919   */\n      dup3\n        /* \"#utility.yul\":3906:3910   */\n      0x20\n        /* \"#utility.yul\":3898:3904   */\n      dup7\n        /* \"#utility.yul\":3894:3911   */\n      add\n        /* \"#utility.yul\":3831:3925   */\n      tag_365\n      jump\t// in\n    tag_473:\n        /* \"#utility.yul\":3822:3925   */\n      swap2\n      pop\n        /* \"#utility.yul\":3638:3931   */\n      pop\n        /* \"#utility.yul\":3561:3931   */\n      swap3\n      swap2\n      pop\n      pop\n      jump\t// out\n        /* \"#utility.yul\":3937:4912   */\n    tag_37:\n        /* \"#utility.yul\":4048:4054   */\n      0x00\n        /* \"#utility.yul\":4056:4062   */\n      dup1\n        /* \"#utility.yul\":4064:4070   */\n      0x00\n        /* \"#utility.yul\":4072:4078   */\n      dup1\n        /* \"#utility.yul\":4121:4124   */\n      0x80\n        /* \"#utility.yul\":4109:4118   */\n      dup6\n        /* \"#utility.yul\":4100:4107   */\n      dup8\n        /* \"#utility.yul\":4096:4119   */\n      sub\n        /* \"#utility.yul\":4092:4125   */\n      slt\n        /* \"#utility.yul\":4089:4209   */\n      iszero\n      tag_475\n      jumpi\n        /* \"#utility.yul\":4128:4207   */\n      tag_476\n      tag_350\n      jump\t// in\n    tag_476:\n        /* \"#utility.yul\":4089:4209   */\n    tag_475:\n        /* \"#utility.yul\":4248:4249   */\n      0x00\n        /* \"#utility.yul\":4273:4326   */\n      tag_477\n        /* \"#utility.yul\":4318:4325   */\n      dup8\n        /* \"#utility.yul\":4309:4315   */\n      dup3\n        /* \"#utility.yul\":4298:4307   */\n      dup9\n        /* \"#utility.yul\":4294:4316   */\n      add\n        /* \"#utility.yul\":4273:4326   */\n      tag_358\n      jump\t// in\n    tag_477:\n        /* \"#utility.yul\":4263:4326   */\n      swap5\n      pop\n        /* \"#utility.yul\":4219:4336   */\n      pop\n        /* \"#utility.yul\":4403:4405   */\n      0x20\n        /* \"#utility.yul\":4392:4401   */\n      dup6\n        /* \"#utility.yul\":4388:4406   */\n      add\n        /* \"#utility.yul\":4375:4407   */\n      calldataload\n        /* \"#utility.yul\":4434:4452   */\n      0xffffffffffffffff\n        /* \"#utility.yul\":4426:4432   */\n      dup2\n        /* \"#utility.yul\":4423:4453   */\n      gt\n        /* \"#utility.yul\":4420:4537   */\n      iszero\n      tag_478\n      jumpi\n        /* \"#utility.yul\":4456:4535   */\n      tag_479\n      tag_351\n      jump\t// in\n    tag_479:\n        /* \"#utility.yul\":4420:4537   */\n    tag_478:\n        /* \"#utility.yul\":4561:4639   */\n      tag_480\n        /* \"#utility.yul\":4631:4638   */\n      dup8\n        /* \"#utility.yul\":4622:4628   */\n      dup3\n        /* \"#utility.yul\":4611:4620   */\n      dup9\n        /* \"#utility.yul\":4607:4629   */\n      add\n        /* \"#utility.yul\":4561:4639   */\n      tag_366\n      jump\t// in\n    tag_480:\n        /* \"#utility.yul\":4551:4639   */\n      swap4\n      pop\n        /* \"#utility.yul\":4346:4649   */\n      pop\n        /* \"#utility.yul\":4688:4690   */\n      0x40\n        /* \"#utility.yul\":4714:4767   */\n      tag_481\n        /* \"#utility.yul\":4759:4766   */\n      dup8\n        /* \"#utility.yul\":4750:4756   */\n      dup3\n        /* \"#utility.yul\":4739:4748   */\n      dup9\n        /* \"#utility.yul\":4735:4757   */\n      add\n        /* \"#utility.yul\":4714:4767   */\n      tag_354\n      jump\t// in\n    tag_481:\n        /* \"#utility.yul\":4704:4767   */\n      swap3\n      pop\n        /* \"#utility.yul\":4659:4777   */\n      pop\n        /* \"#utility.yul\":4816:4818   */\n      0x60\n        /* \"#utility.yul\":4842:4895   */\n      tag_482\n        /* \"#utility.yul\":4887:4894   */\n      dup8\n        /* \"#utility.yul\":4878:4884   */\n      dup3\n        /* \"#utility.yul\":4867:4876   */\n      dup9\n        /* \"#utility.yul\":4863:4885   */\n      add\n        /* \"#utility.yul\":4842:4895   */\n      tag_354\n      jump\t// in\n    tag_482:\n        /* \"#utility.yul\":4832:4895   */\n      swap2\n      pop\n        /* \"#utility.yul\":4787:4905   */\n      pop\n        /* \"#utility.yul\":3937:4912   */\n      swap3\n      swap6\n      swap2\n      swap5\n      pop\n      swap3\n      pop\n      jump\t// out\n        /* \"#utility.yul\":4918:5008   */\n    tag_367:\n        /* \"#utility.yul\":4952:4959   */\n      0x00\n        /* \"#utility.yul\":4995:5000   */\n      dup2\n        /* \"#utility.yul\":4988:5001   */\n      iszero\n        /* \"#utility.yul\":4981:5002   */\n      iszero\n        /* \"#utility.yul\":4970:5002   */\n      swap1\n      pop\n        /* \"#utility.yul\":4918:5008   */\n      swap2\n      swap1\n      pop\n      jump\t// out\n        /* \"#utility.yul\":5014:5123   */\n    tag_368:\n        /* \"#utility.yul\":5095:5116   */\n      tag_485\n        /* \"#utility.yul\":5110:5115   */\n      dup2\n        /* \"#utility.yul\":5095:5116   */\n      tag_367\n      jump\t// in\n    tag_485:\n        /* \"#utility.yul\":5090:5093   */\n      dup3\n        /* \"#utility.yul\":5083:5117   */\n      mstore\n        /* \"#utility.yul\":5014:5123   */\n      pop\n      pop\n      jump\t// out\n        /* \"#utility.yul\":5129:5339   */\n    tag_46:\n        /* \"#utility.yul\":5216:5220   */\n      0x00\n        /* \"#utility.yul\":5254:5256   */\n      0x20\n        /* \"#utility.yul\":5243:5252   */\n      dup3\n        /* \"#utility.yul\":5239:5257   */\n      add\n        /* \"#utility.yul\":5231:5257   */\n      swap1\n      pop\n        /* \"#utility.yul\":5267:5332   */\n      tag_487\n        /* \"#utility.yul\":5329:5330   */\n      0x00\n        /* \"#utility.yul\":5318:5327   */\n      dup4\n        /* \"#utility.yul\":5314:5331   */\n      add\n        /* \"#utility.yul\":5305:5311   */\n      dup5\n        /* \"#utility.yul\":5267:5332   */\n      tag_368\n      jump\t// in\n    tag_487:\n        /* \"#utility.yul\":5129:5339   */\n      swap3\n      swap2\n      pop\n      pop\n      jump\t// out\n        /* \"#utility.yul\":5345:5819   */\n    tag_50:\n        /* \"#utility.yul\":5413:5419   */\n      0x00\n        /* \"#utility.yul\":5421:5427   */\n      dup1\n        /* \"#utility.yul\":5470:5472   */\n      0x40\n        /* \"#utility.yul\":5458:5467   */\n      dup4\n        /* \"#utility.yul\":5449:5456   */\n      dup6\n        /* \"#utility.yul\":5445:5468   */\n      sub\n        /* \"#utility.yul\":5441:5473   */\n      slt\n        /* \"#utility.yul\":5438:5557   */\n      iszero\n      tag_489\n      jumpi\n        /* \"#utility.yul\":5476:5555   */\n      tag_490\n      tag_350\n      jump\t// in\n    tag_490:\n        /* \"#utility.yul\":5438:5557   */\n    tag_489:\n        /* \"#utility.yul\":5596:5597   */\n      0x00\n        /* \"#utility.yul\":5621:5674   */\n      tag_491\n        /* \"#utility.yul\":5666:5673   */\n      dup6\n        /* \"#utility.yul\":5657:5663   */\n      dup3\n        /* \"#utility.yul\":5646:5655   */\n      dup7\n        /* \"#utility.yul\":5642:5664   */\n      add\n        /* \"#utility.yul\":5621:5674   */\n      tag_358\n      jump\t// in\n    tag_491:\n        /* \"#utility.yul\":5611:5674   */\n      swap3\n      pop\n        /* \"#utility.yul\":5567:5684   */\n      pop\n        /* \"#utility.yul\":5723:5725   */\n      0x20\n        /* \"#utility.yul\":5749:5802   */\n      tag_492\n        /* \"#utility.yul\":5794:5801   */\n      dup6\n        /* \"#utility.yul\":5785:5791   */\n      dup3\n        /* \"#utility.yul\":5774:5783   */\n      dup7\n        /* \"#utility.yul\":5770:5792   */\n      add\n        /* \"#utility.yul\":5749:5802   */\n      tag_358\n      jump\t// in\n    tag_492:\n        /* \"#utility.yul\":5739:5802   */\n      swap2\n      pop\n        /* \"#utility.yul\":5694:5812   */\n      pop\n        /* \"#utility.yul\":5345:5819   */\n      swap3\n      pop\n      swap3\n      swap1\n      pop\n      jump\t// out\n        /* \"#utility.yul\":5825:6299   */\n    tag_58:\n        /* \"#utility.yul\":5893:5899   */\n      0x00\n        /* \"#utility.yul\":5901:5907   */\n      dup1\n        /* \"#utility.yul\":5950:5952   */\n      0x40\n        /* \"#utility.yul\":5938:5947   */\n      dup4\n        /* \"#utility.yul\":5929:5936   */\n      dup6\n        /* \"#utility.yul\":5925:5948   */\n      sub\n        /* \"#utility.yul\":5921:5953   */\n      slt\n        /* \"#utility.yul\":5918:6037   */\n      iszero\n      tag_494\n      jumpi\n        /* \"#utility.yul\":5956:6035   */\n      tag_495\n      tag_350\n      jump\t// in\n    tag_495:\n        /* \"#utility.yul\":5918:6037   */\n    tag_494:\n        /* \"#utility.yul\":6076:6077   */\n      0x00\n        /* \"#utility.yul\":6101:6154   */\n      tag_496\n        /* \"#utility.yul\":6146:6153   */\n      dup6\n        /* \"#utility.yul\":6137:6143   */\n      dup3\n        /* \"#utility.yul\":6126:6135   */\n      dup7\n        /* \"#utility.yul\":6122:6144   */\n      add\n        /* \"#utility.yul\":6101:6154   */\n      tag_354\n      jump\t// in\n    tag_496:\n        /* \"#utility.yul\":6091:6154   */\n      swap3\n      pop\n        /* \"#utility.yul\":6047:6164   */\n      pop\n        /* \"#utility.yul\":6203:6205   */\n      0x20\n        /* \"#utility.yul\":6229:6282   */\n      tag_497\n        /* \"#utility.yul\":6274:6281   */\n      dup6\n        /* \"#utility.yul\":6265:6271   */\n      dup3\n        /* \"#utility.yul\":6254:6263   */\n      dup7\n        /* \"#utility.yul\":6250:6272   */\n      add\n        /* \"#utility.yul\":6229:6282   */\n      tag_354\n      jump\t// in\n    tag_497:\n        /* \"#utility.yul\":6219:6282   */\n      swap2\n      pop\n        /* \"#utility.yul\":6174:6292   */\n      pop\n        /* \"#utility.yul\":5825:6299   */\n      swap3\n      pop\n      swap3\n      swap1\n      pop\n      jump\t// out\n        /* \"#utility.yul\":6305:6423   */\n    tag_369:\n        /* \"#utility.yul\":6392:6416   */\n      tag_499\n        /* \"#utility.yul\":6410:6415   */\n      dup2\n        /* \"#utility.yul\":6392:6416   */\n      tag_356\n      jump\t// in\n    tag_499:\n        /* \"#utility.yul\":6387:6390   */\n      dup3\n        /* \"#utility.yul\":6380:6417   */\n      mstore\n        /* \"#utility.yul\":6305:6423   */\n      pop\n      pop\n      jump\t// out\n        /* \"#utility.yul\":6429:6651   */\n    tag_65:\n        /* \"#utility.yul\":6522:6526   */\n      0x00\n        /* \"#utility.yul\":6560:6562   */\n      0x20\n        /* \"#utility.yul\":6549:6558   */\n      dup3\n        /* \"#utility.yul\":6545:6563   */\n      add\n        /* \"#utility.yul\":6537:6563   */\n      swap1\n      pop\n        /* \"#utility.yul\":6573:6644   */\n      tag_501\n        /* \"#utility.yul\":6641:6642   */\n      0x00\n        /* \"#utility.yul\":6630:6639   */\n      dup4\n        /* \"#utility.yul\":6626:6643   */\n      add\n        /* \"#utility.yul\":6617:6623   */\n      dup5\n        /* \"#utility.yul\":6573:6644   */\n      tag_369\n      jump\t// in\n    tag_501:\n        /* \"#utility.yul\":6429:6651   */\n      swap3\n      swap2\n      pop\n      pop\n      jump\t// out\n        /* \"#utility.yul\":6657:6771   */\n    tag_370:\n        /* \"#utility.yul\":6724:6730   */\n      0x00\n        /* \"#utility.yul\":6758:6763   */\n      dup2\n        /* \"#utility.yul\":6752:6764   */\n      mload\n        /* \"#utility.yul\":6742:6764   */\n      swap1\n      pop\n        /* \"#utility.yul\":6657:6771   */\n      swap2\n      swap1\n      pop\n      jump\t// out\n        /* \"#utility.yul\":6777:6961   */\n    tag_371:\n        /* \"#utility.yul\":6876:6887   */\n      0x00\n        /* \"#utility.yul\":6910:6916   */\n      dup3\n        /* \"#utility.yul\":6905:6908   */\n      dup3\n        /* \"#utility.yul\":6898:6917   */\n      mstore\n        /* \"#utility.yul\":6950:6954   */\n      0x20\n        /* \"#utility.yul\":6945:6948   */\n      dup3\n        /* \"#utility.yul\":6941:6955   */\n      add\n        /* \"#utility.yul\":6926:6955   */\n      swap1\n      pop\n        /* \"#utility.yul\":6777:6961   */\n      swap3\n      swap2\n      pop\n      pop\n      jump\t// out\n        /* \"#utility.yul\":6967:7099   */\n    tag_372:\n        /* \"#utility.yul\":7034:7038   */\n      0x00\n        /* \"#utility.yul\":7057:7060   */\n      dup2\n        /* \"#utility.yul\":7049:7060   */\n      swap1\n      pop\n        /* \"#utility.yul\":7087:7091   */\n      0x20\n        /* \"#utility.yul\":7082:7085   */\n      dup3\n        /* \"#utility.yul\":7078:7092   */\n      add\n        /* \"#utility.yul\":7070:7092   */\n      swap1\n      pop\n        /* \"#utility.yul\":6967:7099   */\n      swap2\n      swap1\n      pop\n      jump\t// out\n        /* \"#utility.yul\":7105:7213   */\n    tag_373:\n        /* \"#utility.yul\":7182:7206   */\n      tag_506\n        /* \"#utility.yul\":7200:7205   */\n      dup2\n        /* \"#utility.yul\":7182:7206   */\n      tag_352\n      jump\t// in\n    tag_506:\n        /* \"#utility.yul\":7177:7180   */\n      dup3\n        /* \"#utility.yul\":7170:7207   */\n      mstore\n        /* \"#utility.yul\":7105:7213   */\n      pop\n      pop\n      jump\t// out\n        /* \"#utility.yul\":7219:7398   */\n    tag_374:\n        /* \"#utility.yul\":7288:7298   */\n      0x00\n        /* \"#utility.yul\":7309:7355   */\n      tag_508\n        /* \"#utility.yul\":7351:7354   */\n      dup4\n        /* \"#utility.yul\":7343:7349   */\n      dup4\n        /* \"#utility.yul\":7309:7355   */\n      tag_373\n      jump\t// in\n    tag_508:\n        /* \"#utility.yul\":7387:7391   */\n      0x20\n        /* \"#utility.yul\":7382:7385   */\n      dup4\n        /* \"#utility.yul\":7378:7392   */\n      add\n        /* \"#utility.yul\":7364:7392   */\n      swap1\n      pop\n        /* \"#utility.yul\":7219:7398   */\n      swap3\n      swap2\n      pop\n      pop\n      jump\t// out\n        /* \"#utility.yul\":7404:7517   */\n    tag_375:\n        /* \"#utility.yul\":7474:7478   */\n      0x00\n        /* \"#utility.yul\":7506:7510   */\n      0x20\n        /* \"#utility.yul\":7501:7504   */\n      dup3\n        /* \"#utility.yul\":7497:7511   */\n      add\n        /* \"#utility.yul\":7489:7511   */\n      swap1\n      pop\n        /* \"#utility.yul\":7404:7517   */\n      swap2\n      swap1\n      pop\n      jump\t// out\n        /* \"#utility.yul\":7553:8285   */\n    tag_376:\n        /* \"#utility.yul\":7672:7675   */\n      0x00\n        /* \"#utility.yul\":7701:7755   */\n      tag_511\n        /* \"#utility.yul\":7749:7754   */\n      dup3\n        /* \"#utility.yul\":7701:7755   */\n      tag_370\n      jump\t// in\n    tag_511:\n        /* \"#utility.yul\":7771:7857   */\n      tag_512\n        /* \"#utility.yul\":7850:7856   */\n      dup2\n        /* \"#utility.yul\":7845:7848   */\n      dup6\n        /* \"#utility.yul\":7771:7857   */\n      tag_371\n      jump\t// in\n    tag_512:\n        /* \"#utility.yul\":7764:7857   */\n      swap4\n      pop\n        /* \"#utility.yul\":7881:7937   */\n      tag_513\n        /* \"#utility.yul\":7931:7936   */\n      dup4\n        /* \"#utility.yul\":7881:7937   */\n      tag_372\n      jump\t// in\n    tag_513:\n        /* \"#utility.yul\":7960:7967   */\n      dup1\n        /* \"#utility.yul\":7991:7992   */\n      0x00\n        /* \"#utility.yul\":7976:8260   */\n    tag_514:\n        /* \"#utility.yul\":8001:8007   */\n      dup4\n        /* \"#utility.yul\":7998:7999   */\n      dup2\n        /* \"#utility.yul\":7995:8008   */\n      lt\n        /* \"#utility.yul\":7976:8260   */\n      iszero\n      tag_516\n      jumpi\n        /* \"#utility.yul\":8077:8083   */\n      dup2\n        /* \"#utility.yul\":8071:8084   */\n      mload\n        /* \"#utility.yul\":8104:8167   */\n      tag_517\n        /* \"#utility.yul\":8163:8166   */\n      dup9\n        /* \"#utility.yul\":8148:8161   */\n      dup3\n        /* \"#utility.yul\":8104:8167   */\n      tag_374\n      jump\t// in\n    tag_517:\n        /* \"#utility.yul\":8097:8167   */\n      swap8\n      pop\n        /* \"#utility.yul\":8190:8250   */\n      tag_518\n        /* \"#utility.yul\":8243:8249   */\n      dup4\n        /* \"#utility.yul\":8190:8250   */\n      tag_375\n      jump\t// in\n    tag_518:\n        /* \"#utility.yul\":8180:8250   */\n      swap3\n      pop\n        /* \"#utility.yul\":8036:8260   */\n      pop\n        /* \"#utility.yul\":8023:8024   */\n      0x01\n        /* \"#utility.yul\":8020:8021   */\n      dup2\n        /* \"#utility.yul\":8016:8025   */\n      add\n        /* \"#utility.yul\":8011:8025   */\n      swap1\n      pop\n        /* \"#utility.yul\":7976:8260   */\n      jump(tag_514)\n    tag_516:\n        /* \"#utility.yul\":7980:7994   */\n      pop\n        /* \"#utility.yul\":8276:8279   */\n      dup6\n        /* \"#utility.yul\":8269:8279   */\n      swap4\n      pop\n        /* \"#utility.yul\":7677:8285   */\n      pop\n      pop\n      pop\n        /* \"#utility.yul\":7553:8285   */\n      swap3\n      swap2\n      pop\n      pop\n      jump\t// out\n        /* \"#utility.yul\":8291:8664   */\n    tag_73:\n        /* \"#utility.yul\":8434:8438   */\n      0x00\n        /* \"#utility.yul\":8472:8474   */\n      0x20\n        /* \"#utility.yul\":8461:8470   */\n      dup3\n        /* \"#utility.yul\":8457:8475   */\n      add\n        /* \"#utility.yul\":8449:8475   */\n      swap1\n      pop\n        /* \"#utility.yul\":8521:8530   */\n      dup2\n        /* \"#utility.yul\":8515:8519   */\n      dup2\n        /* \"#utility.yul\":8511:8531   */\n      sub\n        /* \"#utility.yul\":8507:8508   */\n      0x00\n        /* \"#utility.yul\":8496:8505   */\n      dup4\n        /* \"#utility.yul\":8492:8509   */\n      add\n        /* \"#utility.yul\":8485:8532   */\n      mstore\n        /* \"#utility.yul\":8549:8657   */\n      tag_520\n        /* \"#utility.yul\":8652:8656   */\n      dup2\n        /* \"#utility.yul\":8643:8649   */\n      dup5\n        /* \"#utility.yul\":8549:8657   */\n      tag_376\n      jump\t// in\n    tag_520:\n        /* \"#utility.yul\":8541:8657   */\n      swap1\n      pop\n        /* \"#utility.yul\":8291:8664   */\n      swap3\n      swap2\n      pop\n      pop\n      jump\t// out\n        /* \"#utility.yul\":8670:8788   */\n    tag_377:\n        /* \"#utility.yul\":8757:8781   */\n      tag_522\n        /* \"#utility.yul\":8775:8780   */\n      dup2\n        /* \"#utility.yul\":8757:8781   */\n      tag_352\n      jump\t// in\n    tag_522:\n        /* \"#utility.yul\":8752:8755   */\n      dup3\n        /* \"#utility.yul\":8745:8782   */\n      mstore\n        /* \"#utility.yul\":8670:8788   */\n      pop\n      pop\n      jump\t// out\n        /* \"#utility.yul\":8794:9016   */\n    tag_78:\n        /* \"#utility.yul\":8887:8891   */\n      0x00\n        /* \"#utility.yul\":8925:8927   */\n      0x20\n        /* \"#utility.yul\":8914:8923   */\n      dup3\n        /* \"#utility.yul\":8910:8928   */\n      add\n        /* \"#utility.yul\":8902:8928   */\n      swap1\n      pop\n        /* \"#utility.yul\":8938:9009   */\n      tag_524\n        /* \"#utility.yul\":9006:9007   */\n      0x00\n        /* \"#utility.yul\":8995:9004   */\n      dup4\n        /* \"#utility.yul\":8991:9008   */\n      add\n        /* \"#utility.yul\":8982:8988   */\n      dup5\n        /* \"#utility.yul\":8938:9009   */\n      tag_377\n      jump\t// in\n    tag_524:\n        /* \"#utility.yul\":8794:9016   */\n      swap3\n      swap2\n      pop\n      pop\n      jump\t// out\n        /* \"#utility.yul\":9022:9162   */\n    tag_378:\n        /* \"#utility.yul\":9115:9121   */\n      0x00\n        /* \"#utility.yul\":9149:9154   */\n      dup2\n        /* \"#utility.yul\":9143:9155   */\n      mload\n        /* \"#utility.yul\":9133:9155   */\n      swap1\n      pop\n        /* \"#utility.yul\":9022:9162   */\n      swap2\n      swap1\n      pop\n      jump\t// out\n        /* \"#utility.yul\":9168:9378   */\n    tag_379:\n        /* \"#utility.yul\":9293:9304   */\n      0x00\n        /* \"#utility.yul\":9327:9333   */\n      dup3\n        /* \"#utility.yul\":9322:9325   */\n      dup3\n        /* \"#utility.yul\":9315:9334   */\n      mstore\n        /* \"#utility.yul\":9367:9371   */\n      0x20\n        /* \"#utility.yul\":9362:9365   */\n      dup3\n        /* \"#utility.yul\":9358:9372   */\n      add\n        /* \"#utility.yul\":9343:9372   */\n      swap1\n      pop\n        /* \"#utility.yul\":9168:9378   */\n      swap3\n      swap2\n      pop\n      pop\n      jump\t// out\n        /* \"#utility.yul\":9384:9542   */\n    tag_380:\n        /* \"#utility.yul\":9477:9481   */\n      0x00\n        /* \"#utility.yul\":9500:9503   */\n      dup2\n        /* \"#utility.yul\":9492:9503   */\n      swap1\n      pop\n        /* \"#utility.yul\":9530:9534   */\n      0x20\n        /* \"#utility.yul\":9525:9528   */\n      dup3\n        /* \"#utility.yul\":9521:9535   */\n      add\n        /* \"#utility.yul\":9513:9535   */\n      swap1\n      pop\n        /* \"#utility.yul\":9384:9542   */\n      swap2\n      swap1\n      pop\n      jump\t// out\n        /* \"#utility.yul\":9548:9647   */\n    tag_381:\n        /* \"#utility.yul\":9600:9606   */\n      0x00\n        /* \"#utility.yul\":9634:9639   */\n      dup2\n        /* \"#utility.yul\":9628:9640   */\n      mload\n        /* \"#utility.yul\":9618:9640   */\n      swap1\n      pop\n        /* \"#utility.yul\":9548:9647   */\n      swap2\n      swap1\n      pop\n      jump\t// out\n        /* \"#utility.yul\":9653:9812   */\n    tag_382:\n        /* \"#utility.yul\":9727:9738   */\n      0x00\n        /* \"#utility.yul\":9761:9767   */\n      dup3\n        /* \"#utility.yul\":9756:9759   */\n      dup3\n        /* \"#utility.yul\":9749:9768   */\n      mstore\n        /* \"#utility.yul\":9801:9805   */\n      0x20\n        /* \"#utility.yul\":9796:9799   */\n      dup3\n        /* \"#utility.yul\":9792:9806   */\n      add\n        /* \"#utility.yul\":9777:9806   */\n      swap1\n      pop\n        /* \"#utility.yul\":9653:9812   */\n      swap3\n      swap2\n      pop\n      pop\n      jump\t// out\n        /* \"#utility.yul\":9818:10064   */\n    tag_383:\n        /* \"#utility.yul\":9899:9900   */\n      0x00\n        /* \"#utility.yul\":9909:10022   */\n    tag_531:\n        /* \"#utility.yul\":9923:9929   */\n      dup4\n        /* \"#utility.yul\":9920:9921   */\n      dup2\n        /* \"#utility.yul\":9917:9930   */\n      lt\n        /* \"#utility.yul\":9909:10022   */\n      iszero\n      tag_533\n      jumpi\n        /* \"#utility.yul\":10008:10009   */\n      dup1\n        /* \"#utility.yul\":10003:10006   */\n      dup3\n        /* \"#utility.yul\":9999:10010   */\n      add\n        /* \"#utility.yul\":9993:10011   */\n      mload\n        /* \"#utility.yul\":9989:9990   */\n      dup2\n        /* \"#utility.yul\":9984:9987   */\n      dup5\n        /* \"#utility.yul\":9980:9991   */\n      add\n        /* \"#utility.yul\":9973:10012   */\n      mstore\n        /* \"#utility.yul\":9945:9947   */\n      0x20\n        /* \"#utility.yul\":9942:9943   */\n      dup2\n        /* \"#utility.yul\":9938:9948   */\n      add\n        /* \"#utility.yul\":9933:9948   */\n      swap1\n      pop\n        /* \"#utility.yul\":9909:10022   */\n      jump(tag_531)\n    tag_533:\n        /* \"#utility.yul\":10056:10057   */\n      0x00\n        /* \"#utility.yul\":10047:10053   */\n      dup5\n        /* \"#utility.yul\":10042:10045   */\n      dup5\n        /* \"#utility.yul\":10038:10054   */\n      add\n        /* \"#utility.yul\":10031:10058   */\n      mstore\n        /* \"#utility.yul\":9880:10064   */\n      pop\n        /* \"#utility.yul\":9818:10064   */\n      pop\n      pop\n      pop\n      jump\t// out\n        /* \"#utility.yul\":10070:10427   */\n    tag_384:\n        /* \"#utility.yul\":10148:10151   */\n      0x00\n        /* \"#utility.yul\":10176:10215   */\n      tag_535\n        /* \"#utility.yul\":10209:10214   */\n      dup3\n        /* \"#utility.yul\":10176:10215   */\n      tag_381\n      jump\t// in\n    tag_535:\n        /* \"#utility.yul\":10231:10292   */\n      tag_536\n        /* \"#utility.yul\":10285:10291   */\n      dup2\n        /* \"#utility.yul\":10280:10283   */\n      dup6\n        /* \"#utility.yul\":10231:10292   */\n      tag_382\n      jump\t// in\n    tag_536:\n        /* \"#utility.yul\":10224:10292   */\n      swap4\n      pop\n        /* \"#utility.yul\":10301:10366   */\n      tag_537\n        /* \"#utility.yul\":10359:10365   */\n      dup2\n        /* \"#utility.yul\":10354:10357   */\n      dup6\n        /* \"#utility.yul\":10347:10351   */\n      0x20\n        /* \"#utility.yul\":10340:10345   */\n      dup7\n        /* \"#utility.yul\":10336:10352   */\n      add\n        /* \"#utility.yul\":10301:10366   */\n      tag_383\n      jump\t// in\n    tag_537:\n        /* \"#utility.yul\":10391:10420   */\n      tag_538\n        /* \"#utility.yul\":10413:10419   */\n      dup2\n        /* \"#utility.yul\":10391:10420   */\n      tag_360\n      jump\t// in\n    tag_538:\n        /* \"#utility.yul\":10386:10389   */\n      dup5\n        /* \"#utility.yul\":10382:10421   */\n      add\n        /* \"#utility.yul\":10375:10421   */\n      swap2\n      pop\n        /* \"#utility.yul\":10152:10427   */\n      pop\n        /* \"#utility.yul\":10070:10427   */\n      swap3\n      swap2\n      pop\n      pop\n      jump\t// out\n        /* \"#utility.yul\":10517:11126   */\n    tag_385:\n        /* \"#utility.yul\":10628:10631   */\n      0x00\n        /* \"#utility.yul\":10664:10668   */\n      0x40\n        /* \"#utility.yul\":10659:10662   */\n      dup4\n        /* \"#utility.yul\":10655:10669   */\n      add\n        /* \"#utility.yul\":10754:10758   */\n      0x00\n        /* \"#utility.yul\":10747:10752   */\n      dup4\n        /* \"#utility.yul\":10743:10759   */\n      add\n        /* \"#utility.yul\":10737:10760   */\n      mload\n        /* \"#utility.yul\":10773:10836   */\n      tag_540\n        /* \"#utility.yul\":10830:10834   */\n      0x00\n        /* \"#utility.yul\":10825:10828   */\n      dup7\n        /* \"#utility.yul\":10821:10835   */\n      add\n        /* \"#utility.yul\":10807:10819   */\n      dup3\n        /* \"#utility.yul\":10773:10836   */\n      tag_373\n      jump\t// in\n    tag_540:\n        /* \"#utility.yul\":10679:10846   */\n      pop\n        /* \"#utility.yul\":10936:10940   */\n      0x20\n        /* \"#utility.yul\":10929:10934   */\n      dup4\n        /* \"#utility.yul\":10925:10941   */\n      add\n        /* \"#utility.yul\":10919:10942   */\n      mload\n        /* \"#utility.yul\":10989:10992   */\n      dup5\n        /* \"#utility.yul\":10983:10987   */\n      dup3\n        /* \"#utility.yul\":10979:10993   */\n      sub\n        /* \"#utility.yul\":10972:10976   */\n      0x20\n        /* \"#utility.yul\":10967:10970   */\n      dup7\n        /* \"#utility.yul\":10963:10977   */\n      add\n        /* \"#utility.yul\":10956:10994   */\n      mstore\n        /* \"#utility.yul\":11015:11088   */\n      tag_541\n        /* \"#utility.yul\":11083:11087   */\n      dup3\n        /* \"#utility.yul\":11069:11081   */\n      dup3\n        /* \"#utility.yul\":11015:11088   */\n      tag_384\n      jump\t// in\n    tag_541:\n        /* \"#utility.yul\":11007:11088   */\n      swap2\n      pop\n        /* \"#utility.yul\":10856:11099   */\n      pop\n        /* \"#utility.yul\":11116:11120   */\n      dup1\n        /* \"#utility.yul\":11109:11120   */\n      swap2\n      pop\n        /* \"#utility.yul\":10633:11126   */\n      pop\n        /* \"#utility.yul\":10517:11126   */\n      swap3\n      swap2\n      pop\n      pop\n      jump\t// out\n        /* \"#utility.yul\":11132:11392   */\n    tag_386:\n        /* \"#utility.yul\":11253:11263   */\n      0x00\n        /* \"#utility.yul\":11288:11386   */\n      tag_543\n        /* \"#utility.yul\":11382:11385   */\n      dup4\n        /* \"#utility.yul\":11374:11380   */\n      dup4\n        /* \"#utility.yul\":11288:11386   */\n      tag_385\n      jump\t// in\n    tag_543:\n        /* \"#utility.yul\":11274:11386   */\n      swap1\n      pop\n        /* \"#utility.yul\":11132:11392   */\n      swap3\n      swap2\n      pop\n      pop\n      jump\t// out\n        /* \"#utility.yul\":11398:11537   */\n    tag_387:\n        /* \"#utility.yul\":11494:11498   */\n      0x00\n        /* \"#utility.yul\":11526:11530   */\n      0x20\n        /* \"#utility.yul\":11521:11524   */\n      dup3\n        /* \"#utility.yul\":11517:11531   */\n      add\n        /* \"#utility.yul\":11509:11531   */\n      swap1\n      pop\n        /* \"#utility.yul\":11398:11537   */\n      swap2\n      swap1\n      pop\n      jump\t// out\n        /* \"#utility.yul\":11631:12750   */\n    tag_388:\n        /* \"#utility.yul\":11802:11805   */\n      0x00\n        /* \"#utility.yul\":11831:11911   */\n      tag_546\n        /* \"#utility.yul\":11905:11910   */\n      dup3\n        /* \"#utility.yul\":11831:11911   */\n      tag_378\n      jump\t// in\n    tag_546:\n        /* \"#utility.yul\":11927:12039   */\n      tag_547\n        /* \"#utility.yul\":12032:12038   */\n      dup2\n        /* \"#utility.yul\":12027:12030   */\n      dup6\n        /* \"#utility.yul\":11927:12039   */\n      tag_379\n      jump\t// in\n    tag_547:\n        /* \"#utility.yul\":11920:12039   */\n      swap4\n      pop\n        /* \"#utility.yul\":12065:12068   */\n      dup4\n        /* \"#utility.yul\":12110:12114   */\n      0x20\n        /* \"#utility.yul\":12102:12108   */\n      dup3\n        /* \"#utility.yul\":12098:12115   */\n      mul\n        /* \"#utility.yul\":12093:12096   */\n      dup6\n        /* \"#utility.yul\":12089:12116   */\n      add\n        /* \"#utility.yul\":12140:12222   */\n      tag_548\n        /* \"#utility.yul\":12216:12221   */\n      dup6\n        /* \"#utility.yul\":12140:12222   */\n      tag_380\n      jump\t// in\n    tag_548:\n        /* \"#utility.yul\":12245:12252   */\n      dup1\n        /* \"#utility.yul\":12276:12277   */\n      0x00\n        /* \"#utility.yul\":12261:12705   */\n    tag_549:\n        /* \"#utility.yul\":12286:12292   */\n      dup6\n        /* \"#utility.yul\":12283:12284   */\n      dup2\n        /* \"#utility.yul\":12280:12293   */\n      lt\n        /* \"#utility.yul\":12261:12705   */\n      iszero\n      tag_551\n      jumpi\n        /* \"#utility.yul\":12357:12366   */\n      dup5\n        /* \"#utility.yul\":12351:12355   */\n      dup5\n        /* \"#utility.yul\":12347:12367   */\n      sub\n        /* \"#utility.yul\":12342:12345   */\n      dup10\n        /* \"#utility.yul\":12335:12368   */\n      mstore\n        /* \"#utility.yul\":12408:12414   */\n      dup2\n        /* \"#utility.yul\":12402:12415   */\n      mload\n        /* \"#utility.yul\":12436:12552   */\n      tag_552\n        /* \"#utility.yul\":12547:12551   */\n      dup6\n        /* \"#utility.yul\":12532:12545   */\n      dup3\n        /* \"#utility.yul\":12436:12552   */\n      tag_386\n      jump\t// in\n    tag_552:\n        /* \"#utility.yul\":12428:12552   */\n      swap5\n      pop\n        /* \"#utility.yul\":12575:12661   */\n      tag_553\n        /* \"#utility.yul\":12654:12660   */\n      dup4\n        /* \"#utility.yul\":12575:12661   */\n      tag_387\n      jump\t// in\n    tag_553:\n        /* \"#utility.yul\":12565:12661   */\n      swap3\n      pop\n        /* \"#utility.yul\":12690:12694   */\n      0x20\n        /* \"#utility.yul\":12685:12688   */\n      dup11\n        /* \"#utility.yul\":12681:12695   */\n      add\n        /* \"#utility.yul\":12674:12695   */\n      swap10\n      pop\n        /* \"#utility.yul\":12321:12705   */\n      pop\n        /* \"#utility.yul\":12308:12309   */\n      0x01\n        /* \"#utility.yul\":12305:12306   */\n      dup2\n        /* \"#utility.yul\":12301:12310   */\n      add\n        /* \"#utility.yul\":12296:12310   */\n      swap1\n      pop\n        /* \"#utility.yul\":12261:12705   */\n      jump(tag_549)\n    tag_551:\n        /* \"#utility.yul\":12265:12279   */\n      pop\n        /* \"#utility.yul\":12721:12725   */\n      dup3\n        /* \"#utility.yul\":12714:12725   */\n      swap8\n      pop\n        /* \"#utility.yul\":12741:12744   */\n      dup8\n        /* \"#utility.yul\":12734:12744   */\n      swap6\n      pop\n        /* \"#utility.yul\":11807:12750   */\n      pop\n      pop\n      pop\n      pop\n      pop\n        /* \"#utility.yul\":11631:12750   */\n      swap3\n      swap2\n      pop\n      pop\n      jump\t// out\n        /* \"#utility.yul\":12756:13233   */\n    tag_96:\n        /* \"#utility.yul\":12951:12955   */\n      0x00\n        /* \"#utility.yul\":12989:12991   */\n      0x20\n        /* \"#utility.yul\":12978:12987   */\n      dup3\n        /* \"#utility.yul\":12974:12992   */\n      add\n        /* \"#utility.yul\":12966:12992   */\n      swap1\n      pop\n        /* \"#utility.yul\":13038:13047   */\n      dup2\n        /* \"#utility.yul\":13032:13036   */\n      dup2\n        /* \"#utility.yul\":13028:13048   */\n      sub\n        /* \"#utility.yul\":13024:13025   */\n      0x00\n        /* \"#utility.yul\":13013:13022   */\n      dup4\n        /* \"#utility.yul\":13009:13026   */\n      add\n        /* \"#utility.yul\":13002:13049   */\n      mstore\n        /* \"#utility.yul\":13066:13226   */\n      tag_555\n        /* \"#utility.yul\":13221:13225   */\n      dup2\n        /* \"#utility.yul\":13212:13218   */\n      dup5\n        /* \"#utility.yul\":13066:13226   */\n      tag_388\n      jump\t// in\n    tag_555:\n        /* \"#utility.yul\":13058:13226   */\n      swap1\n      pop\n        /* \"#utility.yul\":12756:13233   */\n      swap3\n      swap2\n      pop\n      pop\n      jump\t// out\n        /* \"#utility.yul\":13239:13792   */\n    tag_106:\n        /* \"#utility.yul\":13416:13420   */\n      0x00\n        /* \"#utility.yul\":13454:13457   */\n      0x80\n        /* \"#utility.yul\":13443:13452   */\n      dup3\n        /* \"#utility.yul\":13439:13458   */\n      add\n        /* \"#utility.yul\":13431:13458   */\n      swap1\n      pop\n        /* \"#utility.yul\":13468:13539   */\n      tag_557\n        /* \"#utility.yul\":13536:13537   */\n      0x00\n        /* \"#utility.yul\":13525:13534   */\n      dup4\n        /* \"#utility.yul\":13521:13538   */\n      add\n        /* \"#utility.yul\":13512:13518   */\n      dup8\n        /* \"#utility.yul\":13468:13539   */\n      tag_369\n      jump\t// in\n    tag_557:\n        /* \"#utility.yul\":13549:13621   */\n      tag_558\n        /* \"#utility.yul\":13617:13619   */\n      0x20\n        /* \"#utility.yul\":13606:13615   */\n      dup4\n        /* \"#utility.yul\":13602:13620   */\n      add\n        /* \"#utility.yul\":13593:13599   */\n      dup7\n        /* \"#utility.yul\":13549:13621   */\n      tag_369\n      jump\t// in\n    tag_558:\n        /* \"#utility.yul\":13631:13703   */\n      tag_559\n        /* \"#utility.yul\":13699:13701   */\n      0x40\n        /* \"#utility.yul\":13688:13697   */\n      dup4\n        /* \"#utility.yul\":13684:13702   */\n      add\n        /* \"#utility.yul\":13675:13681   */\n      dup6\n        /* \"#utility.yul\":13631:13703   */\n      tag_377\n      jump\t// in\n    tag_559:\n        /* \"#utility.yul\":13713:13785   */\n      tag_560\n        /* \"#utility.yul\":13781:13783   */\n      0x60\n        /* \"#utility.yul\":13770:13779   */\n      dup4\n        /* \"#utility.yul\":13766:13784   */\n      add\n        /* \"#utility.yul\":13757:13763   */\n      dup5\n        /* \"#utility.yul\":13713:13785   */\n      tag_377\n      jump\t// in\n    tag_560:\n        /* \"#utility.yul\":13239:13792   */\n      swap6\n      swap5\n      pop\n      pop\n      pop\n      pop\n      pop\n      jump\t// out\n        /* \"#utility.yul\":13798:14127   */\n    tag_119:\n        /* \"#utility.yul\":13857:13863   */\n      0x00\n        /* \"#utility.yul\":13906:13908   */\n      0x20\n        /* \"#utility.yul\":13894:13903   */\n      dup3\n        /* \"#utility.yul\":13885:13892   */\n      dup5\n        /* \"#utility.yul\":13881:13904   */\n      sub\n        /* \"#utility.yul\":13877:13909   */\n      slt\n        /* \"#utility.yul\":13874:13993   */\n      iszero\n      tag_562\n      jumpi\n        /* \"#utility.yul\":13912:13991   */\n      tag_563\n      tag_350\n      jump\t// in\n    tag_563:\n        /* \"#utility.yul\":13874:13993   */\n    tag_562:\n        /* \"#utility.yul\":14032:14033   */\n      0x00\n        /* \"#utility.yul\":14057:14110   */\n      tag_564\n        /* \"#utility.yul\":14102:14109   */\n      dup5\n        /* \"#utility.yul\":14093:14099   */\n      dup3\n        /* \"#utility.yul\":14082:14091   */\n      dup6\n        /* \"#utility.yul\":14078:14100   */\n      add\n        /* \"#utility.yul\":14057:14110   */\n      tag_358\n      jump\t// in\n    tag_564:\n        /* \"#utility.yul\":14047:14110   */\n      swap2\n      pop\n        /* \"#utility.yul\":14003:14120   */\n      pop\n        /* \"#utility.yul\":13798:14127   */\n      swap3\n      swap2\n      pop\n      pop\n      jump\t// out\n        /* \"#utility.yul\":14133:14302   */\n    tag_389:\n        /* \"#utility.yul\":14217:14228   */\n      0x00\n        /* \"#utility.yul\":14251:14257   */\n      dup3\n        /* \"#utility.yul\":14246:14249   */\n      dup3\n        /* \"#utility.yul\":14239:14258   */\n      mstore\n        /* \"#utility.yul\":14291:14295   */\n      0x20\n        /* \"#utility.yul\":14286:14289   */\n      dup3\n        /* \"#utility.yul\":14282:14296   */\n      add\n        /* \"#utility.yul\":14267:14296   */\n      swap1\n      pop\n        /* \"#utility.yul\":14133:14302   */\n      swap3\n      swap2\n      pop\n      pop\n      jump\t// out\n        /* \"#utility.yul\":14308:14532   */\n    tag_390:\n        /* \"#utility.yul\":14448:14482   */\n      0x4f6e6c7920746865206c697374696e67206f776e65722063616e2063616e6365\n        /* \"#utility.yul\":14444:14445   */\n      0x00\n        /* \"#utility.yul\":14436:14442   */\n      dup3\n        /* \"#utility.yul\":14432:14446   */\n      add\n        /* \"#utility.yul\":14425:14483   */\n      mstore\n        /* \"#utility.yul\":14517:14524   */\n      0x6c2069742e000000000000000000000000000000000000000000000000000000\n        /* \"#utility.yul\":14512:14514   */\n      0x20\n        /* \"#utility.yul\":14504:14510   */\n      dup3\n        /* \"#utility.yul\":14500:14515   */\n      add\n        /* \"#utility.yul\":14493:14525   */\n      mstore\n        /* \"#utility.yul\":14308:14532   */\n      pop\n      jump\t// out\n        /* \"#utility.yul\":14538:14904   */\n    tag_391:\n        /* \"#utility.yul\":14680:14683   */\n      0x00\n        /* \"#utility.yul\":14701:14768   */\n      tag_568\n        /* \"#utility.yul\":14765:14767   */\n      0x25\n        /* \"#utility.yul\":14760:14763   */\n      dup4\n        /* \"#utility.yul\":14701:14768   */\n      tag_389\n      jump\t// in\n    tag_568:\n        /* \"#utility.yul\":14694:14768   */\n      swap2\n      pop\n        /* \"#utility.yul\":14777:14870   */\n      tag_569\n        /* \"#utility.yul\":14866:14869   */\n      dup3\n        /* \"#utility.yul\":14777:14870   */\n      tag_390\n      jump\t// in\n    tag_569:\n        /* \"#utility.yul\":14895:14897   */\n      0x40\n        /* \"#utility.yul\":14890:14893   */\n      dup3\n        /* \"#utility.yul\":14886:14898   */\n      add\n        /* \"#utility.yul\":14879:14898   */\n      swap1\n      pop\n        /* \"#utility.yul\":14538:14904   */\n      swap2\n      swap1\n      pop\n      jump\t// out\n        /* \"#utility.yul\":14910:15329   */\n    tag_127:\n        /* \"#utility.yul\":15076:15080   */\n      0x00\n        /* \"#utility.yul\":15114:15116   */\n      0x20\n        /* \"#utility.yul\":15103:15112   */\n      dup3\n        /* \"#utility.yul\":15099:15117   */\n      add\n        /* \"#utility.yul\":15091:15117   */\n      swap1\n      pop\n        /* \"#utility.yul\":15163:15172   */\n      dup2\n        /* \"#utility.yul\":15157:15161   */\n      dup2\n        /* \"#utility.yul\":15153:15173   */\n      sub\n        /* \"#utility.yul\":15149:15150   */\n      0x00\n        /* \"#utility.yul\":15138:15147   */\n      dup4\n        /* \"#utility.yul\":15134:15151   */\n      add\n        /* \"#utility.yul\":15127:15174   */\n      mstore\n        /* \"#utility.yul\":15191:15322   */\n      tag_571\n        /* \"#utility.yul\":15317:15321   */\n      dup2\n        /* \"#utility.yul\":15191:15322   */\n      tag_391\n      jump\t// in\n    tag_571:\n        /* \"#utility.yul\":15183:15322   */\n      swap1\n      pop\n        /* \"#utility.yul\":14910:15329   */\n      swap2\n      swap1\n      pop\n      jump\t// out\n        /* \"#utility.yul\":15335:15517   */\n    tag_392:\n        /* \"#utility.yul\":15475:15509   */\n      0x5072696365206d7573742062652067726561746572207468616e207a65726f2e\n        /* \"#utility.yul\":15471:15472   */\n      0x00\n        /* \"#utility.yul\":15463:15469   */\n      dup3\n        /* \"#utility.yul\":15459:15473   */\n      add\n        /* \"#utility.yul\":15452:15510   */\n      mstore\n        /* \"#utility.yul\":15335:15517   */\n      pop\n      jump\t// out\n        /* \"#utility.yul\":15523:15889   */\n    tag_393:\n        /* \"#utility.yul\":15665:15668   */\n      0x00\n        /* \"#utility.yul\":15686:15753   */\n      tag_574\n        /* \"#utility.yul\":15750:15752   */\n      0x20\n        /* \"#utility.yul\":15745:15748   */\n      dup4\n        /* \"#utility.yul\":15686:15753   */\n      tag_389\n      jump\t// in\n    tag_574:\n        /* \"#utility.yul\":15679:15753   */\n      swap2\n      pop\n        /* \"#utility.yul\":15762:15855   */\n      tag_575\n        /* \"#utility.yul\":15851:15854   */\n      dup3\n        /* \"#utility.yul\":15762:15855   */\n      tag_392\n      jump\t// in\n    tag_575:\n        /* \"#utility.yul\":15880:15882   */\n      0x20\n        /* \"#utility.yul\":15875:15878   */\n      dup3\n        /* \"#utility.yul\":15871:15883   */\n      add\n        /* \"#utility.yul\":15864:15883   */\n      swap1\n      pop\n        /* \"#utility.yul\":15523:15889   */\n      swap2\n      swap1\n      pop\n      jump\t// out\n        /* \"#utility.yul\":15895:16314   */\n    tag_149:\n        /* \"#utility.yul\":16061:16065   */\n      0x00\n        /* \"#utility.yul\":16099:16101   */\n      0x20\n        /* \"#utility.yul\":16088:16097   */\n      dup3\n        /* \"#utility.yul\":16084:16102   */\n      add\n        /* \"#utility.yul\":16076:16102   */\n      swap1\n      pop\n        /* \"#utility.yul\":16148:16157   */\n      dup2\n        /* \"#utility.yul\":16142:16146   */\n      dup2\n        /* \"#utility.yul\":16138:16158   */\n      sub\n        /* \"#utility.yul\":16134:16135   */\n      0x00\n        /* \"#utility.yul\":16123:16132   */\n      dup4\n        /* \"#utility.yul\":16119:16136   */\n      add\n        /* \"#utility.yul\":16112:16159   */\n      mstore\n        /* \"#utility.yul\":16176:16307   */\n      tag_577\n        /* \"#utility.yul\":16302:16306   */\n      dup2\n        /* \"#utility.yul\":16176:16307   */\n      tag_393\n      jump\t// in\n    tag_577:\n        /* \"#utility.yul\":16168:16307   */\n      swap1\n      pop\n        /* \"#utility.yul\":15895:16314   */\n      swap2\n      swap1\n      pop\n      jump\t// out\n        /* \"#utility.yul\":16320:16542   */\n    tag_394:\n        /* \"#utility.yul\":16460:16494   */\n      0x446561646c696e65206d7573742062652067726561746572207468616e207a65\n        /* \"#utility.yul\":16456:16457   */\n      0x00\n        /* \"#utility.yul\":16448:16454   */\n      dup3\n        /* \"#utility.yul\":16444:16458   */\n      add\n        /* \"#utility.yul\":16437:16495   */\n      mstore\n        /* \"#utility.yul\":16529:16534   */\n      0x726f2e0000000000000000000000000000000000000000000000000000000000\n        /* \"#utility.yul\":16524:16526   */\n      0x20\n        /* \"#utility.yul\":16516:16522   */\n      dup3\n        /* \"#utility.yul\":16512:16527   */\n      add\n        /* \"#utility.yul\":16505:16535   */\n      mstore\n        /* \"#utility.yul\":16320:16542   */\n      pop\n      jump\t// out\n        /* \"#utility.yul\":16548:16914   */\n    tag_395:\n        /* \"#utility.yul\":16690:16693   */\n      0x00\n        /* \"#utility.yul\":16711:16778   */\n      tag_580\n        /* \"#utility.yul\":16775:16777   */\n      0x23\n        /* \"#utility.yul\":16770:16773   */\n      dup4\n        /* \"#utility.yul\":16711:16778   */\n      tag_389\n      jump\t// in\n    tag_580:\n        /* \"#utility.yul\":16704:16778   */\n      swap2\n      pop\n        /* \"#utility.yul\":16787:16880   */\n      tag_581\n        /* \"#utility.yul\":16876:16879   */\n      dup3\n        /* \"#utility.yul\":16787:16880   */\n      tag_394\n      jump\t// in\n    tag_581:\n        /* \"#utility.yul\":16905:16907   */\n      0x40\n        /* \"#utility.yul\":16900:16903   */\n      dup3\n        /* \"#utility.yul\":16896:16908   */\n      add\n        /* \"#utility.yul\":16889:16908   */\n      swap1\n      pop\n        /* \"#utility.yul\":16548:16914   */\n      swap2\n      swap1\n      pop\n      jump\t// out\n        /* \"#utility.yul\":16920:17339   */\n    tag_152:\n        /* \"#utility.yul\":17086:17090   */\n      0x00\n        /* \"#utility.yul\":17124:17126   */\n      0x20\n        /* \"#utility.yul\":17113:17122   */\n      dup3\n        /* \"#utility.yul\":17109:17127   */\n      add\n        /* \"#utility.yul\":17101:17127   */\n      swap1\n      pop\n        /* \"#utility.yul\":17173:17182   */\n      dup2\n        /* \"#utility.yul\":17167:17171   */\n      dup2\n        /* \"#utility.yul\":17163:17183   */\n      sub\n        /* \"#utility.yul\":17159:17160   */\n      0x00\n        /* \"#utility.yul\":17148:17157   */\n      dup4\n        /* \"#utility.yul\":17144:17161   */\n      add\n        /* \"#utility.yul\":17137:17184   */\n      mstore\n        /* \"#utility.yul\":17201:17332   */\n      tag_583\n        /* \"#utility.yul\":17327:17331   */\n      dup2\n        /* \"#utility.yul\":17201:17332   */\n      tag_395\n      jump\t// in\n    tag_583:\n        /* \"#utility.yul\":17193:17332   */\n      swap1\n      pop\n        /* \"#utility.yul\":16920:17339   */\n      swap2\n      swap1\n      pop\n      jump\t// out\n        /* \"#utility.yul\":17345:17522   */\n    tag_396:\n        /* \"#utility.yul\":17485:17514   */\n      0x4d757374206c697374206174206c65617374206f6e65204e46542e0000000000\n        /* \"#utility.yul\":17481:17482   */\n      0x00\n        /* \"#utility.yul\":17473:17479   */\n      dup3\n        /* \"#utility.yul\":17469:17483   */\n      add\n        /* \"#utility.yul\":17462:17515   */\n      mstore\n        /* \"#utility.yul\":17345:17522   */\n      pop\n      jump\t// out\n        /* \"#utility.yul\":17528:17894   */\n    tag_397:\n        /* \"#utility.yul\":17670:17673   */\n      0x00\n        /* \"#utility.yul\":17691:17758   */\n      tag_586\n        /* \"#utility.yul\":17755:17757   */\n      0x1b\n        /* \"#utility.yul\":17750:17753   */\n      dup4\n        /* \"#utility.yul\":17691:17758   */\n      tag_389\n      jump\t// in\n    tag_586:\n        /* \"#utility.yul\":17684:17758   */\n      swap2\n      pop\n        /* \"#utility.yul\":17767:17860   */\n      tag_587\n        /* \"#utility.yul\":17856:17859   */\n      dup3\n        /* \"#utility.yul\":17767:17860   */\n      tag_396\n      jump\t// in\n    tag_587:\n        /* \"#utility.yul\":17885:17887   */\n      0x20\n        /* \"#utility.yul\":17880:17883   */\n      dup3\n        /* \"#utility.yul\":17876:17888   */\n      add\n        /* \"#utility.yul\":17869:17888   */\n      swap1\n      pop\n        /* \"#utility.yul\":17528:17894   */\n      swap2\n      swap1\n      pop\n      jump\t// out\n        /* \"#utility.yul\":17900:18319   */\n    tag_155:\n        /* \"#utility.yul\":18066:18070   */\n      0x00\n        /* \"#utility.yul\":18104:18106   */\n      0x20\n        /* \"#utility.yul\":18093:18102   */\n      dup3\n        /* \"#utility.yul\":18089:18107   */\n      add\n        /* \"#utility.yul\":18081:18107   */\n      swap1\n      pop\n        /* \"#utility.yul\":18153:18162   */\n      dup2\n        /* \"#utility.yul\":18147:18151   */\n      dup2\n        /* \"#utility.yul\":18143:18163   */\n      sub\n        /* \"#utility.yul\":18139:18140   */\n      0x00\n        /* \"#utility.yul\":18128:18137   */\n      dup4\n        /* \"#utility.yul\":18124:18141   */\n      add\n        /* \"#utility.yul\":18117:18164   */\n      mstore\n        /* \"#utility.yul\":18181:18312   */\n      tag_589\n        /* \"#utility.yul\":18307:18311   */\n      dup2\n        /* \"#utility.yul\":18181:18312   */\n      tag_397\n      jump\t// in\n    tag_589:\n        /* \"#utility.yul\":18173:18312   */\n      swap1\n      pop\n        /* \"#utility.yul\":17900:18319   */\n      swap2\n      swap1\n      pop\n      jump\t// out\n        /* \"#utility.yul\":18325:18505   */\n    tag_161:\n        /* \"#utility.yul\":18373:18450   */\n      0x4e487b7100000000000000000000000000000000000000000000000000000000\n        /* \"#utility.yul\":18370:18371   */\n      0x00\n        /* \"#utility.yul\":18363:18451   */\n      mstore\n        /* \"#utility.yul\":18470:18474   */\n      0x32\n        /* \"#utility.yul\":18467:18468   */\n      0x04\n        /* \"#utility.yul\":18460:18475   */\n      mstore\n        /* \"#utility.yul\":18494:18498   */\n      0x24\n        /* \"#utility.yul\":18491:18492   */\n      0x00\n        /* \"#utility.yul\":18484:18499   */\n      revert\n        /* \"#utility.yul\":18511:18654   */\n    tag_398:\n        /* \"#utility.yul\":18568:18573   */\n      0x00\n        /* \"#utility.yul\":18599:18605   */\n      dup2\n        /* \"#utility.yul\":18593:18606   */\n      mload\n        /* \"#utility.yul\":18584:18606   */\n      swap1\n      pop\n        /* \"#utility.yul\":18615:18648   */\n      tag_592\n        /* \"#utility.yul\":18642:18647   */\n      dup2\n        /* \"#utility.yul\":18615:18648   */\n      tag_357\n      jump\t// in\n    tag_592:\n        /* \"#utility.yul\":18511:18654   */\n      swap3\n      swap2\n      pop\n      pop\n      jump\t// out\n        /* \"#utility.yul\":18660:19011   */\n    tag_166:\n        /* \"#utility.yul\":18730:18736   */\n      0x00\n        /* \"#utility.yul\":18779:18781   */\n      0x20\n        /* \"#utility.yul\":18767:18776   */\n      dup3\n        /* \"#utility.yul\":18758:18765   */\n      dup5\n        /* \"#utility.yul\":18754:18777   */\n      sub\n        /* \"#utility.yul\":18750:18782   */\n      slt\n        /* \"#utility.yul\":18747:18866   */\n      iszero\n      tag_594\n      jumpi\n        /* \"#utility.yul\":18785:18864   */\n      tag_595\n      tag_350\n      jump\t// in\n    tag_595:\n        /* \"#utility.yul\":18747:18866   */\n    tag_594:\n        /* \"#utility.yul\":18905:18906   */\n      0x00\n        /* \"#utility.yul\":18930:18994   */\n      tag_596\n        /* \"#utility.yul\":18986:18993   */\n      dup5\n        /* \"#utility.yul\":18977:18983   */\n      dup3\n        /* \"#utility.yul\":18966:18975   */\n      dup6\n        /* \"#utility.yul\":18962:18984   */\n      add\n        /* \"#utility.yul\":18930:18994   */\n      tag_398\n      jump\t// in\n    tag_596:\n        /* \"#utility.yul\":18920:18994   */\n      swap2\n      pop\n        /* \"#utility.yul\":18876:19004   */\n      pop\n        /* \"#utility.yul\":18660:19011   */\n      swap3\n      swap2\n      pop\n      pop\n      jump\t// out\n        /* \"#utility.yul\":19017:19199   */\n    tag_399:\n        /* \"#utility.yul\":19157:19191   */\n      0x596f75206d757374206f776e20746865204e465420746f206c6973742069742e\n        /* \"#utility.yul\":19153:19154   */\n      0x00\n        /* \"#utility.yul\":19145:19151   */\n      dup3\n        /* \"#utility.yul\":19141:19155   */\n      add\n        /* \"#utility.yul\":19134:19192   */\n      mstore\n        /* \"#utility.yul\":19017:19199   */\n      pop\n      jump\t// out\n        /* \"#utility.yul\":19205:19571   */\n    tag_400:\n        /* \"#utility.yul\":19347:19350   */\n      0x00\n        /* \"#utility.yul\":19368:19435   */\n      tag_599\n        /* \"#utility.yul\":19432:19434   */\n      0x20\n        /* \"#utility.yul\":19427:19430   */\n      dup4\n        /* \"#utility.yul\":19368:19435   */\n      tag_389\n      jump\t// in\n    tag_599:\n        /* \"#utility.yul\":19361:19435   */\n      swap2\n      pop\n        /* \"#utility.yul\":19444:19537   */\n      tag_600\n        /* \"#utility.yul\":19533:19536   */\n      dup3\n        /* \"#utility.yul\":19444:19537   */\n      tag_399\n      jump\t// in\n    tag_600:\n        /* \"#utility.yul\":19562:19564   */\n      0x20\n        /* \"#utility.yul\":19557:19560   */\n      dup3\n        /* \"#utility.yul\":19553:19565   */\n      add\n        /* \"#utility.yul\":19546:19565   */\n      swap1\n      pop\n        /* \"#utility.yul\":19205:19571   */\n      swap2\n      swap1\n      pop\n      jump\t// out\n        /* \"#utility.yul\":19577:19996   */\n    tag_169:\n        /* \"#utility.yul\":19743:19747   */\n      0x00\n        /* \"#utility.yul\":19781:19783   */\n      0x20\n        /* \"#utility.yul\":19770:19779   */\n      dup3\n        /* \"#utility.yul\":19766:19784   */\n      add\n        /* \"#utility.yul\":19758:19784   */\n      swap1\n      pop\n        /* \"#utility.yul\":19830:19839   */\n      dup2\n        /* \"#utility.yul\":19824:19828   */\n      dup2\n        /* \"#utility.yul\":19820:19840   */\n      sub\n        /* \"#utility.yul\":19816:19817   */\n      0x00\n        /* \"#utility.yul\":19805:19814   */\n      dup4\n        /* \"#utility.yul\":19801:19818   */\n      add\n        /* \"#utility.yul\":19794:19841   */\n      mstore\n        /* \"#utility.yul\":19858:19989   */\n      tag_602\n        /* \"#utility.yul\":19984:19988   */\n      dup2\n        /* \"#utility.yul\":19858:19989   */\n      tag_400\n      jump\t// in\n    tag_602:\n        /* \"#utility.yul\":19850:19989   */\n      swap1\n      pop\n        /* \"#utility.yul\":19577:19996   */\n      swap2\n      swap1\n      pop\n      jump\t// out\n        /* \"#utility.yul\":20002:20182   */\n    tag_401:\n        /* \"#utility.yul\":20050:20127   */\n      0x4e487b7100000000000000000000000000000000000000000000000000000000\n        /* \"#utility.yul\":20047:20048   */\n      0x00\n        /* \"#utility.yul\":20040:20128   */\n      mstore\n        /* \"#utility.yul\":20147:20151   */\n      0x11\n        /* \"#utility.yul\":20144:20145   */\n      0x04\n        /* \"#utility.yul\":20137:20152   */\n      mstore\n        /* \"#utility.yul\":20171:20175   */\n      0x24\n        /* \"#utility.yul\":20168:20169   */\n      0x00\n        /* \"#utility.yul\":20161:20176   */\n      revert\n        /* \"#utility.yul\":20188:20421   */\n    tag_171:\n        /* \"#utility.yul\":20227:20230   */\n      0x00\n        /* \"#utility.yul\":20250:20274   */\n      tag_605\n        /* \"#utility.yul\":20268:20273   */\n      dup3\n        /* \"#utility.yul\":20250:20274   */\n      tag_352\n      jump\t// in\n    tag_605:\n        /* \"#utility.yul\":20241:20274   */\n      swap2\n      pop\n        /* \"#utility.yul\":20296:20362   */\n      0xffffffffffffffffffffffffffffffffffffffffffffffffffffffffffffffff\n        /* \"#utility.yul\":20289:20294   */\n      dup3\n        /* \"#utility.yul\":20286:20363   */\n      sub\n        /* \"#utility.yul\":20283:20386   */\n      tag_606\n      jumpi\n        /* \"#utility.yul\":20366:20384   */\n      tag_607\n      tag_401\n      jump\t// in\n    tag_607:\n        /* \"#utility.yul\":20283:20386   */\n    tag_606:\n        /* \"#utility.yul\":20413:20414   */\n      0x01\n        /* \"#utility.yul\":20406:20411   */\n      dup3\n        /* \"#utility.yul\":20402:20415   */\n      add\n        /* \"#utility.yul\":20395:20415   */\n      swap1\n      pop\n        /* \"#utility.yul\":20188:20421   */\n      swap2\n      swap1\n      pop\n      jump\t// out\n        /* \"#utility.yul\":20427:20618   */\n    tag_173:\n        /* \"#utility.yul\":20467:20470   */\n      0x00\n        /* \"#utility.yul\":20486:20506   */\n      tag_609\n        /* \"#utility.yul\":20504:20505   */\n      dup3\n        /* \"#utility.yul\":20486:20506   */\n      tag_352\n      jump\t// in\n    tag_609:\n        /* \"#utility.yul\":20481:20506   */\n      swap2\n      pop\n        /* \"#utility.yul\":20520:20540   */\n      tag_610\n        /* \"#utility.yul\":20538:20539   */\n      dup4\n        /* \"#utility.yul\":20520:20540   */\n      tag_352\n      jump\t// in\n    tag_610:\n        /* \"#utility.yul\":20515:20540   */\n      swap3\n      pop\n        /* \"#utility.yul\":20563:20564   */\n      dup3\n        /* \"#utility.yul\":20560:20561   */\n      dup3\n        /* \"#utility.yul\":20556:20565   */\n      add\n        /* \"#utility.yul\":20549:20565   */\n      swap1\n      pop\n        /* \"#utility.yul\":20584:20587   */\n      dup1\n        /* \"#utility.yul\":20581:20582   */\n      dup3\n        /* \"#utility.yul\":20578:20588   */\n      gt\n        /* \"#utility.yul\":20575:20611   */\n      iszero\n      tag_611\n      jumpi\n        /* \"#utility.yul\":20591:20609   */\n      tag_612\n      tag_401\n      jump\t// in\n    tag_612:\n        /* \"#utility.yul\":20575:20611   */\n    tag_611:\n        /* \"#utility.yul\":20427:20618   */\n      swap3\n      swap2\n      pop\n      pop\n      jump\t// out\n        /* \"#utility.yul\":20624:21217   */\n    tag_179:\n        /* \"#utility.yul\":20823:20827   */\n      0x00\n        /* \"#utility.yul\":20861:20863   */\n      0x60\n        /* \"#utility.yul\":20850:20859   */\n      dup3\n        /* \"#utility.yul\":20846:20864   */\n      add\n        /* \"#utility.yul\":20838:20864   */\n      swap1\n      pop\n        /* \"#utility.yul\":20910:20919   */\n      dup2\n        /* \"#utility.yul\":20904:20908   */\n      dup2\n        /* \"#utility.yul\":20900:20920   */\n      sub\n        /* \"#utility.yul\":20896:20897   */\n      0x00\n        /* \"#utility.yul\":20885:20894   */\n      dup4\n        /* \"#utility.yul\":20881:20898   */\n      add\n        /* \"#utility.yul\":20874:20921   */\n      mstore\n        /* \"#utility.yul\":20938:21046   */\n      tag_614\n        /* \"#utility.yul\":21041:21045   */\n      dup2\n        /* \"#utility.yul\":21032:21038   */\n      dup7\n        /* \"#utility.yul\":20938:21046   */\n      tag_376\n      jump\t// in\n    tag_614:\n        /* \"#utility.yul\":20930:21046   */\n      swap1\n      pop\n        /* \"#utility.yul\":21056:21128   */\n      tag_615\n        /* \"#utility.yul\":21124:21126   */\n      0x20\n        /* \"#utility.yul\":21113:21122   */\n      dup4\n        /* \"#utility.yul\":21109:21127   */\n      add\n        /* \"#utility.yul\":21100:21106   */\n      dup6\n        /* \"#utility.yul\":21056:21128   */\n      tag_377\n      jump\t// in\n    tag_615:\n        /* \"#utility.yul\":21138:21210   */\n      tag_616\n        /* \"#utility.yul\":21206:21208   */\n      0x40\n        /* \"#utility.yul\":21195:21204   */\n      dup4\n        /* \"#utility.yul\":21191:21209   */\n      add\n        /* \"#utility.yul\":21182:21188   */\n      dup5\n        /* \"#utility.yul\":21138:21210   */\n      tag_377\n      jump\t// in\n    tag_616:\n        /* \"#utility.yul\":20624:21217   */\n      swap5\n      swap4\n      pop\n      pop\n      pop\n      pop\n      jump\t// out\n        /* \"#utility.yul\":21223:21447   */\n    tag_402:\n        /* \"#utility.yul\":21363:21397   */\n      0x53656e742076616c7565206d7573742062652067726561746572207468616e20\n        /* \"#utility.yul\":21359:21360   */\n      0x00\n        /* \"#utility.yul\":21351:21357   */\n      dup3\n        /* \"#utility.yul\":21347:21361   */\n      add\n        /* \"#utility.yul\":21340:21398   */\n      mstore\n        /* \"#utility.yul\":21432:21439   */\n      0x7a65726f2e000000000000000000000000000000000000000000000000000000\n        /* \"#utility.yul\":21427:21429   */\n      0x20\n        /* \"#utility.yul\":21419:21425   */\n      dup3\n        /* \"#utility.yul\":21415:21430   */\n      add\n        /* \"#utility.yul\":21408:21440   */\n      mstore\n        /* \"#utility.yul\":21223:21447   */\n      pop\n      jump\t// out\n        /* \"#utility.yul\":21453:21819   */\n    tag_403:\n        /* \"#utility.yul\":21595:21598   */\n      0x00\n        /* \"#utility.yul\":21616:21683   */\n      tag_619\n        /* \"#utility.yul\":21680:21682   */\n      0x25\n        /* \"#utility.yul\":21675:21678   */\n      dup4\n        /* \"#utility.yul\":21616:21683   */\n      tag_389\n      jump\t// in\n    tag_619:\n        /* \"#utility.yul\":21609:21683   */\n      swap2\n      pop\n        /* \"#utility.yul\":21692:21785   */\n      tag_620\n        /* \"#utility.yul\":21781:21784   */\n      dup3\n        /* \"#utility.yul\":21692:21785   */\n      tag_402\n      jump\t// in\n    tag_620:\n        /* \"#utility.yul\":21810:21812   */\n      0x40\n        /* \"#utility.yul\":21805:21808   */\n      dup3\n        /* \"#utility.yul\":21801:21813   */\n      add\n        /* \"#utility.yul\":21794:21813   */\n      swap1\n      pop\n        /* \"#utility.yul\":21453:21819   */\n      swap2\n      swap1\n      pop\n      jump\t// out\n        /* \"#utility.yul\":21825:22244   */\n    tag_189:\n        /* \"#utility.yul\":21991:21995   */\n      0x00\n        /* \"#utility.yul\":22029:22031   */\n      0x20\n        /* \"#utility.yul\":22018:22027   */\n      dup3\n        /* \"#utility.yul\":22014:22032   */\n      add\n        /* \"#utility.yul\":22006:22032   */\n      swap1\n      pop\n        /* \"#utility.yul\":22078:22087   */\n      dup2\n        /* \"#utility.yul\":22072:22076   */\n      dup2\n        /* \"#utility.yul\":22068:22088   */\n      sub\n        /* \"#utility.yul\":22064:22065   */\n      0x00\n        /* \"#utility.yul\":22053:22062   */\n      dup4\n        /* \"#utility.yul\":22049:22066   */\n      add\n        /* \"#utility.yul\":22042:22089   */\n      mstore\n        /* \"#utility.yul\":22106:22237   */\n      tag_622\n        /* \"#utility.yul\":22232:22236   */\n      dup2\n        /* \"#utility.yul\":22106:22237   */\n      tag_403\n      jump\t// in\n    tag_622:\n        /* \"#utility.yul\":22098:22237   */\n      swap1\n      pop\n        /* \"#utility.yul\":21825:22244   */\n      swap2\n      swap1\n      pop\n      jump\t// out\n        /* \"#utility.yul\":22250:22423   */\n    tag_404:\n        /* \"#utility.yul\":22390:22415   */\n      0x4c697374696e6720646f6573206e6f742065786973742e000000000000000000\n        /* \"#utility.yul\":22386:22387   */\n      0x00\n        /* \"#utility.yul\":22378:22384   */\n      dup3\n        /* \"#utility.yul\":22374:22388   */\n      add\n        /* \"#utility.yul\":22367:22416   */\n      mstore\n        /* \"#utility.yul\":22250:22423   */\n      pop\n      jump\t// out\n        /* \"#utility.yul\":22429:22795   */\n    tag_405:\n        /* \"#utility.yul\":22571:22574   */\n      0x00\n        /* \"#utility.yul\":22592:22659   */\n      tag_625\n        /* \"#utility.yul\":22656:22658   */\n      0x17\n        /* \"#utility.yul\":22651:22654   */\n      dup4\n        /* \"#utility.yul\":22592:22659   */\n      tag_389\n      jump\t// in\n    tag_625:\n        /* \"#utility.yul\":22585:22659   */\n      swap2\n      pop\n        /* \"#utility.yul\":22668:22761   */\n      tag_626\n        /* \"#utility.yul\":22757:22760   */\n      dup3\n        /* \"#utility.yul\":22668:22761   */\n      tag_404\n      jump\t// in\n    tag_626:\n        /* \"#utility.yul\":22786:22788   */\n      0x20\n        /* \"#utility.yul\":22781:22784   */\n      dup3\n        /* \"#utility.yul\":22777:22789   */\n      add\n        /* \"#utility.yul\":22770:22789   */\n      swap1\n      pop\n        /* \"#utility.yul\":22429:22795   */\n      swap2\n      swap1\n      pop\n      jump\t// out\n        /* \"#utility.yul\":22801:23220   */\n    tag_192:\n        /* \"#utility.yul\":22967:22971   */\n      0x00\n        /* \"#utility.yul\":23005:23007   */\n      0x20\n        /* \"#utility.yul\":22994:23003   */\n      dup3\n        /* \"#utility.yul\":22990:23008   */\n      add\n        /* \"#utility.yul\":22982:23008   */\n      swap1\n      pop\n        /* \"#utility.yul\":23054:23063   */\n      dup2\n        /* \"#utility.yul\":23048:23052   */\n      dup2\n        /* \"#utility.yul\":23044:23064   */\n      sub\n        /* \"#utility.yul\":23040:23041   */\n      0x00\n        /* \"#utility.yul\":23029:23038   */\n      dup4\n        /* \"#utility.yul\":23025:23042   */\n      add\n        /* \"#utility.yul\":23018:23065   */\n      mstore\n        /* \"#utility.yul\":23082:23213   */\n      tag_628\n        /* \"#utility.yul\":23208:23212   */\n      dup2\n        /* \"#utility.yul\":23082:23213   */\n      tag_405\n      jump\t// in\n    tag_628:\n        /* \"#utility.yul\":23074:23213   */\n      swap1\n      pop\n        /* \"#utility.yul\":22801:23220   */\n      swap2\n      swap1\n      pop\n      jump\t// out\n        /* \"#utility.yul\":23226:23401   */\n    tag_406:\n        /* \"#utility.yul\":23366:23393   */\n      0x54686973206c697374696e672068617320657870697265642e00000000000000\n        /* \"#utility.yul\":23362:23363   */\n      0x00\n        /* \"#utility.yul\":23354:23360   */\n      dup3\n        /* \"#utility.yul\":23350:23364   */\n      add\n        /* \"#utility.yul\":23343:23394   */\n      mstore\n        /* \"#utility.yul\":23226:23401   */\n      pop\n      jump\t// out\n        /* \"#utility.yul\":23407:23773   */\n    tag_407:\n        /* \"#utility.yul\":23549:23552   */\n      0x00\n        /* \"#utility.yul\":23570:23637   */\n      tag_631\n        /* \"#utility.yul\":23634:23636   */\n      0x19\n        /* \"#utility.yul\":23629:23632   */\n      dup4\n        /* \"#utility.yul\":23570:23637   */\n      tag_389\n      jump\t// in\n    tag_631:\n        /* \"#utility.yul\":23563:23637   */\n      swap2\n      pop\n        /* \"#utility.yul\":23646:23739   */\n      tag_632\n        /* \"#utility.yul\":23735:23738   */\n      dup3\n        /* \"#utility.yul\":23646:23739   */\n      tag_406\n      jump\t// in\n    tag_632:\n        /* \"#utility.yul\":23764:23766   */\n      0x20\n        /* \"#utility.yul\":23759:23762   */\n      dup3\n        /* \"#utility.yul\":23755:23767   */\n      add\n        /* \"#utility.yul\":23748:23767   */\n      swap1\n      pop\n        /* \"#utility.yul\":23407:23773   */\n      swap2\n      swap1\n      pop\n      jump\t// out\n        /* \"#utility.yul\":23779:24198   */\n    tag_195:\n        /* \"#utility.yul\":23945:23949   */\n      0x00\n        /* \"#utility.yul\":23983:23985   */\n      0x20\n        /* \"#utility.yul\":23972:23981   */\n      dup3\n        /* \"#utility.yul\":23968:23986   */\n      add\n        /* \"#utility.yul\":23960:23986   */\n      swap1\n      pop\n        /* \"#utility.yul\":24032:24041   */\n      dup2\n        /* \"#utility.yul\":24026:24030   */\n      dup2\n        /* \"#utility.yul\":24022:24042   */\n      sub\n        /* \"#utility.yul\":24018:24019   */\n      0x00\n        /* \"#utility.yul\":24007:24016   */\n      dup4\n        /* \"#utility.yul\":24003:24020   */\n      add\n        /* \"#utility.yul\":23996:24043   */\n      mstore\n        /* \"#utility.yul\":24060:24191   */\n      tag_634\n        /* \"#utility.yul\":24186:24190   */\n      dup2\n        /* \"#utility.yul\":24060:24191   */\n      tag_407\n      jump\t// in\n    tag_634:\n        /* \"#utility.yul\":24052:24191   */\n      swap1\n      pop\n        /* \"#utility.yul\":23779:24198   */\n      swap2\n      swap1\n      pop\n      jump\t// out\n        /* \"#utility.yul\":24204:24437   */\n    tag_408:\n        /* \"#utility.yul\":24344:24378   */\n      0x53656e742076616c7565206d75737420626520657175616c20746f2074686520\n        /* \"#utility.yul\":24340:24341   */\n      0x00\n        /* \"#utility.yul\":24332:24338   */\n      dup3\n        /* \"#utility.yul\":24328:24342   */\n      add\n        /* \"#utility.yul\":24321:24379   */\n      mstore\n        /* \"#utility.yul\":24413:24429   */\n      0x6c697374696e672070726963652e000000000000000000000000000000000000\n        /* \"#utility.yul\":24408:24410   */\n      0x20\n        /* \"#utility.yul\":24400:24406   */\n      dup3\n        /* \"#utility.yul\":24396:24411   */\n      add\n        /* \"#utility.yul\":24389:24430   */\n      mstore\n        /* \"#utility.yul\":24204:24437   */\n      pop\n      jump\t// out\n        /* \"#utility.yul\":24443:24809   */\n    tag_409:\n        /* \"#utility.yul\":24585:24588   */\n      0x00\n        /* \"#utility.yul\":24606:24673   */\n      tag_637\n        /* \"#utility.yul\":24670:24672   */\n      0x2e\n        /* \"#utility.yul\":24665:24668   */\n      dup4\n        /* \"#utility.yul\":24606:24673   */\n      tag_389\n      jump\t// in\n    tag_637:\n        /* \"#utility.yul\":24599:24673   */\n      swap2\n      pop\n        /* \"#utility.yul\":24682:24775   */\n      tag_638\n        /* \"#utility.yul\":24771:24774   */\n      dup3\n        /* \"#utility.yul\":24682:24775   */\n      tag_408\n      jump\t// in\n    tag_638:\n        /* \"#utility.yul\":24800:24802   */\n      0x40\n        /* \"#utility.yul\":24795:24798   */\n      dup3\n        /* \"#utility.yul\":24791:24803   */\n      add\n        /* \"#utility.yul\":24784:24803   */\n      swap1\n      pop\n        /* \"#utility.yul\":24443:24809   */\n      swap2\n      swap1\n      pop\n      jump\t// out\n        /* \"#utility.yul\":24815:25234   */\n    tag_198:\n        /* \"#utility.yul\":24981:24985   */\n      0x00\n        /* \"#utility.yul\":25019:25021   */\n      0x20\n        /* \"#utility.yul\":25008:25017   */\n      dup3\n        /* \"#utility.yul\":25004:25022   */\n      add\n        /* \"#utility.yul\":24996:25022   */\n      swap1\n      pop\n        /* \"#utility.yul\":25068:25077   */\n      dup2\n        /* \"#utility.yul\":25062:25066   */\n      dup2\n        /* \"#utility.yul\":25058:25078   */\n      sub\n        /* \"#utility.yul\":25054:25055   */\n      0x00\n        /* \"#utility.yul\":25043:25052   */\n      dup4\n        /* \"#utility.yul\":25039:25056   */\n      add\n        /* \"#utility.yul\":25032:25079   */\n      mstore\n        /* \"#utility.yul\":25096:25227   */\n      tag_640\n        /* \"#utility.yul\":25222:25226   */\n      dup2\n        /* \"#utility.yul\":25096:25227   */\n      tag_409\n      jump\t// in\n    tag_640:\n        /* \"#utility.yul\":25088:25227   */\n      swap1\n      pop\n        /* \"#utility.yul\":24815:25234   */\n      swap2\n      swap1\n      pop\n      jump\t// out\n        /* \"#utility.yul\":25240:25650   */\n    tag_200:\n        /* \"#utility.yul\":25280:25287   */\n      0x00\n        /* \"#utility.yul\":25303:25323   */\n      tag_642\n        /* \"#utility.yul\":25321:25322   */\n      dup3\n        /* \"#utility.yul\":25303:25323   */\n      tag_352\n      jump\t// in\n    tag_642:\n        /* \"#utility.yul\":25298:25323   */\n      swap2\n      pop\n        /* \"#utility.yul\":25337:25357   */\n      tag_643\n        /* \"#utility.yul\":25355:25356   */\n      dup4\n        /* \"#utility.yul\":25337:25357   */\n      tag_352\n      jump\t// in\n    tag_643:\n        /* \"#utility.yul\":25332:25357   */\n      swap3\n      pop\n        /* \"#utility.yul\":25392:25393   */\n      dup3\n        /* \"#utility.yul\":25389:25390   */\n      dup3\n        /* \"#utility.yul\":25385:25394   */\n      mul\n        /* \"#utility.yul\":25414:25444   */\n      tag_644\n        /* \"#utility.yul\":25432:25443   */\n      dup2\n        /* \"#utility.yul\":25414:25444   */\n      tag_352\n      jump\t// in\n    tag_644:\n        /* \"#utility.yul\":25403:25444   */\n      swap2\n      pop\n        /* \"#utility.yul\":25593:25594   */\n      dup3\n        /* \"#utility.yul\":25584:25591   */\n      dup3\n        /* \"#utility.yul\":25580:25595   */\n      div\n        /* \"#utility.yul\":25577:25578   */\n      dup5\n        /* \"#utility.yul\":25574:25596   */\n      eq\n        /* \"#utility.yul\":25554:25555   */\n      dup4\n        /* \"#utility.yul\":25547:25556   */\n      iszero\n        /* \"#utility.yul\":25527:25610   */\n      or\n        /* \"#utility.yul\":25504:25643   */\n      tag_645\n      jumpi\n        /* \"#utility.yul\":25623:25641   */\n      tag_646\n      tag_401\n      jump\t// in\n    tag_646:\n        /* \"#utility.yul\":25504:25643   */\n    tag_645:\n        /* \"#utility.yul\":25288:25650   */\n      pop\n        /* \"#utility.yul\":25240:25650   */\n      swap3\n      swap2\n      pop\n      pop\n      jump\t// out\n        /* \"#utility.yul\":25656:25836   */\n    tag_410:\n        /* \"#utility.yul\":25704:25781   */\n      0x4e487b7100000000000000000000000000000000000000000000000000000000\n        /* \"#utility.yul\":25701:25702   */\n      0x00\n        /* \"#utility.yul\":25694:25782   */\n      mstore\n        /* \"#utility.yul\":25801:25805   */\n      0x12\n        /* \"#utility.yul\":25798:25799   */\n      0x04\n        /* \"#utility.yul\":25791:25806   */\n      mstore\n        /* \"#utility.yul\":25825:25829   */\n      0x24\n        /* \"#utility.yul\":25822:25823   */\n      0x00\n        /* \"#utility.yul\":25815:25830   */\n      revert\n        /* \"#utility.yul\":25842:26027   */\n    tag_202:\n        /* \"#utility.yul\":25882:25883   */\n      0x00\n        /* \"#utility.yul\":25899:25919   */\n      tag_649\n        /* \"#utility.yul\":25917:25918   */\n      dup3\n        /* \"#utility.yul\":25899:25919   */\n      tag_352\n      jump\t// in\n    tag_649:\n        /* \"#utility.yul\":25894:25919   */\n      swap2\n      pop\n        /* \"#utility.yul\":25933:25953   */\n      tag_650\n        /* \"#utility.yul\":25951:25952   */\n      dup4\n        /* \"#utility.yul\":25933:25953   */\n      tag_352\n      jump\t// in\n    tag_650:\n        /* \"#utility.yul\":25928:25953   */\n      swap3\n      pop\n        /* \"#utility.yul\":25972:25973   */\n      dup3\n        /* \"#utility.yul\":25962:25997   */\n      tag_651\n      jumpi\n        /* \"#utility.yul\":25977:25995   */\n      tag_652\n      tag_410\n      jump\t// in\n    tag_652:\n        /* \"#utility.yul\":25962:25997   */\n    tag_651:\n        /* \"#utility.yul\":26019:26020   */\n      dup3\n        /* \"#utility.yul\":26016:26017   */\n      dup3\n        /* \"#utility.yul\":26012:26021   */\n      div\n        /* \"#utility.yul\":26007:26021   */\n      swap1\n      pop\n        /* \"#utility.yul\":25842:26027   */\n      swap3\n      swap2\n      pop\n      pop\n      jump\t// out\n        /* \"#utility.yul\":26033:26227   */\n    tag_206:\n        /* \"#utility.yul\":26073:26077   */\n      0x00\n        /* \"#utility.yul\":26093:26113   */\n      tag_654\n        /* \"#utility.yul\":26111:26112   */\n      dup3\n        /* \"#utility.yul\":26093:26113   */\n      tag_352\n      jump\t// in\n    tag_654:\n        /* \"#utility.yul\":26088:26113   */\n      swap2\n      pop\n        /* \"#utility.yul\":26127:26147   */\n      tag_655\n        /* \"#utility.yul\":26145:26146   */\n      dup4\n        /* \"#utility.yul\":26127:26147   */\n      tag_352\n      jump\t// in\n    tag_655:\n        /* \"#utility.yul\":26122:26147   */\n      swap3\n      pop\n        /* \"#utility.yul\":26171:26172   */\n      dup3\n        /* \"#utility.yul\":26168:26169   */\n      dup3\n        /* \"#utility.yul\":26164:26173   */\n      sub\n        /* \"#utility.yul\":26156:26173   */\n      swap1\n      pop\n        /* \"#utility.yul\":26195:26196   */\n      dup2\n        /* \"#utility.yul\":26189:26193   */\n      dup2\n        /* \"#utility.yul\":26186:26197   */\n      gt\n        /* \"#utility.yul\":26183:26220   */\n      iszero\n      tag_656\n      jumpi\n        /* \"#utility.yul\":26200:26218   */\n      tag_657\n      tag_401\n      jump\t// in\n    tag_657:\n        /* \"#utility.yul\":26183:26220   */\n    tag_656:\n        /* \"#utility.yul\":26033:26227   */\n      swap3\n      swap2\n      pop\n      pop\n      jump\t// out\n        /* \"#utility.yul\":26233:26458   */\n    tag_411:\n        /* \"#utility.yul\":26373:26407   */\n      0x53656c6c6572206e6f206c6f6e676572206f776e73206f6e65206f6620746865\n        /* \"#utility.yul\":26369:26370   */\n      0x00\n        /* \"#utility.yul\":26361:26367   */\n      dup3\n        /* \"#utility.yul\":26357:26371   */\n      add\n        /* \"#utility.yul\":26350:26408   */\n      mstore\n        /* \"#utility.yul\":26442:26450   */\n      0x204e4654732e0000000000000000000000000000000000000000000000000000\n        /* \"#utility.yul\":26437:26439   */\n      0x20\n        /* \"#utility.yul\":26429:26435   */\n      dup3\n        /* \"#utility.yul\":26425:26440   */\n      add\n        /* \"#utility.yul\":26418:26451   */\n      mstore\n        /* \"#utility.yul\":26233:26458   */\n      pop\n      jump\t// out\n        /* \"#utility.yul\":26464:26830   */\n    tag_412:\n        /* \"#utility.yul\":26606:26609   */\n      0x00\n        /* \"#utility.yul\":26627:26694   */\n      tag_660\n        /* \"#utility.yul\":26691:26693   */\n      0x26\n        /* \"#utility.yul\":26686:26689   */\n      dup4\n        /* \"#utility.yul\":26627:26694   */\n      tag_389\n      jump\t// in\n    tag_660:\n        /* \"#utility.yul\":26620:26694   */\n      swap2\n      pop\n        /* \"#utility.yul\":26703:26796   */\n      tag_661\n        /* \"#utility.yul\":26792:26795   */\n      dup3\n        /* \"#utility.yul\":26703:26796   */\n      tag_411\n      jump\t// in\n    tag_661:\n        /* \"#utility.yul\":26821:26823   */\n      0x40\n        /* \"#utility.yul\":26816:26819   */\n      dup3\n        /* \"#utility.yul\":26812:26824   */\n      add\n        /* \"#utility.yul\":26805:26824   */\n      swap1\n      pop\n        /* \"#utility.yul\":26464:26830   */\n      swap2\n      swap1\n      pop\n      jump\t// out\n        /* \"#utility.yul\":26836:27255   */\n    tag_220:\n        /* \"#utility.yul\":27002:27006   */\n      0x00\n        /* \"#utility.yul\":27040:27042   */\n      0x20\n        /* \"#utility.yul\":27029:27038   */\n      dup3\n        /* \"#utility.yul\":27025:27043   */\n      add\n        /* \"#utility.yul\":27017:27043   */\n      swap1\n      pop\n        /* \"#utility.yul\":27089:27098   */\n      dup2\n        /* \"#utility.yul\":27083:27087   */\n      dup2\n        /* \"#utility.yul\":27079:27099   */\n      sub\n        /* \"#utility.yul\":27075:27076   */\n      0x00\n        /* \"#utility.yul\":27064:27073   */\n      dup4\n        /* \"#utility.yul\":27060:27077   */\n      add\n        /* \"#utility.yul\":27053:27100   */\n      mstore\n        /* \"#utility.yul\":27117:27248   */\n      tag_663\n        /* \"#utility.yul\":27243:27247   */\n      dup2\n        /* \"#utility.yul\":27117:27248   */\n      tag_412\n      jump\t// in\n    tag_663:\n        /* \"#utility.yul\":27109:27248   */\n      swap1\n      pop\n        /* \"#utility.yul\":26836:27255   */\n      swap2\n      swap1\n      pop\n      jump\t// out\n        /* \"#utility.yul\":27261:27703   */\n    tag_222:\n        /* \"#utility.yul\":27410:27414   */\n      0x00\n        /* \"#utility.yul\":27448:27450   */\n      0x60\n        /* \"#utility.yul\":27437:27446   */\n      dup3\n        /* \"#utility.yul\":27433:27451   */\n      add\n        /* \"#utility.yul\":27425:27451   */\n      swap1\n      pop\n        /* \"#utility.yul\":27461:27532   */\n      tag_665\n        /* \"#utility.yul\":27529:27530   */\n      0x00\n        /* \"#utility.yul\":27518:27527   */\n      dup4\n        /* \"#utility.yul\":27514:27531   */\n      add\n        /* \"#utility.yul\":27505:27511   */\n      dup7\n        /* \"#utility.yul\":27461:27532   */\n      tag_369\n      jump\t// in\n    tag_665:\n        /* \"#utility.yul\":27542:27614   */\n      tag_666\n        /* \"#utility.yul\":27610:27612   */\n      0x20\n        /* \"#utility.yul\":27599:27608   */\n      dup4\n        /* \"#utility.yul\":27595:27613   */\n      add\n        /* \"#utility.yul\":27586:27592   */\n      dup6\n        /* \"#utility.yul\":27542:27614   */\n      tag_369\n      jump\t// in\n    tag_666:\n        /* \"#utility.yul\":27624:27696   */\n      tag_667\n        /* \"#utility.yul\":27692:27694   */\n      0x40\n        /* \"#utility.yul\":27681:27690   */\n      dup4\n        /* \"#utility.yul\":27677:27695   */\n      add\n        /* \"#utility.yul\":27668:27674   */\n      dup5\n        /* \"#utility.yul\":27624:27696   */\n      tag_377\n      jump\t// in\n    tag_667:\n        /* \"#utility.yul\":27261:27703   */\n      swap5\n      swap4\n      pop\n      pop\n      pop\n      pop\n      jump\t// out\n        /* \"#utility.yul\":27709:27883   */\n    tag_413:\n        /* \"#utility.yul\":27849:27875   */\n      0x4164647265737365732063616e6e6f74206265207a65726f0000000000000000\n        /* \"#utility.yul\":27845:27846   */\n      0x00\n        /* \"#utility.yul\":27837:27843   */\n      dup3\n        /* \"#utility.yul\":27833:27847   */\n      add\n        /* \"#utility.yul\":27826:27876   */\n      mstore\n        /* \"#utility.yul\":27709:27883   */\n      pop\n      jump\t// out\n        /* \"#utility.yul\":27889:28255   */\n    tag_414:\n        /* \"#utility.yul\":28031:28034   */\n      0x00\n        /* \"#utility.yul\":28052:28119   */\n      tag_670\n        /* \"#utility.yul\":28116:28118   */\n      0x18\n        /* \"#utility.yul\":28111:28114   */\n      dup4\n        /* \"#utility.yul\":28052:28119   */\n      tag_389\n      jump\t// in\n    tag_670:\n        /* \"#utility.yul\":28045:28119   */\n      swap2\n      pop\n        /* \"#utility.yul\":28128:28221   */\n      tag_671\n        /* \"#utility.yul\":28217:28220   */\n      dup3\n        /* \"#utility.yul\":28128:28221   */\n      tag_413\n      jump\t// in\n    tag_671:\n        /* \"#utility.yul\":28246:28248   */\n      0x20\n        /* \"#utility.yul\":28241:28244   */\n      dup3\n        /* \"#utility.yul\":28237:28249   */\n      add\n        /* \"#utility.yul\":28230:28249   */\n      swap1\n      pop\n        /* \"#utility.yul\":27889:28255   */\n      swap2\n      swap1\n      pop\n      jump\t// out\n        /* \"#utility.yul\":28261:28680   */\n    tag_244:\n        /* \"#utility.yul\":28427:28431   */\n      0x00\n        /* \"#utility.yul\":28465:28467   */\n      0x20\n        /* \"#utility.yul\":28454:28463   */\n      dup3\n        /* \"#utility.yul\":28450:28468   */\n      add\n        /* \"#utility.yul\":28442:28468   */\n      swap1\n      pop\n        /* \"#utility.yul\":28514:28523   */\n      dup2\n        /* \"#utility.yul\":28508:28512   */\n      dup2\n        /* \"#utility.yul\":28504:28524   */\n      sub\n        /* \"#utility.yul\":28500:28501   */\n      0x00\n        /* \"#utility.yul\":28489:28498   */\n      dup4\n        /* \"#utility.yul\":28485:28502   */\n      add\n        /* \"#utility.yul\":28478:28525   */\n      mstore\n        /* \"#utility.yul\":28542:28673   */\n      tag_673\n        /* \"#utility.yul\":28668:28672   */\n      dup2\n        /* \"#utility.yul\":28542:28673   */\n      tag_414\n      jump\t// in\n    tag_673:\n        /* \"#utility.yul\":28534:28673   */\n      swap1\n      pop\n        /* \"#utility.yul\":28261:28680   */\n      swap2\n      swap1\n      pop\n      jump\t// out\n        /* \"#utility.yul\":28686:28803   */\n    tag_415:\n        /* \"#utility.yul\":28795:28796   */\n      0x00\n        /* \"#utility.yul\":28792:28793   */\n      dup1\n        /* \"#utility.yul\":28785:28797   */\n      revert\n        /* \"#utility.yul\":28809:29117   */\n    tag_416:\n        /* \"#utility.yul\":28871:28875   */\n      0x00\n        /* \"#utility.yul\":28961:28979   */\n      0xffffffffffffffff\n        /* \"#utility.yul\":28953:28959   */\n      dup3\n        /* \"#utility.yul\":28950:28980   */\n      gt\n        /* \"#utility.yul\":28947:29003   */\n      iszero\n      tag_676\n      jumpi\n        /* \"#utility.yul\":28983:29001   */\n      tag_677\n      tag_274\n      jump\t// in\n    tag_677:\n        /* \"#utility.yul\":28947:29003   */\n    tag_676:\n        /* \"#utility.yul\":29021:29050   */\n      tag_678\n        /* \"#utility.yul\":29043:29049   */\n      dup3\n        /* \"#utility.yul\":29021:29050   */\n      tag_360\n      jump\t// in\n    tag_678:\n        /* \"#utility.yul\":29013:29050   */\n      swap1\n      pop\n        /* \"#utility.yul\":29105:29109   */\n      0x20\n        /* \"#utility.yul\":29099:29103   */\n      dup2\n        /* \"#utility.yul\":29095:29110   */\n      add\n        /* \"#utility.yul\":29087:29110   */\n      swap1\n      pop\n        /* \"#utility.yul\":28809:29117   */\n      swap2\n      swap1\n      pop\n      jump\t// out\n        /* \"#utility.yul\":29123:29557   */\n    tag_417:\n        /* \"#utility.yul\":29212:29217   */\n      0x00\n        /* \"#utility.yul\":29237:29303   */\n      tag_680\n        /* \"#utility.yul\":29253:29302   */\n      tag_681\n        /* \"#utility.yul\":29295:29301   */\n      dup5\n        /* \"#utility.yul\":29253:29302   */\n      tag_416\n      jump\t// in\n    tag_681:\n        /* \"#utility.yul\":29237:29303   */\n      tag_362\n      jump\t// in\n    tag_680:\n        /* \"#utility.yul\":29228:29303   */\n      swap1\n      pop\n        /* \"#utility.yul\":29326:29332   */\n      dup3\n        /* \"#utility.yul\":29319:29324   */\n      dup2\n        /* \"#utility.yul\":29312:29333   */\n      mstore\n        /* \"#utility.yul\":29364:29368   */\n      0x20\n        /* \"#utility.yul\":29357:29362   */\n      dup2\n        /* \"#utility.yul\":29353:29369   */\n      add\n        /* \"#utility.yul\":29402:29405   */\n      dup5\n        /* \"#utility.yul\":29393:29399   */\n      dup5\n        /* \"#utility.yul\":29388:29391   */\n      dup5\n        /* \"#utility.yul\":29384:29400   */\n      add\n        /* \"#utility.yul\":29381:29406   */\n      gt\n        /* \"#utility.yul\":29378:29490   */\n      iszero\n      tag_682\n      jumpi\n        /* \"#utility.yul\":29409:29488   */\n      tag_683\n      tag_415\n      jump\t// in\n    tag_683:\n        /* \"#utility.yul\":29378:29490   */\n    tag_682:\n        /* \"#utility.yul\":29499:29551   */\n      tag_684\n        /* \"#utility.yul\":29544:29550   */\n      dup5\n        /* \"#utility.yul\":29539:29542   */\n      dup3\n        /* \"#utility.yul\":29534:29537   */\n      dup6\n        /* \"#utility.yul\":29499:29551   */\n      tag_383\n      jump\t// in\n    tag_684:\n        /* \"#utility.yul\":29218:29557   */\n      pop\n        /* \"#utility.yul\":29123:29557   */\n      swap4\n      swap3\n      pop\n      pop\n      pop\n      jump\t// out\n        /* \"#utility.yul\":29577:29932   */\n    tag_418:\n        /* \"#utility.yul\":29644:29649   */\n      0x00\n        /* \"#utility.yul\":29693:29696   */\n      dup3\n        /* \"#utility.yul\":29686:29690   */\n      0x1f\n        /* \"#utility.yul\":29678:29684   */\n      dup4\n        /* \"#utility.yul\":29674:29691   */\n      add\n        /* \"#utility.yul\":29670:29697   */\n      slt\n        /* \"#utility.yul\":29660:29782   */\n      tag_686\n      jumpi\n        /* \"#utility.yul\":29701:29780   */\n      tag_687\n      tag_359\n      jump\t// in\n    tag_687:\n        /* \"#utility.yul\":29660:29782   */\n    tag_686:\n        /* \"#utility.yul\":29811:29817   */\n      dup2\n        /* \"#utility.yul\":29805:29818   */\n      mload\n        /* \"#utility.yul\":29836:29926   */\n      tag_688\n        /* \"#utility.yul\":29922:29925   */\n      dup5\n        /* \"#utility.yul\":29914:29920   */\n      dup3\n        /* \"#utility.yul\":29907:29911   */\n      0x20\n        /* \"#utility.yul\":29899:29905   */\n      dup7\n        /* \"#utility.yul\":29895:29912   */\n      add\n        /* \"#utility.yul\":29836:29926   */\n      tag_417\n      jump\t// in\n    tag_688:\n        /* \"#utility.yul\":29827:29926   */\n      swap2\n      pop\n        /* \"#utility.yul\":29650:29932   */\n      pop\n        /* \"#utility.yul\":29577:29932   */\n      swap3\n      swap2\n      pop\n      pop\n      jump\t// out\n        /* \"#utility.yul\":29938:30462   */\n    tag_288:\n        /* \"#utility.yul\":30018:30024   */\n      0x00\n        /* \"#utility.yul\":30067:30069   */\n      0x20\n        /* \"#utility.yul\":30055:30064   */\n      dup3\n        /* \"#utility.yul\":30046:30053   */\n      dup5\n        /* \"#utility.yul\":30042:30065   */\n      sub\n        /* \"#utility.yul\":30038:30070   */\n      slt\n        /* \"#utility.yul\":30035:30154   */\n      iszero\n      tag_690\n      jumpi\n        /* \"#utility.yul\":30073:30152   */\n      tag_691\n      tag_350\n      jump\t// in\n    tag_691:\n        /* \"#utility.yul\":30035:30154   */\n    tag_690:\n        /* \"#utility.yul\":30214:30215   */\n      0x00\n        /* \"#utility.yul\":30203:30212   */\n      dup3\n        /* \"#utility.yul\":30199:30216   */\n      add\n        /* \"#utility.yul\":30193:30217   */\n      mload\n        /* \"#utility.yul\":30244:30262   */\n      0xffffffffffffffff\n        /* \"#utility.yul\":30236:30242   */\n      dup2\n        /* \"#utility.yul\":30233:30263   */\n      gt\n        /* \"#utility.yul\":30230:30347   */\n      iszero\n      tag_692\n      jumpi\n        /* \"#utility.yul\":30266:30345   */\n      tag_693\n      tag_351\n      jump\t// in\n    tag_693:\n        /* \"#utility.yul\":30230:30347   */\n    tag_692:\n        /* \"#utility.yul\":30371:30445   */\n      tag_694\n        /* \"#utility.yul\":30437:30444   */\n      dup5\n        /* \"#utility.yul\":30428:30434   */\n      dup3\n        /* \"#utility.yul\":30417:30426   */\n      dup6\n        /* \"#utility.yul\":30413:30435   */\n      add\n        /* \"#utility.yul\":30371:30445   */\n      tag_418\n      jump\t// in\n    tag_694:\n        /* \"#utility.yul\":30361:30445   */\n      swap2\n      pop\n        /* \"#utility.yul\":30164:30455   */\n      pop\n        /* \"#utility.yul\":29938:30462   */\n      swap3\n      swap2\n      pop\n      pop\n      jump\t// out\n        /* \"#utility.yul\":30468:30649   */\n    tag_419:\n        /* \"#utility.yul\":30608:30641   */\n      0x5265656e7472616e637947756172643a207265656e7472616e742063616c6c00\n        /* \"#utility.yul\":30604:30605   */\n      0x00\n        /* \"#utility.yul\":30596:30602   */\n      dup3\n        /* \"#utility.yul\":30592:30606   */\n      add\n        /* \"#utility.yul\":30585:30642   */\n      mstore\n        /* \"#utility.yul\":30468:30649   */\n      pop\n      jump\t// out\n        /* \"#utility.yul\":30655:31021   */\n    tag_420:\n        /* \"#utility.yul\":30797:30800   */\n      0x00\n        /* \"#utility.yul\":30818:30885   */\n      tag_697\n        /* \"#utility.yul\":30882:30884   */\n      0x1f\n        /* \"#utility.yul\":30877:30880   */\n      dup4\n        /* \"#utility.yul\":30818:30885   */\n      tag_389\n      jump\t// in\n    tag_697:\n        /* \"#utility.yul\":30811:30885   */\n      swap2\n      pop\n        /* \"#utility.yul\":30894:30987   */\n      tag_698\n        /* \"#utility.yul\":30983:30986   */\n      dup3\n        /* \"#utility.yul\":30894:30987   */\n      tag_419\n      jump\t// in\n    tag_698:\n        /* \"#utility.yul\":31012:31014   */\n      0x20\n        /* \"#utility.yul\":31007:31010   */\n      dup3\n        /* \"#utility.yul\":31003:31015   */\n      add\n        /* \"#utility.yul\":30996:31015   */\n      swap1\n      pop\n        /* \"#utility.yul\":30655:31021   */\n      swap2\n      swap1\n      pop\n      jump\t// out\n        /* \"#utility.yul\":31027:31446   */\n    tag_308:\n        /* \"#utility.yul\":31193:31197   */\n      0x00\n        /* \"#utility.yul\":31231:31233   */\n      0x20\n        /* \"#utility.yul\":31220:31229   */\n      dup3\n        /* \"#utility.yul\":31216:31234   */\n      add\n        /* \"#utility.yul\":31208:31234   */\n      swap1\n      pop\n        /* \"#utility.yul\":31280:31289   */\n      dup2\n        /* \"#utility.yul\":31274:31278   */\n      dup2\n        /* \"#utility.yul\":31270:31290   */\n      sub\n        /* \"#utility.yul\":31266:31267   */\n      0x00\n        /* \"#utility.yul\":31255:31264   */\n      dup4\n        /* \"#utility.yul\":31251:31268   */\n      add\n        /* \"#utility.yul\":31244:31291   */\n      mstore\n        /* \"#utility.yul\":31308:31439   */\n      tag_700\n        /* \"#utility.yul\":31434:31438   */\n      dup2\n        /* \"#utility.yul\":31308:31439   */\n      tag_420\n      jump\t// in\n    tag_700:\n        /* \"#utility.yul\":31300:31439   */\n      swap1\n      pop\n        /* \"#utility.yul\":31027:31446   */\n      swap2\n      swap1\n      pop\n      jump\t// out\n        /* \"#utility.yul\":31452:31618   */\n    tag_421:\n        /* \"#utility.yul\":31592:31610   */\n      0x5061757361626c653a2070617573656400000000000000000000000000000000\n        /* \"#utility.yul\":31588:31589   */\n      0x00\n        /* \"#utility.yul\":31580:31586   */\n      dup3\n        /* \"#utility.yul\":31576:31590   */\n      add\n        /* \"#utility.yul\":31569:31611   */\n      mstore\n        /* \"#utility.yul\":31452:31618   */\n      pop\n      jump\t// out\n        /* \"#utility.yul\":31624:31990   */\n    tag_422:\n        /* \"#utility.yul\":31766:31769   */\n      0x00\n        /* \"#utility.yul\":31787:31854   */\n      tag_703\n        /* \"#utility.yul\":31851:31853   */\n      0x10\n        /* \"#utility.yul\":31846:31849   */\n      dup4\n        /* \"#utility.yul\":31787:31854   */\n      tag_389\n      jump\t// in\n    tag_703:\n        /* \"#utility.yul\":31780:31854   */\n      swap2\n      pop\n        /* \"#utility.yul\":31863:31956   */\n      tag_704\n        /* \"#utility.yul\":31952:31955   */\n      dup3\n        /* \"#utility.yul\":31863:31956   */\n      tag_421\n      jump\t// in\n    tag_704:\n        /* \"#utility.yul\":31981:31983   */\n      0x20\n        /* \"#utility.yul\":31976:31979   */\n      dup3\n        /* \"#utility.yul\":31972:31984   */\n      add\n        /* \"#utility.yul\":31965:31984   */\n      swap1\n      pop\n        /* \"#utility.yul\":31624:31990   */\n      swap2\n      swap1\n      pop\n      jump\t// out\n        /* \"#utility.yul\":31996:32415   */\n    tag_327:\n        /* \"#utility.yul\":32162:32166   */\n      0x00\n        /* \"#utility.yul\":32200:32202   */\n      0x20\n        /* \"#utility.yul\":32189:32198   */\n      dup3\n        /* \"#utility.yul\":32185:32203   */\n      add\n        /* \"#utility.yul\":32177:32203   */\n      swap1\n      pop\n        /* \"#utility.yul\":32249:32258   */\n      dup2\n        /* \"#utility.yul\":32243:32247   */\n      dup2\n        /* \"#utility.yul\":32239:32259   */\n      sub\n        /* \"#utility.yul\":32235:32236   */\n      0x00\n        /* \"#utility.yul\":32224:32233   */\n      dup4\n        /* \"#utility.yul\":32220:32237   */\n      add\n        /* \"#utility.yul\":32213:32260   */\n      mstore\n        /* \"#utility.yul\":32277:32408   */\n      tag_706\n        /* \"#utility.yul\":32403:32407   */\n      dup2\n        /* \"#utility.yul\":32277:32408   */\n      tag_422\n      jump\t// in\n    tag_706:\n        /* \"#utility.yul\":32269:32408   */\n      swap1\n      pop\n        /* \"#utility.yul\":31996:32415   */\n      swap2\n      swap1\n      pop\n      jump\t// out\n        /* \"#utility.yul\":32421:32591   */\n    tag_423:\n        /* \"#utility.yul\":32561:32583   */\n      0x5061757361626c653a206e6f7420706175736564000000000000000000000000\n        /* \"#utility.yul\":32557:32558   */\n      0x00\n        /* \"#utility.yul\":32549:32555   */\n      dup3\n        /* \"#utility.yul\":32545:32559   */\n      add\n        /* \"#utility.yul\":32538:32584   */\n      mstore\n        /* \"#utility.yul\":32421:32591   */\n      pop\n      jump\t// out\n        /* \"#utility.yul\":32597:32963   */\n    tag_424:\n        /* \"#utility.yul\":32739:32742   */\n      0x00\n        /* \"#utility.yul\":32760:32827   */\n      tag_709\n        /* \"#utility.yul\":32824:32826   */\n      0x14\n        /* \"#utility.yul\":32819:32822   */\n      dup4\n        /* \"#utility.yul\":32760:32827   */\n      tag_389\n      jump\t// in\n    tag_709:\n        /* \"#utility.yul\":32753:32827   */\n      swap2\n      pop\n        /* \"#utility.yul\":32836:32929   */\n      tag_710\n        /* \"#utility.yul\":32925:32928   */\n      dup3\n        /* \"#utility.yul\":32836:32929   */\n      tag_423\n      jump\t// in\n    tag_710:\n        /* \"#utility.yul\":32954:32956   */\n      0x20\n        /* \"#utility.yul\":32949:32952   */\n      dup3\n        /* \"#utility.yul\":32945:32957   */\n      add\n        /* \"#utility.yul\":32938:32957   */\n      swap1\n      pop\n        /* \"#utility.yul\":32597:32963   */\n      swap2\n      swap1\n      pop\n      jump\t// out\n        /* \"#utility.yul\":32969:33388   */\n    tag_339:\n        /* \"#utility.yul\":33135:33139   */\n      0x00\n        /* \"#utility.yul\":33173:33175   */\n      0x20\n        /* \"#utility.yul\":33162:33171   */\n      dup3\n        /* \"#utility.yul\":33158:33176   */\n      add\n        /* \"#utility.yul\":33150:33176   */\n      swap1\n      pop\n        /* \"#utility.yul\":33222:33231   */\n      dup2\n        /* \"#utility.yul\":33216:33220   */\n      dup2\n        /* \"#utility.yul\":33212:33232   */\n      sub\n        /* \"#utility.yul\":33208:33209   */\n      0x00\n        /* \"#utility.yul\":33197:33206   */\n      dup4\n        /* \"#utility.yul\":33193:33210   */\n      add\n        /* \"#utility.yul\":33186:33233   */\n      mstore\n        /* \"#utility.yul\":33250:33381   */\n      tag_712\n        /* \"#utility.yul\":33376:33380   */\n      dup2\n        /* \"#utility.yul\":33250:33381   */\n      tag_424\n      jump\t// in\n    tag_712:\n        /* \"#utility.yul\":33242:33381   */\n      swap1\n      pop\n        /* \"#utility.yul\":32969:33388   */\n      swap2\n      swap1\n      pop\n      jump\t// out\n\n    auxdata: 0xa26469706673582212205e114c36efcf447d74c7c695b67fad902a50c8cd181667976a7ca57dc66b3e8f64736f6c63430008150033\n}\n",
				"bytecode": {
					"linkReferences": {},
					"object": "60806040526001600a5534801562000015575f80fd5b5060405162002f0a38038062002f0a83398181016040528101906200003b919062000382565b335f73ffffffffffffffffffffffffffffffffffffffff168173ffffffffffffffffffffffffffffffffffffffff1603620000af575f6040517f1e4fbdf7000000000000000000000000000000000000000000000000000000008152600401620000a6919062000402565b60405180910390fd5b620000c0816200022460201b60201c565b50600180819055505f60025f6101000a81548160ff0219169083151502179055505f73ffffffffffffffffffffffffffffffffffffffff168273ffffffffffffffffffffffffffffffffffffffff16141580156200014a57505f73ffffffffffffffffffffffffffffffffffffffff168173ffffffffffffffffffffffffffffffffffffffff1614155b6200018c576040517f08c379a000000000000000000000000000000000000000000000000000000000815260040162000183906200047b565b60405180910390fd5b83600481905550826005819055508160065f6101000a81548173ffffffffffffffffffffffffffffffffffffffff021916908373ffffffffffffffffffffffffffffffffffffffff1602179055508060075f6101000a81548173ffffffffffffffffffffffffffffffffffffffff021916908373ffffffffffffffffffffffffffffffffffffffff160217905550505050506200049b565b5f805f9054906101000a900473ffffffffffffffffffffffffffffffffffffffff169050815f806101000a81548173ffffffffffffffffffffffffffffffffffffffff021916908373ffffffffffffffffffffffffffffffffffffffff1602179055508173ffffffffffffffffffffffffffffffffffffffff168173ffffffffffffffffffffffffffffffffffffffff167f8be0079c531659141344cd1fd0a4f28419497f9722a3daafe3b4186f6b6457e060405160405180910390a35050565b5f80fd5b5f819050919050565b620002fd81620002e9565b811462000308575f80fd5b50565b5f815190506200031b81620002f2565b92915050565b5f73ffffffffffffffffffffffffffffffffffffffff82169050919050565b5f6200034c8262000321565b9050919050565b6200035e8162000340565b811462000369575f80fd5b50565b5f815190506200037c8162000353565b92915050565b5f805f80608085870312156200039d576200039c620002e5565b5b5f620003ac878288016200030b565b9450506020620003bf878288016200030b565b9350506040620003d2878288016200036c565b9250506060620003e5878288016200036c565b91505092959194509250565b620003fc8162000340565b82525050565b5f602082019050620004175f830184620003f1565b92915050565b5f82825260208201905092915050565b7f4164647265737365732063616e6e6f74206265207a65726f00000000000000005f82015250565b5f620004636018836200041d565b915062000470826200042d565b602082019050919050565b5f6020820190508181035f830152620004948162000455565b9050919050565b612a6180620004a95f395ff3fe608060405260043610610129575f3560e01c806385dd3008116100aa578063b93141351161006e578063b931413514610363578063cdd78cfc1461039f578063de74e57b146103c9578063e3b6a1f614610408578063ed14834f14610444578063f2fde38b1461046e57610129565b806385dd3008146102915780638a71bb2d146102bb5780638da5cb5b146102e5578063aaccf1ec1461030f578063ad2f852a1461033957610129565b80635e4e8d65116100f15780635e4e8d65146101d9578063715018a61461020157806378578bb3146102175780637bdaceef1461023f5780638456cb591461027b57610129565b8063305a67a81461012d5780633f4ba83a146101555780634e3137961461016b57806351ed8288146101935780635c975abb146101af575b5f80fd5b348015610138575f80fd5b50610153600480360381019061014e9190611a47565b610496565b005b348015610160575f80fd5b50610169610623565b005b348015610176575f80fd5b50610191600480360381019061018c9190611c1c565b610645565b005b6101ad60048036038101906101a89190611a47565b610a88565b005b3480156101ba575f80fd5b506101c361105c565b6040516101d09190611cb6565b60405180910390f35b3480156101e4575f80fd5b506101ff60048036038101906101fa9190611ccf565b611071565b005b34801561020c575f80fd5b506102156111b4565b005b348015610222575f80fd5b5061023d60048036038101906102389190611d0d565b6111c7565b005b34801561024a575f80fd5b5061026560048036038101906102609190611a47565b6111f1565b6040516102729190611d5a565b60405180910390f35b348015610286575f80fd5b5061028f611221565b005b34801561029c575f80fd5b506102a5611243565b6040516102b29190611e2a565b60405180910390f35b3480156102c6575f80fd5b506102cf611299565b6040516102dc9190611e59565b60405180910390f35b3480156102f0575f80fd5b506102f961129f565b6040516103069190611d5a565b60405180910390f35b34801561031a575f80fd5b506103236112c6565b6040516103309190611e59565b60405180910390f35b348015610344575f80fd5b5061034d6112cc565b60405161035a9190611d5a565b60405180910390f35b34801561036e575f80fd5b5061038960048036038101906103849190611a47565b6112f1565b6040516103969190611fe1565b60405180910390f35b3480156103aa575f80fd5b506103b3611530565b6040516103c09190611e59565b60405180910390f35b3480156103d4575f80fd5b506103ef60048036038101906103ea9190611a47565b611536565b6040516103ff9493929190612001565b60405180910390f35b348015610413575f80fd5b5061042e60048036038101906104299190611a47565b6115a0565b60405161043b9190611e59565b60405180910390f35b34801561044f575f80fd5b506104586115c0565b6040516104659190611d5a565b60405180910390f35b348015610479575f80fd5b50610494600480360381019061048f9190612044565b6115e5565b005b61049e611669565b3373ffffffffffffffffffffffffffffffffffffffff1660095f8381526020019081526020015f205f9054906101000a900473ffffffffffffffffffffffffffffffffffffffff1673ffffffffffffffffffffffffffffffffffffffff161461053c576040517f08c379a0000000000000000000000000000000000000000000000000000000008152600401610533906120ef565b60405180910390fd5b60085f8281526020019081526020015f205f8082015f6101000a81549073ffffffffffffffffffffffffffffffffffffffff0219169055600182015f6105829190611966565b600282015f6101000a81549073ffffffffffffffffffffffffffffffffffffffff0219169055600382015f9055600482015f9055505060095f8281526020019081526020015f205f6101000a81549073ffffffffffffffffffffffffffffffffffffffff0219169055807fc0c55a6edead4433d18cb1e287a0a20a2fa003a6f483bc9823d2e504d70d1c6760405160405180910390a26106206116b8565b50565b61062b6116c1565b610633611669565b61063b611748565b6106436116b8565b565b61064d6117a9565b610655611669565b5f8211610697576040517f08c379a000000000000000000000000000000000000000000000000000000000815260040161068e90612157565b60405180910390fd5b5f81116106d9576040517f08c379a00000000000000000000000000000000000000000000000000000000081526004016106d0906121e5565b60405180910390fd5b5f83511161071c576040517f08c379a00000000000000000000000000000000000000000000000000000000081526004016107139061224d565b60405180910390fd5b5f8490505f5b8451811015610842575f85828151811061073f5761073e61226b565b5b602002602001015190503373ffffffffffffffffffffffffffffffffffffffff168373ffffffffffffffffffffffffffffffffffffffff16636352211e836040518263ffffffff1660e01b81526004016107999190611e59565b602060405180830381865afa1580156107b4573d5f803e3d5ffd5b505050506040513d601f19601f820116820180604052508101906107d891906122ac565b73ffffffffffffffffffffffffffffffffffffffff161461082e576040517f08c379a000000000000000000000000000000000000000000000000000000000815260040161082590612321565b60405180910390fd5b50808061083a9061236c565b915050610722565b506040518060a001604052808673ffffffffffffffffffffffffffffffffffffffff1681526020018581526020013373ffffffffffffffffffffffffffffffffffffffff168152602001848152602001834261089e91906123b3565b81525060085f600a5481526020019081526020015f205f820151815f015f6101000a81548173ffffffffffffffffffffffffffffffffffffffff021916908373ffffffffffffffffffffffffffffffffffffffff1602179055506020820151816001019080519060200190610914929190611984565b506040820151816002015f6101000a81548173ffffffffffffffffffffffffffffffffffffffff021916908373ffffffffffffffffffffffffffffffffffffffff16021790555060608201518160030155608082015181600401559050503360095f600a5481526020019081526020015f205f6101000a81548173ffffffffffffffffffffffffffffffffffffffff021916908373ffffffffffffffffffffffffffffffffffffffff1602179055506003600a54908060018154018082558091505060019003905f5260205f20015f90919091909150558473ffffffffffffffffffffffffffffffffffffffff163373ffffffffffffffffffffffffffffffffffffffff16600a547fb135ab5d6fb2741efa75bf597e471845ca0a87fc756c5ab2a23f77639e3a894187878742610a4b91906123b3565b604051610a5a939291906123e6565b60405180910390a4600a5f815480929190610a749061236c565b919050555050610a826116b8565b50505050565b610a906117a9565b610a98611669565b5f3411610ada576040517f08c379a0000000000000000000000000000000000000000000000000000000008152600401610ad190612492565b60405180910390fd5b5f60085f8381526020019081526020015f2090505f73ffffffffffffffffffffffffffffffffffffffff16816002015f9054906101000a900473ffffffffffffffffffffffffffffffffffffffff1673ffffffffffffffffffffffffffffffffffffffff1603610b7f576040517f08c379a0000000000000000000000000000000000000000000000000000000008152600401610b76906124fa565b60405180910390fd5b8060040154421115610bc6576040517f08c379a0000000000000000000000000000000000000000000000000000000008152600401610bbd90612562565b60405180910390fd5b80600301543414610c0c576040517f08c379a0000000000000000000000000000000000000000000000000000000008152600401610c03906125f0565b60405180910390fd5b5f6127106004548360030154610c22919061260e565b610c2c919061267c565b90505f6127106005548460030154610c44919061260e565b610c4e919061267c565b90505f81838560030154610c6291906126ac565b610c6c91906126ac565b90505f5b8460010180549050811015610e8e575f856001018281548110610c9657610c9561226b565b5b905f5260205f2001549050856002015f9054906101000a900473ffffffffffffffffffffffffffffffffffffffff1673ffffffffffffffffffffffffffffffffffffffff16865f015f9054906101000a900473ffffffffffffffffffffffffffffffffffffffff1673ffffffffffffffffffffffffffffffffffffffff16636352211e836040518263ffffffff1660e01b8152600401610d369190611e59565b602060405180830381865afa158015610d51573d5f803e3d5ffd5b505050506040513d601f19601f82011682018060405250810190610d7591906122ac565b73ffffffffffffffffffffffffffffffffffffffff1614610dcb576040517f08c379a0000000000000000000000000000000000000000000000000000000008152600401610dc29061274f565b60405180910390fd5b855f015f9054906101000a900473ffffffffffffffffffffffffffffffffffffffff1673ffffffffffffffffffffffffffffffffffffffff166323b872dd876002015f9054906101000a900473ffffffffffffffffffffffffffffffffffffffff1633846040518463ffffffff1660e01b8152600401610e4d9392919061276d565b5f604051808303815f87803b158015610e64575f80fd5b505af1158015610e76573d5f803e3d5ffd5b50505050508080610e869061236c565b915050610c70565b50836002015f9054906101000a900473ffffffffffffffffffffffffffffffffffffffff1673ffffffffffffffffffffffffffffffffffffffff166108fc8290811502906040515f60405180830381858888f19350505050158015610ef5573d5f803e3d5ffd5b5060065f9054906101000a900473ffffffffffffffffffffffffffffffffffffffff1673ffffffffffffffffffffffffffffffffffffffff166108fc8490811502906040515f60405180830381858888f19350505050158015610f5a573d5f803e3d5ffd5b5060075f9054906101000a900473ffffffffffffffffffffffffffffffffffffffff1673ffffffffffffffffffffffffffffffffffffffff166108fc8390811502906040515f60405180830381858888f19350505050158015610fbf573d5f803e3d5ffd5b503373ffffffffffffffffffffffffffffffffffffffff16846002015f9054906101000a900473ffffffffffffffffffffffffffffffffffffffff1673ffffffffffffffffffffffffffffffffffffffff16867f8562eb94748e30bb0071e932744ce902b460c683474fcb3bfd567ffa16b1afb287600301546040516110459190611e59565b60405180910390a4505050506110596116b8565b50565b5f60025f9054906101000a900460ff16905090565b6110796116c1565b611081611669565b5f73ffffffffffffffffffffffffffffffffffffffff168273ffffffffffffffffffffffffffffffffffffffff16141580156110e957505f73ffffffffffffffffffffffffffffffffffffffff168173ffffffffffffffffffffffffffffffffffffffff1614155b611128576040517f08c379a000000000000000000000000000000000000000000000000000000000815260040161111f906127ec565b60405180910390fd5b8160065f6101000a81548173ffffffffffffffffffffffffffffffffffffffff021916908373ffffffffffffffffffffffffffffffffffffffff1602179055508060075f6101000a81548173ffffffffffffffffffffffffffffffffffffffff021916908373ffffffffffffffffffffffffffffffffffffffff1602179055506111b06116b8565b5050565b6111bc6116c1565b6111c55f6117f3565b565b6111cf6116c1565b6111d7611669565b81600481905550806005819055506111ed6116b8565b5050565b6009602052805f5260405f205f915054906101000a900473ffffffffffffffffffffffffffffffffffffffff1681565b6112296116c1565b611231611669565b6112396118b4565b6112416116b8565b565b6060600380548060200260200160405190810160405280929190818152602001828054801561128f57602002820191905f5260205f20905b81548152602001906001019080831161127b575b5050505050905090565b60045481565b5f805f9054906101000a900473ffffffffffffffffffffffffffffffffffffffff16905090565b600a5481565b60065f9054906101000a900473ffffffffffffffffffffffffffffffffffffffff1681565b60605f60085f8481526020019081526020015f2090505f73ffffffffffffffffffffffffffffffffffffffff16816002015f9054906101000a900473ffffffffffffffffffffffffffffffffffffffff1673ffffffffffffffffffffffffffffffffffffffff1603611398576040517f08c379a000000000000000000000000000000000000000000000000000000000815260040161138f906124fa565b60405180910390fd5b5f816001018054905067ffffffffffffffff8111156113ba576113b9611ae0565b5b6040519080825280602002602001820160405280156113f357816020015b6113e06119cf565b8152602001906001900390816113d85790505b5090505f5b8260010180549050811015611525575f83600101828154811061141e5761141d61226b565b5b905f5260205f20015490505f60405180602001604052805f8152509050845f015f9054906101000a900473ffffffffffffffffffffffffffffffffffffffff1673ffffffffffffffffffffffffffffffffffffffff1663c87b56dd836040518263ffffffff1660e01b81526004016114969190611e59565b5f60405180830381865afa9250505080156114d357506040513d5f823e3d601f19601f820116820180604052508101906114d091906128ac565b60015b156114dd57809150505b6040518060400160405280838152602001828152508484815181106115055761150461226b565b5b60200260200101819052505050808061151d9061236c565b9150506113f8565b508092505050919050565b60055481565b6008602052805f5260405f205f91509050805f015f9054906101000a900473ffffffffffffffffffffffffffffffffffffffff1690806002015f9054906101000a900473ffffffffffffffffffffffffffffffffffffffff16908060030154908060040154905084565b600381815481106115af575f80fd5b905f5260205f20015f915090505481565b60075f9054906101000a900473ffffffffffffffffffffffffffffffffffffffff1681565b6115ed6116c1565b5f73ffffffffffffffffffffffffffffffffffffffff168173ffffffffffffffffffffffffffffffffffffffff160361165d575f6040517f1e4fbdf70000000000000000000000000000000000000000000000000000000081526004016116549190611d5a565b60405180910390fd5b611666816117f3565b50565b6002600154036116ae576040517f08c379a00000000000000000000000000000000000000000000000000000000081526004016116a59061293d565b60405180910390fd5b6002600181905550565b60018081905550565b6116c9611916565b73ffffffffffffffffffffffffffffffffffffffff166116e761129f565b73ffffffffffffffffffffffffffffffffffffffff16146117465761170a611916565b6040517f118cdaa700000000000000000000000000000000000000000000000000000000815260040161173d9190611d5a565b60405180910390fd5b565b61175061191d565b5f60025f6101000a81548160ff0219169083151502179055507f5db9ee0a495bf2e6ff9c91a7834c1ba4fdd244a5e8aa4e537bd38aeae4b073aa611792611916565b60405161179f9190611d5a565b60405180910390a1565b6117b161105c565b156117f1576040517f08c379a00000000000000000000000000000000000000000000000000000000081526004016117e8906129a5565b60405180910390fd5b565b5f805f9054906101000a900473ffffffffffffffffffffffffffffffffffffffff169050815f806101000a81548173ffffffffffffffffffffffffffffffffffffffff021916908373ffffffffffffffffffffffffffffffffffffffff1602179055508173ffffffffffffffffffffffffffffffffffffffff168173ffffffffffffffffffffffffffffffffffffffff167f8be0079c531659141344cd1fd0a4f28419497f9722a3daafe3b4186f6b6457e060405160405180910390a35050565b6118bc6117a9565b600160025f6101000a81548160ff0219169083151502179055507f62e78cea01bee320cd4e420270b5ea74000d11b0c9f74754ebdbfc544b05a2586118ff611916565b60405161190c9190611d5a565b60405180910390a1565b5f33905090565b61192561105c565b611964576040517f08c379a000000000000000000000000000000000000000000000000000000000815260040161195b90612a0d565b60405180910390fd5b565b5080545f8255905f5260205f209081019061198191906119e8565b50565b828054828255905f5260205f209081019282156119be579160200282015b828111156119bd5782518255916020019190600101906119a2565b5b5090506119cb91906119e8565b5090565b60405180604001604052805f8152602001606081525090565b5b808211156119ff575f815f9055506001016119e9565b5090565b5f604051905090565b5f80fd5b5f80fd5b5f819050919050565b611a2681611a14565b8114611a30575f80fd5b50565b5f81359050611a4181611a1d565b92915050565b5f60208284031215611a5c57611a5b611a0c565b5b5f611a6984828501611a33565b91505092915050565b5f73ffffffffffffffffffffffffffffffffffffffff82169050919050565b5f611a9b82611a72565b9050919050565b611aab81611a91565b8114611ab5575f80fd5b50565b5f81359050611ac681611aa2565b92915050565b5f80fd5b5f601f19601f8301169050919050565b7f4e487b71000000000000000000000000000000000000000000000000000000005f52604160045260245ffd5b611b1682611ad0565b810181811067ffffffffffffffff82111715611b3557611b34611ae0565b5b80604052505050565b5f611b47611a03565b9050611b538282611b0d565b919050565b5f67ffffffffffffffff821115611b7257611b71611ae0565b5b602082029050602081019050919050565b5f80fd5b5f611b99611b9484611b58565b611b3e565b90508083825260208201905060208402830185811115611bbc57611bbb611b83565b5b835b81811015611be55780611bd18882611a33565b845260208401935050602081019050611bbe565b5050509392505050565b5f82601f830112611c0357611c02611acc565b5b8135611c13848260208601611b87565b91505092915050565b5f805f8060808587031215611c3457611c33611a0c565b5b5f611c4187828801611ab8565b945050602085013567ffffffffffffffff811115611c6257611c61611a10565b5b611c6e87828801611bef565b9350506040611c7f87828801611a33565b9250506060611c9087828801611a33565b91505092959194509250565b5f8115159050919050565b611cb081611c9c565b82525050565b5f602082019050611cc95f830184611ca7565b92915050565b5f8060408385031215611ce557611ce4611a0c565b5b5f611cf285828601611ab8565b9250506020611d0385828601611ab8565b9150509250929050565b5f8060408385031215611d2357611d22611a0c565b5b5f611d3085828601611a33565b9250506020611d4185828601611a33565b9150509250929050565b611d5481611a91565b82525050565b5f602082019050611d6d5f830184611d4b565b92915050565b5f81519050919050565b5f82825260208201905092915050565b5f819050602082019050919050565b611da581611a14565b82525050565b5f611db68383611d9c565b60208301905092915050565b5f602082019050919050565b5f611dd882611d73565b611de28185611d7d565b9350611ded83611d8d565b805f5b83811015611e1d578151611e048882611dab565b9750611e0f83611dc2565b925050600181019050611df0565b5085935050505092915050565b5f6020820190508181035f830152611e428184611dce565b905092915050565b611e5381611a14565b82525050565b5f602082019050611e6c5f830184611e4a565b92915050565b5f81519050919050565b5f82825260208201905092915050565b5f819050602082019050919050565b5f81519050919050565b5f82825260208201905092915050565b5f5b83811015611ed2578082015181840152602081019050611eb7565b5f8484015250505050565b5f611ee782611e9b565b611ef18185611ea5565b9350611f01818560208601611eb5565b611f0a81611ad0565b840191505092915050565b5f604083015f830151611f2a5f860182611d9c565b5060208301518482036020860152611f428282611edd565b9150508091505092915050565b5f611f5a8383611f15565b905092915050565b5f602082019050919050565b5f611f7882611e72565b611f828185611e7c565b935083602082028501611f9485611e8c565b805f5b85811015611fcf5784840389528151611fb08582611f4f565b9450611fbb83611f62565b925060208a01995050600181019050611f97565b50829750879550505050505092915050565b5f6020820190508181035f830152611ff98184611f6e565b905092915050565b5f6080820190506120145f830187611d4b565b6120216020830186611d4b565b61202e6040830185611e4a565b61203b6060830184611e4a565b95945050505050565b5f6020828403121561205957612058611a0c565b5b5f61206684828501611ab8565b91505092915050565b5f82825260208201905092915050565b7f4f6e6c7920746865206c697374696e67206f776e65722063616e2063616e63655f8201527f6c2069742e000000000000000000000000000000000000000000000000000000602082015250565b5f6120d960258361206f565b91506120e48261207f565b604082019050919050565b5f6020820190508181035f830152612106816120cd565b9050919050565b7f5072696365206d7573742062652067726561746572207468616e207a65726f2e5f82015250565b5f61214160208361206f565b915061214c8261210d565b602082019050919050565b5f6020820190508181035f83015261216e81612135565b9050919050565b7f446561646c696e65206d7573742062652067726561746572207468616e207a655f8201527f726f2e0000000000000000000000000000000000000000000000000000000000602082015250565b5f6121cf60238361206f565b91506121da82612175565b604082019050919050565b5f6020820190508181035f8301526121fc816121c3565b9050919050565b7f4d757374206c697374206174206c65617374206f6e65204e46542e00000000005f82015250565b5f612237601b8361206f565b915061224282612203565b602082019050919050565b5f6020820190508181035f8301526122648161222b565b9050919050565b7f4e487b71000000000000000000000000000000000000000000000000000000005f52603260045260245ffd5b5f815190506122a681611aa2565b92915050565b5f602082840312156122c1576122c0611a0c565b5b5f6122ce84828501612298565b91505092915050565b7f596f75206d757374206f776e20746865204e465420746f206c6973742069742e5f82015250565b5f61230b60208361206f565b9150612316826122d7565b602082019050919050565b5f6020820190508181035f830152612338816122ff565b9050919050565b7f4e487b71000000000000000000000000000000000000000000000000000000005f52601160045260245ffd5b5f61237682611a14565b91507fffffffffffffffffffffffffffffffffffffffffffffffffffffffffffffffff82036123a8576123a761233f565b5b600182019050919050565b5f6123bd82611a14565b91506123c883611a14565b92508282019050808211156123e0576123df61233f565b5b92915050565b5f6060820190508181035f8301526123fe8186611dce565b905061240d6020830185611e4a565b61241a6040830184611e4a565b949350505050565b7f53656e742076616c7565206d7573742062652067726561746572207468616e205f8201527f7a65726f2e000000000000000000000000000000000000000000000000000000602082015250565b5f61247c60258361206f565b915061248782612422565b604082019050919050565b5f6020820190508181035f8301526124a981612470565b9050919050565b7f4c697374696e6720646f6573206e6f742065786973742e0000000000000000005f82015250565b5f6124e460178361206f565b91506124ef826124b0565b602082019050919050565b5f6020820190508181035f830152612511816124d8565b9050919050565b7f54686973206c697374696e672068617320657870697265642e000000000000005f82015250565b5f61254c60198361206f565b915061255782612518565b602082019050919050565b5f6020820190508181035f83015261257981612540565b9050919050565b7f53656e742076616c7565206d75737420626520657175616c20746f20746865205f8201527f6c697374696e672070726963652e000000000000000000000000000000000000602082015250565b5f6125da602e8361206f565b91506125e582612580565b604082019050919050565b5f6020820190508181035f830152612607816125ce565b9050919050565b5f61261882611a14565b915061262383611a14565b925082820261263181611a14565b915082820484148315176126485761264761233f565b5b5092915050565b7f4e487b71000000000000000000000000000000000000000000000000000000005f52601260045260245ffd5b5f61268682611a14565b915061269183611a14565b9250826126a1576126a061264f565b5b828204905092915050565b5f6126b682611a14565b91506126c183611a14565b92508282039050818111156126d9576126d861233f565b5b92915050565b7f53656c6c6572206e6f206c6f6e676572206f776e73206f6e65206f66207468655f8201527f204e4654732e0000000000000000000000000000000000000000000000000000602082015250565b5f61273960268361206f565b9150612744826126df565b604082019050919050565b5f6020820190508181035f8301526127668161272d565b9050919050565b5f6060820190506127805f830186611d4b565b61278d6020830185611d4b565b61279a6040830184611e4a565b949350505050565b7f4164647265737365732063616e6e6f74206265207a65726f00000000000000005f82015250565b5f6127d660188361206f565b91506127e1826127a2565b602082019050919050565b5f6020820190508181035f830152612803816127ca565b9050919050565b5f80fd5b5f67ffffffffffffffff82111561282857612827611ae0565b5b61283182611ad0565b9050602081019050919050565b5f61285061284b8461280e565b611b3e565b90508281526020810184848401111561286c5761286b61280a565b5b612877848285611eb5565b509392505050565b5f82601f83011261289357612892611acc565b5b81516128a384826020860161283e565b91505092915050565b5f602082840312156128c1576128c0611a0c565b5b5f82015167ffffffffffffffff8111156128de576128dd611a10565b5b6128ea8482850161287f565b91505092915050565b7f5265656e7472616e637947756172643a207265656e7472616e742063616c6c005f82015250565b5f612927601f8361206f565b9150612932826128f3565b602082019050919050565b5f6020820190508181035f8301526129548161291b565b9050919050565b7f5061757361626c653a20706175736564000000000000000000000000000000005f82015250565b5f61298f60108361206f565b915061299a8261295b565b602082019050919050565b5f6020820190508181035f8301526129bc81612983565b9050919050565b7f5061757361626c653a206e6f74207061757365640000000000000000000000005f82015250565b5f6129f760148361206f565b9150612a02826129c3565b602082019050919050565b5f6020820190508181035f830152612a24816129eb565b905091905056fea26469706673582212205e114c36efcf447d74c7c695b67fad902a50c8cd181667976a7ca57dc66b3e8f64736f6c63430008150033",
					"opcodes": "PUSH1 0x80 PUSH1 0x40 MSTORE PUSH1 0x1 PUSH1 0xA SSTORE CALLVALUE DUP1 ISZERO PUSH3 0x15 JUMPI PUSH0 DUP1 REVERT JUMPDEST POP PUSH1 0x40 MLOAD PUSH3 0x2F0A CODESIZE SUB DUP1 PUSH3 0x2F0A DUP4 CODECOPY DUP2 DUP2 ADD PUSH1 0x40 MSTORE DUP2 ADD SWAP1 PUSH3 0x3B SWAP2 SWAP1 PUSH3 0x382 JUMP JUMPDEST CALLER PUSH0 PUSH20 0xFFFFFFFFFFFFFFFFFFFFFFFFFFFFFFFFFFFFFFFF AND DUP2 PUSH20 0xFFFFFFFFFFFFFFFFFFFFFFFFFFFFFFFFFFFFFFFF AND SUB PUSH3 0xAF JUMPI PUSH0 PUSH1 0x40 MLOAD PUSH32 0x1E4FBDF700000000000000000000000000000000000000000000000000000000 DUP2 MSTORE PUSH1 0x4 ADD PUSH3 0xA6 SWAP2 SWAP1 PUSH3 0x402 JUMP JUMPDEST PUSH1 0x40 MLOAD DUP1 SWAP2 SUB SWAP1 REVERT JUMPDEST PUSH3 0xC0 DUP2 PUSH3 0x224 PUSH1 0x20 SHL PUSH1 0x20 SHR JUMP JUMPDEST POP PUSH1 0x1 DUP1 DUP2 SWAP1 SSTORE POP PUSH0 PUSH1 0x2 PUSH0 PUSH2 0x100 EXP DUP2 SLOAD DUP2 PUSH1 0xFF MUL NOT AND SWAP1 DUP4 ISZERO ISZERO MUL OR SWAP1 SSTORE POP PUSH0 PUSH20 0xFFFFFFFFFFFFFFFFFFFFFFFFFFFFFFFFFFFFFFFF AND DUP3 PUSH20 0xFFFFFFFFFFFFFFFFFFFFFFFFFFFFFFFFFFFFFFFF AND EQ ISZERO DUP1 ISZERO PUSH3 0x14A JUMPI POP PUSH0 PUSH20 0xFFFFFFFFFFFFFFFFFFFFFFFFFFFFFFFFFFFFFFFF AND DUP2 PUSH20 0xFFFFFFFFFFFFFFFFFFFFFFFFFFFFFFFFFFFFFFFF AND EQ ISZERO JUMPDEST PUSH3 0x18C JUMPI PUSH1 0x40 MLOAD PUSH32 0x8C379A000000000000000000000000000000000000000000000000000000000 DUP2 MSTORE PUSH1 0x4 ADD PUSH3 0x183 SWAP1 PUSH3 0x47B JUMP JUMPDEST PUSH1 0x40 MLOAD DUP1 SWAP2 SUB SWAP1 REVERT JUMPDEST DUP4 PUSH1 0x4 DUP2 SWAP1 SSTORE POP DUP3 PUSH1 0x5 DUP2 SWAP1 SSTORE POP DUP2 PUSH1 0x6 PUSH0 PUSH2 0x100 EXP DUP2 SLOAD DUP2 PUSH20 0xFFFFFFFFFFFFFFFFFFFFFFFFFFFFFFFFFFFFFFFF MUL NOT AND SWAP1 DUP4 PUSH20 0xFFFFFFFFFFFFFFFFFFFFFFFFFFFFFFFFFFFFFFFF AND MUL OR SWAP1 SSTORE POP DUP1 PUSH1 0x7 PUSH0 PUSH2 0x100 EXP DUP2 SLOAD DUP2 PUSH20 0xFFFFFFFFFFFFFFFFFFFFFFFFFFFFFFFFFFFFFFFF MUL NOT AND SWAP1 DUP4 PUSH20 0xFFFFFFFFFFFFFFFFFFFFFFFFFFFFFFFFFFFFFFFF AND MUL OR SWAP1 SSTORE POP POP POP POP POP PUSH3 0x49B JUMP JUMPDEST PUSH0 DUP1 PUSH0 SWAP1 SLOAD SWAP1 PUSH2 0x100 EXP SWAP1 DIV PUSH20 0xFFFFFFFFFFFFFFFFFFFFFFFFFFFFFFFFFFFFFFFF AND SWAP1 POP DUP2 PUSH0 DUP1 PUSH2 0x100 EXP DUP2 SLOAD DUP2 PUSH20 0xFFFFFFFFFFFFFFFFFFFFFFFFFFFFFFFFFFFFFFFF MUL NOT AND SWAP1 DUP4 PUSH20 0xFFFFFFFFFFFFFFFFFFFFFFFFFFFFFFFFFFFFFFFF AND MUL OR SWAP1 SSTORE POP DUP2 PUSH20 0xFFFFFFFFFFFFFFFFFFFFFFFFFFFFFFFFFFFFFFFF AND DUP2 PUSH20 0xFFFFFFFFFFFFFFFFFFFFFFFFFFFFFFFFFFFFFFFF AND PUSH32 0x8BE0079C531659141344CD1FD0A4F28419497F9722A3DAAFE3B4186F6B6457E0 PUSH1 0x40 MLOAD PUSH1 0x40 MLOAD DUP1 SWAP2 SUB SWAP1 LOG3 POP POP JUMP JUMPDEST PUSH0 DUP1 REVERT JUMPDEST PUSH0 DUP2 SWAP1 POP SWAP2 SWAP1 POP JUMP JUMPDEST PUSH3 0x2FD DUP2 PUSH3 0x2E9 JUMP JUMPDEST DUP2 EQ PUSH3 0x308 JUMPI PUSH0 DUP1 REVERT JUMPDEST POP JUMP JUMPDEST PUSH0 DUP2 MLOAD SWAP1 POP PUSH3 0x31B DUP2 PUSH3 0x2F2 JUMP JUMPDEST SWAP3 SWAP2 POP POP JUMP JUMPDEST PUSH0 PUSH20 0xFFFFFFFFFFFFFFFFFFFFFFFFFFFFFFFFFFFFFFFF DUP3 AND SWAP1 POP SWAP2 SWAP1 POP JUMP JUMPDEST PUSH0 PUSH3 0x34C DUP3 PUSH3 0x321 JUMP JUMPDEST SWAP1 POP SWAP2 SWAP1 POP JUMP JUMPDEST PUSH3 0x35E DUP2 PUSH3 0x340 JUMP JUMPDEST DUP2 EQ PUSH3 0x369 JUMPI PUSH0 DUP1 REVERT JUMPDEST POP JUMP JUMPDEST PUSH0 DUP2 MLOAD SWAP1 POP PUSH3 0x37C DUP2 PUSH3 0x353 JUMP JUMPDEST SWAP3 SWAP2 POP POP JUMP JUMPDEST PUSH0 DUP1 PUSH0 DUP1 PUSH1 0x80 DUP6 DUP8 SUB SLT ISZERO PUSH3 0x39D JUMPI PUSH3 0x39C PUSH3 0x2E5 JUMP JUMPDEST JUMPDEST PUSH0 PUSH3 0x3AC DUP8 DUP3 DUP9 ADD PUSH3 0x30B JUMP JUMPDEST SWAP5 POP POP PUSH1 0x20 PUSH3 0x3BF DUP8 DUP3 DUP9 ADD PUSH3 0x30B JUMP JUMPDEST SWAP4 POP POP PUSH1 0x40 PUSH3 0x3D2 DUP8 DUP3 DUP9 ADD PUSH3 0x36C JUMP JUMPDEST SWAP3 POP POP PUSH1 0x60 PUSH3 0x3E5 DUP8 DUP3 DUP9 ADD PUSH3 0x36C JUMP JUMPDEST SWAP2 POP POP SWAP3 SWAP6 SWAP2 SWAP5 POP SWAP3 POP JUMP JUMPDEST PUSH3 0x3FC DUP2 PUSH3 0x340 JUMP JUMPDEST DUP3 MSTORE POP POP JUMP JUMPDEST PUSH0 PUSH1 0x20 DUP3 ADD SWAP1 POP PUSH3 0x417 PUSH0 DUP4 ADD DUP5 PUSH3 0x3F1 JUMP JUMPDEST SWAP3 SWAP2 POP POP JUMP JUMPDEST PUSH0 DUP3 DUP3 MSTORE PUSH1 0x20 DUP3 ADD SWAP1 POP SWAP3 SWAP2 POP POP JUMP JUMPDEST PUSH32 0x4164647265737365732063616E6E6F74206265207A65726F0000000000000000 PUSH0 DUP3 ADD MSTORE POP JUMP JUMPDEST PUSH0 PUSH3 0x463 PUSH1 0x18 DUP4 PUSH3 0x41D JUMP JUMPDEST SWAP2 POP PUSH3 0x470 DUP3 PUSH3 0x42D JUMP JUMPDEST PUSH1 0x20 DUP3 ADD SWAP1 POP SWAP2 SWAP1 POP JUMP JUMPDEST PUSH0 PUSH1 0x20 DUP3 ADD SWAP1 POP DUP2 DUP2 SUB PUSH0 DUP4 ADD MSTORE PUSH3 0x494 DUP2 PUSH3 0x455 JUMP JUMPDEST SWAP1 POP SWAP2 SWAP1 POP JUMP JUMPDEST PUSH2 0x2A61 DUP1 PUSH3 0x4A9 PUSH0 CODECOPY PUSH0 RETURN INVALID PUSH1 0x80 PUSH1 0x40 MSTORE PUSH1 0x4 CALLDATASIZE LT PUSH2 0x129 JUMPI PUSH0 CALLDATALOAD PUSH1 0xE0 SHR DUP1 PUSH4 0x85DD3008 GT PUSH2 0xAA JUMPI DUP1 PUSH4 0xB9314135 GT PUSH2 0x6E JUMPI DUP1 PUSH4 0xB9314135 EQ PUSH2 0x363 JUMPI DUP1 PUSH4 0xCDD78CFC EQ PUSH2 0x39F JUMPI DUP1 PUSH4 0xDE74E57B EQ PUSH2 0x3C9 JUMPI DUP1 PUSH4 0xE3B6A1F6 EQ PUSH2 0x408 JUMPI DUP1 PUSH4 0xED14834F EQ PUSH2 0x444 JUMPI DUP1 PUSH4 0xF2FDE38B EQ PUSH2 0x46E JUMPI PUSH2 0x129 JUMP JUMPDEST DUP1 PUSH4 0x85DD3008 EQ PUSH2 0x291 JUMPI DUP1 PUSH4 0x8A71BB2D EQ PUSH2 0x2BB JUMPI DUP1 PUSH4 0x8DA5CB5B EQ PUSH2 0x2E5 JUMPI DUP1 PUSH4 0xAACCF1EC EQ PUSH2 0x30F JUMPI DUP1 PUSH4 0xAD2F852A EQ PUSH2 0x339 JUMPI PUSH2 0x129 JUMP JUMPDEST DUP1 PUSH4 0x5E4E8D65 GT PUSH2 0xF1 JUMPI DUP1 PUSH4 0x5E4E8D65 EQ PUSH2 0x1D9 JUMPI DUP1 PUSH4 0x715018A6 EQ PUSH2 0x201 JUMPI DUP1 PUSH4 0x78578BB3 EQ PUSH2 0x217 JUMPI DUP1 PUSH4 0x7BDACEEF EQ PUSH2 0x23F JUMPI DUP1 PUSH4 0x8456CB59 EQ PUSH2 0x27B JUMPI PUSH2 0x129 JUMP JUMPDEST DUP1 PUSH4 0x305A67A8 EQ PUSH2 0x12D JUMPI DUP1 PUSH4 0x3F4BA83A EQ PUSH2 0x155 JUMPI DUP1 PUSH4 0x4E313796 EQ PUSH2 0x16B JUMPI DUP1 PUSH4 0x51ED8288 EQ PUSH2 0x193 JUMPI DUP1 PUSH4 0x5C975ABB EQ PUSH2 0x1AF JUMPI JUMPDEST PUSH0 DUP1 REVERT JUMPDEST CALLVALUE DUP1 ISZERO PUSH2 0x138 JUMPI PUSH0 DUP1 REVERT JUMPDEST POP PUSH2 0x153 PUSH1 0x4 DUP1 CALLDATASIZE SUB DUP2 ADD SWAP1 PUSH2 0x14E SWAP2 SWAP1 PUSH2 0x1A47 JUMP JUMPDEST PUSH2 0x496 JUMP JUMPDEST STOP JUMPDEST CALLVALUE DUP1 ISZERO PUSH2 0x160 JUMPI PUSH0 DUP1 REVERT JUMPDEST POP PUSH2 0x169 PUSH2 0x623 JUMP JUMPDEST STOP JUMPDEST CALLVALUE DUP1 ISZERO PUSH2 0x176 JUMPI PUSH0 DUP1 REVERT JUMPDEST POP PUSH2 0x191 PUSH1 0x4 DUP1 CALLDATASIZE SUB DUP2 ADD SWAP1 PUSH2 0x18C SWAP2 SWAP1 PUSH2 0x1C1C JUMP JUMPDEST PUSH2 0x645 JUMP JUMPDEST STOP JUMPDEST PUSH2 0x1AD PUSH1 0x4 DUP1 CALLDATASIZE SUB DUP2 ADD SWAP1 PUSH2 0x1A8 SWAP2 SWAP1 PUSH2 0x1A47 JUMP JUMPDEST PUSH2 0xA88 JUMP JUMPDEST STOP JUMPDEST CALLVALUE DUP1 ISZERO PUSH2 0x1BA JUMPI PUSH0 DUP1 REVERT JUMPDEST POP PUSH2 0x1C3 PUSH2 0x105C JUMP JUMPDEST PUSH1 0x40 MLOAD PUSH2 0x1D0 SWAP2 SWAP1 PUSH2 0x1CB6 JUMP JUMPDEST PUSH1 0x40 MLOAD DUP1 SWAP2 SUB SWAP1 RETURN JUMPDEST CALLVALUE DUP1 ISZERO PUSH2 0x1E4 JUMPI PUSH0 DUP1 REVERT JUMPDEST POP PUSH2 0x1FF PUSH1 0x4 DUP1 CALLDATASIZE SUB DUP2 ADD SWAP1 PUSH2 0x1FA SWAP2 SWAP1 PUSH2 0x1CCF JUMP JUMPDEST PUSH2 0x1071 JUMP JUMPDEST STOP JUMPDEST CALLVALUE DUP1 ISZERO PUSH2 0x20C JUMPI PUSH0 DUP1 REVERT JUMPDEST POP PUSH2 0x215 PUSH2 0x11B4 JUMP JUMPDEST STOP JUMPDEST CALLVALUE DUP1 ISZERO PUSH2 0x222 JUMPI PUSH0 DUP1 REVERT JUMPDEST POP PUSH2 0x23D PUSH1 0x4 DUP1 CALLDATASIZE SUB DUP2 ADD SWAP1 PUSH2 0x238 SWAP2 SWAP1 PUSH2 0x1D0D JUMP JUMPDEST PUSH2 0x11C7 JUMP JUMPDEST STOP JUMPDEST CALLVALUE DUP1 ISZERO PUSH2 0x24A JUMPI PUSH0 DUP1 REVERT JUMPDEST POP PUSH2 0x265 PUSH1 0x4 DUP1 CALLDATASIZE SUB DUP2 ADD SWAP1 PUSH2 0x260 SWAP2 SWAP1 PUSH2 0x1A47 JUMP JUMPDEST PUSH2 0x11F1 JUMP JUMPDEST PUSH1 0x40 MLOAD PUSH2 0x272 SWAP2 SWAP1 PUSH2 0x1D5A JUMP JUMPDEST PUSH1 0x40 MLOAD DUP1 SWAP2 SUB SWAP1 RETURN JUMPDEST CALLVALUE DUP1 ISZERO PUSH2 0x286 JUMPI PUSH0 DUP1 REVERT JUMPDEST POP PUSH2 0x28F PUSH2 0x1221 JUMP JUMPDEST STOP JUMPDEST CALLVALUE DUP1 ISZERO PUSH2 0x29C JUMPI PUSH0 DUP1 REVERT JUMPDEST POP PUSH2 0x2A5 PUSH2 0x1243 JUMP JUMPDEST PUSH1 0x40 MLOAD PUSH2 0x2B2 SWAP2 SWAP1 PUSH2 0x1E2A JUMP JUMPDEST PUSH1 0x40 MLOAD DUP1 SWAP2 SUB SWAP1 RETURN JUMPDEST CALLVALUE DUP1 ISZERO PUSH2 0x2C6 JUMPI PUSH0 DUP1 REVERT JUMPDEST POP PUSH2 0x2CF PUSH2 0x1299 JUMP JUMPDEST PUSH1 0x40 MLOAD PUSH2 0x2DC SWAP2 SWAP1 PUSH2 0x1E59 JUMP JUMPDEST PUSH1 0x40 MLOAD DUP1 SWAP2 SUB SWAP1 RETURN JUMPDEST CALLVALUE DUP1 ISZERO PUSH2 0x2F0 JUMPI PUSH0 DUP1 REVERT JUMPDEST POP PUSH2 0x2F9 PUSH2 0x129F JUMP JUMPDEST PUSH1 0x40 MLOAD PUSH2 0x306 SWAP2 SWAP1 PUSH2 0x1D5A JUMP JUMPDEST PUSH1 0x40 MLOAD DUP1 SWAP2 SUB SWAP1 RETURN JUMPDEST CALLVALUE DUP1 ISZERO PUSH2 0x31A JUMPI PUSH0 DUP1 REVERT JUMPDEST POP PUSH2 0x323 PUSH2 0x12C6 JUMP JUMPDEST PUSH1 0x40 MLOAD PUSH2 0x330 SWAP2 SWAP1 PUSH2 0x1E59 JUMP JUMPDEST PUSH1 0x40 MLOAD DUP1 SWAP2 SUB SWAP1 RETURN JUMPDEST CALLVALUE DUP1 ISZERO PUSH2 0x344 JUMPI PUSH0 DUP1 REVERT JUMPDEST POP PUSH2 0x34D PUSH2 0x12CC JUMP JUMPDEST PUSH1 0x40 MLOAD PUSH2 0x35A SWAP2 SWAP1 PUSH2 0x1D5A JUMP JUMPDEST PUSH1 0x40 MLOAD DUP1 SWAP2 SUB SWAP1 RETURN JUMPDEST CALLVALUE DUP1 ISZERO PUSH2 0x36E JUMPI PUSH0 DUP1 REVERT JUMPDEST POP PUSH2 0x389 PUSH1 0x4 DUP1 CALLDATASIZE SUB DUP2 ADD SWAP1 PUSH2 0x384 SWAP2 SWAP1 PUSH2 0x1A47 JUMP JUMPDEST PUSH2 0x12F1 JUMP JUMPDEST PUSH1 0x40 MLOAD PUSH2 0x396 SWAP2 SWAP1 PUSH2 0x1FE1 JUMP JUMPDEST PUSH1 0x40 MLOAD DUP1 SWAP2 SUB SWAP1 RETURN JUMPDEST CALLVALUE DUP1 ISZERO PUSH2 0x3AA JUMPI PUSH0 DUP1 REVERT JUMPDEST POP PUSH2 0x3B3 PUSH2 0x1530 JUMP JUMPDEST PUSH1 0x40 MLOAD PUSH2 0x3C0 SWAP2 SWAP1 PUSH2 0x1E59 JUMP JUMPDEST PUSH1 0x40 MLOAD DUP1 SWAP2 SUB SWAP1 RETURN JUMPDEST CALLVALUE DUP1 ISZERO PUSH2 0x3D4 JUMPI PUSH0 DUP1 REVERT JUMPDEST POP PUSH2 0x3EF PUSH1 0x4 DUP1 CALLDATASIZE SUB DUP2 ADD SWAP1 PUSH2 0x3EA SWAP2 SWAP1 PUSH2 0x1A47 JUMP JUMPDEST PUSH2 0x1536 JUMP JUMPDEST PUSH1 0x40 MLOAD PUSH2 0x3FF SWAP5 SWAP4 SWAP3 SWAP2 SWAP1 PUSH2 0x2001 JUMP JUMPDEST PUSH1 0x40 MLOAD DUP1 SWAP2 SUB SWAP1 RETURN JUMPDEST CALLVALUE DUP1 ISZERO PUSH2 0x413 JUMPI PUSH0 DUP1 REVERT JUMPDEST POP PUSH2 0x42E PUSH1 0x4 DUP1 CALLDATASIZE SUB DUP2 ADD SWAP1 PUSH2 0x429 SWAP2 SWAP1 PUSH2 0x1A47 JUMP JUMPDEST PUSH2 0x15A0 JUMP JUMPDEST PUSH1 0x40 MLOAD PUSH2 0x43B SWAP2 SWAP1 PUSH2 0x1E59 JUMP JUMPDEST PUSH1 0x40 MLOAD DUP1 SWAP2 SUB SWAP1 RETURN JUMPDEST CALLVALUE DUP1 ISZERO PUSH2 0x44F JUMPI PUSH0 DUP1 REVERT JUMPDEST POP PUSH2 0x458 PUSH2 0x15C0 JUMP JUMPDEST PUSH1 0x40 MLOAD PUSH2 0x465 SWAP2 SWAP1 PUSH2 0x1D5A JUMP JUMPDEST PUSH1 0x40 MLOAD DUP1 SWAP2 SUB SWAP1 RETURN JUMPDEST CALLVALUE DUP1 ISZERO PUSH2 0x479 JUMPI PUSH0 DUP1 REVERT JUMPDEST POP PUSH2 0x494 PUSH1 0x4 DUP1 CALLDATASIZE SUB DUP2 ADD SWAP1 PUSH2 0x48F SWAP2 SWAP1 PUSH2 0x2044 JUMP JUMPDEST PUSH2 0x15E5 JUMP JUMPDEST STOP JUMPDEST PUSH2 0x49E PUSH2 0x1669 JUMP JUMPDEST CALLER PUSH20 0xFFFFFFFFFFFFFFFFFFFFFFFFFFFFFFFFFFFFFFFF AND PUSH1 0x9 PUSH0 DUP4 DUP2 MSTORE PUSH1 0x20 ADD SWAP1 DUP2 MSTORE PUSH1 0x20 ADD PUSH0 KECCAK256 PUSH0 SWAP1 SLOAD SWAP1 PUSH2 0x100 EXP SWAP1 DIV PUSH20 0xFFFFFFFFFFFFFFFFFFFFFFFFFFFFFFFFFFFFFFFF AND PUSH20 0xFFFFFFFFFFFFFFFFFFFFFFFFFFFFFFFFFFFFFFFF AND EQ PUSH2 0x53C JUMPI PUSH1 0x40 MLOAD PUSH32 0x8C379A000000000000000000000000000000000000000000000000000000000 DUP2 MSTORE PUSH1 0x4 ADD PUSH2 0x533 SWAP1 PUSH2 0x20EF JUMP JUMPDEST PUSH1 0x40 MLOAD DUP1 SWAP2 SUB SWAP1 REVERT JUMPDEST PUSH1 0x8 PUSH0 DUP3 DUP2 MSTORE PUSH1 0x20 ADD SWAP1 DUP2 MSTORE PUSH1 0x20 ADD PUSH0 KECCAK256 PUSH0 DUP1 DUP3 ADD PUSH0 PUSH2 0x100 EXP DUP2 SLOAD SWAP1 PUSH20 0xFFFFFFFFFFFFFFFFFFFFFFFFFFFFFFFFFFFFFFFF MUL NOT AND SWAP1 SSTORE PUSH1 0x1 DUP3 ADD PUSH0 PUSH2 0x582 SWAP2 SWAP1 PUSH2 0x1966 JUMP JUMPDEST PUSH1 0x2 DUP3 ADD PUSH0 PUSH2 0x100 EXP DUP2 SLOAD SWAP1 PUSH20 0xFFFFFFFFFFFFFFFFFFFFFFFFFFFFFFFFFFFFFFFF MUL NOT AND SWAP1 SSTORE PUSH1 0x3 DUP3 ADD PUSH0 SWAP1 SSTORE PUSH1 0x4 DUP3 ADD PUSH0 SWAP1 SSTORE POP POP PUSH1 0x9 PUSH0 DUP3 DUP2 MSTORE PUSH1 0x20 ADD SWAP1 DUP2 MSTORE PUSH1 0x20 ADD PUSH0 KECCAK256 PUSH0 PUSH2 0x100 EXP DUP2 SLOAD SWAP1 PUSH20 0xFFFFFFFFFFFFFFFFFFFFFFFFFFFFFFFFFFFFFFFF MUL NOT AND SWAP1 SSTORE DUP1 PUSH32 0xC0C55A6EDEAD4433D18CB1E287A0A20A2FA003A6F483BC9823D2E504D70D1C67 PUSH1 0x40 MLOAD PUSH1 0x40 MLOAD DUP1 SWAP2 SUB SWAP1 LOG2 PUSH2 0x620 PUSH2 0x16B8 JUMP JUMPDEST POP JUMP JUMPDEST PUSH2 0x62B PUSH2 0x16C1 JUMP JUMPDEST PUSH2 0x633 PUSH2 0x1669 JUMP JUMPDEST PUSH2 0x63B PUSH2 0x1748 JUMP JUMPDEST PUSH2 0x643 PUSH2 0x16B8 JUMP JUMPDEST JUMP JUMPDEST PUSH2 0x64D PUSH2 0x17A9 JUMP JUMPDEST PUSH2 0x655 PUSH2 0x1669 JUMP JUMPDEST PUSH0 DUP3 GT PUSH2 0x697 JUMPI PUSH1 0x40 MLOAD PUSH32 0x8C379A000000000000000000000000000000000000000000000000000000000 DUP2 MSTORE PUSH1 0x4 ADD PUSH2 0x68E SWAP1 PUSH2 0x2157 JUMP JUMPDEST PUSH1 0x40 MLOAD DUP1 SWAP2 SUB SWAP1 REVERT JUMPDEST PUSH0 DUP2 GT PUSH2 0x6D9 JUMPI PUSH1 0x40 MLOAD PUSH32 0x8C379A000000000000000000000000000000000000000000000000000000000 DUP2 MSTORE PUSH1 0x4 ADD PUSH2 0x6D0 SWAP1 PUSH2 0x21E5 JUMP JUMPDEST PUSH1 0x40 MLOAD DUP1 SWAP2 SUB SWAP1 REVERT JUMPDEST PUSH0 DUP4 MLOAD GT PUSH2 0x71C JUMPI PUSH1 0x40 MLOAD PUSH32 0x8C379A000000000000000000000000000000000000000000000000000000000 DUP2 MSTORE PUSH1 0x4 ADD PUSH2 0x713 SWAP1 PUSH2 0x224D JUMP JUMPDEST PUSH1 0x40 MLOAD DUP1 SWAP2 SUB SWAP1 REVERT JUMPDEST PUSH0 DUP5 SWAP1 POP PUSH0 JUMPDEST DUP5 MLOAD DUP2 LT ISZERO PUSH2 0x842 JUMPI PUSH0 DUP6 DUP3 DUP2 MLOAD DUP2 LT PUSH2 0x73F JUMPI PUSH2 0x73E PUSH2 0x226B JUMP JUMPDEST JUMPDEST PUSH1 0x20 MUL PUSH1 0x20 ADD ADD MLOAD SWAP1 POP CALLER PUSH20 0xFFFFFFFFFFFFFFFFFFFFFFFFFFFFFFFFFFFFFFFF AND DUP4 PUSH20 0xFFFFFFFFFFFFFFFFFFFFFFFFFFFFFFFFFFFFFFFF AND PUSH4 0x6352211E DUP4 PUSH1 0x40 MLOAD DUP3 PUSH4 0xFFFFFFFF AND PUSH1 0xE0 SHL DUP2 MSTORE PUSH1 0x4 ADD PUSH2 0x799 SWAP2 SWAP1 PUSH2 0x1E59 JUMP JUMPDEST PUSH1 0x20 PUSH1 0x40 MLOAD DUP1 DUP4 SUB DUP2 DUP7 GAS STATICCALL ISZERO DUP1 ISZERO PUSH2 0x7B4 JUMPI RETURNDATASIZE PUSH0 DUP1 RETURNDATACOPY RETURNDATASIZE PUSH0 REVERT JUMPDEST POP POP POP POP PUSH1 0x40 MLOAD RETURNDATASIZE PUSH1 0x1F NOT PUSH1 0x1F DUP3 ADD AND DUP3 ADD DUP1 PUSH1 0x40 MSTORE POP DUP2 ADD SWAP1 PUSH2 0x7D8 SWAP2 SWAP1 PUSH2 0x22AC JUMP JUMPDEST PUSH20 0xFFFFFFFFFFFFFFFFFFFFFFFFFFFFFFFFFFFFFFFF AND EQ PUSH2 0x82E JUMPI PUSH1 0x40 MLOAD PUSH32 0x8C379A000000000000000000000000000000000000000000000000000000000 DUP2 MSTORE PUSH1 0x4 ADD PUSH2 0x825 SWAP1 PUSH2 0x2321 JUMP JUMPDEST PUSH1 0x40 MLOAD DUP1 SWAP2 SUB SWAP1 REVERT JUMPDEST POP DUP1 DUP1 PUSH2 0x83A SWAP1 PUSH2 0x236C JUMP JUMPDEST SWAP2 POP POP PUSH2 0x722 JUMP JUMPDEST POP PUSH1 0x40 MLOAD DUP1 PUSH1 0xA0 ADD PUSH1 0x40 MSTORE DUP1 DUP7 PUSH20 0xFFFFFFFFFFFFFFFFFFFFFFFFFFFFFFFFFFFFFFFF AND DUP2 MSTORE PUSH1 0x20 ADD DUP6 DUP2 MSTORE PUSH1 0x20 ADD CALLER PUSH20 0xFFFFFFFFFFFFFFFFFFFFFFFFFFFFFFFFFFFFFFFF AND DUP2 MSTORE PUSH1 0x20 ADD DUP5 DUP2 MSTORE PUSH1 0x20 ADD DUP4 TIMESTAMP PUSH2 0x89E SWAP2 SWAP1 PUSH2 0x23B3 JUMP JUMPDEST DUP2 MSTORE POP PUSH1 0x8 PUSH0 PUSH1 0xA SLOAD DUP2 MSTORE PUSH1 0x20 ADD SWAP1 DUP2 MSTORE PUSH1 0x20 ADD PUSH0 KECCAK256 PUSH0 DUP3 ADD MLOAD DUP2 PUSH0 ADD PUSH0 PUSH2 0x100 EXP DUP2 SLOAD DUP2 PUSH20 0xFFFFFFFFFFFFFFFFFFFFFFFFFFFFFFFFFFFFFFFF MUL NOT AND SWAP1 DUP4 PUSH20 0xFFFFFFFFFFFFFFFFFFFFFFFFFFFFFFFFFFFFFFFF AND MUL OR SWAP1 SSTORE POP PUSH1 0x20 DUP3 ADD MLOAD DUP2 PUSH1 0x1 ADD SWAP1 DUP1 MLOAD SWAP1 PUSH1 0x20 ADD SWAP1 PUSH2 0x914 SWAP3 SWAP2 SWAP1 PUSH2 0x1984 JUMP JUMPDEST POP PUSH1 0x40 DUP3 ADD MLOAD DUP2 PUSH1 0x2 ADD PUSH0 PUSH2 0x100 EXP DUP2 SLOAD DUP2 PUSH20 0xFFFFFFFFFFFFFFFFFFFFFFFFFFFFFFFFFFFFFFFF MUL NOT AND SWAP1 DUP4 PUSH20 0xFFFFFFFFFFFFFFFFFFFFFFFFFFFFFFFFFFFFFFFF AND MUL OR SWAP1 SSTORE POP PUSH1 0x60 DUP3 ADD MLOAD DUP2 PUSH1 0x3 ADD SSTORE PUSH1 0x80 DUP3 ADD MLOAD DUP2 PUSH1 0x4 ADD SSTORE SWAP1 POP POP CALLER PUSH1 0x9 PUSH0 PUSH1 0xA SLOAD DUP2 MSTORE PUSH1 0x20 ADD SWAP1 DUP2 MSTORE PUSH1 0x20 ADD PUSH0 KECCAK256 PUSH0 PUSH2 0x100 EXP DUP2 SLOAD DUP2 PUSH20 0xFFFFFFFFFFFFFFFFFFFFFFFFFFFFFFFFFFFFFFFF MUL NOT AND SWAP1 DUP4 PUSH20 0xFFFFFFFFFFFFFFFFFFFFFFFFFFFFFFFFFFFFFFFF AND MUL OR SWAP1 SSTORE POP PUSH1 0x3 PUSH1 0xA SLOAD SWAP1 DUP1 PUSH1 0x1 DUP2 SLOAD ADD DUP1 DUP3 SSTORE DUP1 SWAP2 POP POP PUSH1 0x1 SWAP1 SUB SWAP1 PUSH0 MSTORE PUSH1 0x20 PUSH0 KECCAK256 ADD PUSH0 SWAP1 SWAP2 SWAP1 SWAP2 SWAP1 SWAP2 POP SSTORE DUP5 PUSH20 0xFFFFFFFFFFFFFFFFFFFFFFFFFFFFFFFFFFFFFFFF AND CALLER PUSH20 0xFFFFFFFFFFFFFFFFFFFFFFFFFFFFFFFFFFFFFFFF AND PUSH1 0xA SLOAD PUSH32 0xB135AB5D6FB2741EFA75BF597E471845CA0A87FC756C5AB2A23F77639E3A8941 DUP8 DUP8 DUP8 TIMESTAMP PUSH2 0xA4B SWAP2 SWAP1 PUSH2 0x23B3 JUMP JUMPDEST PUSH1 0x40 MLOAD PUSH2 0xA5A SWAP4 SWAP3 SWAP2 SWAP1 PUSH2 0x23E6 JUMP JUMPDEST PUSH1 0x40 MLOAD DUP1 SWAP2 SUB SWAP1 LOG4 PUSH1 0xA PUSH0 DUP2 SLOAD DUP1 SWAP3 SWAP2 SWAP1 PUSH2 0xA74 SWAP1 PUSH2 0x236C JUMP JUMPDEST SWAP2 SWAP1 POP SSTORE POP POP PUSH2 0xA82 PUSH2 0x16B8 JUMP JUMPDEST POP POP POP POP JUMP JUMPDEST PUSH2 0xA90 PUSH2 0x17A9 JUMP JUMPDEST PUSH2 0xA98 PUSH2 0x1669 JUMP JUMPDEST PUSH0 CALLVALUE GT PUSH2 0xADA JUMPI PUSH1 0x40 MLOAD PUSH32 0x8C379A000000000000000000000000000000000000000000000000000000000 DUP2 MSTORE PUSH1 0x4 ADD PUSH2 0xAD1 SWAP1 PUSH2 0x2492 JUMP JUMPDEST PUSH1 0x40 MLOAD DUP1 SWAP2 SUB SWAP1 REVERT JUMPDEST PUSH0 PUSH1 0x8 PUSH0 DUP4 DUP2 MSTORE PUSH1 0x20 ADD SWAP1 DUP2 MSTORE PUSH1 0x20 ADD PUSH0 KECCAK256 SWAP1 POP PUSH0 PUSH20 0xFFFFFFFFFFFFFFFFFFFFFFFFFFFFFFFFFFFFFFFF AND DUP2 PUSH1 0x2 ADD PUSH0 SWAP1 SLOAD SWAP1 PUSH2 0x100 EXP SWAP1 DIV PUSH20 0xFFFFFFFFFFFFFFFFFFFFFFFFFFFFFFFFFFFFFFFF AND PUSH20 0xFFFFFFFFFFFFFFFFFFFFFFFFFFFFFFFFFFFFFFFF AND SUB PUSH2 0xB7F JUMPI PUSH1 0x40 MLOAD PUSH32 0x8C379A000000000000000000000000000000000000000000000000000000000 DUP2 MSTORE PUSH1 0x4 ADD PUSH2 0xB76 SWAP1 PUSH2 0x24FA JUMP JUMPDEST PUSH1 0x40 MLOAD DUP1 SWAP2 SUB SWAP1 REVERT JUMPDEST DUP1 PUSH1 0x4 ADD SLOAD TIMESTAMP GT ISZERO PUSH2 0xBC6 JUMPI PUSH1 0x40 MLOAD PUSH32 0x8C379A000000000000000000000000000000000000000000000000000000000 DUP2 MSTORE PUSH1 0x4 ADD PUSH2 0xBBD SWAP1 PUSH2 0x2562 JUMP JUMPDEST PUSH1 0x40 MLOAD DUP1 SWAP2 SUB SWAP1 REVERT JUMPDEST DUP1 PUSH1 0x3 ADD SLOAD CALLVALUE EQ PUSH2 0xC0C JUMPI PUSH1 0x40 MLOAD PUSH32 0x8C379A000000000000000000000000000000000000000000000000000000000 DUP2 MSTORE PUSH1 0x4 ADD PUSH2 0xC03 SWAP1 PUSH2 0x25F0 JUMP JUMPDEST PUSH1 0x40 MLOAD DUP1 SWAP2 SUB SWAP1 REVERT JUMPDEST PUSH0 PUSH2 0x2710 PUSH1 0x4 SLOAD DUP4 PUSH1 0x3 ADD SLOAD PUSH2 0xC22 SWAP2 SWAP1 PUSH2 0x260E JUMP JUMPDEST PUSH2 0xC2C SWAP2 SWAP1 PUSH2 0x267C JUMP JUMPDEST SWAP1 POP PUSH0 PUSH2 0x2710 PUSH1 0x5 SLOAD DUP5 PUSH1 0x3 ADD SLOAD PUSH2 0xC44 SWAP2 SWAP1 PUSH2 0x260E JUMP JUMPDEST PUSH2 0xC4E SWAP2 SWAP1 PUSH2 0x267C JUMP JUMPDEST SWAP1 POP PUSH0 DUP2 DUP4 DUP6 PUSH1 0x3 ADD SLOAD PUSH2 0xC62 SWAP2 SWAP1 PUSH2 0x26AC JUMP JUMPDEST PUSH2 0xC6C SWAP2 SWAP1 PUSH2 0x26AC JUMP JUMPDEST SWAP1 POP PUSH0 JUMPDEST DUP5 PUSH1 0x1 ADD DUP1 SLOAD SWAP1 POP DUP2 LT ISZERO PUSH2 0xE8E JUMPI PUSH0 DUP6 PUSH1 0x1 ADD DUP3 DUP2 SLOAD DUP2 LT PUSH2 0xC96 JUMPI PUSH2 0xC95 PUSH2 0x226B JUMP JUMPDEST JUMPDEST SWAP1 PUSH0 MSTORE PUSH1 0x20 PUSH0 KECCAK256 ADD SLOAD SWAP1 POP DUP6 PUSH1 0x2 ADD PUSH0 SWAP1 SLOAD SWAP1 PUSH2 0x100 EXP SWAP1 DIV PUSH20 0xFFFFFFFFFFFFFFFFFFFFFFFFFFFFFFFFFFFFFFFF AND PUSH20 0xFFFFFFFFFFFFFFFFFFFFFFFFFFFFFFFFFFFFFFFF AND DUP7 PUSH0 ADD PUSH0 SWAP1 SLOAD SWAP1 PUSH2 0x100 EXP SWAP1 DIV PUSH20 0xFFFFFFFFFFFFFFFFFFFFFFFFFFFFFFFFFFFFFFFF AND PUSH20 0xFFFFFFFFFFFFFFFFFFFFFFFFFFFFFFFFFFFFFFFF AND PUSH4 0x6352211E DUP4 PUSH1 0x40 MLOAD DUP3 PUSH4 0xFFFFFFFF AND PUSH1 0xE0 SHL DUP2 MSTORE PUSH1 0x4 ADD PUSH2 0xD36 SWAP2 SWAP1 PUSH2 0x1E59 JUMP JUMPDEST PUSH1 0x20 PUSH1 0x40 MLOAD DUP1 DUP4 SUB DUP2 DUP7 GAS STATICCALL ISZERO DUP1 ISZERO PUSH2 0xD51 JUMPI RETURNDATASIZE PUSH0 DUP1 RETURNDATACOPY RETURNDATASIZE PUSH0 REVERT JUMPDEST POP POP POP POP PUSH1 0x40 MLOAD RETURNDATASIZE PUSH1 0x1F NOT PUSH1 0x1F DUP3 ADD AND DUP3 ADD DUP1 PUSH1 0x40 MSTORE POP DUP2 ADD SWAP1 PUSH2 0xD75 SWAP2 SWAP1 PUSH2 0x22AC JUMP JUMPDEST PUSH20 0xFFFFFFFFFFFFFFFFFFFFFFFFFFFFFFFFFFFFFFFF AND EQ PUSH2 0xDCB JUMPI PUSH1 0x40 MLOAD PUSH32 0x8C379A000000000000000000000000000000000000000000000000000000000 DUP2 MSTORE PUSH1 0x4 ADD PUSH2 0xDC2 SWAP1 PUSH2 0x274F JUMP JUMPDEST PUSH1 0x40 MLOAD DUP1 SWAP2 SUB SWAP1 REVERT JUMPDEST DUP6 PUSH0 ADD PUSH0 SWAP1 SLOAD SWAP1 PUSH2 0x100 EXP SWAP1 DIV PUSH20 0xFFFFFFFFFFFFFFFFFFFFFFFFFFFFFFFFFFFFFFFF AND PUSH20 0xFFFFFFFFFFFFFFFFFFFFFFFFFFFFFFFFFFFFFFFF AND PUSH4 0x23B872DD DUP8 PUSH1 0x2 ADD PUSH0 SWAP1 SLOAD SWAP1 PUSH2 0x100 EXP SWAP1 DIV PUSH20 0xFFFFFFFFFFFFFFFFFFFFFFFFFFFFFFFFFFFFFFFF AND CALLER DUP5 PUSH1 0x40 MLOAD DUP5 PUSH4 0xFFFFFFFF AND PUSH1 0xE0 SHL DUP2 MSTORE PUSH1 0x4 ADD PUSH2 0xE4D SWAP4 SWAP3 SWAP2 SWAP1 PUSH2 0x276D JUMP JUMPDEST PUSH0 PUSH1 0x40 MLOAD DUP1 DUP4 SUB DUP2 PUSH0 DUP8 DUP1 EXTCODESIZE ISZERO DUP1 ISZERO PUSH2 0xE64 JUMPI PUSH0 DUP1 REVERT JUMPDEST POP GAS CALL ISZERO DUP1 ISZERO PUSH2 0xE76 JUMPI RETURNDATASIZE PUSH0 DUP1 RETURNDATACOPY RETURNDATASIZE PUSH0 REVERT JUMPDEST POP POP POP POP POP DUP1 DUP1 PUSH2 0xE86 SWAP1 PUSH2 0x236C JUMP JUMPDEST SWAP2 POP POP PUSH2 0xC70 JUMP JUMPDEST POP DUP4 PUSH1 0x2 ADD PUSH0 SWAP1 SLOAD SWAP1 PUSH2 0x100 EXP SWAP1 DIV PUSH20 0xFFFFFFFFFFFFFFFFFFFFFFFFFFFFFFFFFFFFFFFF AND PUSH20 0xFFFFFFFFFFFFFFFFFFFFFFFFFFFFFFFFFFFFFFFF AND PUSH2 0x8FC DUP3 SWAP1 DUP2 ISZERO MUL SWAP1 PUSH1 0x40 MLOAD PUSH0 PUSH1 0x40 MLOAD DUP1 DUP4 SUB DUP2 DUP6 DUP9 DUP9 CALL SWAP4 POP POP POP POP ISZERO DUP1 ISZERO PUSH2 0xEF5 JUMPI RETURNDATASIZE PUSH0 DUP1 RETURNDATACOPY RETURNDATASIZE PUSH0 REVERT JUMPDEST POP PUSH1 0x6 PUSH0 SWAP1 SLOAD SWAP1 PUSH2 0x100 EXP SWAP1 DIV PUSH20 0xFFFFFFFFFFFFFFFFFFFFFFFFFFFFFFFFFFFFFFFF AND PUSH20 0xFFFFFFFFFFFFFFFFFFFFFFFFFFFFFFFFFFFFFFFF AND PUSH2 0x8FC DUP5 SWAP1 DUP2 ISZERO MUL SWAP1 PUSH1 0x40 MLOAD PUSH0 PUSH1 0x40 MLOAD DUP1 DUP4 SUB DUP2 DUP6 DUP9 DUP9 CALL SWAP4 POP POP POP POP ISZERO DUP1 ISZERO PUSH2 0xF5A JUMPI RETURNDATASIZE PUSH0 DUP1 RETURNDATACOPY RETURNDATASIZE PUSH0 REVERT JUMPDEST POP PUSH1 0x7 PUSH0 SWAP1 SLOAD SWAP1 PUSH2 0x100 EXP SWAP1 DIV PUSH20 0xFFFFFFFFFFFFFFFFFFFFFFFFFFFFFFFFFFFFFFFF AND PUSH20 0xFFFFFFFFFFFFFFFFFFFFFFFFFFFFFFFFFFFFFFFF AND PUSH2 0x8FC DUP4 SWAP1 DUP2 ISZERO MUL SWAP1 PUSH1 0x40 MLOAD PUSH0 PUSH1 0x40 MLOAD DUP1 DUP4 SUB DUP2 DUP6 DUP9 DUP9 CALL SWAP4 POP POP POP POP ISZERO DUP1 ISZERO PUSH2 0xFBF JUMPI RETURNDATASIZE PUSH0 DUP1 RETURNDATACOPY RETURNDATASIZE PUSH0 REVERT JUMPDEST POP CALLER PUSH20 0xFFFFFFFFFFFFFFFFFFFFFFFFFFFFFFFFFFFFFFFF AND DUP5 PUSH1 0x2 ADD PUSH0 SWAP1 SLOAD SWAP1 PUSH2 0x100 EXP SWAP1 DIV PUSH20 0xFFFFFFFFFFFFFFFFFFFFFFFFFFFFFFFFFFFFFFFF AND PUSH20 0xFFFFFFFFFFFFFFFFFFFFFFFFFFFFFFFFFFFFFFFF AND DUP7 PUSH32 0x8562EB94748E30BB0071E932744CE902B460C683474FCB3BFD567FFA16B1AFB2 DUP8 PUSH1 0x3 ADD SLOAD PUSH1 0x40 MLOAD PUSH2 0x1045 SWAP2 SWAP1 PUSH2 0x1E59 JUMP JUMPDEST PUSH1 0x40 MLOAD DUP1 SWAP2 SUB SWAP1 LOG4 POP POP POP POP PUSH2 0x1059 PUSH2 0x16B8 JUMP JUMPDEST POP JUMP JUMPDEST PUSH0 PUSH1 0x2 PUSH0 SWAP1 SLOAD SWAP1 PUSH2 0x100 EXP SWAP1 DIV PUSH1 0xFF AND SWAP1 POP SWAP1 JUMP JUMPDEST PUSH2 0x1079 PUSH2 0x16C1 JUMP JUMPDEST PUSH2 0x1081 PUSH2 0x1669 JUMP JUMPDEST PUSH0 PUSH20 0xFFFFFFFFFFFFFFFFFFFFFFFFFFFFFFFFFFFFFFFF AND DUP3 PUSH20 0xFFFFFFFFFFFFFFFFFFFFFFFFFFFFFFFFFFFFFFFF AND EQ ISZERO DUP1 ISZERO PUSH2 0x10E9 JUMPI POP PUSH0 PUSH20 0xFFFFFFFFFFFFFFFFFFFFFFFFFFFFFFFFFFFFFFFF AND DUP2 PUSH20 0xFFFFFFFFFFFFFFFFFFFFFFFFFFFFFFFFFFFFFFFF AND EQ ISZERO JUMPDEST PUSH2 0x1128 JUMPI PUSH1 0x40 MLOAD PUSH32 0x8C379A000000000000000000000000000000000000000000000000000000000 DUP2 MSTORE PUSH1 0x4 ADD PUSH2 0x111F SWAP1 PUSH2 0x27EC JUMP JUMPDEST PUSH1 0x40 MLOAD DUP1 SWAP2 SUB SWAP1 REVERT JUMPDEST DUP2 PUSH1 0x6 PUSH0 PUSH2 0x100 EXP DUP2 SLOAD DUP2 PUSH20 0xFFFFFFFFFFFFFFFFFFFFFFFFFFFFFFFFFFFFFFFF MUL NOT AND SWAP1 DUP4 PUSH20 0xFFFFFFFFFFFFFFFFFFFFFFFFFFFFFFFFFFFFFFFF AND MUL OR SWAP1 SSTORE POP DUP1 PUSH1 0x7 PUSH0 PUSH2 0x100 EXP DUP2 SLOAD DUP2 PUSH20 0xFFFFFFFFFFFFFFFFFFFFFFFFFFFFFFFFFFFFFFFF MUL NOT AND SWAP1 DUP4 PUSH20 0xFFFFFFFFFFFFFFFFFFFFFFFFFFFFFFFFFFFFFFFF AND MUL OR SWAP1 SSTORE POP PUSH2 0x11B0 PUSH2 0x16B8 JUMP JUMPDEST POP POP JUMP JUMPDEST PUSH2 0x11BC PUSH2 0x16C1 JUMP JUMPDEST PUSH2 0x11C5 PUSH0 PUSH2 0x17F3 JUMP JUMPDEST JUMP JUMPDEST PUSH2 0x11CF PUSH2 0x16C1 JUMP JUMPDEST PUSH2 0x11D7 PUSH2 0x1669 JUMP JUMPDEST DUP2 PUSH1 0x4 DUP2 SWAP1 SSTORE POP DUP1 PUSH1 0x5 DUP2 SWAP1 SSTORE POP PUSH2 0x11ED PUSH2 0x16B8 JUMP JUMPDEST POP POP JUMP JUMPDEST PUSH1 0x9 PUSH1 0x20 MSTORE DUP1 PUSH0 MSTORE PUSH1 0x40 PUSH0 KECCAK256 PUSH0 SWAP2 POP SLOAD SWAP1 PUSH2 0x100 EXP SWAP1 DIV PUSH20 0xFFFFFFFFFFFFFFFFFFFFFFFFFFFFFFFFFFFFFFFF AND DUP2 JUMP JUMPDEST PUSH2 0x1229 PUSH2 0x16C1 JUMP JUMPDEST PUSH2 0x1231 PUSH2 0x1669 JUMP JUMPDEST PUSH2 0x1239 PUSH2 0x18B4 JUMP JUMPDEST PUSH2 0x1241 PUSH2 0x16B8 JUMP JUMPDEST JUMP JUMPDEST PUSH1 0x60 PUSH1 0x3 DUP1 SLOAD DUP1 PUSH1 0x20 MUL PUSH1 0x20 ADD PUSH1 0x40 MLOAD SWAP1 DUP2 ADD PUSH1 0x40 MSTORE DUP1 SWAP3 SWAP2 SWAP1 DUP2 DUP2 MSTORE PUSH1 0x20 ADD DUP3 DUP1 SLOAD DUP1 ISZERO PUSH2 0x128F JUMPI PUSH1 0x20 MUL DUP3 ADD SWAP2 SWAP1 PUSH0 MSTORE PUSH1 0x20 PUSH0 KECCAK256 SWAP1 JUMPDEST DUP2 SLOAD DUP2 MSTORE PUSH1 0x20 ADD SWAP1 PUSH1 0x1 ADD SWAP1 DUP1 DUP4 GT PUSH2 0x127B JUMPI JUMPDEST POP POP POP POP POP SWAP1 POP SWAP1 JUMP JUMPDEST PUSH1 0x4 SLOAD DUP2 JUMP JUMPDEST PUSH0 DUP1 PUSH0 SWAP1 SLOAD SWAP1 PUSH2 0x100 EXP SWAP1 DIV PUSH20 0xFFFFFFFFFFFFFFFFFFFFFFFFFFFFFFFFFFFFFFFF AND SWAP1 POP SWAP1 JUMP JUMPDEST PUSH1 0xA SLOAD DUP2 JUMP JUMPDEST PUSH1 0x6 PUSH0 SWAP1 SLOAD SWAP1 PUSH2 0x100 EXP SWAP1 DIV PUSH20 0xFFFFFFFFFFFFFFFFFFFFFFFFFFFFFFFFFFFFFFFF AND DUP2 JUMP JUMPDEST PUSH1 0x60 PUSH0 PUSH1 0x8 PUSH0 DUP5 DUP2 MSTORE PUSH1 0x20 ADD SWAP1 DUP2 MSTORE PUSH1 0x20 ADD PUSH0 KECCAK256 SWAP1 POP PUSH0 PUSH20 0xFFFFFFFFFFFFFFFFFFFFFFFFFFFFFFFFFFFFFFFF AND DUP2 PUSH1 0x2 ADD PUSH0 SWAP1 SLOAD SWAP1 PUSH2 0x100 EXP SWAP1 DIV PUSH20 0xFFFFFFFFFFFFFFFFFFFFFFFFFFFFFFFFFFFFFFFF AND PUSH20 0xFFFFFFFFFFFFFFFFFFFFFFFFFFFFFFFFFFFFFFFF AND SUB PUSH2 0x1398 JUMPI PUSH1 0x40 MLOAD PUSH32 0x8C379A000000000000000000000000000000000000000000000000000000000 DUP2 MSTORE PUSH1 0x4 ADD PUSH2 0x138F SWAP1 PUSH2 0x24FA JUMP JUMPDEST PUSH1 0x40 MLOAD DUP1 SWAP2 SUB SWAP1 REVERT JUMPDEST PUSH0 DUP2 PUSH1 0x1 ADD DUP1 SLOAD SWAP1 POP PUSH8 0xFFFFFFFFFFFFFFFF DUP2 GT ISZERO PUSH2 0x13BA JUMPI PUSH2 0x13B9 PUSH2 0x1AE0 JUMP JUMPDEST JUMPDEST PUSH1 0x40 MLOAD SWAP1 DUP1 DUP3 MSTORE DUP1 PUSH1 0x20 MUL PUSH1 0x20 ADD DUP3 ADD PUSH1 0x40 MSTORE DUP1 ISZERO PUSH2 0x13F3 JUMPI DUP2 PUSH1 0x20 ADD JUMPDEST PUSH2 0x13E0 PUSH2 0x19CF JUMP JUMPDEST DUP2 MSTORE PUSH1 0x20 ADD SWAP1 PUSH1 0x1 SWAP1 SUB SWAP1 DUP2 PUSH2 0x13D8 JUMPI SWAP1 POP JUMPDEST POP SWAP1 POP PUSH0 JUMPDEST DUP3 PUSH1 0x1 ADD DUP1 SLOAD SWAP1 POP DUP2 LT ISZERO PUSH2 0x1525 JUMPI PUSH0 DUP4 PUSH1 0x1 ADD DUP3 DUP2 SLOAD DUP2 LT PUSH2 0x141E JUMPI PUSH2 0x141D PUSH2 0x226B JUMP JUMPDEST JUMPDEST SWAP1 PUSH0 MSTORE PUSH1 0x20 PUSH0 KECCAK256 ADD SLOAD SWAP1 POP PUSH0 PUSH1 0x40 MLOAD DUP1 PUSH1 0x20 ADD PUSH1 0x40 MSTORE DUP1 PUSH0 DUP2 MSTORE POP SWAP1 POP DUP5 PUSH0 ADD PUSH0 SWAP1 SLOAD SWAP1 PUSH2 0x100 EXP SWAP1 DIV PUSH20 0xFFFFFFFFFFFFFFFFFFFFFFFFFFFFFFFFFFFFFFFF AND PUSH20 0xFFFFFFFFFFFFFFFFFFFFFFFFFFFFFFFFFFFFFFFF AND PUSH4 0xC87B56DD DUP4 PUSH1 0x40 MLOAD DUP3 PUSH4 0xFFFFFFFF AND PUSH1 0xE0 SHL DUP2 MSTORE PUSH1 0x4 ADD PUSH2 0x1496 SWAP2 SWAP1 PUSH2 0x1E59 JUMP JUMPDEST PUSH0 PUSH1 0x40 MLOAD DUP1 DUP4 SUB DUP2 DUP7 GAS STATICCALL SWAP3 POP POP POP DUP1 ISZERO PUSH2 0x14D3 JUMPI POP PUSH1 0x40 MLOAD RETURNDATASIZE PUSH0 DUP3 RETURNDATACOPY RETURNDATASIZE PUSH1 0x1F NOT PUSH1 0x1F DUP3 ADD AND DUP3 ADD DUP1 PUSH1 0x40 MSTORE POP DUP2 ADD SWAP1 PUSH2 0x14D0 SWAP2 SWAP1 PUSH2 0x28AC JUMP JUMPDEST PUSH1 0x1 JUMPDEST ISZERO PUSH2 0x14DD JUMPI DUP1 SWAP2 POP POP JUMPDEST PUSH1 0x40 MLOAD DUP1 PUSH1 0x40 ADD PUSH1 0x40 MSTORE DUP1 DUP4 DUP2 MSTORE PUSH1 0x20 ADD DUP3 DUP2 MSTORE POP DUP5 DUP5 DUP2 MLOAD DUP2 LT PUSH2 0x1505 JUMPI PUSH2 0x1504 PUSH2 0x226B JUMP JUMPDEST JUMPDEST PUSH1 0x20 MUL PUSH1 0x20 ADD ADD DUP2 SWAP1 MSTORE POP POP POP DUP1 DUP1 PUSH2 0x151D SWAP1 PUSH2 0x236C JUMP JUMPDEST SWAP2 POP POP PUSH2 0x13F8 JUMP JUMPDEST POP DUP1 SWAP3 POP POP POP SWAP2 SWAP1 POP JUMP JUMPDEST PUSH1 0x5 SLOAD DUP2 JUMP JUMPDEST PUSH1 0x8 PUSH1 0x20 MSTORE DUP1 PUSH0 MSTORE PUSH1 0x40 PUSH0 KECCAK256 PUSH0 SWAP2 POP SWAP1 POP DUP1 PUSH0 ADD PUSH0 SWAP1 SLOAD SWAP1 PUSH2 0x100 EXP SWAP1 DIV PUSH20 0xFFFFFFFFFFFFFFFFFFFFFFFFFFFFFFFFFFFFFFFF AND SWAP1 DUP1 PUSH1 0x2 ADD PUSH0 SWAP1 SLOAD SWAP1 PUSH2 0x100 EXP SWAP1 DIV PUSH20 0xFFFFFFFFFFFFFFFFFFFFFFFFFFFFFFFFFFFFFFFF AND SWAP1 DUP1 PUSH1 0x3 ADD SLOAD SWAP1 DUP1 PUSH1 0x4 ADD SLOAD SWAP1 POP DUP5 JUMP JUMPDEST PUSH1 0x3 DUP2 DUP2 SLOAD DUP2 LT PUSH2 0x15AF JUMPI PUSH0 DUP1 REVERT JUMPDEST SWAP1 PUSH0 MSTORE PUSH1 0x20 PUSH0 KECCAK256 ADD PUSH0 SWAP2 POP SWAP1 POP SLOAD DUP2 JUMP JUMPDEST PUSH1 0x7 PUSH0 SWAP1 SLOAD SWAP1 PUSH2 0x100 EXP SWAP1 DIV PUSH20 0xFFFFFFFFFFFFFFFFFFFFFFFFFFFFFFFFFFFFFFFF AND DUP2 JUMP JUMPDEST PUSH2 0x15ED PUSH2 0x16C1 JUMP JUMPDEST PUSH0 PUSH20 0xFFFFFFFFFFFFFFFFFFFFFFFFFFFFFFFFFFFFFFFF AND DUP2 PUSH20 0xFFFFFFFFFFFFFFFFFFFFFFFFFFFFFFFFFFFFFFFF AND SUB PUSH2 0x165D JUMPI PUSH0 PUSH1 0x40 MLOAD PUSH32 0x1E4FBDF700000000000000000000000000000000000000000000000000000000 DUP2 MSTORE PUSH1 0x4 ADD PUSH2 0x1654 SWAP2 SWAP1 PUSH2 0x1D5A JUMP JUMPDEST PUSH1 0x40 MLOAD DUP1 SWAP2 SUB SWAP1 REVERT JUMPDEST PUSH2 0x1666 DUP2 PUSH2 0x17F3 JUMP JUMPDEST POP JUMP JUMPDEST PUSH1 0x2 PUSH1 0x1 SLOAD SUB PUSH2 0x16AE JUMPI PUSH1 0x40 MLOAD PUSH32 0x8C379A000000000000000000000000000000000000000000000000000000000 DUP2 MSTORE PUSH1 0x4 ADD PUSH2 0x16A5 SWAP1 PUSH2 0x293D JUMP JUMPDEST PUSH1 0x40 MLOAD DUP1 SWAP2 SUB SWAP1 REVERT JUMPDEST PUSH1 0x2 PUSH1 0x1 DUP2 SWAP1 SSTORE POP JUMP JUMPDEST PUSH1 0x1 DUP1 DUP2 SWAP1 SSTORE POP JUMP JUMPDEST PUSH2 0x16C9 PUSH2 0x1916 JUMP JUMPDEST PUSH20 0xFFFFFFFFFFFFFFFFFFFFFFFFFFFFFFFFFFFFFFFF AND PUSH2 0x16E7 PUSH2 0x129F JUMP JUMPDEST PUSH20 0xFFFFFFFFFFFFFFFFFFFFFFFFFFFFFFFFFFFFFFFF AND EQ PUSH2 0x1746 JUMPI PUSH2 0x170A PUSH2 0x1916 JUMP JUMPDEST PUSH1 0x40 MLOAD PUSH32 0x118CDAA700000000000000000000000000000000000000000000000000000000 DUP2 MSTORE PUSH1 0x4 ADD PUSH2 0x173D SWAP2 SWAP1 PUSH2 0x1D5A JUMP JUMPDEST PUSH1 0x40 MLOAD DUP1 SWAP2 SUB SWAP1 REVERT JUMPDEST JUMP JUMPDEST PUSH2 0x1750 PUSH2 0x191D JUMP JUMPDEST PUSH0 PUSH1 0x2 PUSH0 PUSH2 0x100 EXP DUP2 SLOAD DUP2 PUSH1 0xFF MUL NOT AND SWAP1 DUP4 ISZERO ISZERO MUL OR SWAP1 SSTORE POP PUSH32 0x5DB9EE0A495BF2E6FF9C91A7834C1BA4FDD244A5E8AA4E537BD38AEAE4B073AA PUSH2 0x1792 PUSH2 0x1916 JUMP JUMPDEST PUSH1 0x40 MLOAD PUSH2 0x179F SWAP2 SWAP1 PUSH2 0x1D5A JUMP JUMPDEST PUSH1 0x40 MLOAD DUP1 SWAP2 SUB SWAP1 LOG1 JUMP JUMPDEST PUSH2 0x17B1 PUSH2 0x105C JUMP JUMPDEST ISZERO PUSH2 0x17F1 JUMPI PUSH1 0x40 MLOAD PUSH32 0x8C379A000000000000000000000000000000000000000000000000000000000 DUP2 MSTORE PUSH1 0x4 ADD PUSH2 0x17E8 SWAP1 PUSH2 0x29A5 JUMP JUMPDEST PUSH1 0x40 MLOAD DUP1 SWAP2 SUB SWAP1 REVERT JUMPDEST JUMP JUMPDEST PUSH0 DUP1 PUSH0 SWAP1 SLOAD SWAP1 PUSH2 0x100 EXP SWAP1 DIV PUSH20 0xFFFFFFFFFFFFFFFFFFFFFFFFFFFFFFFFFFFFFFFF AND SWAP1 POP DUP2 PUSH0 DUP1 PUSH2 0x100 EXP DUP2 SLOAD DUP2 PUSH20 0xFFFFFFFFFFFFFFFFFFFFFFFFFFFFFFFFFFFFFFFF MUL NOT AND SWAP1 DUP4 PUSH20 0xFFFFFFFFFFFFFFFFFFFFFFFFFFFFFFFFFFFFFFFF AND MUL OR SWAP1 SSTORE POP DUP2 PUSH20 0xFFFFFFFFFFFFFFFFFFFFFFFFFFFFFFFFFFFFFFFF AND DUP2 PUSH20 0xFFFFFFFFFFFFFFFFFFFFFFFFFFFFFFFFFFFFFFFF AND PUSH32 0x8BE0079C531659141344CD1FD0A4F28419497F9722A3DAAFE3B4186F6B6457E0 PUSH1 0x40 MLOAD PUSH1 0x40 MLOAD DUP1 SWAP2 SUB SWAP1 LOG3 POP POP JUMP JUMPDEST PUSH2 0x18BC PUSH2 0x17A9 JUMP JUMPDEST PUSH1 0x1 PUSH1 0x2 PUSH0 PUSH2 0x100 EXP DUP2 SLOAD DUP2 PUSH1 0xFF MUL NOT AND SWAP1 DUP4 ISZERO ISZERO MUL OR SWAP1 SSTORE POP PUSH32 0x62E78CEA01BEE320CD4E420270B5EA74000D11B0C9F74754EBDBFC544B05A258 PUSH2 0x18FF PUSH2 0x1916 JUMP JUMPDEST PUSH1 0x40 MLOAD PUSH2 0x190C SWAP2 SWAP1 PUSH2 0x1D5A JUMP JUMPDEST PUSH1 0x40 MLOAD DUP1 SWAP2 SUB SWAP1 LOG1 JUMP JUMPDEST PUSH0 CALLER SWAP1 POP SWAP1 JUMP JUMPDEST PUSH2 0x1925 PUSH2 0x105C JUMP JUMPDEST PUSH2 0x1964 JUMPI PUSH1 0x40 MLOAD PUSH32 0x8C379A000000000000000000000000000000000000000000000000000000000 DUP2 MSTORE PUSH1 0x4 ADD PUSH2 0x195B SWAP1 PUSH2 0x2A0D JUMP JUMPDEST PUSH1 0x40 MLOAD DUP1 SWAP2 SUB SWAP1 REVERT JUMPDEST JUMP JUMPDEST POP DUP1 SLOAD PUSH0 DUP3 SSTORE SWAP1 PUSH0 MSTORE PUSH1 0x20 PUSH0 KECCAK256 SWAP1 DUP2 ADD SWAP1 PUSH2 0x1981 SWAP2 SWAP1 PUSH2 0x19E8 JUMP JUMPDEST POP JUMP JUMPDEST DUP3 DUP1 SLOAD DUP3 DUP3 SSTORE SWAP1 PUSH0 MSTORE PUSH1 0x20 PUSH0 KECCAK256 SWAP1 DUP2 ADD SWAP3 DUP3 ISZERO PUSH2 0x19BE JUMPI SWAP2 PUSH1 0x20 MUL DUP3 ADD JUMPDEST DUP3 DUP2 GT ISZERO PUSH2 0x19BD JUMPI DUP3 MLOAD DUP3 SSTORE SWAP2 PUSH1 0x20 ADD SWAP2 SWAP1 PUSH1 0x1 ADD SWAP1 PUSH2 0x19A2 JUMP JUMPDEST JUMPDEST POP SWAP1 POP PUSH2 0x19CB SWAP2 SWAP1 PUSH2 0x19E8 JUMP JUMPDEST POP SWAP1 JUMP JUMPDEST PUSH1 0x40 MLOAD DUP1 PUSH1 0x40 ADD PUSH1 0x40 MSTORE DUP1 PUSH0 DUP2 MSTORE PUSH1 0x20 ADD PUSH1 0x60 DUP2 MSTORE POP SWAP1 JUMP JUMPDEST JUMPDEST DUP1 DUP3 GT ISZERO PUSH2 0x19FF JUMPI PUSH0 DUP2 PUSH0 SWAP1 SSTORE POP PUSH1 0x1 ADD PUSH2 0x19E9 JUMP JUMPDEST POP SWAP1 JUMP JUMPDEST PUSH0 PUSH1 0x40 MLOAD SWAP1 POP SWAP1 JUMP JUMPDEST PUSH0 DUP1 REVERT JUMPDEST PUSH0 DUP1 REVERT JUMPDEST PUSH0 DUP2 SWAP1 POP SWAP2 SWAP1 POP JUMP JUMPDEST PUSH2 0x1A26 DUP2 PUSH2 0x1A14 JUMP JUMPDEST DUP2 EQ PUSH2 0x1A30 JUMPI PUSH0 DUP1 REVERT JUMPDEST POP JUMP JUMPDEST PUSH0 DUP2 CALLDATALOAD SWAP1 POP PUSH2 0x1A41 DUP2 PUSH2 0x1A1D JUMP JUMPDEST SWAP3 SWAP2 POP POP JUMP JUMPDEST PUSH0 PUSH1 0x20 DUP3 DUP5 SUB SLT ISZERO PUSH2 0x1A5C JUMPI PUSH2 0x1A5B PUSH2 0x1A0C JUMP JUMPDEST JUMPDEST PUSH0 PUSH2 0x1A69 DUP5 DUP3 DUP6 ADD PUSH2 0x1A33 JUMP JUMPDEST SWAP2 POP POP SWAP3 SWAP2 POP POP JUMP JUMPDEST PUSH0 PUSH20 0xFFFFFFFFFFFFFFFFFFFFFFFFFFFFFFFFFFFFFFFF DUP3 AND SWAP1 POP SWAP2 SWAP1 POP JUMP JUMPDEST PUSH0 PUSH2 0x1A9B DUP3 PUSH2 0x1A72 JUMP JUMPDEST SWAP1 POP SWAP2 SWAP1 POP JUMP JUMPDEST PUSH2 0x1AAB DUP2 PUSH2 0x1A91 JUMP JUMPDEST DUP2 EQ PUSH2 0x1AB5 JUMPI PUSH0 DUP1 REVERT JUMPDEST POP JUMP JUMPDEST PUSH0 DUP2 CALLDATALOAD SWAP1 POP PUSH2 0x1AC6 DUP2 PUSH2 0x1AA2 JUMP JUMPDEST SWAP3 SWAP2 POP POP JUMP JUMPDEST PUSH0 DUP1 REVERT JUMPDEST PUSH0 PUSH1 0x1F NOT PUSH1 0x1F DUP4 ADD AND SWAP1 POP SWAP2 SWAP1 POP JUMP JUMPDEST PUSH32 0x4E487B7100000000000000000000000000000000000000000000000000000000 PUSH0 MSTORE PUSH1 0x41 PUSH1 0x4 MSTORE PUSH1 0x24 PUSH0 REVERT JUMPDEST PUSH2 0x1B16 DUP3 PUSH2 0x1AD0 JUMP JUMPDEST DUP2 ADD DUP2 DUP2 LT PUSH8 0xFFFFFFFFFFFFFFFF DUP3 GT OR ISZERO PUSH2 0x1B35 JUMPI PUSH2 0x1B34 PUSH2 0x1AE0 JUMP JUMPDEST JUMPDEST DUP1 PUSH1 0x40 MSTORE POP POP POP JUMP JUMPDEST PUSH0 PUSH2 0x1B47 PUSH2 0x1A03 JUMP JUMPDEST SWAP1 POP PUSH2 0x1B53 DUP3 DUP3 PUSH2 0x1B0D JUMP JUMPDEST SWAP2 SWAP1 POP JUMP JUMPDEST PUSH0 PUSH8 0xFFFFFFFFFFFFFFFF DUP3 GT ISZERO PUSH2 0x1B72 JUMPI PUSH2 0x1B71 PUSH2 0x1AE0 JUMP JUMPDEST JUMPDEST PUSH1 0x20 DUP3 MUL SWAP1 POP PUSH1 0x20 DUP2 ADD SWAP1 POP SWAP2 SWAP1 POP JUMP JUMPDEST PUSH0 DUP1 REVERT JUMPDEST PUSH0 PUSH2 0x1B99 PUSH2 0x1B94 DUP5 PUSH2 0x1B58 JUMP JUMPDEST PUSH2 0x1B3E JUMP JUMPDEST SWAP1 POP DUP1 DUP4 DUP3 MSTORE PUSH1 0x20 DUP3 ADD SWAP1 POP PUSH1 0x20 DUP5 MUL DUP4 ADD DUP6 DUP2 GT ISZERO PUSH2 0x1BBC JUMPI PUSH2 0x1BBB PUSH2 0x1B83 JUMP JUMPDEST JUMPDEST DUP4 JUMPDEST DUP2 DUP2 LT ISZERO PUSH2 0x1BE5 JUMPI DUP1 PUSH2 0x1BD1 DUP9 DUP3 PUSH2 0x1A33 JUMP JUMPDEST DUP5 MSTORE PUSH1 0x20 DUP5 ADD SWAP4 POP POP PUSH1 0x20 DUP2 ADD SWAP1 POP PUSH2 0x1BBE JUMP JUMPDEST POP POP POP SWAP4 SWAP3 POP POP POP JUMP JUMPDEST PUSH0 DUP3 PUSH1 0x1F DUP4 ADD SLT PUSH2 0x1C03 JUMPI PUSH2 0x1C02 PUSH2 0x1ACC JUMP JUMPDEST JUMPDEST DUP2 CALLDATALOAD PUSH2 0x1C13 DUP5 DUP3 PUSH1 0x20 DUP7 ADD PUSH2 0x1B87 JUMP JUMPDEST SWAP2 POP POP SWAP3 SWAP2 POP POP JUMP JUMPDEST PUSH0 DUP1 PUSH0 DUP1 PUSH1 0x80 DUP6 DUP8 SUB SLT ISZERO PUSH2 0x1C34 JUMPI PUSH2 0x1C33 PUSH2 0x1A0C JUMP JUMPDEST JUMPDEST PUSH0 PUSH2 0x1C41 DUP8 DUP3 DUP9 ADD PUSH2 0x1AB8 JUMP JUMPDEST SWAP5 POP POP PUSH1 0x20 DUP6 ADD CALLDATALOAD PUSH8 0xFFFFFFFFFFFFFFFF DUP2 GT ISZERO PUSH2 0x1C62 JUMPI PUSH2 0x1C61 PUSH2 0x1A10 JUMP JUMPDEST JUMPDEST PUSH2 0x1C6E DUP8 DUP3 DUP9 ADD PUSH2 0x1BEF JUMP JUMPDEST SWAP4 POP POP PUSH1 0x40 PUSH2 0x1C7F DUP8 DUP3 DUP9 ADD PUSH2 0x1A33 JUMP JUMPDEST SWAP3 POP POP PUSH1 0x60 PUSH2 0x1C90 DUP8 DUP3 DUP9 ADD PUSH2 0x1A33 JUMP JUMPDEST SWAP2 POP POP SWAP3 SWAP6 SWAP2 SWAP5 POP SWAP3 POP JUMP JUMPDEST PUSH0 DUP2 ISZERO ISZERO SWAP1 POP SWAP2 SWAP1 POP JUMP JUMPDEST PUSH2 0x1CB0 DUP2 PUSH2 0x1C9C JUMP JUMPDEST DUP3 MSTORE POP POP JUMP JUMPDEST PUSH0 PUSH1 0x20 DUP3 ADD SWAP1 POP PUSH2 0x1CC9 PUSH0 DUP4 ADD DUP5 PUSH2 0x1CA7 JUMP JUMPDEST SWAP3 SWAP2 POP POP JUMP JUMPDEST PUSH0 DUP1 PUSH1 0x40 DUP4 DUP6 SUB SLT ISZERO PUSH2 0x1CE5 JUMPI PUSH2 0x1CE4 PUSH2 0x1A0C JUMP JUMPDEST JUMPDEST PUSH0 PUSH2 0x1CF2 DUP6 DUP3 DUP7 ADD PUSH2 0x1AB8 JUMP JUMPDEST SWAP3 POP POP PUSH1 0x20 PUSH2 0x1D03 DUP6 DUP3 DUP7 ADD PUSH2 0x1AB8 JUMP JUMPDEST SWAP2 POP POP SWAP3 POP SWAP3 SWAP1 POP JUMP JUMPDEST PUSH0 DUP1 PUSH1 0x40 DUP4 DUP6 SUB SLT ISZERO PUSH2 0x1D23 JUMPI PUSH2 0x1D22 PUSH2 0x1A0C JUMP JUMPDEST JUMPDEST PUSH0 PUSH2 0x1D30 DUP6 DUP3 DUP7 ADD PUSH2 0x1A33 JUMP JUMPDEST SWAP3 POP POP PUSH1 0x20 PUSH2 0x1D41 DUP6 DUP3 DUP7 ADD PUSH2 0x1A33 JUMP JUMPDEST SWAP2 POP POP SWAP3 POP SWAP3 SWAP1 POP JUMP JUMPDEST PUSH2 0x1D54 DUP2 PUSH2 0x1A91 JUMP JUMPDEST DUP3 MSTORE POP POP JUMP JUMPDEST PUSH0 PUSH1 0x20 DUP3 ADD SWAP1 POP PUSH2 0x1D6D PUSH0 DUP4 ADD DUP5 PUSH2 0x1D4B JUMP JUMPDEST SWAP3 SWAP2 POP POP JUMP JUMPDEST PUSH0 DUP2 MLOAD SWAP1 POP SWAP2 SWAP1 POP JUMP JUMPDEST PUSH0 DUP3 DUP3 MSTORE PUSH1 0x20 DUP3 ADD SWAP1 POP SWAP3 SWAP2 POP POP JUMP JUMPDEST PUSH0 DUP2 SWAP1 POP PUSH1 0x20 DUP3 ADD SWAP1 POP SWAP2 SWAP1 POP JUMP JUMPDEST PUSH2 0x1DA5 DUP2 PUSH2 0x1A14 JUMP JUMPDEST DUP3 MSTORE POP POP JUMP JUMPDEST PUSH0 PUSH2 0x1DB6 DUP4 DUP4 PUSH2 0x1D9C JUMP JUMPDEST PUSH1 0x20 DUP4 ADD SWAP1 POP SWAP3 SWAP2 POP POP JUMP JUMPDEST PUSH0 PUSH1 0x20 DUP3 ADD SWAP1 POP SWAP2 SWAP1 POP JUMP JUMPDEST PUSH0 PUSH2 0x1DD8 DUP3 PUSH2 0x1D73 JUMP JUMPDEST PUSH2 0x1DE2 DUP2 DUP6 PUSH2 0x1D7D JUMP JUMPDEST SWAP4 POP PUSH2 0x1DED DUP4 PUSH2 0x1D8D JUMP JUMPDEST DUP1 PUSH0 JUMPDEST DUP4 DUP2 LT ISZERO PUSH2 0x1E1D JUMPI DUP2 MLOAD PUSH2 0x1E04 DUP9 DUP3 PUSH2 0x1DAB JUMP JUMPDEST SWAP8 POP PUSH2 0x1E0F DUP4 PUSH2 0x1DC2 JUMP JUMPDEST SWAP3 POP POP PUSH1 0x1 DUP2 ADD SWAP1 POP PUSH2 0x1DF0 JUMP JUMPDEST POP DUP6 SWAP4 POP POP POP POP SWAP3 SWAP2 POP POP JUMP JUMPDEST PUSH0 PUSH1 0x20 DUP3 ADD SWAP1 POP DUP2 DUP2 SUB PUSH0 DUP4 ADD MSTORE PUSH2 0x1E42 DUP2 DUP5 PUSH2 0x1DCE JUMP JUMPDEST SWAP1 POP SWAP3 SWAP2 POP POP JUMP JUMPDEST PUSH2 0x1E53 DUP2 PUSH2 0x1A14 JUMP JUMPDEST DUP3 MSTORE POP POP JUMP JUMPDEST PUSH0 PUSH1 0x20 DUP3 ADD SWAP1 POP PUSH2 0x1E6C PUSH0 DUP4 ADD DUP5 PUSH2 0x1E4A JUMP JUMPDEST SWAP3 SWAP2 POP POP JUMP JUMPDEST PUSH0 DUP2 MLOAD SWAP1 POP SWAP2 SWAP1 POP JUMP JUMPDEST PUSH0 DUP3 DUP3 MSTORE PUSH1 0x20 DUP3 ADD SWAP1 POP SWAP3 SWAP2 POP POP JUMP JUMPDEST PUSH0 DUP2 SWAP1 POP PUSH1 0x20 DUP3 ADD SWAP1 POP SWAP2 SWAP1 POP JUMP JUMPDEST PUSH0 DUP2 MLOAD SWAP1 POP SWAP2 SWAP1 POP JUMP JUMPDEST PUSH0 DUP3 DUP3 MSTORE PUSH1 0x20 DUP3 ADD SWAP1 POP SWAP3 SWAP2 POP POP JUMP JUMPDEST PUSH0 JUMPDEST DUP4 DUP2 LT ISZERO PUSH2 0x1ED2 JUMPI DUP1 DUP3 ADD MLOAD DUP2 DUP5 ADD MSTORE PUSH1 0x20 DUP2 ADD SWAP1 POP PUSH2 0x1EB7 JUMP JUMPDEST PUSH0 DUP5 DUP5 ADD MSTORE POP POP POP POP JUMP JUMPDEST PUSH0 PUSH2 0x1EE7 DUP3 PUSH2 0x1E9B JUMP JUMPDEST PUSH2 0x1EF1 DUP2 DUP6 PUSH2 0x1EA5 JUMP JUMPDEST SWAP4 POP PUSH2 0x1F01 DUP2 DUP6 PUSH1 0x20 DUP7 ADD PUSH2 0x1EB5 JUMP JUMPDEST PUSH2 0x1F0A DUP2 PUSH2 0x1AD0 JUMP JUMPDEST DUP5 ADD SWAP2 POP POP SWAP3 SWAP2 POP POP JUMP JUMPDEST PUSH0 PUSH1 0x40 DUP4 ADD PUSH0 DUP4 ADD MLOAD PUSH2 0x1F2A PUSH0 DUP7 ADD DUP3 PUSH2 0x1D9C JUMP JUMPDEST POP PUSH1 0x20 DUP4 ADD MLOAD DUP5 DUP3 SUB PUSH1 0x20 DUP7 ADD MSTORE PUSH2 0x1F42 DUP3 DUP3 PUSH2 0x1EDD JUMP JUMPDEST SWAP2 POP POP DUP1 SWAP2 POP POP SWAP3 SWAP2 POP POP JUMP JUMPDEST PUSH0 PUSH2 0x1F5A DUP4 DUP4 PUSH2 0x1F15 JUMP JUMPDEST SWAP1 POP SWAP3 SWAP2 POP POP JUMP JUMPDEST PUSH0 PUSH1 0x20 DUP3 ADD SWAP1 POP SWAP2 SWAP1 POP JUMP JUMPDEST PUSH0 PUSH2 0x1F78 DUP3 PUSH2 0x1E72 JUMP JUMPDEST PUSH2 0x1F82 DUP2 DUP6 PUSH2 0x1E7C JUMP JUMPDEST SWAP4 POP DUP4 PUSH1 0x20 DUP3 MUL DUP6 ADD PUSH2 0x1F94 DUP6 PUSH2 0x1E8C JUMP JUMPDEST DUP1 PUSH0 JUMPDEST DUP6 DUP2 LT ISZERO PUSH2 0x1FCF JUMPI DUP5 DUP5 SUB DUP10 MSTORE DUP2 MLOAD PUSH2 0x1FB0 DUP6 DUP3 PUSH2 0x1F4F JUMP JUMPDEST SWAP5 POP PUSH2 0x1FBB DUP4 PUSH2 0x1F62 JUMP JUMPDEST SWAP3 POP PUSH1 0x20 DUP11 ADD SWAP10 POP POP PUSH1 0x1 DUP2 ADD SWAP1 POP PUSH2 0x1F97 JUMP JUMPDEST POP DUP3 SWAP8 POP DUP8 SWAP6 POP POP POP POP POP POP SWAP3 SWAP2 POP POP JUMP JUMPDEST PUSH0 PUSH1 0x20 DUP3 ADD SWAP1 POP DUP2 DUP2 SUB PUSH0 DUP4 ADD MSTORE PUSH2 0x1FF9 DUP2 DUP5 PUSH2 0x1F6E JUMP JUMPDEST SWAP1 POP SWAP3 SWAP2 POP POP JUMP JUMPDEST PUSH0 PUSH1 0x80 DUP3 ADD SWAP1 POP PUSH2 0x2014 PUSH0 DUP4 ADD DUP8 PUSH2 0x1D4B JUMP JUMPDEST PUSH2 0x2021 PUSH1 0x20 DUP4 ADD DUP7 PUSH2 0x1D4B JUMP JUMPDEST PUSH2 0x202E PUSH1 0x40 DUP4 ADD DUP6 PUSH2 0x1E4A JUMP JUMPDEST PUSH2 0x203B PUSH1 0x60 DUP4 ADD DUP5 PUSH2 0x1E4A JUMP JUMPDEST SWAP6 SWAP5 POP POP POP POP POP JUMP JUMPDEST PUSH0 PUSH1 0x20 DUP3 DUP5 SUB SLT ISZERO PUSH2 0x2059 JUMPI PUSH2 0x2058 PUSH2 0x1A0C JUMP JUMPDEST JUMPDEST PUSH0 PUSH2 0x2066 DUP5 DUP3 DUP6 ADD PUSH2 0x1AB8 JUMP JUMPDEST SWAP2 POP POP SWAP3 SWAP2 POP POP JUMP JUMPDEST PUSH0 DUP3 DUP3 MSTORE PUSH1 0x20 DUP3 ADD SWAP1 POP SWAP3 SWAP2 POP POP JUMP JUMPDEST PUSH32 0x4F6E6C7920746865206C697374696E67206F776E65722063616E2063616E6365 PUSH0 DUP3 ADD MSTORE PUSH32 0x6C2069742E000000000000000000000000000000000000000000000000000000 PUSH1 0x20 DUP3 ADD MSTORE POP JUMP JUMPDEST PUSH0 PUSH2 0x20D9 PUSH1 0x25 DUP4 PUSH2 0x206F JUMP JUMPDEST SWAP2 POP PUSH2 0x20E4 DUP3 PUSH2 0x207F JUMP JUMPDEST PUSH1 0x40 DUP3 ADD SWAP1 POP SWAP2 SWAP1 POP JUMP JUMPDEST PUSH0 PUSH1 0x20 DUP3 ADD SWAP1 POP DUP2 DUP2 SUB PUSH0 DUP4 ADD MSTORE PUSH2 0x2106 DUP2 PUSH2 0x20CD JUMP JUMPDEST SWAP1 POP SWAP2 SWAP1 POP JUMP JUMPDEST PUSH32 0x5072696365206D7573742062652067726561746572207468616E207A65726F2E PUSH0 DUP3 ADD MSTORE POP JUMP JUMPDEST PUSH0 PUSH2 0x2141 PUSH1 0x20 DUP4 PUSH2 0x206F JUMP JUMPDEST SWAP2 POP PUSH2 0x214C DUP3 PUSH2 0x210D JUMP JUMPDEST PUSH1 0x20 DUP3 ADD SWAP1 POP SWAP2 SWAP1 POP JUMP JUMPDEST PUSH0 PUSH1 0x20 DUP3 ADD SWAP1 POP DUP2 DUP2 SUB PUSH0 DUP4 ADD MSTORE PUSH2 0x216E DUP2 PUSH2 0x2135 JUMP JUMPDEST SWAP1 POP SWAP2 SWAP1 POP JUMP JUMPDEST PUSH32 0x446561646C696E65206D7573742062652067726561746572207468616E207A65 PUSH0 DUP3 ADD MSTORE PUSH32 0x726F2E0000000000000000000000000000000000000000000000000000000000 PUSH1 0x20 DUP3 ADD MSTORE POP JUMP JUMPDEST PUSH0 PUSH2 0x21CF PUSH1 0x23 DUP4 PUSH2 0x206F JUMP JUMPDEST SWAP2 POP PUSH2 0x21DA DUP3 PUSH2 0x2175 JUMP JUMPDEST PUSH1 0x40 DUP3 ADD SWAP1 POP SWAP2 SWAP1 POP JUMP JUMPDEST PUSH0 PUSH1 0x20 DUP3 ADD SWAP1 POP DUP2 DUP2 SUB PUSH0 DUP4 ADD MSTORE PUSH2 0x21FC DUP2 PUSH2 0x21C3 JUMP JUMPDEST SWAP1 POP SWAP2 SWAP1 POP JUMP JUMPDEST PUSH32 0x4D757374206C697374206174206C65617374206F6E65204E46542E0000000000 PUSH0 DUP3 ADD MSTORE POP JUMP JUMPDEST PUSH0 PUSH2 0x2237 PUSH1 0x1B DUP4 PUSH2 0x206F JUMP JUMPDEST SWAP2 POP PUSH2 0x2242 DUP3 PUSH2 0x2203 JUMP JUMPDEST PUSH1 0x20 DUP3 ADD SWAP1 POP SWAP2 SWAP1 POP JUMP JUMPDEST PUSH0 PUSH1 0x20 DUP3 ADD SWAP1 POP DUP2 DUP2 SUB PUSH0 DUP4 ADD MSTORE PUSH2 0x2264 DUP2 PUSH2 0x222B JUMP JUMPDEST SWAP1 POP SWAP2 SWAP1 POP JUMP JUMPDEST PUSH32 0x4E487B7100000000000000000000000000000000000000000000000000000000 PUSH0 MSTORE PUSH1 0x32 PUSH1 0x4 MSTORE PUSH1 0x24 PUSH0 REVERT JUMPDEST PUSH0 DUP2 MLOAD SWAP1 POP PUSH2 0x22A6 DUP2 PUSH2 0x1AA2 JUMP JUMPDEST SWAP3 SWAP2 POP POP JUMP JUMPDEST PUSH0 PUSH1 0x20 DUP3 DUP5 SUB SLT ISZERO PUSH2 0x22C1 JUMPI PUSH2 0x22C0 PUSH2 0x1A0C JUMP JUMPDEST JUMPDEST PUSH0 PUSH2 0x22CE DUP5 DUP3 DUP6 ADD PUSH2 0x2298 JUMP JUMPDEST SWAP2 POP POP SWAP3 SWAP2 POP POP JUMP JUMPDEST PUSH32 0x596F75206D757374206F776E20746865204E465420746F206C6973742069742E PUSH0 DUP3 ADD MSTORE POP JUMP JUMPDEST PUSH0 PUSH2 0x230B PUSH1 0x20 DUP4 PUSH2 0x206F JUMP JUMPDEST SWAP2 POP PUSH2 0x2316 DUP3 PUSH2 0x22D7 JUMP JUMPDEST PUSH1 0x20 DUP3 ADD SWAP1 POP SWAP2 SWAP1 POP JUMP JUMPDEST PUSH0 PUSH1 0x20 DUP3 ADD SWAP1 POP DUP2 DUP2 SUB PUSH0 DUP4 ADD MSTORE PUSH2 0x2338 DUP2 PUSH2 0x22FF JUMP JUMPDEST SWAP1 POP SWAP2 SWAP1 POP JUMP JUMPDEST PUSH32 0x4E487B7100000000000000000000000000000000000000000000000000000000 PUSH0 MSTORE PUSH1 0x11 PUSH1 0x4 MSTORE PUSH1 0x24 PUSH0 REVERT JUMPDEST PUSH0 PUSH2 0x2376 DUP3 PUSH2 0x1A14 JUMP JUMPDEST SWAP2 POP PUSH32 0xFFFFFFFFFFFFFFFFFFFFFFFFFFFFFFFFFFFFFFFFFFFFFFFFFFFFFFFFFFFFFFFF DUP3 SUB PUSH2 0x23A8 JUMPI PUSH2 0x23A7 PUSH2 0x233F JUMP JUMPDEST JUMPDEST PUSH1 0x1 DUP3 ADD SWAP1 POP SWAP2 SWAP1 POP JUMP JUMPDEST PUSH0 PUSH2 0x23BD DUP3 PUSH2 0x1A14 JUMP JUMPDEST SWAP2 POP PUSH2 0x23C8 DUP4 PUSH2 0x1A14 JUMP JUMPDEST SWAP3 POP DUP3 DUP3 ADD SWAP1 POP DUP1 DUP3 GT ISZERO PUSH2 0x23E0 JUMPI PUSH2 0x23DF PUSH2 0x233F JUMP JUMPDEST JUMPDEST SWAP3 SWAP2 POP POP JUMP JUMPDEST PUSH0 PUSH1 0x60 DUP3 ADD SWAP1 POP DUP2 DUP2 SUB PUSH0 DUP4 ADD MSTORE PUSH2 0x23FE DUP2 DUP7 PUSH2 0x1DCE JUMP JUMPDEST SWAP1 POP PUSH2 0x240D PUSH1 0x20 DUP4 ADD DUP6 PUSH2 0x1E4A JUMP JUMPDEST PUSH2 0x241A PUSH1 0x40 DUP4 ADD DUP5 PUSH2 0x1E4A JUMP JUMPDEST SWAP5 SWAP4 POP POP POP POP JUMP JUMPDEST PUSH32 0x53656E742076616C7565206D7573742062652067726561746572207468616E20 PUSH0 DUP3 ADD MSTORE PUSH32 0x7A65726F2E000000000000000000000000000000000000000000000000000000 PUSH1 0x20 DUP3 ADD MSTORE POP JUMP JUMPDEST PUSH0 PUSH2 0x247C PUSH1 0x25 DUP4 PUSH2 0x206F JUMP JUMPDEST SWAP2 POP PUSH2 0x2487 DUP3 PUSH2 0x2422 JUMP JUMPDEST PUSH1 0x40 DUP3 ADD SWAP1 POP SWAP2 SWAP1 POP JUMP JUMPDEST PUSH0 PUSH1 0x20 DUP3 ADD SWAP1 POP DUP2 DUP2 SUB PUSH0 DUP4 ADD MSTORE PUSH2 0x24A9 DUP2 PUSH2 0x2470 JUMP JUMPDEST SWAP1 POP SWAP2 SWAP1 POP JUMP JUMPDEST PUSH32 0x4C697374696E6720646F6573206E6F742065786973742E000000000000000000 PUSH0 DUP3 ADD MSTORE POP JUMP JUMPDEST PUSH0 PUSH2 0x24E4 PUSH1 0x17 DUP4 PUSH2 0x206F JUMP JUMPDEST SWAP2 POP PUSH2 0x24EF DUP3 PUSH2 0x24B0 JUMP JUMPDEST PUSH1 0x20 DUP3 ADD SWAP1 POP SWAP2 SWAP1 POP JUMP JUMPDEST PUSH0 PUSH1 0x20 DUP3 ADD SWAP1 POP DUP2 DUP2 SUB PUSH0 DUP4 ADD MSTORE PUSH2 0x2511 DUP2 PUSH2 0x24D8 JUMP JUMPDEST SWAP1 POP SWAP2 SWAP1 POP JUMP JUMPDEST PUSH32 0x54686973206C697374696E672068617320657870697265642E00000000000000 PUSH0 DUP3 ADD MSTORE POP JUMP JUMPDEST PUSH0 PUSH2 0x254C PUSH1 0x19 DUP4 PUSH2 0x206F JUMP JUMPDEST SWAP2 POP PUSH2 0x2557 DUP3 PUSH2 0x2518 JUMP JUMPDEST PUSH1 0x20 DUP3 ADD SWAP1 POP SWAP2 SWAP1 POP JUMP JUMPDEST PUSH0 PUSH1 0x20 DUP3 ADD SWAP1 POP DUP2 DUP2 SUB PUSH0 DUP4 ADD MSTORE PUSH2 0x2579 DUP2 PUSH2 0x2540 JUMP JUMPDEST SWAP1 POP SWAP2 SWAP1 POP JUMP JUMPDEST PUSH32 0x53656E742076616C7565206D75737420626520657175616C20746F2074686520 PUSH0 DUP3 ADD MSTORE PUSH32 0x6C697374696E672070726963652E000000000000000000000000000000000000 PUSH1 0x20 DUP3 ADD MSTORE POP JUMP JUMPDEST PUSH0 PUSH2 0x25DA PUSH1 0x2E DUP4 PUSH2 0x206F JUMP JUMPDEST SWAP2 POP PUSH2 0x25E5 DUP3 PUSH2 0x2580 JUMP JUMPDEST PUSH1 0x40 DUP3 ADD SWAP1 POP SWAP2 SWAP1 POP JUMP JUMPDEST PUSH0 PUSH1 0x20 DUP3 ADD SWAP1 POP DUP2 DUP2 SUB PUSH0 DUP4 ADD MSTORE PUSH2 0x2607 DUP2 PUSH2 0x25CE JUMP JUMPDEST SWAP1 POP SWAP2 SWAP1 POP JUMP JUMPDEST PUSH0 PUSH2 0x2618 DUP3 PUSH2 0x1A14 JUMP JUMPDEST SWAP2 POP PUSH2 0x2623 DUP4 PUSH2 0x1A14 JUMP JUMPDEST SWAP3 POP DUP3 DUP3 MUL PUSH2 0x2631 DUP2 PUSH2 0x1A14 JUMP JUMPDEST SWAP2 POP DUP3 DUP3 DIV DUP5 EQ DUP4 ISZERO OR PUSH2 0x2648 JUMPI PUSH2 0x2647 PUSH2 0x233F JUMP JUMPDEST JUMPDEST POP SWAP3 SWAP2 POP POP JUMP JUMPDEST PUSH32 0x4E487B7100000000000000000000000000000000000000000000000000000000 PUSH0 MSTORE PUSH1 0x12 PUSH1 0x4 MSTORE PUSH1 0x24 PUSH0 REVERT JUMPDEST PUSH0 PUSH2 0x2686 DUP3 PUSH2 0x1A14 JUMP JUMPDEST SWAP2 POP PUSH2 0x2691 DUP4 PUSH2 0x1A14 JUMP JUMPDEST SWAP3 POP DUP3 PUSH2 0x26A1 JUMPI PUSH2 0x26A0 PUSH2 0x264F JUMP JUMPDEST JUMPDEST DUP3 DUP3 DIV SWAP1 POP SWAP3 SWAP2 POP POP JUMP JUMPDEST PUSH0 PUSH2 0x26B6 DUP3 PUSH2 0x1A14 JUMP JUMPDEST SWAP2 POP PUSH2 0x26C1 DUP4 PUSH2 0x1A14 JUMP JUMPDEST SWAP3 POP DUP3 DUP3 SUB SWAP1 POP DUP2 DUP2 GT ISZERO PUSH2 0x26D9 JUMPI PUSH2 0x26D8 PUSH2 0x233F JUMP JUMPDEST JUMPDEST SWAP3 SWAP2 POP POP JUMP JUMPDEST PUSH32 0x53656C6C6572206E6F206C6F6E676572206F776E73206F6E65206F6620746865 PUSH0 DUP3 ADD MSTORE PUSH32 0x204E4654732E0000000000000000000000000000000000000000000000000000 PUSH1 0x20 DUP3 ADD MSTORE POP JUMP JUMPDEST PUSH0 PUSH2 0x2739 PUSH1 0x26 DUP4 PUSH2 0x206F JUMP JUMPDEST SWAP2 POP PUSH2 0x2744 DUP3 PUSH2 0x26DF JUMP JUMPDEST PUSH1 0x40 DUP3 ADD SWAP1 POP SWAP2 SWAP1 POP JUMP JUMPDEST PUSH0 PUSH1 0x20 DUP3 ADD SWAP1 POP DUP2 DUP2 SUB PUSH0 DUP4 ADD MSTORE PUSH2 0x2766 DUP2 PUSH2 0x272D JUMP JUMPDEST SWAP1 POP SWAP2 SWAP1 POP JUMP JUMPDEST PUSH0 PUSH1 0x60 DUP3 ADD SWAP1 POP PUSH2 0x2780 PUSH0 DUP4 ADD DUP7 PUSH2 0x1D4B JUMP JUMPDEST PUSH2 0x278D PUSH1 0x20 DUP4 ADD DUP6 PUSH2 0x1D4B JUMP JUMPDEST PUSH2 0x279A PUSH1 0x40 DUP4 ADD DUP5 PUSH2 0x1E4A JUMP JUMPDEST SWAP5 SWAP4 POP POP POP POP JUMP JUMPDEST PUSH32 0x4164647265737365732063616E6E6F74206265207A65726F0000000000000000 PUSH0 DUP3 ADD MSTORE POP JUMP JUMPDEST PUSH0 PUSH2 0x27D6 PUSH1 0x18 DUP4 PUSH2 0x206F JUMP JUMPDEST SWAP2 POP PUSH2 0x27E1 DUP3 PUSH2 0x27A2 JUMP JUMPDEST PUSH1 0x20 DUP3 ADD SWAP1 POP SWAP2 SWAP1 POP JUMP JUMPDEST PUSH0 PUSH1 0x20 DUP3 ADD SWAP1 POP DUP2 DUP2 SUB PUSH0 DUP4 ADD MSTORE PUSH2 0x2803 DUP2 PUSH2 0x27CA JUMP JUMPDEST SWAP1 POP SWAP2 SWAP1 POP JUMP JUMPDEST PUSH0 DUP1 REVERT JUMPDEST PUSH0 PUSH8 0xFFFFFFFFFFFFFFFF DUP3 GT ISZERO PUSH2 0x2828 JUMPI PUSH2 0x2827 PUSH2 0x1AE0 JUMP JUMPDEST JUMPDEST PUSH2 0x2831 DUP3 PUSH2 0x1AD0 JUMP JUMPDEST SWAP1 POP PUSH1 0x20 DUP2 ADD SWAP1 POP SWAP2 SWAP1 POP JUMP JUMPDEST PUSH0 PUSH2 0x2850 PUSH2 0x284B DUP5 PUSH2 0x280E JUMP JUMPDEST PUSH2 0x1B3E JUMP JUMPDEST SWAP1 POP DUP3 DUP2 MSTORE PUSH1 0x20 DUP2 ADD DUP5 DUP5 DUP5 ADD GT ISZERO PUSH2 0x286C JUMPI PUSH2 0x286B PUSH2 0x280A JUMP JUMPDEST JUMPDEST PUSH2 0x2877 DUP5 DUP3 DUP6 PUSH2 0x1EB5 JUMP JUMPDEST POP SWAP4 SWAP3 POP POP POP JUMP JUMPDEST PUSH0 DUP3 PUSH1 0x1F DUP4 ADD SLT PUSH2 0x2893 JUMPI PUSH2 0x2892 PUSH2 0x1ACC JUMP JUMPDEST JUMPDEST DUP2 MLOAD PUSH2 0x28A3 DUP5 DUP3 PUSH1 0x20 DUP7 ADD PUSH2 0x283E JUMP JUMPDEST SWAP2 POP POP SWAP3 SWAP2 POP POP JUMP JUMPDEST PUSH0 PUSH1 0x20 DUP3 DUP5 SUB SLT ISZERO PUSH2 0x28C1 JUMPI PUSH2 0x28C0 PUSH2 0x1A0C JUMP JUMPDEST JUMPDEST PUSH0 DUP3 ADD MLOAD PUSH8 0xFFFFFFFFFFFFFFFF DUP2 GT ISZERO PUSH2 0x28DE JUMPI PUSH2 0x28DD PUSH2 0x1A10 JUMP JUMPDEST JUMPDEST PUSH2 0x28EA DUP5 DUP3 DUP6 ADD PUSH2 0x287F JUMP JUMPDEST SWAP2 POP POP SWAP3 SWAP2 POP POP JUMP JUMPDEST PUSH32 0x5265656E7472616E637947756172643A207265656E7472616E742063616C6C00 PUSH0 DUP3 ADD MSTORE POP JUMP JUMPDEST PUSH0 PUSH2 0x2927 PUSH1 0x1F DUP4 PUSH2 0x206F JUMP JUMPDEST SWAP2 POP PUSH2 0x2932 DUP3 PUSH2 0x28F3 JUMP JUMPDEST PUSH1 0x20 DUP3 ADD SWAP1 POP SWAP2 SWAP1 POP JUMP JUMPDEST PUSH0 PUSH1 0x20 DUP3 ADD SWAP1 POP DUP2 DUP2 SUB PUSH0 DUP4 ADD MSTORE PUSH2 0x2954 DUP2 PUSH2 0x291B JUMP JUMPDEST SWAP1 POP SWAP2 SWAP1 POP JUMP JUMPDEST PUSH32 0x5061757361626C653A2070617573656400000000000000000000000000000000 PUSH0 DUP3 ADD MSTORE POP JUMP JUMPDEST PUSH0 PUSH2 0x298F PUSH1 0x10 DUP4 PUSH2 0x206F JUMP JUMPDEST SWAP2 POP PUSH2 0x299A DUP3 PUSH2 0x295B JUMP JUMPDEST PUSH1 0x20 DUP3 ADD SWAP1 POP SWAP2 SWAP1 POP JUMP JUMPDEST PUSH0 PUSH1 0x20 DUP3 ADD SWAP1 POP DUP2 DUP2 SUB PUSH0 DUP4 ADD MSTORE PUSH2 0x29BC DUP2 PUSH2 0x2983 JUMP JUMPDEST SWAP1 POP SWAP2 SWAP1 POP JUMP JUMPDEST PUSH32 0x5061757361626C653A206E6F7420706175736564000000000000000000000000 PUSH0 DUP3 ADD MSTORE POP JUMP JUMPDEST PUSH0 PUSH2 0x29F7 PUSH1 0x14 DUP4 PUSH2 0x206F JUMP JUMPDEST SWAP2 POP PUSH2 0x2A02 DUP3 PUSH2 0x29C3 JUMP JUMPDEST PUSH1 0x20 DUP3 ADD SWAP1 POP SWAP2 SWAP1 POP JUMP JUMPDEST PUSH0 PUSH1 0x20 DUP3 ADD SWAP1 POP DUP2 DUP2 SUB PUSH0 DUP4 ADD MSTORE PUSH2 0x2A24 DUP2 PUSH2 0x29EB JUMP JUMPDEST SWAP1 POP SWAP2 SWAP1 POP JUMP INVALID LOG2 PUSH5 0x6970667358 0x22 SLT KECCAK256 0x5E GT 0x4C CALLDATASIZE 0xEF 0xCF PREVRANDAO PUSH30 0x74C7C695B67FAD902A50C8CD181667976A7CA57DC66B3E8F64736F6C6343 STOP ADDMOD ISZERO STOP CALLER "
				},
				"gasEstimates": {
					"creation": {
						"codeDepositCost": "2169800",
						"executionCost": "infinite",
						"totalCost": "infinite"
					},
					"external": {
						"activeListingIds(uint256)": "infinite",
						"buyNFT(uint256)": "infinite",
						"cancelListing(uint256)": "infinite",
						"getAllListingIds()": "infinite",
						"getListingInfo(uint256)": "infinite",
						"listNFT(address,uint256[],uint256,uint256)": "infinite",
						"listingOwners(uint256)": "2916",
						"listings(uint256)": "infinite",
						"nextListingId()": "2514",
						"owner()": "2582",
						"pause()": "infinite",
						"paused()": "2585",
						"platformFeeAddress()": "2618",
						"platformFeePercentage()": "2469",
						"renounceOwnership()": "infinite",
						"royaltyAddress()": "2619",
						"royaltyPercentage()": "2470",
						"transferOwnership(address)": "infinite",
						"unpause()": "infinite",
						"updateFeeAddresses(address,address)": "infinite",
						"updateFeePercentages(uint256,uint256)": "infinite"
					}
				},
				"methodIdentifiers": {
					"activeListingIds(uint256)": "e3b6a1f6",
					"buyNFT(uint256)": "51ed8288",
					"cancelListing(uint256)": "305a67a8",
					"getAllListingIds()": "85dd3008",
					"getListingInfo(uint256)": "b9314135",
					"listNFT(address,uint256[],uint256,uint256)": "4e313796",
					"listingOwners(uint256)": "7bdaceef",
					"listings(uint256)": "de74e57b",
					"nextListingId()": "aaccf1ec",
					"owner()": "8da5cb5b",
					"pause()": "8456cb59",
					"paused()": "5c975abb",
					"platformFeeAddress()": "ed14834f",
					"platformFeePercentage()": "cdd78cfc",
					"renounceOwnership()": "715018a6",
					"royaltyAddress()": "ad2f852a",
					"royaltyPercentage()": "8a71bb2d",
					"transferOwnership(address)": "f2fde38b",
					"unpause()": "3f4ba83a",
					"updateFeeAddresses(address,address)": "5e4e8d65",
					"updateFeePercentages(uint256,uint256)": "78578bb3"
				}
			},
			"storageLayout": {
				"storage": [
					{
						"astId": 8,
						"contract": "gota.sol:GotasNFTMarketplace",
						"label": "_owner",
						"offset": 0,
						"slot": "0",
						"type": "t_address"
					},
					{
						"astId": 266,
						"contract": "gota.sol:GotasNFTMarketplace",
						"label": "_status",
						"offset": 0,
						"slot": "1",
						"type": "t_uint256"
					},
					{
						"astId": 165,
						"contract": "gota.sol:GotasNFTMarketplace",
						"label": "_paused",
						"offset": 0,
						"slot": "2",
						"type": "t_bool"
					},
					{
						"astId": 534,
						"contract": "gota.sol:GotasNFTMarketplace",
						"label": "activeListingIds",
						"offset": 0,
						"slot": "3",
						"type": "t_array(t_uint256)dyn_storage"
					},
					{
						"astId": 536,
						"contract": "gota.sol:GotasNFTMarketplace",
						"label": "royaltyPercentage",
						"offset": 0,
						"slot": "4",
						"type": "t_uint256"
					},
					{
						"astId": 538,
						"contract": "gota.sol:GotasNFTMarketplace",
						"label": "platformFeePercentage",
						"offset": 0,
						"slot": "5",
						"type": "t_uint256"
					},
					{
						"astId": 540,
						"contract": "gota.sol:GotasNFTMarketplace",
						"label": "royaltyAddress",
						"offset": 0,
						"slot": "6",
						"type": "t_address"
					},
					{
						"astId": 542,
						"contract": "gota.sol:GotasNFTMarketplace",
						"label": "platformFeeAddress",
						"offset": 0,
						"slot": "7",
						"type": "t_address"
					},
					{
						"astId": 547,
						"contract": "gota.sol:GotasNFTMarketplace",
						"label": "listings",
						"offset": 0,
						"slot": "8",
						"type": "t_mapping(t_uint256,t_struct(Listing)526_storage)"
					},
					{
						"astId": 551,
						"contract": "gota.sol:GotasNFTMarketplace",
						"label": "listingOwners",
						"offset": 0,
						"slot": "9",
						"type": "t_mapping(t_uint256,t_address)"
					},
					{
						"astId": 554,
						"contract": "gota.sol:GotasNFTMarketplace",
						"label": "nextListingId",
						"offset": 0,
						"slot": "10",
						"type": "t_uint256"
					}
				],
				"types": {
					"t_address": {
						"encoding": "inplace",
						"label": "address",
						"numberOfBytes": "20"
					},
					"t_array(t_uint256)dyn_storage": {
						"base": "t_uint256",
						"encoding": "dynamic_array",
						"label": "uint256[]",
						"numberOfBytes": "32"
					},
					"t_bool": {
						"encoding": "inplace",
						"label": "bool",
						"numberOfBytes": "1"
					},
					"t_mapping(t_uint256,t_address)": {
						"encoding": "mapping",
						"key": "t_uint256",
						"label": "mapping(uint256 => address)",
						"numberOfBytes": "32",
						"value": "t_address"
					},
					"t_mapping(t_uint256,t_struct(Listing)526_storage)": {
						"encoding": "mapping",
						"key": "t_uint256",
						"label": "mapping(uint256 => struct GotasNFTMarketplace.Listing)",
						"numberOfBytes": "32",
						"value": "t_struct(Listing)526_storage"
					},
					"t_struct(Listing)526_storage": {
						"encoding": "inplace",
						"label": "struct GotasNFTMarketplace.Listing",
						"members": [
							{
								"astId": 516,
								"contract": "gota.sol:GotasNFTMarketplace",
								"label": "nftContractAddress",
								"offset": 0,
								"slot": "0",
								"type": "t_address"
							},
							{
								"astId": 519,
								"contract": "gota.sol:GotasNFTMarketplace",
								"label": "nftIds",
								"offset": 0,
								"slot": "1",
								"type": "t_array(t_uint256)dyn_storage"
							},
							{
								"astId": 521,
								"contract": "gota.sol:GotasNFTMarketplace",
								"label": "seller",
								"offset": 0,
								"slot": "2",
								"type": "t_address"
							},
							{
								"astId": 523,
								"contract": "gota.sol:GotasNFTMarketplace",
								"label": "price",
								"offset": 0,
								"slot": "3",
								"type": "t_uint256"
							},
							{
								"astId": 525,
								"contract": "gota.sol:GotasNFTMarketplace",
								"label": "deadline",
								"offset": 0,
								"slot": "4",
								"type": "t_uint256"
							}
						],
						"numberOfBytes": "160"
					},
					"t_uint256": {
						"encoding": "inplace",
						"label": "uint256",
						"numberOfBytes": "32"
					}
				}
			},
			"userdoc": {
				"kind": "user",
				"methods": {},
				"version": 1
			}
		}
	}
}